:020000040000FA
:040000005DEF00F0C0
:10000800852A852A852A852A852A852A852A3E1CC5
:10001800852A852A852A852A852A852A852A852A60
:10002800852A2E002E002E00852A852A852A852AD3
:10003800852A852A852A872A862A852A852A142AAE
:100048000A25852A852A852A852A852A852A852AB0
:10005800852A852A852A2E00852A852A852A852AA1
:10006800852A852A852A852A852A852A852A2E0091
:10007800852A852A852A852A2E00852A852A852A81
:10008800852A852A852A852A2E00852A2E00852AF2
:10009800852A852A852A852A852A852A852A852AE0
:1000A800852A2E002E00852A852A852A852A852AD2
:1000B800FF00F1EF4FF06100F4F6D9F46100F8F6B3
:1000C800DAF4DEC4F6F4DDC4F7F40800F550250AC6
:1000D800D8A471EF00F073EF00F02CEF1DF0610071
:1000E800F4F6D9F46100F8F6DAF4DE2A000EDD221F
:1000F800000E316E000E306E30C532F531C533F565
:100108006100F4F6D9F46100F8F6DAF4DEC4F6F426
:10011800DDC4F7F40800F5502A0AD8A496EF00F0D9
:1001280098EF00F0A5EF00F06100F4F6D9F4610053
:10013800F8F6DAF4DE2A000EDD22000E336E010E28
:10014800326E6100F4F6D9F46100F8F6DAF4610071
:1001580078F321F5610074F322F580EC3EF021C5B7
:1001680030F522C531F5C2EF00F06100F4F6D9F49C
:100178006100F8F6DAF4DE2A000EDD22D00E050161
:10018800C16FFF0EC26F6100F4F6D9F46100F8F692
:10019800DAF4DEC4F6F4DDC4F7F40800F550C36FF2
:1001A800C46BC151C327C251C423C4510AE10A0E0A
:1001B800C35DD8A0E2EF00F0E5EF00F0010EE6EF36
:1001C80000F0000ECD6FCE6BCD51CE11D8A4EFEF5D
:1001D80000F0F1EF00F0B9EF00F06100F4F6D9F4A7
:1001E8006100F8F6DAF4DEC4F6F4DDC4F7F40800CA
:1001F800F550206E216AFCEC50F020500501D36FB9
:10020800D351D8B40AEF01F00CEF01F052EF01F02E
:100218006100F4F6D9F46100F8F6DAF4610078F3D5
:10022800C1F5610074F3C2F5010EC127000EC223A7
:10023800610004F7F6F4610008F7F7F40800F550D8
:10024800206E216AFCEC50F020500501D46FD45187
:10025800D8B431EF01F033EF01F052EF01F0610053
:10026800F4F6D9F46100F8F6DAF4610078F3C1F530
:10027800610074F3C2F5020EC127000EC2236100AB
:1002880004F7F6F4610008F7F7F40800F550206E5B
:10029800216AFCEC50F020500501D56F6100F4F69E
:1002A800D9F46100F8F6DAF4DEC4F6F4DDC4F7F444
:1002B8000800F550630AD8A464EF01F066EF01F076
:1002C800B8EF01F06100F4F6D9F46100F8F6DAF459
:1002D800DE2A000EDD2232503310D8A476EF01F06A
:1002E80078EF01F0A4EF01F06100FCF6D9F46100A9
:1002F80000F7DAF461007CF3C1F5020EDE26610036
:100308007CF3C2F5000EDD22610004F7D9F4610028
:1003180008F7DAF4610078F3EAF5610074F3EBF5B5
:10032800BBC525F5BCC526F5EAC527F5EBC528F5F7
:10033800ABEC45F025C5ECF526C5EDF5B2EF01F0BF
:10034800BBC525F5BCC526F5000E276E000E286E28
:10035800ABEC45F025C5ECF526C5EDF5ECC5BBF5D0
:10036800EDC5BCF56DEF1DF06100F4F6D9F4610040
:10037800F8F6DAF4610078F31AF5610074F31BF506
:10038800830E1C6EFF0E1D6E000E1F6E030E1E6E7A
:100398000FEC47F01A501B10D8B4D5EF01F0D7EF87
:1003A80001F0F6EF01F06100F4F6D9F46100F8F617
:1003B800DAF4610078F31AF5610074F31BF58B0E1B
:1003C8001C6EFF0E1D6E000E1F6E030E1E6E0FECD0
:1003D80047F01A501B10D8A4F4EF01F0F6EF01F023
:1003E8005BEF02F0030E6100F4F6D9F46100F8F651
:1003F800DAF4DE26000EDD22BBC5A5F5BCC5A6F5E0
:10040800DA0E0501A76F050EA86F57EC3CF0A5C5DD
:10041800ECF5A6C5EDF532503310D8A416EF02F06E
:1004280018EF02F0B2EF01F00501EDBF24EF02F082
:10043800ED5108E1EC05D8A024EF02F026EF02F018
:10044800B2EF01F06100FCF6D9F4610000F7DAF4CC
:1004580061007CF3C1F5020EDE2661007CF3C2F573
:10046800000EDD22610004F7D9F4610008F7DAF420
:10047800610078F3EAF5610074F3EBF56100A8F721
:10048800F6F46100ACF7F7F4000EF86E150EF76499
:1004980005D0610068F7F5F40C0007D0F6C4E9F45C
:1004A800F7C4EAF4610068F7EFF4B2EF01F0610015
:1004B800F4F6D9F46100F8F6DAF4610078F31AF585
:1004C800610074F31BF5840E1C6EFF0E1D6E000E8A
:1004D8001F6E020E1E6E0FEC47F01A501B10D8B498
:1004E80078EF02F07AEF02F099EF02F06100F4F68B
:1004F800D9F46100F8F6DAF4610078F31AF56100CE
:1005080074F31BF58C0E1C6EFF0E1D6E000E1F6E15
:10051800020E1E6E0FEC47F01A501B10D8A497EF6E
:1005280002F099EF02F005EF03F0020E6100F4F615
:10053800D9F46100F8F6DAF4DE26000EDD22BBC538
:10054800A5F5BCC5A6F5DA0E0501A76F050EA86FBF
:1005580057EC3CF0A5C5ECF5A6C5EDF532503310C7
:10056800D8A4B9EF02F0BBEF02F0B2EF01F0050139
:10057800EDBFC7EF02F0ED5108E1EC05D8A0C7EFD9
:1005880002F0C9EF02F0B2EF01F06100FCF6D9F415
:10059800610000F7DAF461007CF3C1F5020EDE2693
:1005A80061007CF3C2F5000EDD22610004F7D9F486
:1005B800610008F7DAF4610078F3EAF5610074F392
:1005C800EBF56100A8F7F6F46100ACF7F7F4000E5C
:1005D800F86E150EF76409D0610068F7F5F40D00A0
:1005E80061006CF7F5F40C000AD0F6C4E9F4F7C41E
:1005F800EAF4610068F7EEF461006CF7EFF4B2EF2B
:1006080001F06100F4F6D9F46100F8F6DAF4DEC41A
:10061800F6F4DDC4F7F40800F550640AD8B417EF0F
:1006280003F019EF03F02DEF03F06100F4F6D9F4AD
:100638006100F8F6DAF4DEC4F6F4DDC4F7F4080075
:10064800F550690AD8A42BEF03F02DEF03F098EFCB
:1006580003F06100F4F6D9F46100F8F6DAF4DE2A62
:10066800000EDD22BBC5A5F5BCC5A6F5DA0E050151
:10067800A76F050EA86F57EC3CF0A5C5ECF5A6C50D
:10068800EDF532503310D8A44CEF03F04EEF03F0E1
:10069800B2EF01F00501EDBF5AEF03F0ED5108E1AB
:1006A800EC05D8A05AEF03F05CEF03F0B2EF01F0CD
:1006B8006100FCF6D9F4610000F7DAF461007CF31C
:1006C800C1F5020EDE2661007CF3C2F5000EDD22C4
:1006D800610004F7D9F4610008F7DAF4610078F3EF
:1006E800EAF5610074F3EBF56100A8F7F6F4610030
:1006F800ACF7F7F4000EF86E150EF76409D0610038
:1007080068F7F5F40D0061006CF7F5F40C000AD0F9
:10071800F6C4E9F4F7C4EAF4610068F7EEF461009E
:100728006CF7EFF4B2EF01F06100F4F6D9F4610070
:10073800F8F6DAF4610078F31AF5610074F31BF542
:10074800880E1C6EFF0E1D6E000E1F6E020E1E6EB2
:100758000FEC47F01A501B10D8B4B5EF03F0B7EF01
:1007680003F0D6EF03F06100F4F6D9F46100F8F66F
:10077800DAF4610078F31AF5610074F31BF5900E52
:100788001C6EFF0E1D6E000E1F6E020E1E6E0FEC0D
:1007980047F01A501B10D8A4D4EF03F0D6EF03F09B
:1007A80050EF04F0020E6100F4F6D9F46100F8F697
:1007B800DAF4DE26000EDD22BBC5A5F5BCC5A6F51C
:1007C800DA0E0501A76F050EA86F57EC3CF0A5C51A
:1007D800ECF5A6C5EDF532503310D8A4F6EF03F0CA
:1007E800F8EF03F0B2EF01F00501EDBF04EF04F0FC
:1007F800ED5108E1EC05D8A004EF04F006EF04F091
:10080800B2EF01F06100FCF6D9F4610000F7DAF408
:1008180061007CF3C1F5020EDE2661007CF3C2F5AF
:10082800000EDD22610004F7D9F4610008F7DAF45C
:10083800610078F3EAF5610074F3EBF56100A8F75D
:10084800F6F46100ACF7F7F4000EF86E150EF764D5
:1008580011D0610068F7F5F40D0061006CF7F5F44C
:100868000D00610070F7F5F40D00610074F7F5F400
:100878000C0010D0F6C4E9F4F7C4EAF4610068F794
:10088800EEF461006CF7EEF4610070F7EEF46100CD
:1008980074F7EFF4B2EF01F06100F4F6D9F46100F7
:1008A800F8F6DAF4610078F31AF5610074F31BF5D1
:1008B800870E1C6EFF0E1D6E000E1F6E030E1E6E41
:1008C8000FEC47F01A501B10D8B46DEF04F06FEF1F
:1008D80004F08EEF04F06100F4F6D9F46100F8F644
:1008E800DAF4610078F31AF5610074F31BF58F0EE2
:1008F8001C6EFF0E1D6E000E1F6E030E1E6E0FEC9B
:1009080047F01A501B10D8A48CEF04F08EEF04F0B7
:1009180024EF05F0030E6100F4F6D9F46100F8F64F
:10092800DAF4DE26000EDD22BBC5A5F5BCC5A6F5AA
:10093800DA0E0501A76F050EA86F57EC3CF0A5C5A8
:10094800ECF5A6C5EDF532503310D8A4AEEF04F09F
:10095800B0EF04F0B2EF01F00501EDBFBCEF04F019
:10096800ED5108E1EC05D8A0BCEF04F0BEEF04F0AF
:10097800B2EF01F06100FCF6D9F4610000F7DAF497
:1009880061007CF3C1F5020EDE2661007CF3C2F53E
:10099800000EDD22610004F7D9F4610008F7DAF4EB
:1009A800610078F3EAF5610074F3EBF56100A8F7EC
:1009B800F6F46100ACF7F7F4000EF86E150EF76464
:1009C80021D0610068F7F5F40D0061006CF7F5F4CB
:1009D8000D00610070F7F5F40D00610074F7F5F48F
:1009E8000D00610078F7F5F40D0061007CF7F5F46F
:1009F8000D00610080F7F5F40D00610084F7F5F44F
:100A08000C001CD0F6C4E9F4F7C4EAF4610068F7F6
:100A1800EEF461006CF7EEF4610070F7EEF461003B
:100A280074F7EEF4610078F7EEF461007CF7EEF409
:100A3800610080F7EEF4610084F7EFF4B2EF01F0A3
:100A48006100F4F6D9F46100F8F6DAF4610078F39D
:100A58001AF5610074F31BF5BF0E1C6EFF0E1D6EB8
:100A6800000E1F6E020E1E6E0FEC47F01A501B1080
:100A7800D8B441EF05F043EF05F062EF05F06100EF
:100A8800F4F6D9F46100F8F6DAF4610078F31AF5AF
:100A9800610074F31BF5D10E1C6EFF0E1D6E000E67
:100AA8001F6E020E1E6E0FEC47F01A501B10D8A4D2
:100AB80060EF05F062EF05F0F8EF05F0020E610057
:100AC800F4F6D9F46100F8F6DAF4DE26000EDD2239
:100AD800BBC5A5F5BCC5A6F5DA0E0501A76F050EC1
:100AE800A86F57EC3CF0A5C5ECF5A6C5EDF532505E
:100AF8003310D8A482EF05F084EF05F0B2EF01F0CF
:100B08000501EDBF90EF05F0ED5108E1EC05D8A027
:100B180090EF05F092EF05F0B2EF01F06100FCF6FE
:100B2800D9F4610000F7DAF461007CF3C1F5020E34
:100B3800DE2661007CF3C2F5000EDD22610004F7B9
:100B4800D9F4610008F7DAF4610078F3EAF5610096
:100B580074F3EBF56100A8F7F6F46100ACF7F7F46D
:100B6800000EF86E150EF76421D0610068F7F5F4F1
:100B78000D0061006CF7F5F40D00610070F7F5F4F5
:100B88000D00610074F7F5F40D00610078F7F5F4D5
:100B98000D0061007CF7F5F40D00610080F7F5F4B5
:100BA8000D00610084F7F5F40C001CD0F6C4E9F4DC
:100BB800F7C4EAF4610068F7EEF461006CF7EEF44C
:100BC800610070F7EEF4610074F7EEF4610078F7F5
:100BD800EEF461007CF7EEF4610080F7EEF461005A
:100BE80084F7EFF4B2EF01F06100F4F6D9F4610094
:100BF800F8F6DAF4610078F31AF5610074F31BF57E
:100C0800C20E1C6EFF0E1D6E000E1F6E020E1E6EB3
:100C18000FEC47F01A501B10D8B415EF06F017EF79
:100C280006F036EF06F06100F4F6D9F46100F8F644
:100C3800DAF4610078F31AF5610074F31BF5D40E49
:100C48001C6EFF0E1D6E000E1F6E020E1E6E0FEC48
:100C580047F01A501B10D8A434EF06F036EF06F010
:100C6800B0EF06F0020E6100F4F6D9F46100F8F670
:100C7800DAF4DE26000EDD22BBC5A5F5BCC5A6F557
:100C8800DA0E0501A76F050EA86F57EC3CF0A5C555
:100C9800ECF5A6C5EDF532503310D8A456EF06F0A2
:100CA80058EF06F0B2EF01F00501EDBF64EF06F072
:100CB800ED5108E1EC05D8A064EF06F066EF06F008
:100CC800B2EF01F06100FCF6D9F4610000F7DAF444
:100CD80061007CF3C1F5020EDE2661007CF3C2F5EB
:100CE800000EDD22610004F7D9F4610008F7DAF498
:100CF800610078F3EAF5610074F3EBF56100A8F799
:100D0800F6F46100ACF7F7F4000EF86E150EF76410
:100D180011D0610068F7F5F40D0061006CF7F5F487
:100D28000D00610070F7F5F40D00610074F7F5F43B
:100D38000C0010D0F6C4E9F4F7C4EAF4610068F7CF
:100D4800EEF461006CF7EEF4610070F7EEF4610008
:100D580074F7EFF4B2EF01F06100F4F6D9F4610032
:100D6800F8F6DAF4610078F31AF5610074F31BF50C
:100D7800C50E1C6EFF0E1D6E000E1F6E020E1E6E3F
:100D88000FEC47F01A501B10D8B4CDEF06F0CFEF98
:100D980006F0EEEF06F06100F4F6D9F46100F8F61B
:100DA800DAF4610078F31AF5610074F31BF5D70ED5
:100DB8001C6EFF0E1D6E000E1F6E020E1E6E0FECD7
:100DC80047F01A501B10D8A4ECEF06F0EEEF06F02F
:100DD8005AEF07F0020E6100F4F6D9F46100F8F654
:100DE800DAF4DE26000EDD22BBC5A5F5BCC5A6F5E6
:100DF800DA0E0501A76F050EA86F57EC3CF0A5C5E4
:100E0800ECF5A6C5EDF532503310D8A40EEF07F077
:100E180010EF07F0B2EF01F00501EDBF1CEF07F08E
:100E2800ED5108E1EC05D8A01CEF07F01EEF07F024
:100E3800B2EF01F06100FCF6D9F4610000F7DAF4D2
:100E480061007CF3C1F5020EDE2661007CF3C2F579
:100E5800000EDD22610004F7D9F4610008F7DAF426
:100E6800610078F3EAF5610074F3EBF56100A8F727
:100E7800F6F46100ACF7F7F4000EF86E150EF7649F
:100E880009D0610068F7F5F40D0061006CF7F5F41E
:100E98000C000AD0F6C4E9F4F7C4EAF4610068F774
:100EA800EEF461006CF7EFF4B2EF01F0610E0501AA
:100EB800D319D8B462EF07F064EF07F07FEF07F0BB
:100EC800650ED319D8B46BEF07F06DEF07F07FEF1D
:100ED80007F0660ED319D8B474EF07F076EF07F071
:100EE8007FEF07F0670ED319D8A47DEF07F07FEFE7
:100EF80007F0F7EF07F06100F4F6D9F46100F8F6AF
:100F0800DAF4DE2A000EDD22BBC58FF5BCC590F5EC
:100F1800D60E916F050E926FE7EC39F08FC5ECF5A0
:100F280090C5EDF532503310D8A49DEF07F09FEF30
:100F380007F0B2EF01F00501EDBFABEF07F0ED519F
:100F480008E1EC05D8A0ABEF07F0ADEF07F0B2EF82
:100F580001F06100FCF6D9F4610000F7DAF46100F1
:100F68007CF3C1F5020EDE2661007CF3C2F5000EAB
:100F7800DD22610004F7D9F4610008F7DAF46100B2
:100F880078F3EAF5610074F3EBF56100A8F7F6F47D
:100F98006100ACF7F7F4000EF86E150EF76411D087
:100FA800610058F7F5F40D0061005CF7F5F40D00E9
:100FB800610060F7F5F40D00610064F7F5F40C00CA
:100FC80010D0F6C4E9F4F7C4EAF4610058F7EEF477
:100FD80061005CF7EEF4610060F7EEF4610064F71D
:100FE800EFF4B2EF01F0D30E1A6E050E1B6EBC0EB5
:100FF8001C6EFF0E1D6E000E1F6E020E1E6E0FEC95
:1010080047F01A501B10D8B40CEF08F00EEF08F098
:1010180053EF08F0D30E1A6E050E1B6EC80E1C6E29
:10102800FF0E1D6E000E1F6E020E1E6E0FEC47F0B7
:101038001A501B10D8B423EF08F025EF08F053EF2F
:1010480008F0D30E1A6E050E1B6ECB0E1C6EFF0E2B
:101058001D6E000E1F6E020E1E6E0FEC47F01A502A
:101068001B10D8B43AEF08F03CEF08F053EF08F043
:10107800D30E1A6E050E1B6ECE0E1C6EFF0E1D6E65
:10108800000E1F6E020E1E6E0FEC47F01A501B105A
:10109800D8A451EF08F053EF08F045EF09F0BBC5AD
:1010A8008FF5BCC590F5D60E0501916F050E926FB0
:1010B800E7EC39F08FC5ECF590C5EDF532503310FB
:1010C800D8A469EF08F06BEF08F039EF09F00501D3
:1010D800EDBF77EF08F0ED5108E1EC05D8A077EF08
:1010E80008F079EF08F039EF09F0BF0EC16FFF0E75
:1010F800C26F6100F4F6D9F46100F8F6DAF4DEC4E0
:10110800F6F4DDC4F7F40800F550C36FC46BC151A1
:10111800C327C251C423C4510AE11A0EC35DD8A023
:1011280098EF08F09BEF08F0010E9CEF08F0000E16
:10113800CF6FD06BCF51D011D8B4A5EF08F0A7EF7F
:1011480008F0F1EF08F06100FCF6D9F4610000F74F
:10115800DAF461007CF3C1F5020EDE2661007CF34F
:10116800C2F5000EDD22610004F7D9F4610008F72A
:10117800DAF4610078F3EAF5610074F3EBF56100E5
:10118800A8F7F6F46100ACF7F7F4000EF86E150E48
:10119800F76411D0610058F7F5F40D0061005CF7B1
:1011A800F5F40D00610060F7F5F40D00610064F7D7
:1011B800F5F40C0010D0F6C4E9F4F7C4EAF46100C1
:1011C80058F7EEF461005CF7EEF4610060F7EEF4B6
:1011D800610064F7EFF439EF09F06100FCF6D9F427
:1011E800610000F7DAF461007CF3C1F5020EDE2637
:1011F80061007CF3C2F5000EDD22610004F7D9F42A
:10120800610008F7DAF4610078F3EAF5610074F335
:10121800EBF56100A8F7F6F46100ACF7F7F4000EFF
:10122800F86E150EF76411D0610058F7F5F40D004B
:1012380061005CF7F5F40D00610060F7F5F40D004E
:10124800610064F7F5F40C0010D0F6C4E9F4F7C4B3
:10125800EAF4610058F7EEF461005CF7EEF461001F
:1012680060F7EEF4610064F7EFF4020E6100F4F643
:10127800D9F46100F8F6DAF4DE26000EDD22B2EFCA
:1012880001F06100F4F6D9F46100F8F6DAF46100CF
:1012980078F31AF5610074F31BF59B0E1C6EFF0EB4
:1012A8001D6E000E1F6E030E1E6E0FEC47F01A50D7
:1012B8001B10D8A462EF09F064EF09F0C9EF09F038
:1012C800030E6100F4F6D9F46100F8F6DAF4DE26CC
:1012D800000EDD22BBC5A5F5BCC5A6F5E20E0501CD
:1012E800A76F050EA86F95EC40F0A5C5ECF5A6C54F
:1012F800EDF532503310D8A484EF09F086EF09F0E9
:10130800B2EF01F00501EDBF92EF09F0ED5108E1F0
:10131800EC05D8A092EF09F094EF09F0B2EF01F0D4
:101328006100FCF6D9F4610000F7DAF461007CF39F
:10133800C1F5020EDE2661007CF3C2F5000EDD2247
:10134800610004F7D9F4610008F7DAF4610078F372
:10135800EAF5610074F3EBF56100A8F7F6F46100B3
:10136800ACF7F7F4000EF86E150EF76405D06100BF
:1013780088F7F5F40C0007D0F6C4E9F4F7C4EAF4EA
:10138800610088F7EFF4B2EF01F06100F4F6D9F4E8
:101398006100F8F6DAF4610078F31AF5610074F385
:1013A8001BF59C0E1C6EFF0E1D6E000E1F6E020EAE
:1013B8001E6E0FEC47F01A501B10D8A4E6EF09F088
:1013C800E8EF09F054EF0AF0020E6100F4F6D9F4E0
:1013D8006100F8F6DAF4DE26000EDD22BBC5A5F5BD
:1013E800BCC5A6F5E20E0501A76F050EA86F95EC22
:1013F80040F0A5C5ECF5A6C5EDF532503310D8A4DC
:1014080008EF0AF00AEF0AF0B2EF01F00501EDBFAC
:1014180016EF0AF0ED5108E1EC05D8A016EF0AF036
:1014280018EF0AF0B2EF01F06100FCF6D9F46100A0
:1014380000F7DAF461007CF3C1F5020EDE266100E4
:101448007CF3C2F5000EDD22610004F7D9F46100D7
:1014580008F7DAF4610078F3EAF5610074F3EBF564
:101468006100A8F7F6F46100ACF7F7F4000EF86E27
:10147800150EF76409D0610088F7F5F40D006100D6
:101488008CF7F5F40C000AD0F6C4E9F4F7C4EAF4D2
:10149800610088F7EEF461008CF7EFF4B2EF01F029
:1014A8006100F4F6D9F46100F8F6DAF4DEC4F6F473
:1014B800DDC4F7F40800F5506F0AD8A466EF0AF007
:1014C80068EF0AF0D3EF0AF06100F4F6D9F461008E
:1014D800F8F6DAF4DE2A000EDD22BBC5A5F5BCC598
:1014E800A6F5E20E0501A76F050EA86F95EC40F072
:1014F800A5C5ECF5A6C5EDF532503310D8A487EF95
:101508000AF089EF0AF0B2EF01F00501EDBF95EF9F
:101518000AF0ED5108E1EC05D8A095EF0AF097EF35
:101528000AF0B2EF01F06100FCF6D9F4610000F7AF
:10153800DAF461007CF3C1F5020EDE2661007CF36B
:10154800C2F5000EDD22610004F7D9F4610008F746
:10155800DAF4610078F3EAF5610074F3EBF5610001
:10156800A8F7F6F46100ACF7F7F4000EF86E150E64
:10157800F76409D0610088F7F5F40D0061008CF775
:10158800F5F40C000AD0F6C4E9F4F7C4EAF46100F3
:1015980088F7EEF461008CF7EFF4B2EF01F0610028
:1015A800F4F6D9F46100F8F6DAF4610078F31AF584
:1015B800610074F31BF5A00E1C6EFF0E1D6E000E6D
:1015C8001F6E020E1E6E0FEC47F01A501B10D8A4A7
:1015D800F0EF0AF0F2EF0AF06CEF0BF0020E610088
:1015E800F4F6D9F46100F8F6DAF4DE26000EDD220E
:1015F800BBC5A5F5BCC5A6F5E20E0501A76F050E8E
:10160800A86F95EC40F0A5C5ECF5A6C5EDF53250F0
:101618003310D8A412EF0BF014EF0BF0B2EF01F077
:101628000501EDBF20EF0BF0ED5108E1EC05D8A066
:1016380020EF0BF022EF0BF0B2EF01F06100FCF6A7
:10164800D9F4610000F7DAF461007CF3C1F5020E09
:10165800DE2661007CF3C2F5000EDD22610004F78E
:10166800D9F4610008F7DAF4610078F3EAF561006B
:1016780074F3EBF56100A8F7F6F46100ACF7F7F442
:10168800000EF86E150EF76411D0610088F7F5F4B6
:101698000D0061008CF7F5F40D00610090F7F5F48A
:1016A8000D00610094F7F5F40C0010D0F6C4E9F4CD
:1016B800F7C4EAF4610088F7EEF461008CF7EEF401
:1016C800610090F7EEF4610094F7EFF4B2EF01F0E7
:1016D8006100F4F6D9F46100F8F6DAF4610078F301
:1016E8001AF5610074F31BF59F0E1C6EFF0E1D6E3C
:1016F800000E1F6E030E1E6E0FEC47F01A501B10E3
:10170800D8A489EF0BF08BEF0BF021EF0CF0030E50
:101718006100F4F6D9F46100F8F6DAF4DE26000E7A
:10172800DD22BBC5A5F5BCC5A6F5E20E0501A76F70
:10173800050EA86F95EC40F0A5C5ECF5A6C5EDF52E
:1017480032503310D8A4ABEF0BF0ADEF0BF0B2EF83
:1017580001F00501EDBFB9EF0BF0ED5108E1EC0523
:10176800D8A0B9EF0BF0BBEF0BF0B2EF01F06100BE
:10177800FCF6D9F4610000F7DAF461007CF3C1F5F6
:10178800020EDE2661007CF3C2F5000EDD22610048
:1017980004F7D9F4610008F7DAF4610078F3EAF5A0
:1017A800610074F3EBF56100A8F7F6F46100ACF79B
:1017B800F7F4000EF86E150EF76421D0610088F773
:1017C800F5F40D0061008CF7F5F40D00610090F759
:1017D800F5F40D00610094F7F5F40D00610098F739
:1017E800F5F40D0061009CF7F5F40D006100A0F719
:1017F800F5F40D006100A4F7F5F40C001CD0F6C454
:10180800E9F4F7C4EAF4610088F7EEF461008CF7B4
:10181800EEF4610090F7EEF4610094F7EEF46100E5
:1018280098F7EEF461009CF7EEF46100A0F7EEF48F
:101838006100A4F7EFF4B2EF01F06100F4F6D9F417
:101848006100F8F6DAF4610078F31AF5610074F3D0
:101858001BF5E30E1C6EFF0E1D6E000E1F6E020EB2
:101868001E6E0FEC47F01A501B10D8A43EEF0CF078
:1018780040EF0CF0D6EF0CF0020E6100F4F6D9F44C
:101888006100F8F6DAF4DE26000EDD22BBC5A5F508
:10189800BCC5A6F5E20E0501A76F050EA86F95EC6D
:1018A80040F0A5C5ECF5A6C5EDF532503310D8A427
:1018B80060EF0CF062EF0CF0B2EF01F00501EDBF44
:1018C8006EEF0CF0ED5108E1EC05D8A06EEF0CF0CE
:1018D80070EF0CF0B2EF01F06100FCF6D9F4610092
:1018E80000F7DAF461007CF3C1F5020EDE26610030
:1018F8007CF3C2F5000EDD22610004F7D9F4610023
:1019080008F7DAF4610078F3EAF5610074F3EBF5AF
:101918006100A8F7F6F46100ACF7F7F4000EF86E72
:10192800150EF76421D0610088F7F5F40D00610009
:101938008CF7F5F40D00610090F7F5F40D006100E7
:1019480094F7F5F40D00610098F7F5F40D006100C7
:101958009CF7F5F40D006100A0F7F5F40D006100A7
:10196800A4F7F5F40C001CD0F6C4E9F4F7C4EAF4C3
:10197800610088F7EEF461008CF7EEF4610090F7EF
:10198800EEF4610094F7EEF4610098F7EEF461006C
:101998009CF7EEF46100A0F7EEF46100A4F7EFF411
:1019A800B2EF01F06100F4F6D9F46100F8F6DAF468
:1019B800610078F31AF5610074F31BF5E60E1C6EEE
:1019C800FF0E1D6E000E1F6E020E1E6E0FEC47F00E
:1019D8001A501B10D8A4F3EF0CF0F5EF0CF06FEFD2
:1019E8000DF0020E6100F4F6D9F46100F8F6DAF4AD
:1019F800DE26000EDD22BBC5A5F5BCC5A6F5E20EA8
:101A08000501A76F050EA86F95EC40F0A5C5ECF58C
:101A1800A6C5EDF532503310D8A415EF0DF017EF29
:101A28000DF0B2EF01F00501EDBF23EF0DF0ED5120
:101A380008E1EC05D8A023EF0DF025EF0DF0B2EF8B
:101A480001F06100FCF6D9F4610000F7DAF46100F6
:101A58007CF3C1F5020EDE2661007CF3C2F5000EB0
:101A6800DD22610004F7D9F4610008F7DAF46100B7
:101A780078F3EAF5610074F3EBF56100A8F7F6F482
:101A88006100ACF7F7F4000EF86E150EF76411D08C
:101A9800610088F7F5F40D0061008CF7F5F40D008E
:101AA800610090F7F5F40D00610094F7F5F40C006F
:101AB80010D0F6C4E9F4F7C4EAF4610088F7EEF44C
:101AC80061008CF7EEF4610090F7EEF4610094F792
:101AD800EFF4B2EF01F06100F4F6D9F46100F8F622
:101AE800DAF4610078F31AF5610074F31BF5E90E76
:101AF8001C6EFF0E1D6E000E1F6E020E1E6E0FEC8A
:101B080047F01A501B10D8A48CEF0DF08EEF0DF093
:101B1800FAEF0DF0020E6100F4F6D9F46100F8F660
:101B2800DAF4DE26000EDD22BBC5A5F5BCC5A6F598
:101B3800E20E0501A76F050EA86F95EC40F0A5C54C
:101B4800ECF5A6C5EDF532503310D8A4AEEF0DF084
:101B5800B0EF0DF0B2EF01F00501EDBFBCEF0DF0F5
:101B6800ED5108E1EC05D8A0BCEF0DF0BEEF0DF08B
:101B7800B2EF01F06100FCF6D9F4610000F7DAF485
:101B880061007CF3C1F5020EDE2661007CF3C2F52C
:101B9800000EDD22610004F7D9F4610008F7DAF4D9
:101BA800610078F3EAF5610074F3EBF56100A8F7DA
:101BB800F6F46100ACF7F7F4000EF86E150EF76452
:101BC80009D0610088F7F5F40D0061008CF7F5F491
:101BD8000C000AD0F6C4E9F4F7C4EAF4610088F707
:101BE800EEF461008CF7EFF4B2EF01F06100F4F667
:101BF800D9F46100F8F6DAF4610078F31AF56100B7
:101C080074F31BF5930E1C6EFF0E1D6E000E1F6EF7
:101C1800030E1E6E0FEC47F01A501B10D8A417EFD6
:101C28000EF019EF0EF05DEF0EF0030E6100F4F602
:101C3800D9F46100F8F6DAF4DE26000EDD22610040
:101C4800FCF6D9F4610000F7DAF461007CF3C1F521
:101C5800020EDE2661007CF3C2F5000EDD22610073
:101C680004F7D9F4610008F7DAF4610078F3EAF5CB
:101C7800610074F3EBF56100A8F7F6F46100ACF7C6
:101C8800F7F4000EF86E150EF76405D06100B8F48D
:101C9800F5F40C0007D0F6C4E9F4F7C4EAF46100DF
:101CA800B8F4EFF4000E0501BC6F000EBB6F6DEFCA
:101CB8001DF06100F4F6D9F46100F8F6DAF4610079
:101CC80078F31AF5610074F31BF5940E1C6EFF0E81
:101CD8001D6E000E1F6E020E1E6E0FEC47F01A509E
:101CE8001B10D8A47AEF0EF07CEF0EF0C2EF0EF0C6
:101CF800020E6100F4F6D9F46100F8F6DAF4DE2693
:101D0800000EDD226100FCF6D9F4610000F7DAF478
:101D180061007CF3C1F5020EDE2661007CF3C2F59A
:101D2800000EDD22610004F7D9F4610008F7DAF447
:101D3800610078F3EAF5610074F3EBF56100A8F748
:101D4800F6F46100ACF7F7F4000EF86E150EF764C0
:101D580009D06100B8F4F5F40D006100BCF4F5F4A5
:101D68000C000AD0F6C4E9F4F7C4EAF46100B8F448
:101D7800EEF46100BCF4EFF456EF0EF06100F4F6F7
:101D8800D9F46100F8F6DAF4DEC4F6F4DDC4F7F449
:101D98000800F5506E0AD8A4D4EF0EF0D6EF0EF076
:101DA8001BEF0FF06100F4F6D9F46100F8F6DAF4ED
:101DB800DE2A000EDD226100FCF6D9F4610000F78E
:101DC800DAF461007CF3C1F5020EDE2661007CF3D3
:101DD800C2F5000EDD22610004F7D9F4610008F7AE
:101DE800DAF4610078F3EAF5610074F3EBF5610069
:101DF800A8F7F6F46100ACF7F7F4000EF86E150ECC
:101E0800F76409D06100B8F4F5F40D006100BCF482
:101E1800F5F40C000AD0F6C4E9F4F7C4EAF461005A
:101E2800B8F4EEF46100BCF4EFF456EF0EF0610084
:101E3800F4F6D9F46100F8F6DAF4610078F31AF5EB
:101E4800610074F31BF5980E1C6EFF0E1D6E000EDC
:101E58001F6E020E1E6E0FEC47F01A501B10D8A40E
:101E680038EF0FF03AEF0FF098EF0FF0020E610025
:101E7800F4F6D9F46100F8F6DAF4DE26000EDD2275
:101E88006100FCF6D9F4610000F7DAF461007CF334
:101E9800C1F5020EDE2661007CF3C2F5000EDD22DC
:101EA800610004F7D9F4610008F7DAF4610078F307
:101EB800EAF5610074F3EBF52EC5C1F52FC5C2F53F
:101EC800000E0501C2BFFF0EC36FC46F6100A8F703
:101ED800F6F46100ACF7F7F4000EF86E150EF7642F
:101EE80011D0610004F7F5F40D00610008F7F5F46E
:101EF8000D0061000CF7F5F40D00610010F7F5F422
:101F08000C0010D0F6C4E9F4F7C4EAF4610004F751
:101F1800EEF4610008F7EEF461000CF7EEF46100EE
:101F280010F7EFF456EF0EF06100F4F6D9F4610003
:101F3800F8F6DAF4610078F31AF5610074F31BF52A
:101F4800970E1C6EFF0E1D6E000E1F6E030E1E6E8A
:101F58000FEC47F01A501B10D8A4B5EF0FF0B7EFED
:101F68000FF035EF10F0030E6100F4F6D9F46100BC
:101F7800F8F6DAF4DE26000EDD226100FCF6D9F46C
:101F8800610000F7DAF461007CF3C1F5020EDE2689
:101F980061007CF3C2F5000EDD22610004F7D9F47C
:101FA800610008F7DAF4610078F3EAF5610074F388
:101FB800EBF52EC5C1F52FC5C2F5000E0501C2BF50
:101FC800FF0EC36FC46FC56FC66FC76FC86F610060
:101FD800A8F7F6F46100ACF7F7F4000EF86E150EEA
:101FE800F76421D0610004F7F5F40D00610008F7EB
:101FF800F5F40D0061000CF7F5F40D00610010F721
:10200800F5F40D00610014F7F5F40D00610018F700
:10201800F5F40D0061001CF7F5F40D00610020F7E0
:10202800F5F40C001CD0F6C4E9F4F7C4EAF4610036
:1020380004F7EEF4610008F7EEF461000CF7EEF433
:10204800610010F7EEF4610014F7EEF4610018F780
:10205800EEF461001CF7EEF4610020F7EFF456EFA0
:102068000EF06100F4F6D9F46100F8F6DAF46100D4
:1020780078F31AF5610074F31BF5DA0E1C6EFF0E87
:102088001D6E000E1F6E020E1E6E0FEC47F01A50EA
:102098001B10D8A452EF10F054EF10F0D2EF10F04C
:1020A800020E6100F4F6D9F46100F8F6DAF4DE26DF
:1020B800000EDD226100FCF6D9F4610000F7DAF4C5
:1020C80061007CF3C1F5020EDE2661007CF3C2F5E7
:1020D800000EDD22610004F7D9F4610008F7DAF494
:1020E800610078F3EAF5610074F3EBF52EC5C1F5EC
:1020F8002FC5C2F5000E0501C2BFFF0EC36FC46F26
:10210800C56FC66FC76FC86F6100A8F7F6F46100A6
:10211800ACF7F7F4000EF86E150EF76421D06100E5
:1021280004F7F5F40D00610008F7F5F40D006100FF
:102138000CF7F5F40D00610010F7F5F40D006100DF
:1021480014F7F5F40D00610018F7F5F40D006100BF
:102158001CF7F5F40D00610020F7F5F40C001CD015
:10216800F6C4E9F4F7C4EAF4610004F7EEF4610098
:1021780008F7EEF461000CF7EEF4610010F7EEF4E6
:10218800610014F7EEF4610018F7EEF461001CF733
:10219800EEF4610020F7EFF456EF0EF06100F4F66C
:1021A800D9F46100F8F6DAF4610078F31AF5610001
:1021B80074F31BF5DD0E1C6EFF0E1D6E000E1F6EF8
:1021C800020E1E6E0FEC47F01A501B10D8A4EFEF4A
:1021D80010F0F1EF10F04FEF11F0020E6100F4F67D
:1021E800D9F46100F8F6DAF4DE26000EDD2261008B
:1021F800FCF6D9F4610000F7DAF461007CF3C1F56C
:10220800020EDE2661007CF3C2F5000EDD226100BD
:1022180004F7D9F4610008F7DAF4610078F3EAF515
:10222800610074F3EBF52EC5C1F52FC5C2F5000E9C
:102238000501C2BFFF0EC36FC46F6100A8F7F6F4B3
:102248006100ACF7F7F4000EF86E150EF76411D0C4
:10225800610004F7F5F40D00610008F7F5F40D00CE
:1022680061000CF7F5F40D00610010F7F5F40C00AF
:1022780010D0F6C4E9F4F7C4EAF4610004F7EEF408
:10228800610008F7EEF461000CF7EEF4610010F756
:10229800EFF456EF0EF06100F4F6D9F46100F8F6A9
:1022A800DAF4610078F31AF5610074F31BF5E00EB7
:1022B8001C6EFF0E1D6E000E1F6E020E1E6E0FECC2
:1022C80047F01A501B10D8A46CEF11F06EEF11F004
:1022D800B4EF11F0020E6100F4F6D9F46100F8F6DB
:1022E800DAF4DE26000EDD226100FCF6D9F4610086
:1022F80000F7DAF461007CF3C1F5020EDE26610016
:102308007CF3C2F5000EDD22610004F7D9F4610008
:1023180008F7DAF4610078F3EAF5610074F3EBF595
:102328006100A8F7F6F46100ACF7F7F4000EF86E58
:10233800150EF76409D06100B8F4F5F40D006100DA
:10234800BCF4F5F40C000AD0F6C4E9F4F7C4EAF4D6
:102358006100B8F4EEF46100BCF4EFF456EF0EF04F
:102368006100F4F6D9F46100F8F6DAF4DEC4F6F4A4
:10237800DDC4F7F40800F550700AD8A4C6EF11F0D0
:10238800C8EF11F041EF12F06100F4F6D9F46100E2
:10239800F8F6DAF4DE2A000EDD22BBC5A5F5BCC5C9
:1023A800A6F5E20E0501A76F050EA86F7EEC41F0B9
:1023B800A5C5ECF5A6C5EDF532503310D8A4E7EF66
:1023C80011F0E9EF11F0B2EF01F00501EDBFF5EF03
:1023D80011F0ED5108E1EC05D8A0F5EF11F0F7EF99
:1023E80011F0B2EF01F06100FCF6D9F4610000F7DA
:1023F800DAF461007CF3C1F5020EDE2661007CF39D
:10240800C2F5000EDD22610004F7D9F4610008F777
:10241800DAF4610078F3CBF5610074F3CCF5610070
:102428002CF7F6F4610030F7F7F4000EF86E150E8D
:10243800F76411D0610088F7F5F40D0061008CF79E
:10244800F5F40D00610090F7F5F40D00610094F7C4
:10245800F5F40C0010D0F6C4E9F4F7C4EAF461000E
:1024680088F7EEF461008CF7EEF4610090F7EEF473
:10247800610094F7EFF4B2EF01F06100F4F6D9F4DB
:102488006100F8F6DAF4DEC4F6F4DDC4F7F4080007
:10249800F550730AD8A453EF12F055EF12F0A4EFD9
:1024A80012F06100F4F6D9F46100F8F6DAF4DE2AE5
:1024B800000EDD2232503310D8A465EF12F067EF1A
:1024C80012F093EF12F06100FCF6D9F4610000F706
:1024D800DAF461007CF3C1F5020EDE2661007CF3BC
:1024E800C2F5000EDD22610004F7D9F4610008F797
:1024F800DAF4610078F3C9F5610074F3CAF5BBC575
:1025080065F5BCC566F5C9C567F5CAC568F53BEC90
:1025180043F065C5ECF566C5EDF5B2EF01F0BBC556
:1025280065F5BCC566F5000E0501676F000E686F9E
:102538003BEC43F065C5ECF566C5EDF5B2EF01F08F
:102548006100F4F6D9F46100F8F6DAF4610078F382
:102558001AF5610074F31BF5A30E1C6EFF0E1D6EB9
:10256800000E1F6E030E1E6E0FEC47F01A501B1064
:10257800D8A4C1EF12F0C3EF12F028EF13F0030E46
:102588006100F4F6D9F46100F8F6DAF4DE26000EFC
:10259800DD22BBC5A5F5BCC5A6F5E20E0501A76FF2
:1025A800050EA86F41EC3BF0A5C5ECF5A6C5EDF509
:1025B80032503310D8A4E3EF12F0E5EF12F0B2EF87
:1025C80001F00501EDBFF1EF12F0ED5108E1EC0566
:1025D800D8A0F1EF12F0F3EF12F0B2EF01F06100C2
:1025E800FCF6D9F4610000F7DAF461007CF3C1F578
:1025F800020EDE2661007CF3C2F5000EDD226100CA
:1026080004F7D9F4610008F7DAF4610078F3EAF521
:10261800610074F3EBF56100A8F7F6F46100ACF71C
:10262800F7F4000EF86E150EF76405D0610088F710
:10263800F5F40C0007D0F6C4E9F4F7C4EAF4610035
:1026480088F7EFF4B2EF01F06100F4F6D9F4610015
:10265800F8F6DAF4610078F31AF5610074F31BF503
:10266800A40E1C6EFF0E1D6E000E1F6E020E1E6E57
:102678000FEC47F01A501B10D8A445EF13F047EFA2
:1026880013F0B3EF13F0020E6100F4F6D9F4610011
:10269800F8F6DAF4DE26000EDD22BBC5A5F5BCC5CA
:1026A800A6F5E20E0501A76F050EA86F41EC3BF0F9
:1026B800A5C5ECF5A6C5EDF532503310D8A467EFE3
:1026C80013F069EF13F0B2EF01F00501EDBF75EFFC
:1026D80013F0ED5108E1EC05D8A075EF13F077EF92
:1026E80013F0B2EF01F06100FCF6D9F4610000F7D5
:1026F800DAF461007CF3C1F5020EDE2661007CF39A
:10270800C2F5000EDD22610004F7D9F4610008F774
:10271800DAF4610078F3EAF5610074F3EBF561002F
:10272800A8F7F6F46100ACF7F7F4000EF86E150E92
:10273800F76409D0610088F7F5F40D0061008CF7A3
:10274800F5F40C000AD0F6C4E9F4F7C4EAF4610021
:1027580088F7EEF461008CF7EFF4B2EF01F0610056
:10276800F4F6D9F46100F8F6DAF4DEC4F6F4DDC460
:10277800F7F40800F550750AD8A4C5EF13F0C7EFB1
:1027880013F032EF14F06100F4F6D9F46100F8F6B2
:10279800DAF4DE2A000EDD22BBC5A5F5BCC5A6F518
:1027A800E20E0501A76F050EA86F41EC3BF0A5C529
:1027B800ECF5A6C5EDF532503310D8A4E6EF13F0CA
:1027C800E8EF13F0B2EF01F00501EDBFF4EF13F0FD
:1027D800ED5108E1EC05D8A0F4EF13F0F6EF13F093
:1027E800B2EF01F06100FCF6D9F4610000F7DAF409
:1027F80061007CF3C1F5020EDE2661007CF3C2F5B0
:10280800000EDD22610004F7D9F4610008F7DAF45C
:10281800610078F3EAF5610074F3EBF56100A8F75D
:10282800F6F46100ACF7F7F4000EF86E150EF764D5
:1028380009D0610088F7F5F40D0061008CF7F5F414
:102848000C000AD0F6C4E9F4F7C4EAF4610088F78A
:10285800EEF461008CF7EFF4B2EF01F06100F4F6EA
:10286800D9F46100F8F6DAF4610078F31AF561003A
:1028780074F31BF5A80E1C6EFF0E1D6E000E1F6E66
:10288800020E1E6E0FEC47F01A501B10D8A44FEF23
:1028980014F051EF14F0CBEF14F0020E6100F4F6CF
:1028A800D9F46100F8F6DAF4DE26000EDD22BBC5A5
:1028B800A5F5BCC5A6F5E20E0501A76F050EA86F24
:1028C80041EC3BF0A5C5ECF5A6C5EDF5325033104B
:1028D800D8A471EF14F073EF14F0B2EF01F0050112
:1028E800EDBF7FEF14F0ED5108E1EC05D8A07FEFC4
:1028F80014F081EF14F0B2EF01F06100FCF6D9F4A6
:10290800610000F7DAF461007CF3C1F5020EDE26FF
:1029180061007CF3C2F5000EDD22610004F7D9F4F2
:10292800610008F7DAF4610078F3EAF5610074F3FE
:10293800EBF56100A8F7F6F46100ACF7F7F4000EC8
:10294800F86E150EF76411D0610088F7F5F40D00E4
:1029580061008CF7F5F40D00610090F7F5F40D00B7
:10296800610094F7F5F40C0010D0F6C4E9F4F7C44C
:10297800EAF4610088F7EEF461008CF7EEF4610088
:1029880090F7EEF4610094F7EFF4B2EF01F0610014
:10299800F4F6D9F46100F8F6DAF4610078F31AF580
:1029A800610074F31BF5A70E1C6EFF0E1D6E000E62
:1029B8001F6E030E1E6E0FEC47F01A501B10D8A4A2
:1029C800E8EF14F0EAEF14F080EF15F0030E610061
:1029D800F4F6D9F46100F8F6DAF4DE26000EDD220A
:1029E800BBC5A5F5BCC5A6F5E20E0501A76F050E8A
:1029F800A86F41EC3BF0A5C5ECF5A6C5EDF5325046
:102A08003310D8A40AEF15F00CEF15F0B2EF01F06F
:102A18000501EDBF18EF15F0ED5108E1EC05D8A060
:102A280018EF15F01AEF15F0B2EF01F06100FCF69F
:102A3800D9F4610000F7DAF461007CF3C1F5020E05
:102A4800DE2661007CF3C2F5000EDD22610004F78A
:102A5800D9F4610008F7DAF4610078F3EAF5610067
:102A680074F3EBF56100A8F7F6F46100ACF7F7F43E
:102A7800000EF86E150EF76421D0610088F7F5F4A2
:102A88000D0061008CF7F5F40D00610090F7F5F486
:102A98000D00610094F7F5F40D00610098F7F5F466
:102AA8000D0061009CF7F5F40D006100A0F7F5F446
:102AB8000D006100A4F7F5F40C001CD0F6C4E9F48D
:102AC800F7C4EAF4610088F7EEF461008CF7EEF4DD
:102AD800610090F7EEF4610094F7EEF4610098F766
:102AE800EEF461009CF7EEF46100A0F7EEF46100EB
:102AF800A4F7EFF4B2EF01F06100F4F6D9F4610045
:102B0800F8F6DAF4610078F31AF5610074F31BF54E
:102B1800EC0E1C6EFF0E1D6E000E1F6E020E1E6E5A
:102B28000FEC47F01A501B10D8A49DEF15F09FEF3B
:102B380015F035EF16F0020E6100F4F6D9F46100D5
:102B4800F8F6DAF4DE26000EDD22BBC5A5F5BCC515
:102B5800A6F5E20E0501A76F050EA86F41EC3BF044
:102B6800A5C5ECF5A6C5EDF532503310D8A4BFEFD6
:102B780015F0C1EF15F0B2EF01F00501EDBFCDEF93
:102B880015F0ED5108E1EC05D8A0CDEF15F0CFEF29
:102B980015F0B2EF01F06100FCF6D9F4610000F71E
:102BA800DAF461007CF3C1F5020EDE2661007CF3E5
:102BB800C2F5000EDD22610004F7D9F4610008F7C0
:102BC800DAF4610078F3EAF5610074F3EBF561007B
:102BD800A8F7F6F46100ACF7F7F4000EF86E150EDE
:102BE800F76421D0610088F7F5F40D0061008CF7D7
:102BF800F5F40D00610090F7F5F40D00610094F70D
:102C0800F5F40D00610098F7F5F40D0061009CF7EC
:102C1800F5F40D006100A0F7F5F40D006100A4F7CC
:102C2800F5F40C001CD0F6C4E9F4F7C4EAF461002A
:102C380088F7EEF461008CF7EEF4610090F7EEF49B
:102C4800610094F7EEF4610098F7EEF461009CF7E8
:102C5800EEF46100A0F7EEF46100A4F7EFF4B2EF30
:102C680001F06100F4F6D9F46100F8F6DAF46100D5
:102C780078F31AF5610074F31BF5EF0E1C6EFF0E66
:102C88001D6E000E1F6E020E1E6E0FEC47F01A50DE
:102C98001B10D8A452EF16F054EF16F0CEEF16F032
:102CA800020E6100F4F6D9F46100F8F6DAF4DE26D3
:102CB800000EDD22BBC5A5F5BCC5A6F5E20E0501D3
:102CC800A76F050EA86F41EC3BF0A5C5ECF5A6C5AE
:102CD800EDF532503310D8A474EF16F076EF16F0F5
:102CE800B2EF01F00501EDBF82EF16F0ED5108E1FA
:102CF800EC05D8A082EF16F084EF16F0B2EF01F0E1
:102D08006100FCF6D9F4610000F7DAF461007CF3A5
:102D1800C1F5020EDE2661007CF3C2F5000EDD224D
:102D2800610004F7D9F4610008F7DAF4610078F378
:102D3800EAF5610074F3EBF56100A8F7F6F46100B9
:102D4800ACF7F7F4000EF86E150EF76411D06100B9
:102D580088F7F5F40D0061008CF7F5F40D006100BB
:102D680090F7F5F40D00610094F7F5F40C0010D01D
:102D7800F6C4E9F4F7C4EAF4610088F7EEF46100F8
:102D88008CF7EEF4610090F7EEF4610094F7EFF43D
:102D9800B2EF01F06100F4F6D9F46100F8F6DAF464
:102DA800610078F31AF5610074F31BF5F20E1C6EDE
:102DB800FF0E1D6E000E1F6E020E1E6E0FEC47F00A
:102DC8001A501B10D8A4EBEF16F0EDEF16F059EFE0
:102DD80017F0020E6100F4F6D9F46100F8F6DAF49F
:102DE800DE26000EDD22BBC5A5F5BCC5A6F5E20EA4
:102DF8000501A76F050EA86F41EC3BF0A5C5ECF5E2
:102E0800A6C5EDF532503310D8A40DEF17F00FEF2B
:102E180017F0B2EF01F00501EDBF1BEF17F0ED5110
:102E280008E1EC05D8A01BEF17F01DEF17F0B2EF83
:102E380001F06100FCF6D9F4610000F7DAF46100F2
:102E48007CF3C1F5020EDE2661007CF3C2F5000EAC
:102E5800DD22610004F7D9F4610008F7DAF46100B3
:102E680078F3EAF5610074F3EBF56100A8F7F6F47E
:102E78006100ACF7F7F4000EF86E150EF76409D090
:102E8800610088F7F5F40D0061008CF7F5F40C008B
:102E98000AD0F6C4E9F4F7C4EAF4610088F7EEF45E
:102EA80061008CF7EFF4B2EF01F06100F4F6D9F4A9
:102EB8006100F8F6DAF4610078F31AF5610074F34A
:102EC8001BF5AB0E1C6EFF0E1D6E000E1F6E030E63
:102ED8001E6E0FEC47F01A501B10D8B476EF17F09F
:102EE80078EF17F097EF17F06100F4F6D9F4610066
:102EF800F8F6DAF4610078F31AF5610074F31BF55B
:102F08007B0E1C6EFF0E1D6E000E1F6E030E1E6ED6
:102F18000FEC47F01A501B10D8A495EF17F097EF55
:102F280017F0FCEF17F0030E6100F4F6D9F4610016
:102F3800F8F6DAF4DE26000EDD22BBC5A5F5BCC521
:102F4800A6F5E20E0501A76F050EA86F7EEC41F00D
:102F5800A5C5ECF5A6C5EDF532503310D8A4B7EFEA
:102F680017F0B9EF17F0B2EF01F00501EDBFC5EFAB
:102F780017F0ED5108E1EC05D8A0C5EF17F0C7EF41
:102F880017F0B2EF01F06100FCF6D9F4610000F728
:102F9800DAF461007CF3C1F5020EDE2661007CF3F1
:102FA800C2F5000EDD22610004F7D9F4610008F7CC
:102FB800DAF4610078F3EAF5610074F3EBF5610087
:102FC800A8F7F6F46100ACF7F7F4000EF86E150EEA
:102FD800F76405D0610088F7F5F40C0007D0F6C453
:102FE800E9F4F7C4EAF4610088F7EFF4B2EF01F00E
:102FF8006100F4F6D9F46100F8F6DAF4610078F3C8
:103008001AF5610074F31BF5AC0E1C6EFF0E1D6EF5
:10301800000E1F6E020E1E6E0FEC47F01A501B10AA
:10302800D8B419EF18F01BEF18F03AEF18F0610058
:10303800F4F6D9F46100F8F6DAF4610078F31AF5D9
:10304800610074F31BF57C0E1C6EFF0E1D6E000EE6
:103058001F6E020E1E6E0FEC47F01A501B10D8A4FC
:1030680038EF18F03AEF18F0A6EF18F0020E6100EA
:10307800F4F6D9F46100F8F6DAF4DE26000EDD2263
:10308800BBC5A5F5BCC5A6F5E20E0501A76F050EE3
:10309800A86F7EEC41F0A5C5ECF5A6C5EDF532505C
:1030A8003310D8A45AEF18F05CEF18F0B2EF01F023
:1030B8000501EDBF68EF18F0ED5108E1EC05D8A067
:1030C80068EF18F06AEF18F0B2EF01F06100FCF653
:1030D800D9F4610000F7DAF461007CF3C1F5020E5F
:1030E800DE2661007CF3C2F5000EDD22610004F7E4
:1030F800D9F4610008F7DAF4610078F3EAF56100C1
:1031080074F3EBF56100A8F7F6F46100ACF7F7F497
:10311800000EF86E150EF76409D0610088F7F5F413
:103128000D0061008CF7F5F40C000AD0F6C4E9F440
:10313800F7C4EAF4610088F7EEF461008CF7EFF465
:10314800B2EF01F06100F4F6D9F46100F8F6DAF4B0
:10315800DEC4F6F4DDC4F7F40800F550780AD8B4F4
:10316800B8EF18F0BAEF18F0CEEF18F06100F4F6E7
:10317800D9F46100F8F6DAF4DEC4F6F4DDC4F7F445
:103188000800F550580AD8A4CCEF18F0CEEF18F084
:1031980039EF19F06100F4F6D9F46100F8F6DAF4C1
:1031A800DE2A000EDD22BBC5A5F5BCC5A6F5E20EDC
:1031B8000501A76F050EA86F7EEC41F0A5C5ECF5DB
:1031C800A6C5EDF532503310D8A4EDEF18F0EFEFA7
:1031D80018F0B2EF01F00501EDBFFBEF18F0ED516B
:1031E80008E1EC05D8A0FBEF18F0FDEF18F0B2EFFE
:1031F80001F06100FCF6D9F4610000F7DAF461002F
:103208007CF3C1F5020EDE2661007CF3C2F5000EE8
:10321800DD22610004F7D9F4610008F7DAF46100EF
:1032280078F3EAF5610074F3EBF56100A8F7F6F4BA
:103238006100ACF7F7F4000EF86E150EF76409D0CC
:10324800610088F7F5F40D0061008CF7F5F40C00C7
:103258000AD0F6C4E9F4F7C4EAF4610088F7EEF49A
:1032680061008CF7EFF4B2EF01F06100F4F6D9F4E5
:103278006100F8F6DAF4610078F31AF5610074F386
:103288001BF5B00E1C6EFF0E1D6E000E1F6E020E9B
:103298001E6E0FEC47F01A501B10D8B456EF19F0F9
:1032A80058EF19F077EF19F06100F4F6D9F46100DE
:1032B800F8F6DAF4610078F31AF5610074F31BF597
:1032C800800E1C6EFF0E1D6E000E1F6E020E1E6E0F
:1032D8000FEC47F01A501B10D8A475EF19F077EFD0
:1032E80019F0F1EF19F0020E6100F4F6D9F461005B
:1032F800F8F6DAF4DE26000EDD22BBC5A5F5BCC55E
:10330800A6F5E20E0501A76F050EA86F7EEC41F049
:10331800A5C5ECF5A6C5EDF532503310D8A497EF46
:1033280019F099EF19F0B2EF01F00501EDBFA5EF23
:1033380019F0ED5108E1EC05D8A0A5EF19F0A7EFB9
:1033480019F0B2EF01F06100FCF6D9F4610000F762
:10335800DAF461007CF3C1F5020EDE2661007CF32D
:10336800C2F5000EDD22610004F7D9F4610008F708
:10337800DAF4610078F3EAF5610074F3EBF56100C3
:10338800A8F7F6F46100ACF7F7F4000EF86E150E26
:10339800F76411D0610088F7F5F40D0061008CF72F
:1033A800F5F40D00610090F7F5F40D00610094F755
:1033B800F5F40C0010D0F6C4E9F4F7C4EAF461009F
:1033C80088F7EEF461008CF7EEF4610090F7EEF404
:1033D800610094F7EFF4B2EF01F06100F4F6D9F46C
:1033E8006100F8F6DAF4610078F31AF5610074F315
:1033F8001BF5AF0E1C6EFF0E1D6E000E1F6E030E2A
:103408001E6E0FEC47F01A501B10D8B40EEF1AF0CE
:1034180010EF1AF02FEF1AF06100F4F6D9F46100FA
:10342800F8F6DAF4610078F31AF5610074F31BF525
:103438007F0E1C6EFF0E1D6E000E1F6E030E1E6E9D
:103448000FEC47F01A501B10D8A42DEF1AF02FEFED
:103458001AF0C5EF1AF0030E6100F4F6D9F4610012
:10346800F8F6DAF4DE26000EDD22BBC5A5F5BCC5EC
:10347800A6F5E20E0501A76F050EA86F7EEC41F0D8
:10348800A5C5ECF5A6C5EDF532503310D8A44FEF1D
:103498001AF051EF1AF0B2EF01F00501EDBF5DEF40
:1034A8001AF0ED5108E1EC05D8A05DEF1AF05FEFD6
:1034B8001AF0B2EF01F06100FCF6D9F4610000F7F0
:1034C800DAF461007CF3C1F5020EDE2661007CF3BC
:1034D800C2F5000EDD22610004F7D9F4610008F797
:1034E800DAF4610078F3EAF5610074F3EBF5610052
:1034F800A8F7F6F46100ACF7F7F4000EF86E150EB5
:10350800F76421D0610088F7F5F40D0061008CF7AD
:10351800F5F40D00610090F7F5F40D00610094F7E3
:10352800F5F40D00610098F7F5F40D0061009CF7C3
:10353800F5F40D006100A0F7F5F40D006100A4F7A3
:10354800F5F40C001CD0F6C4E9F4F7C4EAF4610001
:1035580088F7EEF461008CF7EEF4610090F7EEF472
:10356800610094F7EEF4610098F7EEF461009CF7BF
:10357800EEF46100A0F7EEF46100A4F7EFF4B2EF07
:1035880001F06100F4F6D9F46100F8F6DAF46100AC
:1035980078F31AF5610074F31BF5F50E1C6EFF0E37
:1035A8001D6E000E1F6E020E1E6E0FEC47F01A50B5
:1035B8001B10D8B4E2EF1AF0E4EF1AF003EF1BF097
:1035C8006100F4F6D9F46100F8F6DAF4610078F3F2
:1035D8001AF5610074F31BF5B30E1C6EFF0E1D6E19
:1035E800000E1F6E020E1E6E0FEC47F01A501B10D5
:1035F800D8A401EF1BF003EF1BF099EF1BF0020EAC
:103608006100F4F6D9F46100F8F6DAF4DE26000E6B
:10361800DD22BBC5A5F5BCC5A6F5E20E0501A76F61
:10362800050EA86F7EEC41F0A5C5ECF5A6C5EDF535
:1036380032503310D8A423EF1BF025EF1BF0B2EF64
:1036480001F00501EDBF31EF1BF0ED5108E1EC058C
:10365800D8A031EF1BF033EF1BF0B2EF01F061009F
:10366800FCF6D9F4610000F7DAF461007CF3C1F5E7
:10367800020EDE2661007CF3C2F5000EDD22610039
:1036880004F7D9F4610008F7DAF4610078F3EAF591
:10369800610074F3EBF56100A8F7F6F46100ACF78C
:1036A800F7F4000EF86E150EF76421D0610088F764
:1036B800F5F40D0061008CF7F5F40D00610090F74A
:1036C800F5F40D00610094F7F5F40D00610098F72A
:1036D800F5F40D0061009CF7F5F40D006100A0F70A
:1036E800F5F40D006100A4F7F5F40C001CD0F6C445
:1036F800E9F4F7C4EAF4610088F7EEF461008CF7A6
:10370800EEF4610090F7EEF4610094F7EEF46100D6
:1037180098F7EEF461009CF7EEF46100A0F7EEF480
:103728006100A4F7EFF4B2EF01F06100F4F6D9F408
:103738006100F8F6DAF4610078F31AF5610074F3C1
:103748001BF5F80E1C6EFF0E1D6E000E1F6E020E8E
:103758001E6E0FEC47F01A501B10D8B4B6EF1BF0D2
:10376800B8EF1BF0D7EF1BF06100F4F6D9F4610055
:10377800F8F6DAF4610078F31AF5610074F31BF5D2
:10378800B60E1C6EFF0E1D6E000E1F6E020E1E6E14
:103798000FEC47F01A501B10D8A4D5EF1BF0D7EF49
:1037A8001BF051EF1CF0020E6100F4F6D9F4610031
:1037B800F8F6DAF4DE26000EDD22BBC5A5F5BCC599
:1037C800A6F5E20E0501A76F050EA86F7EEC41F085
:1037D800A5C5ECF5A6C5EDF532503310D8A4F7EF22
:1037E8001BF0F9EF1BF0B2EF01F00501EDBF05EF9B
:1037F8001CF0ED5108E1EC05D8A005EF1CF007EF2F
:103808001CF0B2EF01F06100FCF6D9F4610000F79A
:10381800DAF461007CF3C1F5020EDE2661007CF368
:10382800C2F5000EDD22610004F7D9F4610008F743
:10383800DAF4610078F3EAF5610074F3EBF56100FE
:10384800A8F7F6F46100ACF7F7F4000EF86E150E61
:10385800F76411D0610088F7F5F40D0061008CF76A
:10386800F5F40D00610090F7F5F40D00610094F790
:10387800F5F40C0010D0F6C4E9F4F7C4EAF46100DA
:1038880088F7EEF461008CF7EEF4610090F7EEF43F
:10389800610094F7EFF4B2EF01F06100F4F6D9F4A7
:1038A8006100F8F6DAF4610078F31AF5610074F350
:1038B8001BF5FB0E1C6EFF0E1D6E000E1F6E020E1A
:1038C8001E6E0FEC47F01A501B10D8B46EEF1CF0A8
:1038D80070EF1CF08FEF1CF06100F4F6D9F4610072
:1038E800F8F6DAF4610078F31AF5610074F31BF561
:1038F800B90E1C6EFF0E1D6E000E1F6E020E1E6EA0
:103908000FEC47F01A501B10D8A48DEF1CF08FEF66
:103918001CF0FBEF1CF0020E6100F4F6D9F4610014
:10392800F8F6DAF4DE26000EDD22BBC5A5F5BCC527
:10393800A6F5E20E0501A76F050EA86F7EEC41F013
:10394800A5C5ECF5A6C5EDF532503310D8A4AFEFF8
:103958001CF0B1EF1CF0B2EF01F00501EDBFBDEFB7
:103968001CF0ED5108E1EC05D8A0BDEF1CF0BFEF4D
:103978001CF0B2EF01F06100FCF6D9F4610000F729
:10398800DAF461007CF3C1F5020EDE2661007CF3F7
:10399800C2F5000EDD22610004F7D9F4610008F7D2
:1039A800DAF4610078F3EAF5610074F3EBF561008D
:1039B800A8F7F6F46100ACF7F7F4000EF86E150EF0
:1039C800F76409D0610088F7F5F40D0061008CF701
:1039D800F5F40C000AD0F6C4E9F4F7C4EAF461007F
:1039E80088F7EEF461008CF7EFF4B2EF01F06100B4
:1039F800F4F6D9F46100F8F6DAF4DEC4F6F4DDC4BE
:103A0800F7F40800F550250AD8A40DEF1DF00FEFC4
:103A18001DF021EF1DF06100F4F6D9F46100F8F60D
:103A2800DAF4DE2A000EDD222E4A2F2A000E0501C6
:103A3800BC6F010EBB6F6DEF1DF06100F4F6D9F499
:103A48006100F8F6DAF4DE2A000EDD2256EF0EF0F9
:103A5800BBC51CF5BCC51DF57BEC4EF01CC5D1F5EE
:103A68001DC5D2F56100F4F6D9F46100F8F6DAF470
:103A7800DEC4F6F4DDC4F7F40800F5500501C16FA3
:103A8800C26BD151C11907E1D251C219D8A44FEF65
:103A98001DF051EF1DF05EEF1DF06100F4F6D9F452
:103AA8006100F8F6DAF4DE2A000EDD222E4A2F2A0B
:103AB80056EF0EF0D1C51AF5D2C51BF5BBC51CF5DE
:103AC800BCC51DF51CEC4FF0FF0E0501BC6FFE0ECA
:103AD800BB6F12002A502B10D8B475EF1DF077EF8A
:103AE8001DF087EF1DF06100A8F4D9F46100ACF473
:103AF800DAF46100A0F4DEF46100A4F4DDF487EFE9
:103B08001DF0284A292A010E0501836F6100A0F4DF
:103B1800D9F46100A4F4DAF4200EDE18D8B497EFD3
:103B28001DF09AEF1DF0010E9BEF1DF0000E886F3F
:103B3800896B88518911D8A4A4EF1DF0A6EF1DF058
:103B4800CAEF1DF0F70E6D6FFF0E6E6F6100A0F4E7
:103B5800D9F46100A4F4DAF4DF506F6F6F51886F05
:103B6800896B88C570F589C571F56D5170276E51DF
:103B78007123715109E1050E705DD8A0C6EF1DF0E3
:103B8800C8EF1DF0CAEF1DF0000E836F83C573F5F3
:103B9800746B73517411D8A4D4EF1DF0D6EF1DF0D7
:103BA80085EF1DF0000E856F2D0E88198911D8A498
:103BB800E0EF1DF0E2EF1DF0E8EF1DF0010E856F5C
:103BC800284A292AF4EF1DF02B0E88198911D8A448
:103BD800F0EF1DF0F2EF1DF0F4EF1DF0E4EF1DF033
:103BE800000E8E6FF9EF1DF08E2B8E512824D96EA2
:103BF800000E2920DA6EDF50D8B405EF1EF007EF6B
:103C08001EF037EF1EF08E512824D96E000E2920A1
:103C1800DA6EDF506D6F340E8E25F66EF76AFF0E82
:103C2800F7220800F5506D19D8B41DEF1EF01FEFEC
:103C38001EF0F8EF1DF08E512824D96E000E2920B1
:103C4800DA6EDF506D6F2B0E8E25F66EF76AFF0E5B
:103C5800F7220800F5506D19D8B435EF1EF037EF8C
:103C68001EF0F8EF1DF0020E8E653DEF1EF03FEFDF
:103C78001EF06FEF1EF0000E8A6F000E8B6F800E25
:103C88008C6F7F0E8D6F2A502B10D8B44EEF1EF01C
:103C980050EF1EF040EF26F0080E8E19D8B457EFFB
:103CA8001EF059EF1EF05BEF1EF0030E8E6F8E5163
:103CB80028246D6F000E29206E6F6100A8F4D9F4D6
:103CC8006100ACF4DAF46100B4F5DEF46100B8F533
:103CD800DDF440EF26F0000E8E6F74EF1EF08E2B91
:103CE8008E512824D96E000E2920DA6EDF50D8B400
:103CF80080EF1EF082EF1EF0B2EF1EF08E512824E6
:103D0800D96E000E2920DA6EDF506D6F770E8E2582
:103D1800F66EF76AFF0EF7220800F5506D19D8B451
:103D280098EF1EF09AEF1EF073EF1EF08E512824C4
:103D3800D96E000E2920DA6EDF506D6F6F0E8E255A
:103D4800F66EF76AFF0EF7220800F5506D19D8B421
:103D5800B0EF1EF0B2EF1EF073EF1EF0030E8E19D7
:103D6800D8A4B9EF1EF0BBEF1EF030EF1FF0D00E55
:103D78001A6EFE0E1B6EA2EC54F01AC58AF51BC50E
:103D88008BF51CC58CF51DC58DF52A502B10D8B4A4
:103D9800D0EF1EF0D2EF1EF040EF26F005018E5155
:103DA8002826000E29226100A0F4D9F46100A4F4A9
:103DB800DAF4280EDE18D8A4E4EF1EF0E6EF1EF0C1
:103DC80022EF1FF0000E8E6FEBEF1EF08E2B8E5140
:103DD8002824D96E000E2920DA6EDF50D8B4F7EF08
:103DE8001EF0F9EF1EF008EF1FF08E512824D96E4F
:103DF800000E2920DA6E290EDE18D8A406EF1FF06F
:103E080008EF1FF0EAEF1EF08E512824D96E000E3D
:103E18002920DA6E290EDE18D8A415EF1FF017EF47
:103E28001FF022EF1FF08E516D6F6E6B010E6D2724
:103E3800000E6E236D5128266E5129226100A8F4C8
:103E4800D9F46100ACF4DAF46100A0F4DEF46100A6
:103E5800A4F4DDF440EF26F0000E896F000E886FA1
:103E6800000E8A6F000E8B6F000E8C6F000E8D6F28
:103E7800000E876F000E866F000E8E6F45EF1FF0E5
:103E88008E2B8E512824D96E000E2920DA6E300E22
:103E9800DE18D8B452EF1FF054EF1FF044EF1FF0B4
:103EA8008E51D8B45AEF1FF05CEF1FF0FDEF22F0EF
:103EB8008E512824D96E000E2920DA6E780EDE186D
:103EC800D8B469EF1FF06BEF1FF07AEF1FF08E5137
:103ED8002824D96E000E2920DA6E580EDE18D8A4D0
:103EE80078EF1FF07AEF1FF0FDEF22F08E516D6F23
:103EF8006E6B010E6D27000E6E236D5128266E51D4
:103F08002922000E8E6F8AEF1FF08E2B8E512824E7
:103F1800D96E000E2920DA6E300EDE18D8B497EF6D
:103F28001FF099EF1FF089EF1FF0000E8E6F8E5172
:103F38002824D96E000E2920DA6E700EDE18D8B447
:103F4800A8EF1FF0AAEF1FF03BEF21F08E512824B5
:103F5800D96E000E2920DA6E500EDE18D8A4B7EFFD
:103F68001FF0B9EF1FF0BBEF1FF03BEF21F08E51B0
:103F78002824D96E000E2920DA6E2E0EDE18D8A459
:103F8800C8EF1FF0CAEF1FF0CEEF1FF085898E2B08
:103F98003BEF21F08E512824D96E000E2920DA6ECD
:103FA800DF506D6F6D511A6E1B6A29EC50F01A5074
:103FB8001B10D8B4E2EF1FF0E4EF1FF061EF20F020
:103FC800000E0501846FD00E6D6FFF0E6E6F8E515F
:103FD8002824D96E000E2920DA6EDF506F6F706BBF
:103FE8006D516F276E51702370510AE10A0E6F5D93
:103FF800D8A001EF20F004EF20F0010E05EF20F02B
:10400800000E756F766B75517611D8B40EEF20F0EF
:1040180010EF20F01BEF20F08E512824D96E000EEF
:104028002920DA6EDF50D00F846F2CEF20F08E51EC
:104038002824D96E000E2920DA6EDF506D6F6D517D
:10404800206E216A2CEC51F02050C90F0501846FB5
:1040580089BF3AEF20F0895107E1080E885DD8B092
:1040680038EF20F03AEF20F059EF20F08851070898
:104078006D6FD8906D37D8906D3784C56EF56F6BBE
:10408800706B716B6D2B4EEF20F0D8906E376F37D9
:10409800703771376D2F49EF20F06E518A136F51C9
:1040A8008B1370518C1371518D13884B892B040E0F
:1040B8008627000E87236BEF20F0000E286E000E77
:1040C800296E000E2A6E000E2B6E62EF26F08E2BE4
:1040D8009BEF1FF08E512824D96E000E2920DA6E2E
:1040E800700EDE18D8B47BEF20F07DEF20F042EFA1
:1040F80021F08E512824D96E000E2920DA6E500E38
:10410800DE18D8A48AEF20F08CEF20F08EEF20F094
:1041180042EF21F08E512824D96E000E2920DA6E44
:10412800300EDE18D8A49BEF20F09DEF20F0ACEF06
:1041380020F088518911D8A4A4EF20F0A6EF20F030
:10414800ACEF20F0FC0E8627FF0E872339EF21F015
:104158008E512824D96E000E2920DA6EDF506D6F3B
:104168006D511A6E1B6A29EC50F01A501B10D8B406
:10417800C0EF20F0C2EF20F039EF21F0000E05016A
:10418800846FD00E6D6FFF0E6E6F8E512824D96E1E
:10419800000E2920DA6EDF506F6F706B6D516F273C
:1041A8006E51702370510AE10A0E6F5DD8A0DFEFDF
:1041B80020F0E2EF20F0010EE3EF20F0000E776F21
:1041C800786B77517811D8B4ECEF20F0EEEF20F04F
:1041D800F9EF20F08E512824D96E000E2920DA6ECE
:1041E800DF50D00F846F0AEF21F08E512824D96E4A
:1041F800000E2920DA6EDF506D6F6D51206E216A36
:104208002CEC51F02050C90F0501846F89BF18EFBD
:1042180021F0895107E1080E885DD8B016EF21F02A
:1042280018EF21F037EF21F0885107086D6FD8900B
:104238006D37D8906D3784C56EF56F6B706B716B89
:104248006D2B2CEF21F0D8906E376F3770377137A0
:104258006D2F27EF21F06E518A136F518B13705118
:104268008C1371518D13884B892B05018E2B85B9C1
:1042780040EF21F042EF21F06EEF20F08E5128241C
:10428800D96E000E2920DA6E700EDE18D8B44FEF02
:1042980021F051EF21F06AEF21F08E512824D96ED8
:1042A800000E2920DA6E500EDE18D8B45EEF21F029
:1042B80060EF21F06AEF21F0000E286E000E296EE3
:1042C800000E2A6E000E2B6E62EF26F08E2B8E519A
:1042D8002824D96E000E2920DA6E2B0EDE18D8A4F9
:1042E80078EF21F07AEF21F07DEF21F08E2B8EEF21
:1042F80021F08E512824D96E000E2920DA6E2D0E59
:10430800DE18D8A48AEF21F08CEF21F08EEF21F08F
:1043180085878E2B8E512826000E2922000E8E6F3F
:1043280097EF21F08E2B8E512824D96E000E29206C
:10433800DA6E300EDE18D8B4A4EF21F0A6EF21F023
:1043480096EF21F0000E896F000E886FD9EF21F0EB
:104358008E51D8B4B2EF21F0B4EF21F0C2EF21F0C2
:1043680088C51AF589C51BF5000E1D6E0A0E1C6E50
:1043780053EC54F01AC588F51BC589F5D00E050114
:104388006D6FFF0E6E6F8E512824D96E000E292096
:10439800DA6EDF506F6F706B6D516F276E5170233F
:1043A8006F518827705189238E2BD00E6D6FFF0EA9
:1043B8006E6F8E512824D96E000E2920DA6EDF50D8
:1043C8006F6F706B6D516F276E51702370510AE1DA
:1043D8000A0E6F5DD8A0F3EF21F0F6EF21F0010E81
:1043E800F7EF21F0000E796F7A6B79517A11D8A422
:1043F80000EF22F002EF22F0ACEF21F08E51D8A4AA
:1044080008EF22F00AEF22F014EF22F0000E286ED7
:10441800000E296E000E2A6E000E2B6E62EF26F03B
:1044280085A719EF22F01BEF22F01FEF22F0886D0D
:10443800891FD8B0892B88518627895187232A500C
:104448002B10D8B42AEF22F02CEF22F03EEF22F006
:104458008E5128246D6F000E29206E6F6100A8F41C
:10446800D9F46100ACF4DAF46100B4F5DEF461006B
:10447800B8F5DDF48A518B118C118D11D8A447EF52
:1044880022F049EF22F053EF22F0000E286E000EC2
:10449800296E000E2A6E000E2B6E62EF26F0FF0EBC
:1044A8008A156D6F000E8B156E6F000E8C156F6F71
:1044B800000E8D15706F70516F116E1109E1810E2C
:1044C8006D5DD8A06AEF22F06CEF22F07EEF22F04B
:1044D800000E8A27010E8B23000E8C23000E8D23DD
:1044E8007EEF22F0D8908A378B378C378D37860746
:1044F800D8A087078DAF83EF22F085EF22F076EF03
:1045080022F087AF91EF22F0830E865DFF0E875968
:10451800D8B091EF22F093EF22F09FEF22F0FF0E38
:10452800876F810E866F000E8A6F000E8B6F000EEC
:104538008C6F000E8D6F810E861908E18729D8B41B
:10454800A8EF22F0AAEF22F0B2EF22F0D8908A3733
:104558008B378C378D378607D8A0870787BFBEEF84
:1045680022F0875109E1800E865DD8A0BEEF22F0C7
:10457800C0EF22F0CCEF22F0000E8A6F000E8B6F96
:10458800000E8C6F000E8D6F000E876F800E866F89
:10459800090E6D6FD8908D338C338B338A336D2F22
:1045A800CEEF22F0FF0E8A17FF0E8B177F0E8C17A7
:1045B800000E8D177F0E86256D6F000E87216E6F9A
:1045C800FF0E6D156F6F706B716B726B170ED89055
:1045D8006F37703771377237E82EEBEF22F06F5173
:1045E8008A1370518B1371518C1372518D1340EFD4
:1045F80026F085B902EF23F004EF23F018EF23F03B
:104608006100A0F4D9F46100A4F4DAF42E0EDE18E7
:10461800D8A411EF23F013EF23F018EF23F08589C6
:10462800284A292AFDEF22F0D00E6D6FFF0E6E6F1B
:104638006100A0F4D9F46100A4F4DAF4DF506F6FDC
:10464800706B6D516F276E51702370510AE10A0E1D
:104658006F5DD8A032EF23F035EF23F0010E36EF6F
:1046680023F0000E7B6F7C6B7B517C11D8A43FEF4D
:1046780023F041EF23F043EF23F094EF23F08583F9
:10468800090E88198911D8B44CEF23F04EEF23F0A6
:1046980087EF23F085A953EF23F055EF23F058EF68
:1046A80023F08607D8A08707884B892B8AC51AF577
:1046B8008BC51BF58CC51CF58DC51DF50A0E1E6E28
:1046C800000E1F6E000E206E000E216E96EC50F04C
:1046D8001AC58AF51BC58BF51CC58CF51DC58DF54E
:1046E8006100A0F4D9F46100A4F4DAF4DF50050104
:1046F8006D6FD00E6D276D518A27000E8B238C238A
:104708008D2390EF23F085B98CEF23F08EEF23F003
:1047180090EF23F0864B872B284A292AFDEF22F0B9
:10472800000E896F000E886F6100A0F4D9F4610053
:10473800A4F4DAF4650EDE18D8B4A5EF23F0A7EFD9
:1047480023F0B6EF23F06100A0F4D9F46100A4F4DB
:10475800DAF4450EDE18D8A4B4EF23F0B6EF23F050
:10476800BAEF24F0284A292A6100A0F4D9F461009C
:10477800A4F4DAF42D0EDE18D8A4C5EF23F0C7EFA1
:1047880023F0CCEF23F08587284A292ADDEF23F090
:104798006100A0F4D9F46100A4F4DAF42B0EDE1859
:1047A800D8A4D9EF23F0DBEF23F0DDEF23F0284A7C
:1047B800292A6100A0F4D9F46100A4F4DAF4300ED7
:1047C800DE18D8B4EAEF23F0ECEF23F0DBEF23F0A8
:1047D800D00E05016D6FFF0E6E6F6100A0F4D9F465
:1047E8006100A4F4DAF4DF506F6F706B6D516F27BE
:1047F8006E51702370510AE10A0E6F5DD8A007EF61
:1048080024F00AEF24F0010E0BEF24F0000E7D6F68
:104818007E6B7D517E11D8B414EF24F016EF24F08E
:10482800AFEF24F06100A0F4D9F46100A4F4DAF445
:10483800DF506D6FD00E6D276D51886F896B284AD8
:10484800292AD00E6D6FFF0E6E6F6100A0F4D9F4A7
:104858006100A4F4DAF4DF506F6F706B6D516F274D
:104868006E51702370510AE10A0E6F5DD8A03FEFB8
:1048780024F042EF24F0010E43EF24F0000E7F6F86
:10488800806B7F518011D8B44CEF24F04EEF24F0A8
:10489800AFEF24F06100A0F4D9F46100A4F4DAF4D5
:1048A800DF506D6FD00E6D2788C51AF589C51BF5C9
:1048B800000E1D6E0A0E1C6E53EC54F005016D516E
:1048C8001A24886F000E1B20896F284A292AD00EC7
:1048D8006D6FFF0E6E6F6100A0F4D9F46100A4F44F
:1048E800DAF4DF506F6F706B6D516F276E51702364
:1048F80070510AE10A0E6F5DD8A085EF24F088EFA9
:1049080024F0010E89EF24F0000E816F826B815133
:104918008211D8B492EF24F094EF24F0AFEF24F092
:104928006100A0F4D9F46100A4F4DAF4DF506D6FEB
:10493800D00E6D2788C51AF589C51BF5000E1D6EAA
:104948000A0E1C6E53EC54F005016D511A24886F41
:10495800000E1B20896F85A7B4EF24F0B6EF24F072
:10496800BAEF24F0886D891FD8B0892B8851862723
:10497800895187232A502B10D8B4C5EF24F0C7EFEC
:1049880024F0DAEF24F085A3CCEF24F0CEEF24F066
:10499800DAEF24F06100A8F4D9F46100ACF4DAF499
:1049A8006100A0F4DEF46100A4F4DDF48AC51AF510
:1049B8008BC51BF58CC51CF58DC51DF5000E61EC6E
:1049C80042F01AC58AF51BC58BF51CC58CF51DC5AB
:1049D8008DF58AC51AF58BC51BF58CC51CF58DC5DB
:1049E8001DF5000E1E6E000E1F6E000E206E000ECE
:1049F800216E7EEC4DF0D8A004EF25F006EF25F0EF
:104A080010EF25F0000E286E000E296E000E2A6E9B
:104A1800000E2B6E62EF26F0050187BF18EF25F018
:104A280016EF25F0A9EF25F0866D871FD8B0872BE4
:104A38003DEF25F08AC51AF58BC51BF58CC51CF50D
:104A48008DC51DF5F90E1E6E020E1F6E150E206E19
:104A5800500E216E0EEC32F01AC58AF51BC58BF587
:104A68001CC58CF51DC58DF50501F60E8627FF0EB4
:104A7800872387BF4BEF25F0875107E10A0E865D34
:104A8800D8B049EF25F04BEF25F01EEF25F06BEF7E
:104A980025F08AC51AF58BC51BF58CC51CF58DC587
:104AA8001DF5000E1E6E000E1F6E200E206E410EAC
:104AB800216E0EEC32F01AC58AF51BC58BF51CC5A4
:104AC8008CF51DC58DF505018607D8A08707865189
:104AD8008711D8A472EF25F074EF25F04DEF25F07B
:104AE8008AC51AF58BC51BF58CC51CF58DC51DF53A
:104AF800000E1E6E000E1F6E800E206E000E216EC0
:104B0800ACEC47F0D8B08BEF25F08DEF25F040EFF7
:104B180026F0050185A193EF25F095EF25F09FEF8D
:104B280025F0000E286E000E296E800E2A6E800E6B
:104B38002B6E62EF26F0000E286E000E296E800E96
:104B48002A6E000E2B6E62EF26F087BFB4EF25F0B9
:104B5800875108E18605D8A0B4EF25F0B6EF25F017
:104B680040EF26F0D7EF25F08AC51AF58BC51BF55F
:104B78008CC51CF58DC51DF5F90E1E6E020E1F6E37
:104B8800150E206E500E216EE6EC2FF01AC58AF530
:104B98001BC58BF51CC58CF51DC58DF50501F60EDD
:104BA8008627FF0E8723875107E10A0E865DD8B056
:104BB800E0EF25F0E2EF25F0B8EF25F002EF26F060
:104BC8008AC51AF58BC51BF58CC51CF58DC51DF559
:104BD800000E1E6E000E1F6E200E206E410E216EFE
:104BE800E6EC2FF01AC58AF51BC58BF51CC58CF5AC
:104BF8001DC58DF505018607D8A087078651871141
:104C0800D8A409EF26F00BEF26F0E4EF25F0FF0E0D
:104C18001A6EFF0E1B6E7F0E1C6E7F0E1D6E8AC5F0
:104C28001EF58BC51FF58CC520F58DC521F5ACEC9F
:104C380047F0D8B022EF26F024EF26F040EF26F018
:104C4800050185A12AEF26F02CEF26F036EF26F095
:104C5800000E286E000E296E800E2A6E800E2B6EB6
:104C680062EF26F0000E286E000E296E800E2A6E66
:104C7800000E2B6E62EF26F0050185A146EF26F0A7
:104C880048EF26F05AEF26F08AC51AF58BC51BF5B2
:104C98008CC51CF58DC51DF5A1EC53F01AC58AF518
:104CA8001BC58BF51CC58CF51DC58DF58AC528F56A
:104CB8008BC529F58CC52AF58DC52BF51200610029
:104CC8004CF6D9F4610050F6DAF4DEC4F6F4DEC42A
:104CD800F7F4150EF76403D00800F55005D0F6C4B4
:104CE800E9F4F7C4EAF4EF50250AD8A47EEF26F0D9
:104CF80080EF26F02CEF2AF061004CF6D9F4610021
:104D080050F6DAF4DE2A000EDD22000E376E000EB1
:104D1800366E36C53AF537C53BF538683968000E42
:104D28000501A96F000EA86FEEEF26F03A8061002A
:104D38004CF6D9F4610050F6DAF4DE2A000EDD22D2
:104D4800EEEF26F03A829BEF26F03A849BEF26F0AE
:104D58003A869BEF26F03A889BEF26F0000EA96F63
:104D6800010EA86FEEEF26F061004CF6D9F4610051
:104D780050F6DAF4DEC4F6F4DEC4F7F4150EF76480
:104D880003D00800F55005D0F6C4E9F4F7C4EAF4F6
:104D9800EF500501976F986B9851000AD8B4D7EF78
:104DA80026F0B2EF26F09751200AD8B4ACEF26F0DF
:104DB800030AD8B4AFEF26F0080AD8B4A9EF26F052
:104DC800060AD8B49AEF26F01D0AD8B4A6EF26F042
:104DD800B2EF26F0A851A911D8B4F5EF26F0F7EFF5
:104DE80026F0B8EF26F03AA0FCEF26F0FEEF26F00A
:104DF800FFEF26F03A9261004CF6D9F4610050F6C4
:104E0800DAF4DEC4F6F4DEC4F7F4150EF76403D062
:104E18000800F55005D0F6C4E9F4F7C4EAF4EF50F9
:104E28002A0AD8A41AEF27F01CEF27F04FEF27F033
:104E380061004CF6D9F4610050F6DAF4DE2A000E6F
:104E4800DD22610054F6D9F4610058F6DAF4610005
:104E58007CF397F5020EDE2661007CF398F5000ED0
:104E6800DD2261005CF6D9F4610060F6DAF46100D5
:104E780078F336F5610074F337F537BE48EF27F05D
:104E880046EF27F0A5EF27F03A80366C371ED8B0EA
:104E9800372AA5EF27F061004CF6D9F4610050F6E7
:104EA800DAF4610078F321F5610074F322F580ECFF
:104EB8003EF021C536F522C537F56CEF27F06100C5
:104EC8004CF6D9F4610050F6DAF4DE2A000EDD2241
:104ED800D00E0501976FFF0E986F61004CF6D9F45C
:104EE800610050F6DAF4DEC4F6F4DEC4F7F4150E09
:104EF800F76403D00800F55005D0F6C4E9F4F7C408
:104F0800EAF4EF500501996F9A6B975199279851D8
:104F18009A239A510AE10A0E995DD8A096EF27F0D4
:104F280099EF27F0010E9AEF27F0000EAA6FAB6BEE
:104F3800AA51AB11D8A4A3EF27F0A5EF27F063EF90
:104F480027F061004CF6D9F4610050F6DAF4DEC4BB
:104F5800F6F4DEC4F7F4150EF76403D00800F55034
:104F680005D0F6C4E9F4F7C4EAF4EF50640AD8B4FB
:104F7800C0EF27F0C2EF27F0DFEF27F061004CF613
:104F8800D9F4610050F6DAF4DEC4F6F4DEC4F7F4BE
:104F9800150EF76403D00800F55005D0F6C4E9F4FF
:104FA800F7C4EAF4EF50690AD8A4DDEF27F0DFEF81
:104FB80027F02AEF28F061004CF6D9F4610050F68A
:104FC800DAF4DE2A000EDD22610054F6D9F461001D
:104FD80058F6DAF461007CF397F5020EDE266100DC
:104FE8007CF398F5000EDD2261005CF6D9F46100CF
:104FF80060F6DAF4610078F39BF5610074F39CF5D0
:105008000501000E9CBFFF0E9D6F9E6F9F6FA06FE6
:10501800A16FA26F91C56AF592C56BF59BC56CF53A
:105028009CC56DF59DC56EF59EC56FF59FC570F560
:10503800A0C571F5A1C572F5A2C573F598EC35F058
:105048006AC591F56BC592F557EF2AF061004CF6E9
:10505800D9F4610050F6DAF4DEC4F6F4DEC4F7F4ED
:10506800150EF76403D00800F55005D0F6C4E9F42E
:10507800F7C4EAF4EF506E0AD8A445EF28F047EFDA
:1050880028F091EF28F061004CF6D9F4610050F651
:10509800DAF4DE2A000EDD22610054F6D9F461004C
:1050A80058F6DAF461007CF397F5020EDE2661000B
:1050B8007CF398F5000EDD2261005CF6D9F46100FE
:1050C80060F6DAF4610078F3A5F5610074F3A6F5EB
:1050D800610094F6F6F4610098F6F7F4000EF86EA5
:1050E800150EF76409D06100A4F8F5F40D0061000D
:1050F800A8F8F5F40C000AD0F6C4E9F4F7C4EAF409
:105108006100A4F8EEF46100A8F8EFF4000E0501C0
:10511800926F000E916F57EF2AF061004CF6D9F4A8
:10512800610050F6DAF4DEC4F6F4DEC4F7F4150EC6
:10513800F76403D00800F55005D0F6C4E9F4F7C4C5
:10514800EAF4EF50730AD8A4ACEF28F0AEEF28F0D9
:10515800E3EF28F061004CF6D9F4610050F6DAF478
:10516800DE2A000EDD22610054F6D9F4610058F6FB
:10517800DAF461007CF397F5020EDE2661007CF319
:1051880098F5000EDD2261005CF6D9F4610060F646
:10519800DAF4610078F3A3F5610074F3A4F591C51E
:1051A80025F592C526F5A3C527F5A4C528F512EC63
:1051B80044F025C591F526C592F557EF2AF0610010
:1051C8004CF6D9F4610050F6DAF4DEC4F6F4DEC425
:1051D800F7F4150EF76403D00800F55005D0F6C4AF
:1051E800E9F4F7C4EAF4EF50750AD8A4FEEF28F002
:1051F80000EF29F04CEF29F061004CF6D9F461007A
:1052080050F6DAF4DE2A000EDD22610054F6D9F4F5
:10521800610058F6DAF461007CF397F5020EDE2699
:1052280061007CF398F5000EDD2261005CF6D9F48C
:10523800610060F6DAF4610078F399F5610074F3BF
:105248009AF599C5ACF59AC5ADF50501AE6BAF6B8E
:10525800B06BB16BB26BB36B91C56AF592C56BF568
:10526800ACC56CF5ADC56DF5AEC56EF5AFC56FF5E2
:10527800B0C570F5B1C571F5B2C572F5B3C573F5B2
:1052880091EC3FF06AC591F56BC592F557EF2AF09E
:1052980061004CF6D9F4610050F6DAF4DEC4F6F495
:1052A800DEC4F7F4150EF76403D00800F55005D0F6
:1052B800F6C4E9F4F7C4EAF4EF50780AD8B467EF13
:1052C80029F069EF29F086EF29F061004CF6D9F44E
:1052D800610050F6DAF4DEC4F6F4DEC4F7F4150E15
:1052E800F76403D00800F55005D0F6C4E9F4F7C414
:1052F800EAF4EF50580AD8A484EF29F086EF29F091
:10530800EAEF29F061004CF6D9F4610050F6DAF4BE
:10531800DEC4F6F4DEC4F7F4150EF76403D0080013
:10532800F55005D0F6C4E9F4F7C4EAF4EF500501E6
:10533800A76F61004CF6D9F4610050F6DAF4DE2A62
:10534800000EDD22610054F6D9F4610058F6DAF453
:1053580061007CF397F5020EDE2661007CF398F578
:10536800000EDD2261005CF6D9F4610060F6DAF423
:10537800610078F399F5610074F39AF599C5ACF575
:105388009AC5ADF5AE6BAF6BB06BB16BB26BB36B6F
:1053980091C56AF592C56BF5ACC56CF5ADC56DF5F3
:1053A800AEC56EF5AFC56FF5B0C570F5B1C571F591
:1053B800B2C572F5B3C573F5A7C574F50BEC37F034
:1053C8006AC591F56BC592F557EF2AF061004CF666
:1053D800D9F4610050F6DAF4DEC4F6F4DEC4F7F46A
:1053E800150EF76403D00800F55005D0F6C4E9F4AB
:1053F800F7C4EAF4EF50250AD8A405EF2AF007EF1E
:105408002AF021EF2AF061004CF6D9F4610050F639
:10541800DAF4DE2A000EDD22000E1D6E250E1C6E4B
:1054280091C51EF592C51FF5A7EC49F0000E0501C0
:10543800926F010E916F57EF2AF061004CF6D9F484
:10544800610050F6DAF4DE2A000EDD228AEF28F039
:1054580061004CF6D9F4610050F6DAF4DEC4F6F4D3
:10546800DEC4F7F4150EF76403D00800F55005D034
:10547800F6C4E9F4F7C4EAF4EF500501976F9751C1
:105488001C6E1D6A91C51EF592C51FF5A7EC49F063
:1054980061004CF6D9F4610050F6DAF4DE2A000E09
:1054A800DD221AEF2AF01200000E0601DC6F000E52
:1054B800DB6F000ED86F000ED76F000EDA6F000E8C
:1054C800D96F000ED46F6F0E256E060E266E560E1F
:1054D800276EFF0E286E4CEC4BF025C5D5F626C579
:1054E800D6F60601D551D611D8B47DEF2AF07FEF54
:1054F8002AF0A0EF2AF03F0E0501BC6F060EBD6F23
:10550800B30EBE6FFE0EBF6F1AC6C0F5C16B1BC6C9
:10551800C2F5C36B1CC6C4F5C56B1DC6C6F5C76B03
:105528002DC6C8F52EC6C9F531C6CAF532C6CBF5A3
:10553800AFEC51F0F9EF2CF06F0E256E060E266ECB
:10554800640E276EFF0E286E4CEC4BF025C5D5F681
:1055580026C5D6F60601D551D611D8B4B6EF2AF02D
:10556800B8EF2AF0B0EF2BF032A3BDEF2AF0BFEF6F
:105578002AF0C3EF2AF0FA0ED46FF9EF2CF0050EDB
:10558800D525BF6F000ED621C06FFE0EC16FFE0E6F
:10559800C26FDB0EC36F060EC46FD70EC56F060E43
:1055A800C66FD90EC76F060EC86F4FEC52F0030EC8
:1055B8000601BF19C011D8A4E4EF2AF0E6EF2AF0DB
:1055C80046EF2BF0DB51DC11D8A4EDEF2AF0EFEF1A
:1055D8002AF0F2EF2AF03291F9EF2CF0DC5109E1D0
:1055E800050EDB5DD8A0FBEF2AF0FDEF2AF000EFF7
:1055F8002BF0D469F9EF2CF0DBC63DF6D85107E162
:10560800650ED75DD8B00BEF2BF00DEF2BF018EF30
:105618002BF01E0EDB25D96E060EDC21DA6E61003A
:105628005CFBDFF41CEF2BF0FE0ED46FF9EF2CF0CF
:10563800DABF27EF2BF0DA5108E1D905D8A027EF18
:105648002BF029EF2BF018EF2BF0DABF37EF2BF008
:10565800D10ED95D070EDA59D8B035EF2BF037EFF8
:105668002BF018EF2BF0D890DB35D96EDC35DA6EDD
:10567800000ED926060EDA22610064FBDEF4610012
:1056880068FBDDF43F0E0501BC6F060EBD6FF90E19
:10569800BE6FFE0EBF6FDBC6C0F5DCC6C1F51E0EC1
:1056A8000601DB25D96E060EDC21DA6EDF50050116
:1056B800F86FF851C26FC36BD8900601DB35D96E0D
:1056C800DC35DA6E000ED926060EDA22610078F390
:1056D800C4F5610074F3C5F5AFEC51F00601315122
:1056E8000F0B0501F86FDBC6F9F5FF0EF927010E60
:1056F800FA6FF92B82EF2BF0D890FA37F92F80EF59
:105708002BF00501FA51F8150009D8B48EEF2BF0EB
:1057180090EF2BF0ABEF2BF0DBC6F8F5FF0EF82778
:10572800010EF96FF82B9BEF2BF0D890F937F82F73
:1057380099EF2BF00501F93B060131510501F919E3
:105748000F0BF9190601316F3281F9EF2CF0FB0EBE
:105758000601D46FF9EF2CF06F0E256E060E266E3B
:105768005E0E276EFF0E286E4CEC4BF025C5D5F665
:1057780026C5D6F60601D551D611D8B4C6EF2BF0FA
:10578800C8EF2BF068EF2CF0050ED525BF6F000E83
:10579800D621C06FF20EC16FFE0EC26FDB0EC36F53
:1057A800060EC46FD90EC56F060EC66F4FEC52F0C9
:1057B800020E0601BF19C011D8A4E5EF2BF0E7EFE0
:1057C8002BF02DEF2CF0DB51DC11D8A4EEEF2BF0F1
:1057D800F0EF2BF0F4EF2BF0F00E3117F9EF2CF07F
:1057E800DC5109E1050EDB5DD8A0FDEF2BF0FFEFE2
:1057F8002BF001EF2CF0FDEF2AF0DBC63DF6DABF07
:105808000EEF2CF0DA5108E1D905D8A00EEF2CF0F4
:1058180010EF2CF018EF2BF0DABF1EEF2CF0E90E8A
:10582800D95D030EDA59D8B01CEF2CF01EEF2CF01E
:1058380018EF2BF0D890DB35D96EDC35DA6E000E18
:10584800D926060EDA22610064FBDEF4610068FBEB
:10585800DDF43F0E0501BC6F060EBD6F150EBE6F61
:10586800FF0EBF6FDBC6C0F5DCC6C1F5D8900601D8
:10587800DB35D96EDC35DA6E000ED926060EDA2253
:10588800610078F3C2F5610074F3C3F5AFEC51F031
:10589800DBC6F8F5FF0E0501F827010EF96FF82BA6
:1058A80058EF2CF0D890F937F82F56EF2CF0050167
:1058B800F93B060131510501F9190F0BF9190601D8
:1058C800316F3283F9EF2CF06F0E256E060E266EBF
:1058D8003D0E276EFF0E286E4CEC4BF025C5D5F615
:1058E80026C5D6F60601D551D611D8B47EEF2CF0D0
:1058F80080EF2CF091EF2CF03F0E0501BC6F060EE7
:10590800BD6F080EBE6FFF0EBF6F6A0EC06FFF0E31
:10591800C16FAFEC51F0F9EF2CF06F0E256E060E4B
:10592800266E4E0E276EFF0E286E4CEC4BF025C5EA
:10593800D5F626C5D6F60601D551D611D8B4A7EFA7
:105948002CF0A9EF2CF0C2EF2CF03F0E0501BC6F34
:10595800060EBD6FE50EBE6FFE0EBF6F1FC6C0F50B
:10596800C16B20C6C2F5C36B21C6C4F5C56B22C680
:10597800C6F5C76BAFEC51F0F9EF2CF06F0E256E42
:10598800060E266E460E276EFF0E286E4CEC4BF068
:1059980025C5D5F626C5D6F60601D551D611D8B4F3
:1059A800D8EF2CF0DAEF2CF0F7EF2CF03F0E0501D2
:1059B800BC6F060EBD6FD10EBE6FFE0EBF6F02C666
:1059C800C0F503C6C1F504C6C2F505C6C3F506C6CB
:1059D800C4F507C6C5F508C6C6F509C6C7F5AFECD0
:1059E80051F0F9EF2CF0FC0ED46F0601D451D8B465
:1059F80000EF2DF002EF2DF014EF2DF03F0E050112
:105A0800BC6F060EBD6F210EBE6FFF0EBF6F060185
:105A1800D4510501C06FC16BC0BFC107AFEC51F0D5
:105A28003F0E0501BC6F060EBD6F7DEC54F0000EF5
:105A380006013E6F000ED36F6F0ED325D96EDA6A5A
:105A4800060EDA22000EDF6ED32B2F0ED3652FEF52
:105A58002DF031EF2DF020EF2DF0000E466E37EFD0
:105A68002DF00201A151B7B03CEF2DF03EEF2DF023
:105A780035EF2DF0AC80120021EE92F1070EDE6AB0
:105A8800E806FDE268C59AF569C59BF505019A51D6
:105A98009B11D8B452EF2DF054EF2DF0B4EF2FF046
:105AA800610068F6D9F461006CF6DAF4DF50D8A426
:105AB80060EF2DF062EF2DF064EF2DF0B4EF2FF0D2
:105AC800610068F6D9F461006CF6DAF4DF509C6F77
