:10000000FEEF03F0FF00FF00FF00FF00FF00FF0016
:10001000FF00FF00FF00FF00FF00FF00FF00FF00E8
:10002000FF00FF00FF00FF00FF00FF00FF00FF00D8
:10003000FF00FF00FF00FF00FF00FF00FF00FF00C8
:10004000FF00FF00FF00FF00FF00FF00FF00FF00B8
:1002D000FF00FF00FF00FF00C694BE941200000E56
:1002E000F86E000151EF02F0326E0A0E326003D058
:1002F0003250300F12003250370F1200600E0001E2
:10030000AD6F000EAF6F500EB36F050EB16F000EE4
:10031000B06F000EAC6F1200000E0001636F000E94
:10032000646F000E656F000E666F000E676F000E43
:10033000686F1200326E140E336E05D0420EE82E36
:10034000FED700D03306B7B203D03350D8A4F6D7C7
:10035000B7A212006100C8F4A3F21200C88404011D
:1003600010950201AC9F000EAF6F190EAE6F300EEC
:10037000AB6F000EAD6FAD9DAD95120E726F100E8E
:100380000E6FAC8F1200D69E7EEC01F08CEC01F06B
:100390006CEC01F0AEEC01F0FE0E0001436FFF0EBD
:1003A000446F3F0E456FF80E4117408140B1FED7B4
:1003B000600018F103F560001CF104F50FD0000E89
:1003C000016E090E026E1200000E016E0D0E026E1D
:1003D0001200000E016E150E026E120003C532F5FA
:1003E00004C533F53350740AD8B404D0010AD8B424
:1003F00006D0EFD73250E00AD8B4E6D7EAD7325069
:10040000200AD8B4DCD7400AE4D76100C8F4D9F494
:100410006100CCF4DAF4DF50356E600E356401D043
:10042000359A2F0E356409D0470E356006D0390E47
:10043000356405D0410E356002D0000E1200300E3A
:10044000355E090E356402D0070E355E35C534F5CC
:10045000324A332A6100C8F4D9F46100CCF4DAF4EA
:10046000DF50356E600E356401D0359A2F0E35643D
:1004700009D0470E356006D0390E356405D0410EDF
:10048000356002D034501200300E355E090E3564EE
:1004900002D0070E355E3450100DF3503524346E03
:1004A000F1D78CEC01F07EEC01F0000E466F000EEF
:1004B000436F000E446F380E456FF80E41174081B0
:1004C000000E426E000140A10CD0060E366E300EBA
:1004D000E82EFED7362EFCD700D0422A130E4264F7
:1004E000F1D700014629D8B406D0000EFC6E000EEC
:1004F000E06E00EF04F0C3EC01F0000E3D6E79D128
:10050000000E456E050E4524D96EDA6A050EDA2214
:10051000000EDF6E452A2C0E4564F4D7000E416EA6
:10052000000E4B6E1DD0B7A0FED70201B2A302D0C1
:10053000A1511CD0600084FA48F50A0E4818D8A4CE
:1005400005D0010E4B6412D0010E416E050E4B24F6
:10055000D96EDA6A050EDA22610020F5DFF44B2A43
:100560004150D8A403D02C0E4B64DDD7050E4B248C
:10057000D96EDA6A050EDA22000EDF6E0A0E4B64BF
:1005800018D14150D8B415D13A0E0518D8A411D1BC
:100590000C0E326E050E336E05EC02F03F6E060E49
:1005A000326E050E336E05EC02F0446E080E326EAC
:1005B000050E336E05EC02F0366E3650496E4A6A0F
:1005C00049504A6E496A0A0E326E050E336E05ECCA
:1005D00002F0366E36504926000E4A224450366EDE
:1005E000376AD890363637360E0E3624326E050E00
:1005F0003720336E05EC02F03E6ED89049307F0B09
:10060000406E3F50D8A4A8D0080E4A5CD8B049B07C
:10061000A3D044C536F5D8903632365040C537F5AC
:10062000386A3726000E382238BE08D0385005E127
:10063000810E375CD8B090D001D08ED0610024F507
:1006400043F0610028F544F00001456B4151F80B7F
:100650000209416FD69E408140B1FED74050366EB0
:10066000376AD8903636373636500124396E3750CF
:1006700002203A6E000E466E2ED0100E4624326EC8
:10068000336A050E332205EC02F0366E36503B6EAF
:100690003C6A3B503C6E3B6A0E0E4624326E336A17
:1006A000050E332205EC02F0366E36503B26000E66
:1006B0003C226100E4F4D9F46100E8F4DAF461006A
:1006C000ECF4DEF46100F0F4DDF4020E3926000EE5
:1006D0003A22040E462644C536F5D89036323650B6
:1006E000465CD8A0CAD7610024F543F0610028F524
:1006F00044F00001456B4151F80B0609416F550E5E
:10070000426FAA0E426F408140B1FED741AF01D087
:1007100070D04151F80B0509416F550E426FAA0E7A
:10072000426F408140B1FED741AF01D062D0F80E98
:1007300041173E380F0B74EC01F09AEC01F03E507B
:100740000F0B74EC01F09AEC01F00D0E9AEC01F035
:100750000A0E9AEC01F04DD03F04D8A42AD0010E25
:100760003D6ED69E000E0001436F000E446F380EA2
:10077000456F000E466F4151F80B0309416F550E4E
:10078000426FAA0E426F4081000E436E0CD00001F2
:1007900040A10CD0060E366E300EE82EFED7362E57
:1007A000FCD700D0432A130E4364F1D7F80E0001A2
:1007B0004117000E476E2C0E476401D011D0050E74
:1007C0004724D96EDA6A050EDA22DF50486E200E11
:1007D000486001D005D048509AEC01F0472AEBD789
:1007E0000D0E9AEC01F00A0E9AEC01F00201B2AF84
:1007F000FDD73D50D8B484D6FF00FFD76FEF01F08E
:100800005DEF04F0FF00FF00612461246124612496
:1008100061246124612436246124612461246124DB
:10082000612461246124612461242E022E022E029F
:10083000612461246124612461246124612463248E
:1008400062246124612426242921612461246124F5
:100850006124612461249A196124612461242E0297
:100860006124612461246124612461246124612460
:100870006124612461242E026124612461246124A5
:100880002E02612461246124612461246124612495
:100890002E0261242E0261246124612461246124DA
:1008A000612461246124612461242E022E026124CA
:1008B0006124612461246124FF0054EF43F061004E
:1008C000F4F6D9F46100F8F6DAF4DEC4F6F4DDC427
:1008D000F7F40800F550250AD8A45BEF1CF061007E
:1008E000F4F6D9F46100F8F6DAF4DE2A000EDD221F
:1008F000000E2E6E000E2D6E2DC5FDF52EC5FEF5DB
:100900006100F4F6D9F46100F8F6DAF4DEC4F6F426
:10091000DDC4F7F40800F5502A0AD8A40DD0610010
:10092000F4F6D9F46100F8F6DAF4DE2A000EDD22DE
:10093000000EFE6F010EFD6F6100F4F6D9F4610048
:10094000F8F6DAF4610078F322F5610074F323F528
:1009500025EC34F022C52DF523C52EF509D0610014
:10096000F4F6D9F46100F8F6DAF4DE2A000EDD229E
:10097000D00EC16FFF0EC26F6100F4F6D9F46100B2
:10098000F8F6DAF4DEC4F6F4DDC4F7F40800F55046
:10099000C36FC46BC151C327C251C423C45106E104
:1009A0000A0EC35DD8B002D0010E01D0000ECD6F8B
:1009B000CE6BCD51CE11D8A4D2D76100F4F6D9F4C4
:1009C0006100F8F6DAF4DEC4F6F4DDC4F7F40800EA
:1009D000F550216E226A9EEC45F02150D36FD35121
:1009E000D8B43FD06100F4F6D9F46100F8F6DAF437
:1009F000610078F3C1F5610074F3C2F5010EC127FF
:100A0000000EC223610004F7F6F4610008F7F7F462
:100A10000800F550216E226A9EEC45F02150D46FFB
:100A2000D451D8B41ED06100F4F6D9F46100F8F6C0
:100A3000DAF4610078F3C1F5610074F3C2F5020ED7
:100A4000C127000EC223610004F7F6F4610008F725
:100A5000F7F40800F550216E226A9EEC45F0215013
:100A6000D56F6100F4F6D9F46100F8F6DAF4DEC46B
:100A7000F6F4DDC4F7F40800F550630AD8A447D0B3
:100A80006100F4F6D9F46100F8F6DAF4DE2A000E1B
:100A9000DD22FD51FE11D8A427D06100FCF6D9F467
:100AA000610000F7DAF461007CF3C1F5020EDE2686
:100AB00061007CF3C2F5000EDD22610004F7D9F479
:100AC000610008F7DAF4610078F3EAF5610074F385
:100AD000EBF5BBC526F5BCC527F5EAC528F5EBC582
:100AE00029F5DAEC3CF00AD0BBC526F5BCC527F5E4
:100AF000000E286E000E296EDAEC3CF026C5ECF5EF
:100B000027C5EDF5ECC5BBF5EDC5BCF512006100E0
:100B1000F4F6D9F46100F8F6DAF4610078F31BF525
:100B2000610074F31CF5840E1D6EFF0E1E6E000E28
:100B3000206E030E1F6E62EC3DF01B501C10D8B4EB
:100B40001AD06100F4F6D9F46100F8F6DAF4610025
:100B500078F31BF5610074F31CF58C0E1D6EFF0E0F
:100B60001E6E000E206E030E1F6E62EC3DF01B50D9
:100B70001C10D8A457D0030E6100F4F6D9F461001C
:100B8000F8F6DAF4DE26000EDD22BBC5A5F5BCC5FD
:100B9000A6F5DA0E0501A76F050EA86FBAEC36F0C0
:100BA000A5C5ECF5A6C5EDF5FD51FE11D8B4EDBF18
:100BB000A9D7ED5103E1EC05D8A0A4D76100FCF65C
:100BC000D9F4610000F7DAF461007CF3C1F5020E9C
:100BD000DE2661007CF3C2F5000EDD22610004F721
:100BE000D9F4610008F7DAF4610078F3EAF56100FE
:100BF00074F3EBF56100A8F7F6F46100ACF7F7F4D5
:100C0000000EF86E150EF76405D0610068F7F5F474
:100C10000C0007D0F6C4E1F4F7C4E2F4610068F711
:100C2000E7F470D76100F4F6D9F46100F8F6DAF46D
:100C3000610078F31BF5610074F31CF5850E1D6EE1
:100C4000FF0E1E6E000E206E020E1F6E62EC3DF057
:100C50001B501C10D8B41AD06100F4F6D9F461000E
:100C6000F8F6DAF4610078F31BF5610074F31CF513
:100C70008D0E1D6EFF0E1E6E000E206E020E1F6E7C
:100C800062EC3DF01B501C10D8A455D0020E610040
:100C9000F4F6D9F46100F8F6DAF4DE26000EDD226F
:100CA000BBC5A5F5BCC5A6F5DA0E0501A76F050EF7
:100CB000A86FBAEC36F0A5C5ECF5A6C5EDF5FD516B
:100CC000FE11D8B4EDBF1ED7ED5103E1EC05D8A05D
:100CD00019D76100FCF6D9F4610000F7DAF461007D
:100CE0007CF3C1F5020EDE2661007CF3C2F5000E36
:100CF000DD22610004F7D9F4610008F7DAF461003D
:100D000078F3EAF5610074F3EBF56100A8F7F6F407
:100D10006100ACF7F7F4000EF86E150EF76409D019
:100D2000610068F7F5F40D0061006CF7F5F40C0054
:100D300001D08BD3E7D66100F4F6D9F46100F8F660
:100D4000DAF4DEC4F6F4DDC4F7F40800F550640A02
:100D5000D8B40FD06100F4F6D9F46100F8F6DAF4F3
:100D6000DEC4F6F4DDC4F7F40800F550690AD8A42F
:100D700054D06100F4F6D9F46100F8F6DAF4DE2A12
:100D8000000EDD22BBC5A5F5BCC5A6F5DA0E050132
:100D9000A76F050EA86FBAEC36F0A5C5ECF5A6C591
:100DA000EDF5FD51FE11D8B4EDBFACD6ED5103E128
:100DB000EC05D8A0A7D66100FCF6D9F4610000F7D5
:100DC000DAF461007CF3C1F5020EDE2661007CF3EB
:100DD000C2F5000EDD22610004F7D9F4610008F7C6
:100DE000DAF4610078F3EAF5610074F3EBF5610081
:100DF000A8F7F6F46100ACF7F7F4000EF86E150EE4
:100E0000F76409D0610068F7F5F40D0061006CF734
:100E1000F5F40C0001D019D375D66100F4F6D9F4BD
:100E20006100F8F6DAF4610078F31BF5610074F301
:100E30001CF5890E1D6EFF0E1E6E000E206E020E3A
:100E40001F6E62EC3DF01B501C10D8B41AD061002C
:100E5000F4F6D9F46100F8F6DAF4610078F31BF5E2
:100E6000610074F31CF5910E1D6EFF0E1E6E000ED8
:100E7000206E020E1F6E62EC3DF01B501C10D8A4B9
:100E80005DD0020E6100F4F6D9F46100F8F6DAF4F0
:100E9000DE26000EDD22BBC5A5F5BCC5A6F5DA0E23
:100EA0000501A76F050EA86FBAEC36F0A5C5ECF5E5
:100EB000A6C5EDF5FD51FE11D8B4EDBF23D6ED5119
:100EC00003E1EC05D8A01ED66100FCF6D9F4610060
:100ED00000F7DAF461007CF3C1F5020EDE26610052
:100EE0007CF3C2F5000EDD22610004F7D9F4610045
:100EF00008F7DAF4610078F3EAF5610074F3EBF5D2
:100F00006100A8F7F6F46100ACF7F7F4000EF86E94
:100F1000150EF76411D0610068F7F5F40D0061005B
:100F20006CF7F5F40D00610070F7F5F40D00610049
:100F300074F7F5F40C0001D0EDD1E4D56100F4F6BE
:100F4000D9F46100F8F6DAF4610078F31BF561007A
:100F500074F31CF5880E1D6EFF0E1E6E000E206EC3
:100F6000030E1F6E62EC3DF01B501C10D8B41AD05B
:100F70006100F4F6D9F46100F8F6DAF4610078F370
:100F80001BF5610074F31CF5900E1D6EFF0E1E6EB6
:100F9000000E206E030E1F6E62EC3DF01B501C1005
:100FA000D8A46DD0030E6100F4F6D9F46100F8F610
:100FB000DAF4DE26000EDD22BBC5A5F5BCC5A6F51C
:100FC000DA0E0501A76F050EA86FBAEC36F0A5C5BD
:100FD000ECF5A6C5EDF5FD51FE11D8B4EDBF92D5E7
:100FE000ED5103E1EC05D8A08DD56100FCF6D9F4F4
:100FF000610000F7DAF461007CF3C1F5020EDE2631
:1010000061007CF3C2F5000EDD22610004F7D9F423
:10101000610008F7DAF4610078F3EAF5610074F32F
:10102000EBF56100A8F7F6F46100ACF7F7F4000EF9
:10103000F86E150EF76421D0610068F7F5F40D0025
:1010400061006CF7F5F40D00610070F7F5F40D0028
:10105000610074F7F5F40D00610078F7F5F40D0008
:1010600061007CF7F5F40D00610080F7F5F40D00E8
:10107000610084F7F5F40C0001D0A0D043D56100E5
:10108000F4F6D9F46100F8F6DAF4610078F31BF5B0
:10109000610074F31CF5C00E1D6EFF0E1E6E000E77
:1010A000206E020E1F6E62EC3DF01B501C10D8B477
:1010B0001AD06100F4F6D9F46100F8F6DAF46100B0
:1010C00078F31BF5610074F31CF5D20E1D6EFF0E54
:1010D0001E6E000E206E020E1F6E62EC3DF01B5065
:1010E0001C10D8A488D0020E6100F4F6D9F4610077
:1010F000F8F6DAF4DE26000EDD22BBC5A5F5BCC588
:10110000A6F5DA0E0501A76F050EA86FBAEC36F04A
:10111000A5C5ECF5A6C5EDF5FD51FE11D8B4EDBFA2
:10112000F1D4ED5103E1EC05D8A0ECD46100FCF65C
:10113000D9F4610000F7DAF461007CF3C1F5020E26
:10114000DE2661007CF3C2F5000EDD22610004F7AB
:10115000D9F4610008F7DAF4610078F3EAF5610088
:1011600074F3EBF56100A8F7F6F46100ACF7F7F45F
:10117000000EF86E150EF76421D0610068F7F5F4E3
:101180000D0061006CF7F5F40D00610070F7F5F4E7
:101190000D00610074F7F5F40D00610078F7F5F4C7
:1011A0000D0061007CF7F5F40D00610080F7F5F4A7
:1011B0000D00610084F7F5F40C001CD0F6C4E1F4D6
:1011C000F7C4E2F4610068F7E6F461006CF7E6F456
:1011D000610070F7E6F4610074F7E6F4610078F7F7
:1011E000E6F461007CF7E6F4610080F7E6F4610064
:1011F00084F7E7F487D46100F4F6D9F46100F8F6D7
:10120000DAF4610078F31BF5610074F31CF5C30E8A
:101210001D6EFF0E1E6E000E206E020E1F6E62EC23
:101220003DF01B501C10D8B41AD06100F4F6D9F46C
:101230006100F8F6DAF4610078F31BF5610074F3ED
:101240001CF5D50E1D6EFF0E1E6E000E206E020EDA
:101250001F6E62EC3DF01B501C10D8A46DD0020E26
:101260006100F4F6D9F46100F8F6DAF4DE26000E37
:10127000DD22BBC5A5F5BCC5A6F5DA0E0501A76F35
:10128000050EA86FBAEC36F0A5C5ECF5A6C5EDF5D0
:10129000FD51FE11D8B4EDBF35D4ED5103E1EC059D
:1012A000D8A030D46100FCF6D9F4610000F7DAF47C
:1012B00061007CF3C1F5020EDE2661007CF3C2F50D
:1012C000000EDD22610004F7D9F4610008F7DAF4BA
:1012D000610078F3EAF5610074F3EBF56100A8F7BB
:1012E000F6F46100ACF7F7F4000EF86E150EF76433
:1012F00011D0610068F7F5F40D0061006CF7F5F4AA
:101300000D00610070F7F5F40D00610074F7F5F45D
:101310000C0010D0F6C4E1F4F7C4E2F4610068F701
:10132000E6F461006CF7E6F4610070F7E6F4610042
:1013300074F7E7F482EF05F06100F4F6D9F4610088
:10134000F8F6DAF4610078F31BF5610074F31CF52C
:10135000C60E1D6EFF0E1E6E000E206E020E1F6E5C
:1013600062EC3DF01B501C10D8B41AD06100F4F6AA
:10137000D9F46100F8F6DAF4610078F31BF5610046
:1013800074F31CF5D80E1D6EFF0E1E6E000E206E3F
:10139000020E1F6E62EC3DF01B501C10D8A461D0F1
:1013A000020E6100F4F6D9F46100F8F6DAF4DE26F4
:1013B000000EDD22BBC5A5F5BCC5A6F5DA0E0501FC
:1013C000A76F050EA86FBAEC36F0A5C5ECF5A6C55B
:1013D000EDF5FD51FE11D8B4EDBF82EF05F0ED51F2
:1013E00004E1EC05D8A082EF05F06100FCF6D9F429
:1013F000610000F7DAF461007CF3C1F5020EDE262D
:1014000061007CF3C2F5000EDD22610004F7D9F41F
:10141000610008F7DAF4610078F3EAF5610074F32B
:10142000EBF56100A8F7F6F46100ACF7F7F4000EF5
:10143000F86E150EF76409D0610068F7F5F40D0039
:1014400061006CF7F5F40C000AD0F6C4E1F4F7C4BF
:10145000E2F4610068F7E6F461006CF7E7F482EF0C
:1014600005F0610E0501D319D8B40CD0650ED3195F
:10147000D8B408D0660ED319D8B404D0670ED319E7
:10148000D8A46DD06100F4F6D9F46100F8F6DAF46E
:10149000DE2A000EDD22BBC58FF5BCC590F5D60E49
:1014A000916F050E926F3FEC32F08FC5ECF590C551
:1014B000EDF5FD51FE11D8B4EDBF82EF05F0ED5111
:1014C00004E1EC05D8A082EF05F06100FCF6D9F448
:1014D000610000F7DAF461007CF3C1F5020EDE264C
:1014E00061007CF3C2F5000EDD22610004F7D9F43F
:1014F000610008F7DAF4610078F3EAF5610074F34B
:10150000EBF56100A8F7F6F46100ACF7F7F4000E14
:10151000F86E150EF76411D0610058F7F5F40D0060
:1015200061005CF7F5F40D00610060F7F5F40D0063
:10153000610064F7F5F40C0010D0F6C4E1F4F7C4D0
:10154000E2F4610058F7E6F461005CF7E6F461004C
:1015500060F7E6F4610064F7E7F482EF05F0D30E7C
:101560001B6E050E1C6EBD0E1D6EFF0E1E6E000E58
:10157000206E020E1F6E62EC3DF01B501C10D8B4A2
:1015800036D0D30E1B6E050E1C6EC90E1D6EFF0EDF
:101590001E6E000E206E020E1F6E62EC3DF01B50A0
:1015A0001C10D8B424D0D30E1B6E050E1C6ECC0EAE
:1015B0001D6EFF0E1E6E000E206E020E1F6E62EC80
:1015C0003DF01B501C10D8B412D0D30E1B6E050E6C
:1015D0001C6ECF0E1D6EFF0E1E6E000E206E020ED4
:1015E0001F6E62EC3DF01B501C10D8A4DBD0BBC5B5
:1015F0008FF5BCC590F5D60E0501916F050E926F63
:101600003FEC32F08FC5ECF590C5EDF5FD51FE11C4
:10161000D8B4EDBFBBD0ED5103E1EC05D8A0B6D0F6
:10162000BF0EC16FFF0EC26F6100F4F6D9F4610006
:10163000F8F6DAF4DEC4F6F4DDC4F7F40800F55089
:10164000C36FC46BC151C327C251C423C45106E147
:101650001A0EC35DD8B002D0010E01D0000ECF6FBC
:10166000D06BCF51D011D8B449D06100FCF6D9F479
:10167000610000F7DAF461007CF3C1F5020EDE26AA
:1016800061007CF3C2F5000EDD22610004F7D9F49D
:10169000610008F7DAF4610078F3EAF5610074F3A9
:1016A000EBF56100A8F7F6F46100ACF7F7F4000E73
:1016B000F86E150EF76411D0610058F7F5F40D00BF
:1016C00061005CF7F5F40D00610060F7F5F40D00C2
:1016D000610064F7F5F40C0010D0F6C4E1F4F7C42F
:1016E000E2F4610058F7E6F461005CF7E6F46100AB
:1016F00060F7E6F4610064F7E7F448D06100FCF6B7
:10170000D9F4610000F7DAF461007CF3C1F5020E50
:10171000DE2661007CF3C2F5000EDD22610004F7D5
:10172000D9F4610008F7DAF4610078F3EAF56100B2
:1017300074F3EBF56100A8F7F6F46100ACF7F7F489
:10174000000EF86E150EF76411D0610058F7F5F42D
:101750000D0061005CF7F5F40D00610060F7F5F431
:101760000D00610064F7F5F40C0010D0F6C4E1F44C
:10177000F7C4E2F4610058F7E6F461005CF7E6F4C0
:10178000610060F7E6F4610064F7E7F4020E6100BF
:10179000F4F6D9F46100F8F6DAF4DE26000EDD2264
:1017A00082EF05F06100F4F6D9F46100F8F6DAF49E
:1017B000610078F31BF5610074F31CF59C0E1D6E3F
:1017C000FF0E1E6E000E206E030E1F6E62EC3DF0CB
:1017D0001B501C10D8A455D0030E6100F4F6D9F4A8
:1017E0006100F8F6DAF4DE26000EDD22BBC5A5F5B1
:1017F000BCC5A6F5E20E0501A76F050EA86F4AEC61
:1018000038F0A5C5ECF5A6C5EDF5FD51FE11D8B42F
:10181000EDBF82EF05F0ED5104E1EC05D8A082EFB9
:1018200005F06100FCF6D9F4610000F7DAF461001C
:101830007CF3C1F5020EDE2661007CF3C2F5000EDA
:10184000DD22610004F7D9F4610008F7DAF46100E1
:1018500078F3EAF5610074F3EBF56100A8F7F6F4AC
:101860006100ACF7F7F4000EF86E150EF76405D0C2
:10187000610088F7F5F40C0002D0F7EF17F082EF63
:1018800005F06100F4F6D9F46100F8F6DAF46100CD
:1018900078F31BF5610074F31CF59D0E1D6EFF0EB1
:1018A0001E6E000E206E020E1F6E62EC3DF01B508D
:1018B0001C10D8A459D0020E6100F4F6D9F46100CE
:1018C000F8F6DAF4DE26000EDD22BBC5A5F5BCC5B0
:1018D000A6F5E20E0501A76F050EA86F4AEC38F0D9
:1018E000A5C5ECF5A6C5EDF5FD51FE11D8B4EDBFCB
:1018F00082EF05F0ED5104E1EC05D8A082EF05F090
:101900006100FCF6D9F4610000F7DAF461007CF3C1
:10191000C1F5020EDE2661007CF3C2F5000EDD2269
:10192000610004F7D9F4610008F7DAF4610078F394
:10193000EAF5610074F3EBF56100A8F7F6F46100D5
:10194000ACF7F7F4000EF86E150EF76409D06100DD
:1019500088F7F5F40D0061008CF7F5F40C0002D067
:1019600024EF1CF082EF05F06100F4F6D9F4610079
:10197000F8F6DAF4DEC4F6F4DDC4F7F40800F55046
:101980006F0AD8A458D06100F4F6D9F46100F8F6D3
:10199000DAF4DE2A000EDD22BBC5A5F5BCC5A6F52E
:1019A000E20E0501A76F050EA86F4AEC38F0A5C539
:1019B000ECF5A6C5EDF5FD51FE11D8B4EDBF82EFF3
:1019C00005F0ED5104E1EC05D8A082EF05F06100CF
:1019D000FCF6D9F4610000F7DAF461007CF3C1F59C
:1019E000020EDE2661007CF3C2F5000EDD226100EE
:1019F00004F7D9F4610008F7DAF4610078F3EAF546
:101A0000610074F3EBF56100A8F7F6F46100ACF740
:101A1000F7F4000EF86E150EF76409D0610088F730
:101A2000F5F40D0061008CF7F5F40C0002D024EF02
:101A30001CF082EF05F06100F4F6D9F46100F8F6CD
:101A4000DAF4610078F31BF5610074F31CF5A10E64
:101A50001D6EFF0E1E6E000E206E020E1F6E62ECDB
:101A60003DF01B501C10D8A461D0020E6100F4F6AA
:101A7000D9F46100F8F6DAF4DE26000EDD22BBC5EB
:101A8000A5F5BCC5A6F5E20E0501A76F050EA86F6A
:101A90004AEC38F0A5C5ECF5A6C5EDF5FD51FE11F3
:101AA000D8B4EDBF82EF05F0ED5104E1EC05D8A00C
:101AB00082EF05F06100FCF6D9F4610000F7DAF47A
:101AC00061007CF3C1F5020EDE2661007CF3C2F5F5
:101AD000000EDD22610004F7D9F4610008F7DAF4A2
:101AE000610078F3EAF5610074F3EBF56100A8F7A3
:101AF000F6F46100ACF7F7F4000EF86E150EF7641B
:101B000011D0610088F7F5F40D0061008CF7F5F451
:101B10000D00610090F7F5F40D00610094F7F5F405
:101B20000C0002D089EF1BF082EF05F06100F4F6A3
:101B3000D9F46100F8F6DAF4610078F31BF561007E
:101B400074F31CF5A00E1D6EFF0E1E6E000E206EAF
:101B5000030E1F6E62EC3DF01B501C10D8A471D018
:101B6000030E6100F4F6D9F46100F8F6DAF4DE262B
:101B7000000EDD22BBC5A5F5BCC5A6F5E20E05012C
:101B8000A76F050EA86F4AEC38F0A5C5ECF5A6C501
:101B9000EDF5FD51FE11D8B4EDBF82EF05F0ED512A
:101BA00004E1EC05D8A082EF05F06100FCF6D9F461
:101BB000610000F7DAF461007CF3C1F5020EDE2665
:101BC00061007CF3C2F5000EDD22610004F7D9F458
:101BD000610008F7DAF4610078F3EAF5610074F364
:101BE000EBF56100A8F7F6F46100ACF7F7F4000E2E
:101BF000F86E150EF76421D0610088F7F5F40D003A
:101C000061008CF7F5F40D00610090F7F5F40D001C
:101C1000610094F7F5F40D00610098F7F5F40D00FC
:101C200061009CF7F5F40D006100A0F7F5F40D00DC
:101C30006100A4F7F5F40C0002D0DAEF1AF082EF9D
:101C400005F06100F4F6D9F46100F8F6DAF4610009
:101C500078F31BF5610074F31CF5E40E1D6EFF0EA6
:101C60001E6E000E206E020E1F6E62EC3DF01B50C9
:101C70001C10D8A471D0020E6100F4F6D9F46100F2
:101C8000F8F6DAF4DE26000EDD22BBC5A5F5BCC5EC
:101C9000A6F5E20E0501A76F050EA86F4AEC38F015
:101CA000A5C5ECF5A6C5EDF5FD51FE11D8B4EDBF07
:101CB00082EF05F0ED5104E1EC05D8A082EF05F0CC
:101CC0006100FCF6D9F4610000F7DAF461007CF3FE
:101CD000C1F5020EDE2661007CF3C2F5000EDD22A6
:101CE000610004F7D9F4610008F7DAF4610078F3D1
:101CF000EAF5610074F3EBF56100A8F7F6F4610012
:101D0000ACF7F7F4000EF86E150EF76421D0610001
:101D100088F7F5F40D0061008CF7F5F40D00610013
:101D200090F7F5F40D00610094F7F5F40D006100F3
:101D300098F7F5F40D0061009CF7F5F40D006100D3
:101D4000A0F7F5F40D006100A4F7F5F40C0002D043
:101D5000DAEF1AF082EF05F06100F4F6D9F46100D1
:101D6000F8F6DAF4610078F31BF5610074F31CF502
:101D7000E70E1D6EFF0E1E6E000E206E020E1F6E11
:101D800062EC3DF01B501C10D8A461D0020E610023
:101D9000F4F6D9F46100F8F6DAF4DE26000EDD225E
:101DA000BBC5A5F5BCC5A6F5E20E0501A76F050EDE
:101DB000A86F4AEC38F0A5C5ECF5A6C5EDF5FD51C8
:101DC000FE11D8B4EDBF82EF05F0ED5104E1EC0552
:101DD000D8A082EF05F06100FCF6D9F4610000F7AD
:101DE000DAF461007CF3C1F5020EDE2661007CF3BB
:101DF000C2F5000EDD22610004F7D9F4610008F796
:101E0000DAF4610078F3EAF5610074F3EBF5610050
:101E1000A8F7F6F46100ACF7F7F4000EF86E150EB3
:101E2000F76411D0610088F7F5F40D0061008CF7BC
:101E3000F5F40D00610090F7F5F40D00610094F7E2
:101E4000F5F40C0002D089EF1BF082EF05F0610081
:101E5000F4F6D9F46100F8F6DAF4610078F31BF5D2
:101E6000610074F31CF5EA0E1D6EFF0E1E6E000E6F
:101E7000206E020E1F6E62EC3DF01B501C10D8A4A9
:101E800059D0020E6100F4F6D9F46100F8F6DAF4E4
:101E9000DE26000EDD22BBC5A5F5BCC5A6F5E20E0B
:101EA0000501A76F050EA86F4AEC38F0A5C5ECF543
:101EB000A6C5EDF5FD51FE11D8B4EDBF82EF05F0DA
:101EC000ED5104E1EC05D8A082EF05F06100FCF6CD
:101ED000D9F4610000F7DAF461007CF3C1F5020E79
:101EE000DE2661007CF3C2F5000EDD22610004F7FE
:101EF000D9F4610008F7DAF4610078F3EAF56100DB
:101F000074F3EBF56100A8F7F6F46100ACF7F7F4B1
:101F1000000EF86E150EF76409D0610088F7F5F42D
:101F20000D0061008CF7F5F40C0002D024EF1CF0DA
:101F300082EF05F06100F4F6D9F46100F8F6DAF406
:101F4000610078F31BF5610074F31CF5940E1D6EAF
:101F5000FF0E1E6E000E206E030E1F6E62EC3DF033
:101F60001B501C10D8A443D0030E6100F4F6D9F422
:101F70006100F8F6DAF4DE26000EDD226100FCF6E0
:101F8000D9F4610000F7DAF461007CF3C1F5020EC8
:101F9000DE2661007CF3C2F5000EDD22610004F74D
:101FA000D9F4610008F7DAF4610078F3EAF561002A
:101FB00074F3EBF56100A8F7F6F46100ACF7F7F401
:101FC000000EF86E150EF76405D06100ECF7F5F41D
:101FD0000C0007D0F6C4E1F4F7C4E2F46100ECF7BA
:101FE000E7F4000E0501BC6F000EBB6F120061002C
:101FF000F4F6D9F46100F8F6DAF4610078F31BF531
:10200000610074F31CF5950E1D6EFF0E1E6E000E22
:10201000206E020E1F6E62EC3DF01B501C10D8A407
:102020003CD0020E6100F4F6D9F46100F8F6DAF45F
:10203000DE26000EDD226100FCF6D9F4610000F717
:10204000DAF461007CF3C1F5020EDE2661007CF358
:10205000C2F5000EDD22610004F7D9F4610008F733
:10206000DAF4610078F3EAF5610074F3EBF56100EE
:10207000A8F7F6F46100ACF7F7F4000EF86E150E51
:10208000F76409D06100ECF7F5F40D006100F0F79A
:10209000F5F40C0001D091D2A4D76100F4F6D9F484
:1020A0006100F8F6DAF4DEC4F6F4DDC4F7F40800F3
:1020B000F5506E0AD8A43BD06100F4F6D9F4610063
:1020C000F8F6DAF4DE2A000EDD226100FCF6D9F41F
:1020D000610000F7DAF461007CF3C1F5020EDE2640
:1020E00061007CF3C2F5000EDD22610004F7D9F433
:1020F000610008F7DAF4610078F3EAF5610074F33F
:10210000EBF56100A8F7F6F46100ACF7F7F4000E08
:10211000F86E150EF76409D06100ECF7F5F40D00C8
:102120006100F0F7F5F40C0001D047D25AD76100F6
:10213000F4F6D9F46100F8F6DAF4610078F31BF5EF
:10214000610074F31CF5990E1D6EFF0E1E6E000EDD
:10215000206E020E1F6E62EC3DF01B501C10D8A4C6
:102160004ED0020E6100F4F6D9F46100F8F6DAF40C
:10217000DE26000EDD226100FCF6D9F4610000F7D6
:10218000DAF461007CF3C1F5020EDE2661007CF317
:10219000C2F5000EDD22610004F7D9F4610008F7F2
:1021A000DAF4610078F3EAF5610074F3EBF5FBC54E
:1021B000C1F5FCC5C2F5000E0501C2BFFF0EC36F1D
:1021C000C46F6100A8F7F6F46100ACF7F7F4000EF5
:1021D000F86E150EF76411D0610004F7F5F40D00E8
:1021E000610008F7F5F40D0061000CF7F5F40D003F
:1021F000610010F7F5F40C0001D07AD1F2D661003D
:10220000F4F6D9F46100F8F6DAF4610078F31BF51E
:10221000610074F31CF5980E1D6EFF0E1E6E000E0D
:10222000206E030E1F6E62EC3DF01B501C10D8A4F4
:1022300062D0030E6100F4F6D9F46100F8F6DAF426
:10224000DE26000EDD226100FCF6D9F4610000F705
:10225000DAF461007CF3C1F5020EDE2661007CF346
:10226000C2F5000EDD22610004F7D9F4610008F721
:10227000DAF4610078F3EAF5610074F3EBF5FBC57D
:10228000C1F5FCC5C2F5000E0501C2BFFF0EC36F4C
:10229000C46FC56FC66FC76FC86F6100A8F7F6F44B
:1022A0006100ACF7F7F4000EF86E150EF76421D05C
:1022B000610004F7F5F40D00610008F7F5F40D0076
:1022C00061000CF7F5F40D00610010F7F5F40D0056
:1022D000610014F7F5F40D00610018F7F5F40D0036
:1022E00061001CF7F5F40D00610020F7F5F40C0017
:1022F00001D07BD076D66100F4F6D9F46100F8F60F
:10230000DAF4610078F31BF5610074F31CF5DB0E61
:102310001D6EFF0E1E6E000E206E020E1F6E62EC12
:102320003DF01B501C10D8A47DD0020E6100F4F6C5
:10233000D9F46100F8F6DAF4DE26000EDD22610041
:10234000FCF6D9F4610000F7DAF461007CF3C1F522
:10235000020EDE2661007CF3C2F5000EDD22610074
:1023600004F7D9F4610008F7DAF4610078F3EAF5CC
:10237000610074F3EBF5FBC5C1F5FCC5C2F5000EB9
:102380000501C2BFFF0EC36FC46FC56FC66FC76FB5
:10239000C86F6100A8F7F6F46100ACF7F7F4000E1F
:1023A000F86E150EF76421D0610004F7F5F40D0006
:1023B000610008F7F5F40D0061000CF7F5F40D006D
:1023C000610010F7F5F40D00610014F7F5F40D004D
:1023D000610018F7F5F40D0061001CF7F5F40D002D
:1023E000610020F7F5F40C001CD0F6C4E1F4F7C44A
:1023F000E2F4610004F7E6F4610008F7E6F4610036
:102400000CF7E6F4610010F7E6F4610014F7E6F467
:10241000610018F7E6F461001CF7E6F4610020F7AC
:10242000E7F4DFD56100F4F6D9F46100F8F6DAF4E8
:10243000610078F31BF5610074F31CF5DE0E1D6E70
:10244000FF0E1E6E000E206E020E1F6E62EC3DF03F
:102450001B501C10D8A45DD0020E6100F4F6D9F414
:102460006100F8F6DAF4DE26000EDD226100FCF6EB
:10247000D9F4610000F7DAF461007CF3C1F5020ED3
:10248000DE2661007CF3C2F5000EDD22610004F758
:10249000D9F4610008F7DAF4610078F3EAF5610035
:1024A00074F3EBF5FBC5C1F5FCC5C2F5000E0501E3
:1024B000C2BFFF0EC36FC46F6100A8F7F6F46100DE
:1024C000ACF7F7F4000EF86E150EF76411D061004A
:1024D00004F7F5F40D00610008F7F5F40D00610054
:1024E0000CF7F5F40D00610010F7F5F40C0010D0B6
:1024F000F6C4E1F4F7C4E2F4610004F7E6F4610025
:1025000008F7E6F461000CF7E6F4610010F7E7F471
:1025100068D56100F4F6D9F46100F8F6DAF46100E8
:1025200078F31BF5610074F31CF5E10E1D6EFF0ED0
:102530001E6E000E206E020E1F6E62EC3DF01B50F0
:102540001C10D8A445D0020E6100F4F6D9F4610045
:10255000F8F6DAF4DE26000EDD226100FCF6D9F48E
:10256000610000F7DAF461007CF3C1F5020EDE26AB
:1025700061007CF3C2F5000EDD22610004F7D9F49E
:10258000610008F7DAF4610078F3EAF5610074F3AA
:10259000EBF56100A8F7F6F46100ACF7F7F4000E74
:1025A000F86E150EF76409D06100ECF7F5F40D0034
:1025B0006100F0F7F5F40C000AD0F6C4E1F4F7C4BA
:1025C000E2F46100ECF7E6F46100F0F7E7F409D516
:1025D0006100F4F6D9F46100F8F6DAF4DEC4F6F43A
:1025E000DDC4F7F40800F550700AD8A460D061008B
:1025F000F4F6D9F46100F8F6DAF4DE2A000EDD22F2
:10260000BBC5A5F5BCC5A6F5E20E0501A76F050E75
:10261000A86F00EC39F0A5C5ECF5A6C5EDF5FD51A8
:10262000FE11D8B4EDBF82EF05F0ED5104E1EC05E9
:10263000D8A082EF05F06100FCF6D9F4610000F744
:10264000DAF461007CF3C1F5020EDE2661007CF352
:10265000C2F5000EDD22610004F7D9F4610008F72D
:10266000DAF4610078F3CBF5610074F3CCF5610026
:102670002CF7F6F4610030F7F7F4000EF86E150E43
:10268000F76411D0610088F7F5F40D0061008CF754
:10269000F5F40D00610090F7F5F40D00610094F77A
:1026A000F5F40C0002D089EF1BF082EF05F0610019
:1026B000F4F6D9F46100F8F6DAF4DEC4F6F4DDC419
:1026C000F7F40800F550730AD8A445D06100F4F679
:1026D000D9F46100F8F6DAF4DE2A000EDD220501F5
:1026E000FD51FE11D8A427D06100FCF6D9F4610099
:1026F00000F7DAF461007CF3C1F5020EDE2661001A
:102700007CF3C2F5000EDD22610004F7D9F461000C
:1027100008F7DAF4610078F3C9F5610074F3CAF5DB
:10272000BBC565F5BCC566F5C9C567F5CAC568F51D
:10273000B4EC39F00AD0BBC565F5BCC566F5000E32
:10274000676F000E686FB4EC39F065C5ECF566C5CF
:10275000EDF582EF05F06100F4F6D9F46100F8F6CA
:10276000DAF4610078F31BF5610074F31CF5A40E34
:102770001D6EFF0E1E6E000E206E030E1F6E62ECAD
:102780003DF01B501C10D8A454D0030E6100F4F689
:10279000D9F46100F8F6DAF4DE26000EDD22BBC5BE
:1027A000A5F5BCC5A6F5E20E0501A76F050EA86F3D
:1027B000E6EC35F0A5C5ECF5A6C5EDF5FD51FE112D
:1027C000D8B4EDBF82EF05F0ED5104E1EC05D8A0DF
:1027D00082EF05F06100FCF6D9F4610000F7DAF44D
:1027E00061007CF3C1F5020EDE2661007CF3C2F5C8
:1027F000000EDD22610004F7D9F4610008F7DAF475
:10280000610078F3EAF5610074F3EBF56100A8F775
:10281000F6F46100ACF7F7F4000EF86E150EF764ED
:1028200005D0610088F7F5F40C0001D0E0D382EF09
:1028300005F06100F4F6D9F46100F8F6DAF461000D
:1028400078F31BF5610074F31CF5A50E1D6EFF0EE9
:102850001E6E000E206E020E1F6E62EC3DF01B50CD
:102860001C10D8A459D0020E6100F4F6D9F461000E
:10287000F8F6DAF4DE26000EDD22BBC5A5F5BCC5F0
:10288000A6F5E20E0501A76F050EA86FE6EC35F080
:10289000A5C5ECF5A6C5EDF5FD51FE11D8B4EDBF0B
:1028A00082EF05F0ED5104E1EC05D8A082EF05F0D0
:1028B0006100FCF6D9F4610000F7DAF461007CF302
:1028C000C1F5020EDE2661007CF3C2F5000EDD22AA
:1028D000610004F7D9F4610008F7DAF4610078F3D5
:1028E000EAF5610074F3EBF56100A8F7F6F4610016
:1028F000ACF7F7F4000EF86E150EF76409D061001E
:1029000088F7F5F40D0061008CF7F5F40C0002D0A7
:1029100024EF1CF082EF05F06100F4F6D9F46100B9
:10292000F8F6DAF4DEC4F6F4DDC4F7F40800F55086
:10293000750AD8A458D06100F4F6D9F46100F8F60D
:10294000DAF4DE2A000EDD22BBC5A5F5BCC5A6F56E
:10295000E20E0501A76F050EA86FE6EC35F0A5C5E0
:10296000ECF5A6C5EDF5FD51FE11D8B4EDBF82EF33
:1029700005F0ED5104E1EC05D8A082EF05F061000F
:10298000FCF6D9F4610000F7DAF461007CF3C1F5DC
:10299000020EDE2661007CF3C2F5000EDD2261002E
:1029A00004F7D9F4610008F7DAF4610078F3EAF586
:1029B000610074F3EBF56100A8F7F6F46100ACF781
:1029C000F7F4000EF86E150EF76409D0610088F771
:1029D000F5F40D0061008CF7F5F40C0002D024EF43
:1029E0001CF082EF05F06100F4F6D9F46100F8F60E
:1029F000DAF4610078F31BF5610074F31CF5A90E9D
:102A00001D6EFF0E1E6E000E206E020E1F6E62EC1B
:102A10003DF01B501C10D8A461D0020E6100F4F6EA
:102A2000D9F46100F8F6DAF4DE26000EDD22BBC52B
:102A3000A5F5BCC5A6F5E20E0501A76F050EA86FAA
:102A4000E6EC35F0A5C5ECF5A6C5EDF5FD51FE119A
:102A5000D8B4EDBF82EF05F0ED5104E1EC05D8A04C
:102A600082EF05F06100FCF6D9F4610000F7DAF4BA
:102A700061007CF3C1F5020EDE2661007CF3C2F535
:102A8000000EDD22610004F7D9F4610008F7DAF4E2
:102A9000610078F3EAF5610074F3EBF56100A8F7E3
:102AA000F6F46100ACF7F7F4000EF86E150EF7645B
:102AB00011D0610088F7F5F40D0061008CF7F5F492
:102AC0000D00610090F7F5F40D00610094F7F5F446
:102AD0000C0002D089EF1BF082EF05F06100F4F6E4
:102AE000D9F46100F8F6DAF4610078F31BF56100BF
:102AF00074F31CF5A80E1D6EFF0E1E6E000E206EE8
:102B0000030E1F6E62EC3DF01B501C10D8A471D058
:102B1000030E6100F4F6D9F46100F8F6DAF4DE266B
:102B2000000EDD22BBC5A5F5BCC5A6F5E20E05016C
:102B3000A76F050EA86FE6EC35F0A5C5ECF5A6C5A8
:102B4000EDF5FD51FE11D8B4EDBF82EF05F0ED516A
:102B500004E1EC05D8A082EF05F06100FCF6D9F4A1
:102B6000610000F7DAF461007CF3C1F5020EDE26A5
:102B700061007CF3C2F5000EDD22610004F7D9F498
:102B8000610008F7DAF4610078F3EAF5610074F3A4
:102B9000EBF56100A8F7F6F46100ACF7F7F4000E6E
:102BA000F86E150EF76421D0610088F7F5F40D007A
:102BB00061008CF7F5F40D00610090F7F5F40D005D
:102BC000610094F7F5F40D00610098F7F5F40D003D
:102BD00061009CF7F5F40D006100A0F7F5F40D001D
:102BE0006100A4F7F5F40C0002D0DAEF1AF082EFDE
:102BF00005F06100F4F6D9F46100F8F6DAF461004A
:102C000078F31BF5610074F31CF5ED0E1D6EFF0EDD
:102C10001E6E000E206E020E1F6E62EC3DF01B5009
:102C20001C10D8A471D0020E6100F4F6D9F4610032
:102C3000F8F6DAF4DE26000EDD22BBC5A5F5BCC52C
:102C4000A6F5E20E0501A76F050EA86FE6EC35F0BC
:102C5000A5C5ECF5A6C5EDF5FD51FE11D8B4EDBF47
:102C600082EF05F0ED5104E1EC05D8A082EF05F00C
:102C70006100FCF6D9F4610000F7DAF461007CF33E
:102C8000C1F5020EDE2661007CF3C2F5000EDD22E6
:102C9000610004F7D9F4610008F7DAF4610078F311
:102CA000EAF5610074F3EBF56100A8F7F6F4610052
:102CB000ACF7F7F4000EF86E150EF76421D0610042
:102CC00088F7F5F40D0061008CF7F5F40D00610054
:102CD00090F7F5F40D00610094F7F5F40D00610034
:102CE00098F7F5F40D0061009CF7F5F40D00610014
:102CF000A0F7F5F40D006100A4F7F5F40C0002D084
:102D0000DAEF1AF082EF05F06100F4F6D9F4610011
:102D1000F8F6DAF4610078F31BF5610074F31CF542
:102D2000F00E1D6EFF0E1E6E000E206E020E1F6E48
:102D300062EC3DF01B501C10D8A461D0020E610063
:102D4000F4F6D9F46100F8F6DAF4DE26000EDD229E
:102D5000BBC5A5F5BCC5A6F5E20E0501A76F050E1E
:102D6000A86FE6EC35F0A5C5ECF5A6C5EDF5FD516F
:102D7000FE11D8B4EDBF82EF05F0ED5104E1EC0592
:102D8000D8A082EF05F06100FCF6D9F4610000F7ED
:102D9000DAF461007CF3C1F5020EDE2661007CF3FB
:102DA000C2F5000EDD22610004F7D9F4610008F7D6
:102DB000DAF4610078F3EAF5610074F3EBF5610091
:102DC000A8F7F6F46100ACF7F7F4000EF86E150EF4
:102DD000F76411D0610088F7F5F40D0061008CF7FD
:102DE000F5F40D00610090F7F5F40D00610094F723
:102DF000F5F40C0002D089EF1BF082EF05F06100C2
:102E0000F4F6D9F46100F8F6DAF4610078F31BF512
:102E1000610074F31CF5F30E1D6EFF0E1E6E000EA6
:102E2000206E020E1F6E62EC3DF01B501C10D8A4E9
:102E300059D0020E6100F4F6D9F46100F8F6DAF424
:102E4000DE26000EDD22BBC5A5F5BCC5A6F5E20E4B
:102E50000501A76F050EA86FE6EC35F0A5C5ECF5EA
:102E6000A6C5EDF5FD51FE11D8B4EDBF82EF05F01A
:102E7000ED5104E1EC05D8A082EF05F06100FCF60D
:102E8000D9F4610000F7DAF461007CF3C1F5020EB9
:102E9000DE2661007CF3C2F5000EDD22610004F73E
:102EA000D9F4610008F7DAF4610078F3EAF561001B
:102EB00074F3EBF56100A8F7F6F46100ACF7F7F4F2
:102EC000000EF86E150EF76409D0610088F7F5F46E
:102ED0000D0061008CF7F5F40C0002D024EF1CF01B
:102EE00082EF05F06100F4F6D9F46100F8F6DAF447
:102EF000610078F31BF5610074F31CF5AC0E1D6ED8
:102F0000FF0E1E6E000E206E030E1F6E62EC3DF073
:102F10001B501C10D8B41AD06100F4F6D9F461002B
:102F2000F8F6DAF4610078F31BF5610074F31CF530
:102F30007C0E1D6EFF0E1E6E000E206E030E1F6EA9
:102F400062EC3DF01B501C10D8A45AD0030E610057
:102F5000F4F6D9F46100F8F6DAF4DE26000EDD228C
:102F6000BBC5A5F5BCC5A6F5E20E0501A76F050E0C
:102F7000A86F00EC39F0A5C5ECF5A6C5EDF5FD513F
:102F8000FE11D8B4EDBF82EF05F0ED5104E1EC0580
:102F9000D8A082EF05F06100FCF6D9F4610000F7DB
:102FA000DAF461007CF3C1F5020EDE2661007CF3E9
:102FB000C2F5000EDD22610004F7D9F4610008F7C4
:102FC000DAF4610078F3EAF5610074F3EBF561007F
:102FD000A8F7F6F46100ACF7F7F4000EF86E150EE2
:102FE000F76405D0610088F7F5F40C0007D0F6C44B
:102FF000E1F4F7C4E2F4610088F7E7F482EF05F04A
:103000006100F4F6D9F46100F8F6DAF4610078F3BF
:103010001BF5610074F31CF5AD0E1D6EFF0E1E6EE8
:10302000000E206E020E1F6E62EC3DF01B501C1055
:10303000D8B41AD06100F4F6D9F46100F8F6DAF4E5
:10304000610078F31BF5610074F31CF57D0E1D6EB5
:10305000FF0E1E6E000E206E020E1F6E62EC3DF023
:103060001B501C10D8A458D0020E6100F4F6D9F4FD
:103070006100F8F6DAF4DE26000EDD22BBC5A5F508
:10308000BCC5A6F5E20E0501A76F050EA86F00EC02
:1030900039F0A5C5ECF5A6C5EDF5FD51FE11D8B486
:1030A000EDBF82EF05F0ED5104E1EC05D8A082EF11
:1030B00005F06100FCF6D9F4610000F7DAF4610074
:1030C0007CF3C1F5020EDE2661007CF3C2F5000E32
:1030D000DD22610004F7D9F4610008F7DAF4610039
:1030E00078F3EAF5610074F3EBF56100A8F7F6F404
:1030F0006100ACF7F7F4000EF86E150EF76409D016
:10310000610088F7F5F40D0061008CF7F5F40C0010
:1031100001D09AD382EF05F06100F4F6D9F4610092
:10312000F8F6DAF4DEC4F6F4DDC4F7F40800F5507E
:10313000780AD8B40FD06100F4F6D9F46100F8F63B
:10314000DAF4DEC4F6F4DDC4F7F40800F550580AEA
:10315000D8A457D06100F4F6D9F46100F8F6DAF497
:10316000DE2A000EDD22BBC5A5F5BCC5A6F5E20E24
:103170000501A76F050EA86F00EC39F0A5C5ECF5A9
:10318000A6C5EDF5FD51FE11D8B4EDBF82EF05F0F7
:10319000ED5104E1EC05D8A082EF05F06100FCF6EA
:1031A000D9F4610000F7DAF461007CF3C1F5020E96
:1031B000DE2661007CF3C2F5000EDD22610004F71B
:1031C000D9F4610008F7DAF4610078F3EAF56100F8
:1031D00074F3EBF56100A8F7F6F46100ACF7F7F4CF
:1031E000000EF86E150EF76409D0610088F7F5F44B
:1031F0000D0061008CF7F5F40C0001D025D382EFAF
:1032000005F06100F4F6D9F46100F8F6DAF4610033
:1032100078F31BF5610074F31CF5B10E1D6EFF0E03
:103220001E6E000E206E020E1F6E62EC3DF01B50F3
:103230001C10D8B41AD06100F4F6D9F46100F8F685
:10324000DAF4610078F31BF5610074F31CF5810E6C
:103250001D6EFF0E1E6E000E206E020E1F6E62ECC3
:103260003DF01B501C10D8A460D0020E6100F4F693
:10327000D9F46100F8F6DAF4DE26000EDD22BBC5D3
:10328000A5F5BCC5A6F5E20E0501A76F050EA86F52
:1032900000EC39F0A5C5ECF5A6C5EDF5FD51FE1124
:1032A000D8B4EDBF82EF05F0ED5104E1EC05D8A0F4
:1032B00082EF05F06100FCF6D9F4610000F7DAF462
:1032C00061007CF3C1F5020EDE2661007CF3C2F5DD
:1032D000000EDD22610004F7D9F4610008F7DAF48A
:1032E000610078F3EAF5610074F3EBF56100A8F78B
:1032F000F6F46100ACF7F7F4000EF86E150EF76403
:1033000011D0610088F7F5F40D0061008CF7F5F439
:103310000D00610090F7F5F40D00610094F7F5F4ED
:103320000C0001D0F6D182EF05F06100F4F6D9F47B
:103330006100F8F6DAF4610078F31BF5610074F3CC
:103340001CF5B00E1D6EFF0E1E6E000E206E030EDD
:103350001F6E62EC3DF01B501C10D8B41AD06100F7
:10336000F4F6D9F46100F8F6DAF4610078F31BF5AD
:10337000610074F31CF5800E1D6EFF0E1E6E000EB4
:10338000206E030E1F6E62EC3DF01B501C10D8A483
:1033900070D0030E6100F4F6D9F46100F8F6DAF4A7
:1033A000DE26000EDD22BBC5A5F5BCC5A6F5E20EE6
:1033B0000501A76F050EA86F00EC39F0A5C5ECF567
:1033C000A6C5EDF5FD51FE11D8B4EDBF82EF05F0B5
:1033D000ED5104E1EC05D8A082EF05F06100FCF6A8
:1033E000D9F4610000F7DAF461007CF3C1F5020E54
:1033F000DE2661007CF3C2F5000EDD22610004F7D9
:10340000D9F4610008F7DAF4610078F3EAF56100B5
:1034100074F3EBF56100A8F7F6F46100ACF7F7F48C
:10342000000EF86E150EF76421D0610088F7F5F4F0
:103430000D0061008CF7F5F40D00610090F7F5F4D4
:103440000D00610094F7F5F40D00610098F7F5F4B4
:103450000D0061009CF7F5F40D006100A0F7F5F494
:103460000D006100A4F7F5F40C0001D0A3D082EFA9
:1034700005F06100F4F6D9F46100F8F6DAF46100C1
:1034800078F31BF5610074F31CF5F60E1D6EFF0E4C
:103490001E6E000E206E020E1F6E62EC3DF01B5081
:1034A0001C10D8B41AD06100F4F6D9F46100F8F613
:1034B000DAF4610078F31BF5610074F31CF5B40EC7
:1034C0001D6EFF0E1E6E000E206E020E1F6E62EC51
:1034D0003DF01B501C10D8A48BD0020E6100F4F6F6
:1034E000D9F46100F8F6DAF4DE26000EDD22BBC561
:1034F000A5F5BCC5A6F5E20E0501A76F050EA86FE0
:1035000000EC39F0A5C5ECF5A6C5EDF5FD51FE11B1
:10351000D8B4EDBF82EF05F0ED5104E1EC05D8A081
:1035200082EF05F06100FCF6D9F4610000F7DAF4EF
:1035300061007CF3C1F5020EDE2661007CF3C2F56A
:10354000000EDD22610004F7D9F4610008F7DAF417
:10355000610078F3EAF5610074F3EBF56100A8F718
:10356000F6F46100ACF7F7F4000EF86E150EF76490
:1035700021D0610088F7F5F40D0061008CF7F5F4B7
:103580000D00610090F7F5F40D00610094F7F5F47B
:103590000D00610098F7F5F40D0061009CF7F5F45B
:1035A0000D006100A0F7F5F40D006100A4F7F5F43B
:1035B0000C001CD0F6C4E1F4F7C4E2F4610088F713
:1035C000E6F461008CF7E6F4610090F7E6F4610040
:1035D00094F7E6F4610098F7E6F461009CF7E6F4EE
:1035E0006100A0F7E6F46100A4F7E7F482EF05F0CC
:1035F0006100F4F6D9F46100F8F6DAF4610078F3CA
:103600001BF5610074F31CF5F90E1D6EFF0E1E6EA6
:10361000000E206E020E1F6E62EC3DF01B501C105F
:10362000D8B41AD06100F4F6D9F46100F8F6DAF4EF
:10363000610078F31BF5610074F31CF5B70E1D6E85
:10364000FF0E1E6E000E206E020E1F6E62EC3DF02D
:103650001B501C10D8A46FD0020E6100F4F6D9F4F0
:103660006100F8F6DAF4DE26000EDD22BBC5A5F512
:10367000BCC5A6F5E20E0501A76F050EA86F00EC0C
:1036800039F0A5C5ECF5A6C5EDF5FD51FE11D8B490
:10369000EDBF82EF05F0ED5104E1EC05D8A082EF1B
:1036A00005F06100FCF6D9F4610000F7DAF461007E
:1036B0007CF3C1F5020EDE2661007CF3C2F5000E3C
:1036C000DD22610004F7D9F4610008F7DAF4610043
:1036D00078F3EAF5610074F3EBF56100A8F7F6F40E
:1036E0006100ACF7F7F4000EF86E150EF76411D018
:1036F000610088F7F5F40D0061008CF7F5F40D001A
:10370000610090F7F5F40D00610094F7F5F40C00FA
:1037100010D0F6C4E1F4F7C4E2F4610088F7E6F4EF
:1037200061008CF7E6F4610090F7E6F4610094F72D
:10373000E7F482EF05F06100F4F6D9F46100F8F6E1
:10374000DAF4610078F31BF5610074F31CF5FC0EEC
:103750001D6EFF0E1E6E000E206E020E1F6E62ECBE
:103760003DF01B501C10D8B41AD06100F4F6D9F407
:103770006100F8F6DAF4610078F31BF5610074F388
:103780001CF5BA0E1D6EFF0E1E6E000E206E020E90
:103790001F6E62EC3DF01B501C10D8A461D0020ECD
:1037A0006100F4F6D9F46100F8F6DAF4DE26000ED2
:1037B000DD22BBC5A5F5BCC5A6F5E20E0501A76FC8
:1037C000050EA86F00EC39F0A5C5ECF5A6C5EDF522
:1037D000FD51FE11D8B4EDBF82EF05F0ED5104E1CB
:1037E000EC05D8A082EF05F06100FCF6D9F4610089
:1037F00000F7DAF461007CF3C1F5020EDE26610009
:103800007CF3C2F5000EDD22610004F7D9F46100FB
:1038100008F7DAF4610078F3EAF5610074F3EBF588
:103820006100A8F7F6F46100ACF7F7F4000EF86E4B
:10383000150EF76409D0610088F7F5F40D006100FA
:103840008CF7F5F40C000AD0F6C4E1F4F7C4E2F406
:10385000610088F7E6F461008CF7E7F482EF05F089
:103860006100F4F6D9F46100F8F6DAF4DEC4F6F497
:10387000DDC4F7F40800F550250AD8A411D0610082
:10388000F4F6D9F46100F8F6DAF4DE2A000EDD224F
:103890000501FB4BFC2B000EBC6F010EBB6F120031
:1038A0006100F4F6D9F46100F8F6DAF4DE2A000ECD
:1038B000DD22F1EF0FF0BBC51DF5BCC51EF50CEC0C
:1038C00042F01DC5D1F51EC5D2F56100F4F6D9F45C
:1038D0006100F8F6DAF4DEC4F6F4DDC4F7F40800AB
:1038E000F550C16FC26BD151C11911E1D251C2194A
:1038F000D8A40DD06100F4F6D9F46100F8F6DAF43A
:10390000DE2A000EDD22FB4BFC2BF1EF0FF0D1C5C0
:103910001BF5D2C51CF5BBC51DF5BCC51EF516ECC7
:1039200043F0FF0EBC6FFE0EBB6F12002B502C102D
:10393000D8B40FD06100ACF4D9F46100B0F4DAF47B
:103940006100A4F4DEF46100A8F4DDF402D0294A99
:103950002A2A010E836F6100A4F4D9F46100A8F44F
:10396000DAF4200EDE18D8A402D0010E01D0000E29
:10397000886F896B88518911D8A41FD0F70E6D6F9D
:10398000FF0E6E6F6100A4F4D9F46100A8F4DAF4BC
:10399000DF506F6F6F51886F896B88C570F589C56F
:1039A00071F56D5170276E517123715104E1050E4F
:1039B000705DD8A002D0000E836F83C573F5746B61
:1039C00073517411D8A4C3D7000E856F2D0E8819BA
:1039D0008911D8A405D0010E856F294A2A2A05D05D
:1039E0002B0E88198911D8B4F8D7000E8E6F01D02C
:1039F0008E2B8E512924D96E000E2A20DA6EDF50CC
:103A0000D8B426D08E512924D96E000E2A20DA6E21
:103A1000DF506D6F350E8E25F66EF76AFF0EF722BA
:103A20000800F5506D19D8B4E3D78E512924D96E0A
:103A3000000E2A20DA6EDF506D6F2C0E8E25F66E8A
:103A4000F76AFF0EF7220800F5506D19D8B4D0D7E9
:103A5000020E8E6527D0000E8A6F000E8B6F800ECF
:103A60008C6F7F0E8D6F2B502C10D8B446EF23F047
:103A7000080E8E19D8B402D0030E8E6F8E512924F1
:103A80006D6F000E2A206E6F6100ACF4D9F46100F6
:103A9000B0F4DAF46100B4F5DEF46100B8F5DDF4F9
:103AA00046EF23F0000E8E6F01D08E2B8E5129240D
:103AB000D96E000E2A20DA6EDF50D8B426D08E518F
:103AC0002924D96E000E2A20DA6EDF506D6F780E31
:103AD0008E25F66EF76AFF0EF7220800F5506D1975
:103AE000D8B4E3D78E512924D96E000E2A20DA6E7D
:103AF000DF506D6F700E8E25F66EF76AFF0EF7229F
:103B00000800F5506D19D8B4D0D7030E8E19D8A47B
:103B10005BD0170E1B6EFF0E1C6E3AEC48F01BC5F7
:103B20008AF51CC58BF51DC58CF51EC58DF52B5072
:103B30002C10D8B446EF23F08E512926000E2A22ED
:103B40006100A4F4D9F46100A8F4DAF4280EDE18B8
:103B5000D8A42CD0000E8E6F01D08E2B8E5129242C
:103B6000D96E000E2A20DA6EDF50D8B40AD08E51FA
:103B70002924D96E000E2A20DA6E290EDE18D8A468
:103B8000ECD78E512924D96E000E2A20DA6E290E28
:103B9000DE18D8A40BD08E516D6F6E6B010E6D27A1
:103BA000000E6E236D5129266E512A226100ACF45D
:103BB000D9F46100B0F4DAF46100A4F4DEF4610039
:103BC000A8F4DDF446EF23F0000E896F000E886F35
:103BD000000E8A6F000E8B6F000E8C6F000E8D6FC3
:103BE000000E876F000E866F000E8E6F01D08E2B39
:103BF0008E512924D96E000E2A20DA6E300EDE187E
:103C0000D8B4F5D78E51D8B4B7D28E512924D96EF5
:103C1000000E2A20DA6E780EDE18D8B40AD08E5143
:103C20002924D96E000E2A20DA6E580EDE18D8A488
:103C3000A3D28E516D6F6E6B010E6D27000E6E2339
:103C40006D5129266E512A22000E8E6F01D08E2BC7
:103C50008E512924D96E000E2A20DA6E300EDE181D
:103C6000D8B4F5D7000E8E6F8E512924D96E000E70
:103C70002A20DA6E700EDE18D8B434D18E51292481
:103C8000D96E000E2A20DA6E500EDE18D8B42AD172
:103C90008E512924D96E000E2A20DA6E2E0EDE18DF
:103CA000D8A402D085891DD18E512924D96E000E49
:103CB0002A20DA6EDF506D6F6D511B6E1C6AA4EC0A
:103CC00044F01B501C10D8B467D0000E846FD00E87
:103CD0006D6FFF0E6E6F8E512924D96E000E2A2053
:103CE000DA6EDF506F6F706B6D516F276E517023FE
:103CF000705106E10A0E6F5DD8B002D0010E01D0FE
:103D0000000E756F766B75517611D8B409D08E514F
:103D10002924D96E000E2A20DA6EDF50D00F0FD082
:103D20008E512924D96E000E2A20DA6EDF506D6F75
:103D30006D51216E226AE9EC45F02150C90F846F64
:103D400089BF06D0895121E1080E885DD8B01DD009
:103D5000885107086D6FD8906D37D8906D3784C53E
:103D60006EF56F6B706B716B6D2B05D0D8906E37E5
:103D70006F37703771376D2FF9D76E518A136F51C6
:103D80008B1370518C1371518D13884B892B040E3A
:103D90008627000E872309D0000E296E000E2A6E9A
:103DA000000E2B6E000E2C6E12008E2B5DD78E51E6
:103DB0002924D96E000E2A20DA6E700EDE18D8B4CF
:103DC00093D08E512924D96E000E2A20DA6E500E1F
:103DD000DE18D8B489D08E512924D96E000E2A203D
:103DE000DA6E300EDE18D8A409D088518911D8A413
:103DF00005D0FC0E8627FF0E872373D08E51292411
:103E0000D96E000E2A20DA6EDF506D6F6D511B6E79
:103E10001C6AA4EC44F01B501C10D8B462D0000EF5
:103E2000846FD00E6D6FFF0E6E6F8E512924D96E88
:103E3000000E2A20DA6EDF506F6F706B6D516F27A6
:103E40006E517023705106E10A0E6F5DD8B002D03A
:103E5000010E01D0000E776F786B77517811D8B4CE
:103E600009D08E512924D96E000E2A20DA6EDF5037
:103E7000D00F0FD08E512924D96E000E2A20DA6E71
:103E8000DF506D6F6D51216E226AE9EC45F02150D3
:103E9000C90F846F89BF06D0895121E1080E885D62
:103EA000D8B01DD0885107086D6FD8906D37D89065
:103EB0006D3784C56EF56F6B706B716B6D2B05D0B4
:103EC000D8906E376F37703771376D2FF9D76E51C5
:103ED0008A136F518B1370518C1371518D13884B52
:103EE000892B8E2B85B963D78E512924D96E000E6C
:103EF0002A20DA6E700EDE18D8B413D08E51292421
:103F0000D96E000E2A20DA6E500EDE18D8B409D011
:103F1000000E296E000E2A6E000E2B6E000E2C6E07
:103F200012008E2B8E512924D96E000E2A20DA6EB3
:103F30002B0EDE18D8B40BD08E512924D96E000E6A
:103F40002A20DA6E2D0EDE18D8A402D085878E2B9B
:103F50008E512926000E2A22000E8E6F01D08E2B44
:103F60008E512924D96E000E2A20DA6E300EDE180A
:103F7000D8B4F5D7000E896F000E886F28D08E5107
:103F8000D8B40ED088C51BF589C51CF5000E1E6E71
:103F90000A0E1D6EAFEC47F01BC588F51CC589F5F0
:103FA000D00E05016D6FFF0E6E6F8E512924D96EF4
:103FB000000E2A20DA6EDF506F6F706B6D516F2725
:103FC0006E5170236F518827705189238E2BD00E2C
:103FD0006D6FFF0E6E6F8E512924D96E000E2A2050
:103FE000DA6EDF506F6F706B6D516F276E517023FB
:103FF000705106E10A0E6F5DD8B002D0010E01D0FB
:10400000000E796F7A6B79517A11D8A4B8D78E5196
:10401000D8A409D0000E296E000E2A6E000E2B6E59
:10402000000E2C6E120085A704D0886D891FD8B0B1
:10403000892B88518627895187232B502C10D8B47F
:1040400012D08E5129246D6F000E2A206E6F6100F0
:10405000ACF4D9F46100B0F4DAF46100B4F5DEF444
:104060006100B8F5DDF48A518B118C118D11D8A443
:1040700009D0000E296E000E2A6E000E2B6E000E67
:104080002C6E1200800E8A6511D0000E8A27010E58
:104090008B23000E8C23000E8D2308D0D8908A37F6
:1040A0008B378C378D378607D8A087078DAFF6D72B
:1040B00087AF12D0830E865DFF0E8759D8B00CD023
:1040C000FF0E876F810E866F000E8A6F000E8B6F5A
:1040D000000E8C6F000E8D6F810E861903E187290B
:1040E000D8B408D0D8908A378B378C378D3786076D
:1040F000D8A0870787BF12D0875104E1800E865D64
:10410000D8A00CD0000E8A6F000E8B6F000E8C6F43
:10411000000E8D6F000E876F800E866F090E6D6F1B
:10412000D8908D338C338B338A336D2FF9D7FF0EB4
:104130008A17FF0E8B177F0E8C17000E8D177F0EC0
:1041400086256D6F000E87216E6FFF0E6D156F6FE8
:10415000706B716B726B170ED8906F377037713749
:104160007237E82EF9D76F518A1370518B13715142
:104170008C1372518D138AD285B90CD06100A4F4CE
:10418000D9F46100A8F4DAF42E0EDE18D8A402D017
:1041900085895DD0D00E6D6FFF0E6E6F6100A4F447
:1041A000D9F46100A8F4DAF4DF506F6F706B6D51D1
:1041B0006F276E517023705106E10A0E6F5DD8B003
:1041C00002D0010E01D0000E7B6F7C6B7B517C1105
:1041D000D8B440D08583090E88198911D8B433D05A
:1041E00085A903D08607D8A08707884B892B8AC565
:1041F0001BF58BC51CF58CC51DF58DC51EF50A0E6E
:104200001F6E000E206E000E216E000E226ED2EC8C
:1042100044F01BC58AF51CC58BF51DC58CF51EC564
:104220008DF56100A4F4D9F46100A8F4DAF4DF504C
:1042300005016D6FD00E6D276D518A27000E8B23FF
:104240008C238D2304D085B902D0864B872B294A35
:104250002A2A92D7000E896F000E886F6100A4F49D
:10426000D9F46100A8F4DAF4650EDE18D8B40AD0E7
:104270006100A4F4D9F46100A8F4DAF4450EDE1864
:10428000D8A4D1D0294A2A2A6100A4F4D9F4610023
:10429000A8F4DAF42D0EDE18D8A402D085870AD04F
:1042A0006100A4F4D9F46100A8F4DAF42B0EDE184E
:1042B000D8A402D0294A2A2A6100A4F4D9F46100C2
:1042C000A8F4DAF4300EDE18D8B4F4D7D00E6D6F3F
:1042D000FF0E6E6F6100A4F4D9F46100A8F4DAF463
:1042E000DF506F6F706B6D516F276E51702370517F
:1042F00006E10A0E6F5DD8B002D0010E01D0000EAB
:104300007D6F7E6B7D517E11D8B487D06100A4F49F
:10431000D9F46100A8F4DAF4DF506D6FD00E6D2788
:104320006D51886F896B294A2A2AD00E6D6FFF0E56
:104330006E6F6100A4F4D9F46100A8F4DAF4DF50E0
:104340006F6F706B6D516F276E517023705106E166
:104350000A0E6F5DD8B002D0010E01D0000E7F6F43
:10436000806B7F518011D8B458D06100A4F4D9F487
:104370006100A8F4DAF4DF506D6FD00E6D2788C5A8
:104380001BF589C51CF5000E1E6E0A0E1D6EAFECE6
:1043900047F005016D511B24886F000E1C20896FAA
:1043A000294A2A2AD00E6D6FFF0E6E6F6100A4F4A9
:1043B000D9F46100A8F4DAF4DF506F6F706B6D51BF
:1043C0006F276E517023705106E10A0E6F5DD8B0F1
:1043D00002D0010E01D0000E816F826B81518211DB
:1043E000D8B41BD06100A4F4D9F46100A8F4DAF4C5
:1043F000DF506D6FD00E6D2788C51BF589C51CF584
:10440000000E1E6E0A0E1D6EAFEC47F005016D51D9
:104410001B24886F000E1C20896F85A704D0886D2F
:10442000891FD8B0892B88518627895187232B5023
:104430002C10D8A485A30CD06100ACF4D9F4610091
:10444000B0F4DAF46100A4F4DEF46100A8F4DDF461
:104450008AC51BF58BC51CF58CC51DF58DC51EF5D4
:10446000000EA8EC3BF01BC58AF51CC58BF51DC5DD
:104470008CF51EC58DF58AC51BF58BC51CF58CC545
:104480001DF58DC51EF5000E1F6E000E206E000E70
:10449000216E000E226EC7EC41F0D8A009D0000EAC
:1044A000296E000E2A6E000E2B6E000E2C6E12006E
:1044B000050187AF75D0866D871FD8B0872B1ED0BA
:1044C0008AC51BF58BC51CF58CC51DF58DC51EF564
:1044D000F90E1F6E020E206E150E216E500E226E0A
:1044E000BFEC2EF01BC58AF51CC58BF51DC58CF5E0
:1044F0001EC58DF5F60E8627FF0E872387BF24D0B5
:104500008751DEE10A0E865DD8A01ED0D9D78AC5B4
:104510001BF58BC51CF58CC51DF58DC51EF5000E54
:104520001F6E000E206E200E216E410E226EBFEC1B
:104530002EF01BC58AF51CC58BF51DC58CF51EC557
:104540008DF58607D8A0870786518711D8A4DFD7B5
:104550008AC51BF58BC51CF58CC51DF58DC51EF5D3
:10456000000E1F6E000E206E800E216E000E226E59
:10457000E5EC3DF0D8B08AD085A109D0000E296EB7
:10458000000E2A6E800E2B6E800E2C6E1200000E16
:10459000296E000E2A6E800E2B6E000E2C6E1200FD
:1045A00087BF74D0875122E18605D8B01FD06ED066
:1045B0008AC51BF58BC51CF58CC51DF58DC51EF573
:1045C000F90E1F6E020E206E150E216E500E226E19
:1045D00095EC2BF01BC58AF51CC58BF51DC58CF51C
:1045E0001EC58DF5F60E8627FF0E87238751E0E165
:1045F0000A0E865DD8A01ED0DBD78AC51BF58BC5F9
:104600001CF58CC51DF58DC51EF5000E1F6E000E28
:10461000206E200E216E410E226E95EC2BF01BC5F4
:104620008AF51CC58BF51DC58CF51EC58DF5860755
:10463000D8A0870786518711D8A4DFD7FF0E1B6E3D
:10464000FF0E1C6E7F0E1D6E7F0E1E6E8AC51FF53F
:104650008BC520F58CC521F58DC522F5E5EC3DF027
:10466000D8B014D085A109D0000E296E000E2A6E94
:10467000800E2B6E800E2C6E1200000E296E000E26
:104680002A6E800E2B6E000E2C6E120085A112D0A9
:104690008AC51BF58BC51CF58CC51DF58DC51EF592
:1046A0006DEC47F01BC58AF51CC58BF51DC58CF557
:1046B0001EC58DF58AC529F58BC52AF58CC52BF548
:1046C0008DC52CF51200610050F6D9F4610054F646
:1046D000DAF4DEC4F6F4DEC4F7F4150EF76403D0A2
:1046E0000800F55005D0F6C4E1F4F7C4E2F4E75051
:1046F000250AD8A44BD3610050F6D9F4610054F6D2
:10470000DAF4DE2A000EDD22000E346E000E336E67
:1047100033C537F534C538F535683668000E050100
:10472000AA6F000E16D03780610050F6D9F46100F0
:1047300054F6DAF4DE2A000EDD223AD03782F4D7BE
:104740003784F2D73786F0D73788EED7000EAA6FB6
:10475000010EA96F2DD0610050F6D9F4610054F616
:10476000DAF4DEC4F6F4DEC4F7F4150EF76403D011
:104770000800F55005D0F6C4E1F4F7C4E2F4E750C0
:104780000501986F996B9951000AD8A4DFD7985109
:10479000200AD8B4D7D7030AD8B4D6D7080AD8B4D1
:1047A000CFD7060AD8B4BFD71D0AD8B4C7D7CED73B
:1047B000A951AA11D8B4CFD737B03792610050F6BB
:1047C000D9F4610054F6DAF4DEC4F6F4DEC4F7F48A
:1047D000150EF76403D00800F55005D0F6C4E1F4D7
:1047E000F7C4E2F4E7502A0AD8A42DD0610050F6AD
:1047F000D9F4610054F6DAF4DE2A000EDD226100FD
:1048000058F6D9F461005CF6DAF461007CF398F5AF
:10481000020EDE2661007CF399F5000EDD226100B8
:1048200060F6D9F4610064F6DAF4610078F333F5E8
:10483000610074F334F534AE51D03780336C341EDC
:10484000D8B0342A4BD0610050F6D9F4610054F648
:10485000DAF4610078F322F5610074F323F525ECB6
:1048600034F022C533F523C534F509D0610050F684
:10487000D9F4610054F6DAF4DE2A000EDD22D00EFF
:10488000986FFF0E996F610050F6D9F4610054F6ED
:10489000DAF4DEC4F6F4DEC4F7F4150EF76403D0E0
:1048A0000800F55005D0F6C4E1F4F7C4E2F4E7508F
:1048B00005019A6F9B6B98519A2799519B239B51A5
:1048C00006E10A0E9A5DD8B002D0010E01D0000EAA
:1048D000AB6FAC6BAB51AC11D8A4C8D7610050F62C
:1048E000D9F4610054F6DAF4DEC4F6F4DEC4F7F469
:1048F000150EF76403D00800F55005D0F6C4E1F4B6
:10490000F7C4E2F4E750640AD8B418D0610050F656
:10491000D9F4610054F6DAF4DEC4F6F4DEC4F7F438
:10492000150EF76403D00800F55005D0F6C4E1F485
:10493000F7C4E2F4E750690AD8A44AD0610050F6FF
:10494000D9F4610054F6DAF4DE2A000EDD226100AB
:1049500058F6D9F461005CF6DAF461007CF398F55E
:10496000020EDE2661007CF399F5000EDD22610067
:1049700060F6D9F4610064F6DAF4610078F39CF52E
:10498000610074F39DF50501000E9DBFFF0E9E6F43
:104990009F6FA06FA16FA26FA36F92C56BF593C5B8
:1049A0006CF59CC56DF59DC56EF59EC56FF59FC5F3
:1049B00070F5A0C571F5A1C572F5A2C573F5A3C5C3
:1049C00074F503EC30F06BC592F56CC593F51200ED
:1049D000610050F6D9F4610054F6DAF4DEC4F6F45E
:1049E000DEC4F7F4150EF76403D00800F55005D0C7
:1049F000F6C4E1F4F7C4E2F4E7506E0AD8A449D053
:104A0000610050F6D9F4610054F6DAF4DE2A000EA3
:104A1000DD22610058F6D9F461005CF6DAF4610039
:104A20007CF398F5020EDE2661007CF399F5000E0A
:104A3000DD22610060F6D9F4610064F6DAF4610009
:104A400078F3A6F5610074F3A7F5610098F6F6F423
:104A500061009CF6F7F4000EF86E150EF76409D0AD
:104A60006100C4F4F5F40D006100C8F4F5F40C0025
:104A70000AD0F6C4E1F4F7C4E2F46100C4F4E6F449
:104A80006100C8F4E7F4000E0501936F000E926F09
:104A90001200610050F6D9F4610054F6DAF4DEC475
:104AA000F6F4DEC4F7F4150EF76403D00800F550F1
:104AB00005D0F6C4E1F4F7C4E2F4E750730AD8A4D1
:104AC00034D0610050F6D9F4610054F6DAF4DE2AED
:104AD000000EDD22610058F6D9F461005CF6DAF4CC
:104AE00061007CF398F5020EDE2661007CF399F5F7
:104AF000000EDD22610060F6D9F4610064F6DAF49C
:104B0000610078F3A4F5610074F3A5F592C526F56C
:104B100093C527F5A4C528F5A5C529F55DEC3AF0A0
:104B200026C592F527C593F51200610050F6D9F419
:104B3000610054F6DAF4DEC4F6F4DEC4F7F4150EC0
:104B4000F76403D00800F55005D0F6C4E1F4F7C4CB
:104B5000E2F4E750750AD8A44BD0610050F6D9F4BE
:104B6000610054F6DAF4DE2A000EDD22610058F608
:104B7000D9F461005CF6DAF461007CF398F5020E7A
:104B8000DE2661007CF399F5000EDD22610060F6FF
:104B9000D9F4610064F6DAF4610078F39AF5610003
:104BA00074F39BF59AC5ADF59BC5AEF50501AF6BEA
:104BB000B06BB16BB26BB36BB46B92C56BF593C555
:104BC0006CF5ADC56DF5AEC56EF5AFC56FF5B0C58D
:104BD00070F5B1C571F5B2C572F5B3C573F5B4C55D
:104BE00074F50EEC35F06BC592F56CC593F51200BB
:104BF000610050F6D9F4610054F6DAF4DEC4F6F43C
:104C0000DEC4F7F4150EF76403D00800F55005D0A4
:104C1000F6C4E1F4F7C4E2F4E750780AD8B418D047
:104C2000610050F6D9F4610054F6DAF4DEC4F6F40B
:104C3000DEC4F7F4150EF76403D00800F55005D074
:104C4000F6C4E1F4F7C4E2F4E750580AD8A463D0FC
:104C5000610050F6D9F4610054F6DAF4DEC4F6F4DB
:104C6000DEC4F7F4150EF76403D00800F55005D044
:104C7000F6C4E1F4F7C4E2F4E7500501A86F61005F
:104C800050F6D9F4610054F6DAF4DE2A000EDD2283
:104C9000610058F6D9F461005CF6DAF461007CF347
:104CA00098F5020EDE2661007CF399F5000EDD22F8
:104CB000610060F6D9F4610064F6DAF4610078F31B
:104CC0009AF5610074F39BF59AC5ADF59BC5AEF5F9
:104CD000AF6BB06BB16BB26BB36BB46B92C56BF572
:104CE00093C56CF5ADC56DF5AEC56EF5AFC56FF589
:104CF000B0C570F5B1C571F5B2C572F5B3C573F540
:104D0000B4C574F5A8C575F526EC31F06BC592F500
:104D10006CC593F51200610050F6D9F4610054F6A9
:104D2000DAF4DEC4F6F4DEC4F7F4150EF76403D04B
:104D30000800F55005D0F6C4E1F4F7C4E2F4E750FA
:104D4000250AD8A419D0610050F6D9F4610054F6B0
:104D5000DAF4DE2A000EDD22000E1E6E250E1D6E18
:104D600092C51FF593C520F565EC3FF0000E0501D7
:104D7000936F010E926F1200610050F6D9F461003A
:104D800054F6DAF4DE2A000EDD227DD6610050F6FC
:104D9000D9F4610054F6DAF4DEC4F6F4DEC4F7F4B4
:104DA000150EF76403D00800F55005D0F6C4E1F401
:104DB000F7C4E2F4E7500501986F98511D6E1E6A22
:104DC00092C51FF593C520F565EC3FF0610050F6E4
:104DD000D9F4610054F6DAF4DE2A000EDD22C6D7DB
:104DE000000ED96F000ED86F000ED56F000ED46F75
:104DF000000ED76F000ED66F000ED16F6B0E266EB1
:104E0000060E276E570E286EFF0E296EBCEC3FF083
:104E100026C5D2F627C5D3F60601D251D311D8B490
:104E200020D03B0E0501BD6F060EBE6F9F0EBF6FFB
:104E3000FE0EC06F1AC6C1F5C26B1BC6C3F5C46BAC
:104E40001CC6C5F5C66B1DC6C7F5C86B2BC6C9F514
:104E50002CC6CAF52FC6CBF530C6CCF527EC45F0ED
:104E60002FD26B0E266E060E276E650E286EFF0E75
:104E7000296EBCEC3FF026C5D2F627C5D3F6060155
:104E8000D251D311D8B4C0D030A302D0FA0E17D269
:104E9000050ED225BB6F000ED321BC6FEA0EBD6F8D
:104EA000FE0EBE6FD80EBF6F060EC06FD40EC16F60
:104EB000060EC26FD60EC36F060EC46F0EEC46F020
:104EC000030E0601BB19BC11D8A440D0D851D9118A
:104ED000D8A402D03091F4D1D95104E1050ED85DA7
:104EE000D8A002D0D169ECD1D8C639F6D5510EE19F
:104EF000650ED45DD8B00AD01E0ED825D96E060E28
:104F0000D921DA6E610050FBDFF402D0FE0ED7D15A
:104F1000D7BFFCD7D75103E1D605D8A0F7D7D7BF65
:104F200006D0D10ED65D070ED759D8B0EFD7D8909E
:104F3000D835D96ED935DA6E000ED926060EDA22AA
:104F4000610058FBDEF461005CFBDDF43B0E050103
:104F5000BD6F060EBE6FE50EBF6FFE0EC06FD8C6EA
:104F6000C1F5D9C6C2F51E0E0601D825D96E060EAA
:104F7000D921DA6EDF500501F86FF851C36FC46BA9
:104F8000D8900601D835D96ED935DA6E000ED926FB
:104F9000060EDA22610078F3C5F5610074F3C6F5F8
:104FA00027EC45F006012F510F0B0501F86FD8C60D
:104FB000F9F5FF0EF927010EFA6FF92B02D0D89000
:104FC000FA37F92FFCD70501FA51F8150009D8B4C2
:104FD00018D0D8C6F8F5FF0EF827010EF96FF82B98
:104FE00002D0D890F937F82FFCD70501F93B06011C
:104FF0002F510501F9190F0BF91906012F6F308197
:105000005FD1FB0E06015BD16B0E266E060E276E7E
:105010005F0E286EFF0E296EBCEC3FF026C5D2F65F
:1050200027C5D3F60601D251D311D8B480D0050ECE
:10503000D225BB6F000ED321BC6FDE0EBD6FFE0EFE
:10504000BE6FD80EBF6F060EC06FD60EC16F060EB4
:10505000C26F0EEC46F0020E0601BB19BC11D8A4BB
:105060002FD0D851D911D8A403D0F00E2F1728D1A2
:10507000D95105E1050ED85DD8B034D701D032D76B
:10508000D8C639F6D7BF42D7D75103E1D605D8A045
:105090003DD7D7BF06D0E90ED65D030ED759D8B09D
:1050A00035D7D890D835D96ED935DA6E000ED926D5
:1050B000060EDA22610058FBDEF461005CFBDDF4D1
:1050C0003B0E0501BD6F060EBE6F010EBF6FFF0EDA
:1050D000C06FD8C6C1F5D9C6C2F5D8900601D8357B
:1050E000D96ED935DA6E000ED926060EDA226100A5
:1050F00078F3C3F5610074F3C4F527EC45F0D8C626
:10510000F8F5FF0EF827010EF96FF82B02D0D890B2
:10511000F937F82FFCD70501F93B06012F5105019E
:10512000F9190F0BF91906012F6F3083C9D06B0ED7
:10513000266E060E276E3E0E286EFF0E296EBCEC04
:105140003FF026C5D2F627C5D3F60601D251D311BA
:10515000D8B410D03B0E0501BD6F060EBE6FF40E25
:10516000BF6FFE0EC06F6B0EC16FFF0EC26F27ECDC
:1051700045F0A6D06B0E266E060E276E4F0E286EDB
:10518000FF0E296EBCEC3FF026C5D2F627C5D3F63C
:105190000601D251D311D8B418D03B0E0501BD6F12
:1051A000060EBE6FD10EBF6FFE0EC06F1FC6C1F5DB
:1051B000C26B20C6C3F5C46B21C6C5F5C66B22C63B
:1051C000C7F5C86B27EC45F07BD06B0E266E060E3C
:1051D000276E470E286EFF0E296EBCEC3FF026C5E9
:1051E000D2F627C5D3F60601D251D311D8B41CD0BC
:1051F0003B0E0501BD6F060EBE6FBD0EBF6FFE0EEE
:10520000C06F02C6C1F503C6C2F504C6C3F505C624
:10521000C4F506C6C5F507C6C6F508C6C7F509C66E
:10522000C8F527EC45F04CD06B0E266E060E276EA7
:10523000220E286EFF0E296EBCEC3FF026C5D2F67A
:1052400027C5D3F60601D251D311D8B437D0D69E94
:10525000000E0001436F000E446F380E456F466923
:105260004151F80B0309416F550E426FAA0E426F70
:105270004081000E0601CF6F000140A10ED0060E46
:105280000501F86F300EE82EFED7F82FFCD700F09E
:105290000601CF2B130ECF65EFD7F80E0001411793
:1052A0003B0E0501BD6F060EBE6F0D0EBF6FFF0EEC
:1052B000C06F27EC45F00601308502D0FC0ED16F9F
:1052C0000601D151D8B412D03B0E0501BD6F060EB8
:1052D000BE6F180EBF6FFF0EC06F0601D1510501E2
:1052E000C16FC26BC1BFC20727EC45F03B0E050181
:1052F000BD6F060EBE6F15EC48F0000E06013A6F4A
:10530000000ED06F6B0ED025D96EDA6A060EDA2247
:10531000000EDF6ED02B2F0ED065F4D7000E456E39
:1053200002D00201A151B7B0FCD7AC80120021EE2F
:1053300092F1070EDE6AE806FDE268C59AF569C5D6
:105340009BF59A519B11D8B4C8D1610068F6D9F485
:1053500061006CF6DAF4DF50D8B4BFD102D09A4BBA
:105360009B2B610068F6D9F461006CF6DAF4DF502B
:105370009C6F010E866F200E9C19D8B413D0F70EC7
:10538000706FFF0E716F9C51726F736B705172274B
:1053900071517323735104E1050E725DD8A002D0E0
:1053A000000E866F86C580F5816B80518111D8A46F
:1053B000D6D7000E906F000E876F000E916F2D0EE6
:1053C0009C19D8A40DD0010E906F9A4B9B2B6100B5
:1053D00068F6D9F461006CF6DAF4DF509C6F04D003
:1053E0002B0E9C19D8B4F1D7300E9C19D8A434D008
:1053F0009A4B9B2B610068F6D9F461006CF6DAF4E5
:10540000DF509C6F6C516D11D8B405D0100E6C1923
:105410006D11D8A417D0780E9C19D8B404D0580EAA
:105420009C19D8A40FD0000E6D6F100E6C6F9A4BA4
:105430009B2B610068F6D9F461006CF6DAF4DF505A
:105440009C6F0AD0010E876F6C516D11D8A404D0E7
:10545000000E6D6F080E6C6F6C516D11D8A404D0E6
:10546000000E6D6F0A0E6C6F6E51D8B424D090513F
:10547000D8A410D0FF0E886FFF0E896FFF0E8A6FC1
:10548000FF0E8B6FFF0E8C6FFF0E8D6FFF0E8E6FFA
:105490007F0E0FD0000E886F000E896F000E8A6F8E
:1054A000000E8B6F000E8C6F000E8D6F000E8E6FD6
:1054B000800E8F6F08D0886989698A698B698C69C9
:1054C0008D698E698F6992C578F593C579F594C514
:1054D0007AF595C57BF596C57CF597C57DF598C59C
:1054E0007EF599C57FF59F0E706FFF0E716F9C5111
:1054F000726F736B200E7213000E7313705172274C
:1055000071517323735106E11A0E725DD8B002D047
:10551000010E01D0000E826F836B82518311D8B4CB
:1055200009D09CC521F5226AE9EC45F02150C90F4C
:105530009C6F1CD0D00E706FFF0E716F9C51726FFC
:10554000736B7051722771517323735106E10A0E08
:10555000725DD8B002D0010E01D0000E846F856B51
:1055600084518511D8B4A3D0300E9C5F9C51706FCC
:10557000716B6C51705D7151800A726F6D51800A50
:105580007259D8B094D09151D8A484D06CC51BF571
:105590006DC51CF5000E1CBEFF0E1D6E1E6E1F6E2F
:1055A000206E216E226E92C523F593C524F594C515
:1055B00025F595C526F596C527F597C528F598C50F
:1055C00029F599C52AF582EC41F01BC570F51CC57B
:1055D00071F51DC572F51EC573F51FC574F520C59F
:1055E00075F521C576F522C577F59C517025926F2A
:1055F000000E7121936F000E7221946F000E7321C3
:10560000956F000E7421966F000E7521976F000E36
:105610007621986F000E7721996F7851925D7951BC
:1056200093597A5194597B5195597C5196597D5192
:1056300097597E5198597F519959D8A015D06E51DC
:10564000D8B428D09251885D9351895994518A5980
:1056500095518B5996518C5997518D5998518E5916
:1056600099518F59D8B016D088C592F589C593F550
:105670008AC594F58BC595F58CC596F58DC597F5BE
:105680008EC598F58FC599F5000E306E220E2F6EDF
:10569000010E916F9A4B9B2B610068F6D9F4610063
:1056A0006CF6DAF4DF509C6F010E876F0CD79151C6
:1056B000D8A413D09051D8B410D0991F981F971F19
:1056C000961F951F941F931F926D000E9323942392
:1056D000952396239723982399236A516B11D8B465
:1056E00013D08751D8A404D068C59AF569C59BF535
:1056F0006100A8F5D9F46100ACF5DAF4610068F650
:10570000DEF461006CF6DDF492C568F593C569F5C9
:1057100094C56AF595C56BF596C56CF597C56DF59D
:1057200098C56EF599C56FF512001E50800B606F1D
:105730001E501E24626F1DBE62816251D8B40DD00E
:105740006229D8A408D0000E1B6E000E1C6E000E3D
:105750001D6E000E1E6E1D8E08D0000E1B6E000EFC
:105760001C6E000E1D6E000E1E6E2250800B601B04
:1057700022502224616F21BE61816151D8B40DD0C5
:105780006129D8A408D0000E1F6E000E206E000EF6
:10579000216E000E226E218E08D0000E1F6E000EAC
:1057A000206E000E216E000E226E6151D8B403D01F
:1057B0006251D8A409D0000E1B6E000E1C6E000EA4
:1057C0001D6E000E1E6E120021501B026100CCF3F4
:1057D0006BF56100D0F36CF56B51636F646B656BB7
:1057E000666B6C51676F686B696B6A6B20501C024B
:1057F0006100CCF36BF56100D0F36CF56B5163275E
:10580000000E6423652366236C516727000E68230E
:1058100069236A231F501D026100CCF36BF5610000
:10582000D0F36CF56B516327000E64236523662368
:105830006C516727000E682369236A2365C566F5E6
:1058400064C565F563C564F5636B1F501C02610098
:10585000CCF36BF56100D0F36CF56B5163276C51A1
:105860006423000E6523000E662320501B02610096
:10587000CCF36BF56100D0F36CF56B5163276C5181
:105880006423000E6523000E662365C566F564C5B6
:1058900065F563C564F5636B1F501B026100CCF3B3
:1058A0006BF56100D0F36CF56B5163276C51642389
:1058B000000E6523000E662321501C026100CCF30C
:1058C0006BF56100D0F36CF56B5167276C51682361
:1058D000000E6923000E6A2320501D026100CCF3E4
:1058E0006BF56100D0F36CF56B5167276C51682341
:1058F000000E6923000E6A2321501D026100CCF3C3
:105900006BF56100D0F36CF56B51236E6C51246E16
:10591000256A266A25C526F524C525F523C524F55F
:10592000236A235067272450682325506923265073
:105930006A2366516727000E682369236A2365C5B9
:1059400066F564C565F563C564F5636B615162C551
:1059500023F5246A2326000E2422820E23246B6F53
:10596000FF0E24206C6F0FD0D890673768376937E7
:105970006A3766BF6781D8906337643765376637A3
:105980006B07D8A06C0769AFEFD7000E616F66AFE9
:1059900017D0FF0E6315236EFF0E6415246EFF0EE5
:1059A0006515256E7F0E6615266E23502410251072
:1059B0002610D8B403D0010E616F02D067B1FBD7B7
:1059C0006151D8B41FD0010E6727000E68236923E8
:1059D0006A236AA117D067C523F568C524F569C590
:1059E00025F56AC526F5263426322532243223329F
:1059F00023C567F524C568F525C569F526C56AF58B
:105A00006B4B6C2B6CBF0DD06C5103E16B29D8A094
:105A100008D0000E676F000E686F800E696F7F0EF2
:105A200020D06CBF05D06C510EE16B05D8B00BD007
:105A3000000E676F000E686F000E696F000E6A6FD0
:105A4000000E606F0FD06BC562F5FF0E6717FF0E7B
:105A500068177F0E6917000E6A1762B1698FD890B8
:105A600062316A6F60516A1367C51BF568C51CF522
:105A700069C51DF56AC51EF51200D69E91EC43F06E
:105A80000F0E06012F13B4EC3EF068C533F669C55E
:105A900034F606013A51D8B462D1F0EC26F05FD169
:105AA000190E3925D96EDA6A060EDA22DF50DA6F5E
:105AB0001E0E3925D96EDA6A060EDA22DF50DB6F48
:105AC000DA51DB5DE26FE251800A7F0FD8A003D08C
:105AD000010E386F0BD0E2AF02D0386907D0000E4C
:105AE000386F30910F0E2F17000E376F3951FDECC4
:105AF00044F00009D8B403D0000E376F309138C697
:105B00001BF539518EEC37F0060129512D5DDA6F06
:105B10002A512E59DB6FDB5104E1650EDA5DD8A006
:105B2000B2D7190E3925D96EDA6A060EDA22385143
:105B3000DF262DC629F62EC62AF6A5D7BE94000E5E
:105B4000386F3951D8B403D0040E396506D030937C
:105B50000F0E2F17000E376F2FD03951FDEC44F088
:105B60000009D8B423D0190E3925D96EDA6A060E89
:105B7000DA22000EDF6E000E376F309339C6DAF688
:105B8000FF0EDA27010EDB6FDA2B02D0D890DB375D
:105B9000DA2FFCD706012F510F0BDC6FDB51DC1322
:105BA0002F51DC19F00BDC192F6F06D0386938C67D
:105BB0001BF539518EEC37F0060129512D5DDA6F56
:105BC0002A512E59DB6FDB5104E1650EDA5DD8A056
:105BD0001DD0190E3925D96EDA6A060EDA22DF5089
:105BE000D8B408D0190E3925D96EDA6A060EDA2231
:105BF000DF0608D0190E3925D96EDA6A060EDA22C8
:105C0000630EDF6E2DC629F62EC62AF6E0512D5DF5
:105C1000DA6FE1512E59DB6FE90EDA5D030EDB59C5
:105C2000D8A031D72DC6E0F62EC6E1F6DE4BDF2B2D
:105C3000DF5104E1790EDE5DD8A025D7000E376F65
:105C4000309321D7BE84A89E000E0201056F05C2C5
:105C500006F2000E156F15C216F2000E176F17C26E
:105C600014F2000E106F10C218F2010E3AEC44F05C
:105C7000A5EC40F01BC52BF61CC52CF606012CAF7D
:105C800004D0000E2C6F000E2B6F000E406E3951A9
:105C9000D8B45ED0050E39615BD0000E0401176FD9
:105CA00017C40FF40FC407F4060130A339D0000E57
:105CB0003A6E000E396E000E416E39C6DAF6FF0EEE
:105CC000DA27010EDB6FDA2B02D0D890DB37DA2F20
:105CD000FCD70601DB51FF0ADC6F2F510F0BDD6F84
:105CE000DC51DD172F51DD19F00BDD192F6F000E80
:105CF000E36F140EE325D96EDA6A060EDA22000E7F
:105D0000DF6EE32B030EE365F4D7010E376F2DC66C
:105D1000E0F62EC6E1F6000EDF6F000EDE6F18D043
:105D200030A116D0000E3A6E000E396E000E416E94
:105D3000000EE46F140EE425D96EDA6A060EDA223C
:105D4000000EDF6EE42B030EE465F4D7020E376F0E
:105D500030A5EFD60201B2AFFDD7FF00EAD60601AB
