:10000000FEEF03F0FF00FF00FF00FF00FF00FF0016
:10001000FF00FF00FF00FF00FF00FF00FF00FF00E8
:10002000FF00FF00FF00FF00FF00FF00FF00FF00D8
:10003000FF00FF00FF00FF00FF00FF00FF00FF00C8
:10004000FF00FF00FF00FF00FF00FF00FF00FF00B8
:1002C000FF00C694BE941200000EF86E000146EFC7
:1002D00002F0326E0A0E326003D03250300F12003C
:1002E0003250370F1200600E0001AD6F000EAF6F7D
:1002F000500EB36F050EB16F000EB06F000EAC6FF5
:100300001200000E0001636F000E646F000E656F37
:10031000000E666F000E676F000E686F1200326E7F
:10032000140E336E05D0420EE82EFED700D03306F1
:10033000B7B203D03350D8A4F6D7B7A212006100E9
:10034000C8F4A3F21200C884040110950201AC9F06
:10035000000EAF6F190EAE6F300EAB6F000EAD6FAB
:10036000AD9DAD95120E726F100E0E6FAC8F120018
:10037000D69E73EC01F081EC01F061EC01F0A3EC8E
:1003800001F0FE0E0001436FFF0E446F3F0E456FFC
:10039000F80E4117408140B1FED7600018F103F517
:1003A00060001CF104F50FD0000E016E090E026E04
:1003B0001200000E016E0D0E026E1200000E016E94
:1003C000150E026E120003C532F504C533F5335025
:1003D000740AD8B404D0010AD8B406D0EFD732508A
:1003E000E00AD8B4E6D7EAD73250200AD8B4DCD72E
:1003F000400AE4D76100C8F4D9F46100CCF4DAF41F
:10040000DF50356E600E356401D0359A2F0E35649D
:1004100009D0470E356006D0390E356405D0410E3F
:10042000356002D0000E1200300E355E090E3564C4
:1004300002D0070E355E35C534F5324A332A6100E5
:10044000C8F4D9F46100CCF4DAF4DF50356E600EF4
:10045000356401D0359A2F0E356409D0470E3560CA
:1004600006D0390E356405D0410E356002D03450C7
:100470001200300E355E090E356402D0070E355E6F
:100480003450100DF3503524346EF1D781EC01F067
:1004900073EC01F0000E466F000E436F000E446FC8
:1004A000380E456FF80E41174081000E446E000172
:1004B00040A10CD0060E366E300EE82EFED7362E3A
:1004C000FCD700D0442A130E4464F1D7000146291A
:1004D000D8B406D0000EFC6E000EE06E00EF04F003
:1004E000B8EC01F0000E3F6E84D1000E476E050E91
:1004F0004724D96EDA6A050EDA22000EDF6E472A2B
:100500002C0E4764F4D7000E436E000E4D6E1DD0C6
:10051000B7A0FED70201B2A302D0A1511CD0600047
:1005200084FA4AF50A0E4A18D8A405D0010E4D6483
:1005300012D0010E436E050E4D24D96EDA6A050EF7
:10054000DA22610028F5DFF44D2A4350D8A403D005
:100550002C0E4D64DDD7050E4D24D96EDA6A050EDA
:10056000DA22000EDF6E0A0E4D6423D14350D8B458
:1005700020D13A0E0518D8A41CD10C0E326E050EEF
:10058000336EFAEC01F0416E060E326E050E336EDC
:10059000FAEC01F0466E080E326E050E336EFAEC80
:1005A00001F0366E36504B6E4C6A4B504C6E4B6AB7
:1005B0000A0E326E050E336EFAEC01F0366E3650CE
:1005C0004B26000E4C224650366E376AD89036368F
:1005D00037360E0E3624326E050E3720336EFAECA7
:1005E00001F0406ED8904B307F0B426E4150D8A442
:1005F000B3D0080E4C5CD8B04BB0AED046C536F583
:10060000D8903632365042C537F5386A3726000E54
:10061000382238BE08D0385005E1810E375CD8B09A
:100620009BD001D099D061002CF543F0610030F5EA
:1006300044F00001456B4151F80B0209416FD69E11
:10064000408140B1FED74250366E376AD890363678
:100650003736365001243B6E375002203C6E000E78
:10066000486E2ED0100E4824326E336A050E3322A7
:10067000FAEC01F0366E36503D6E3E6A3D503E6EED
:100680003D6A0E0E4824326E336A050E3322FAECB0
:1006900001F0366E36503D26000E3E226100ECF42D
:1006A000D9F46100F0F4DAF46100F4F4DEF46100EE
:1006B000F8F4DDF4020E3B26000E3C22040E482620
:1006C0004650366E376AD890363637364850386ED0
:1006D000396A3650385C3950800A3A6E3750800A91
:1006E0003A58D8A0BFD761002CF543F0610030F52F
:1006F00044F00001456B4151F80B0609416F550E5E
:10070000426FAA0E426F408140B1FED741AF01D087
:1007100070D04151F80B0509416F550E426FAA0E7A
:10072000426F408140B1FED741AF01D062D0F80E98
:10073000411740380F0B69EC01F08FEC01F040508D
:100740000F0B69EC01F08FEC01F00D0E8FEC01F056
:100750000A0E8FEC01F04DD04104D8A42AD0010E2E
:100760003F6ED69E000E0001436F000E446F380EA0
:10077000456F000E466F4151F80B0309416F550E4E
:10078000426FAA0E426F4081000E456E0CD00001F0
:1007900040A10CD0060E366E300EE82EFED7362E57
:1007A000FCD700D0452A130E4564F1D7F80E00019E
:1007B0004117000E496E2C0E496401D011D0050E70
:1007C0004924D96EDA6A050EDA22DF504A6E200E0D
:1007D0004A6001D005D04A508FEC01F0492AEBD78E
:1007E0000D0E8FEC01F00A0E8FEC01F00201B2AF9A
:1007F000FDD73F50D8B479D6FF00FFD764EF01F0A2
:00000001FF
