:10000000FEEF03F0FF00FF00FF00FF00FF00FF0016
:10001000FF00FF00FF00FF00FF00FF00FF00FF00E8
:10002000FF00FF00FF00FF00FF00FF00FF00FF00D8
:10003000FF00FF00FF00FF00FF00FF00FF00FF00C8
:10004000FF00FF00FF00FF00FF00FF00FF00FF00B8
:1002D000FF00FF00FF00FF00C694BE941200000E56
:1002E000F86E000151EF02F0326E0A0E326003D058
:1002F0003250300F12003250370F1200600E0001E2
:10030000AD6F000EAF6F500EB36F050EB16F000EE4
:10031000B06F000EAC6F1200000E0001636F000E94
:10032000646F000E656F000E666F000E676F000E43
:10033000686F1200326E140E336E05D0420EE82E36
:10034000FED700D03306B7B203D03350D8A4F6D7C7
:10035000B7A212006100C8F4A3F21200C88404011D
:1003600010950201AC9F000EAF6F190EAE6F300EEC
:10037000AB6F000EAD6FAD9DAD95120E726F100E8E
:100380000E6FAC8F1200D69E7EEC01F08CEC01F06B
:100390006CEC01F0AEEC01F0FE0E0001436FFF0EBD
:1003A000446F3F0E456FF80E4117408140B1FED7B4
:1003B000600018F103F560001CF104F50FD0000E89
:1003C000016E090E026E1200000E016E0D0E026E1D
:1003D0001200000E016E150E026E120003C532F5FA
:1003E00004C533F53350740AD8B404D0010AD8B424
:1003F00006D0EFD73250E00AD8B4E6D7EAD7325069
:10040000200AD8B4DCD7400AE4D76100C8F4D9F494
:100410006100CCF4DAF4DF50356E600E356401D043
:10042000359A2F0E356409D0470E356006D0390E47
:10043000356405D0410E356002D0000E1200300E3A
:10044000355E090E356402D0070E355E35C534F5CC
:10045000324A332A6100C8F4D9F46100CCF4DAF4EA
:10046000DF50356E600E356401D0359A2F0E35643D
:1004700009D0470E356006D0390E356405D0410EDF
:10048000356002D034501200300E355E090E3564EE
:1004900002D0070E355E3450100DF3503524346E03
:1004A000F1D78CEC01F07EEC01F0000E466F000EEF
:1004B000436F000E446F380E456FF80E41174081B0
:1004C000000E426E000140A10CD0060E366E300EBA
:1004D000E82EFED7362EFCD700D0422A130E4264F7
:1004E000F1D700014629D8B406D0000EFC6E000EEC
:1004F000E06E00EF04F0C3EC01F0000E3D6E79D128
:10050000000E456E050E4524D96EDA6A050EDA2214
:10051000000EDF6E452A2C0E4564F4D7000E416EA6
:10052000000E4B6E1DD0B7A0FED70201B2A302D0C1
:10053000A1511CD0600084FA48F50A0E4818D8A4CE
:1005400005D0010E4B6412D0010E416E050E4B24F6
:10055000D96EDA6A050EDA22610020F5DFF44B2A43
:100560004150D8A403D02C0E4B64DDD7050E4B248C
:10057000D96EDA6A050EDA22000EDF6E0A0E4B64BF
:1005800018D14150D8B415D13A0E0518D8A411D1BC
:100590000C0E326E050E336E05EC02F03F6E060E49
:1005A000326E050E336E05EC02F0446E080E326EAC
:1005B000050E336E05EC02F0366E3650496E4A6A0F
:1005C00049504A6E496A0A0E326E050E336E05ECCA
:1005D00002F0366E36504926000E4A224450366EDE
:1005E000376AD890363637360E0E3624326E050E00
:1005F0003720336E05EC02F03E6ED89049307F0B09
:10060000406E3F50D8A4A8D0080E4A5CD8B049B07C
:10061000A3D044C536F5D8903632365040C537F5AC
:10062000386A3726000E382238BE08D0385005E127
:10063000810E375CD8B090D001D08ED0610024F507
:1006400043F0610028F544F00001456B4151F80B7F
:100650000209416FD69E408140B1FED74050366EB0
:10066000376AD8903636373636500124396E3750CF
:1006700002203A6E000E466E2ED0100E4624326EC8
:10068000336A050E332205EC02F0366E36503B6EAF
:100690003C6A3B503C6E3B6A0E0E4624326E336A17
:1006A000050E332205EC02F0366E36503B26000E66
:1006B0003C226100E4F4D9F46100E8F4DAF461006A
:1006C000ECF4DEF46100F0F4DDF4020E3926000EE5
:1006D0003A22040E462644C536F5D89036323650B6
:1006E000465CD8A0CAD7610024F543F0610028F524
:1006F00044F00001456B4151F80B0609416F550E5E
:10070000426FAA0E426F408140B1FED741AF01D087
:1007100070D04151F80B0509416F550E426FAA0E7A
:10072000426F408140B1FED741AF01D062D0F80E98
:1007300041173E380F0B74EC01F09AEC01F03E507B
:100740000F0B74EC01F09AEC01F00D0E9AEC01F035
:100750000A0E9AEC01F04DD03F04D8A42AD0010E25
:100760003D6ED69E000E0001436F000E446F380EA2
:10077000456F000E466F4151F80B0309416F550E4E
:10078000426FAA0E426F4081000E436E0CD00001F2
:1007900040A10CD0060E366E300EE82EFED7362E57
:1007A000FCD700D0432A130E4364F1D7F80E0001A2
:1007B0004117000E476E2C0E476401D011D0050E74
:1007C0004724D96EDA6A050EDA22DF50486E200E11
:1007D000486001D005D048509AEC01F0472AEBD789
:1007E0000D0E9AEC01F00A0E9AEC01F00201B2AF84
:1007F000FDD73D50D8B484D6FF00FFD76FEF01F08E
:00000001FF
