:100800005DEF04F0FF00FF005024502450245024DA
:10081000502450245024091950245024502450248A
:10082000502450245024502450242E022E022E02F4
:100830005024502450245024502450245024522416
:100840005124502450241C24272150245024502467
:1008500050245024502450245024502450242E023C
:1008600050245024502450245024502450245024E8
:100870005024502450242E0250245024502450241C
:100880002E0250245024502450245024502450240C
:100890002E0250242E025024502450245024502440
:1008A000502450245024502450242E022E02502430
:1008B0005024502450245024FF008EEF43F0610058
:1008C000F4F6D9F46100F8F6DAF4DEC4F6F4DDC427
:1008D000F7F40800F550250AD8A45BEF1CF061007E
:1008E000F4F6D9F46100F8F6DAF4DE2A000EDD221F
:1008F000000E316E000E306E30C5FEF531C5FFF5CD
:100900006100F4F6D9F46100F8F6DAF4DEC4F6F426
:10091000DDC4F7F40800F5502A0AD8A40DD0610010
:10092000F4F6D9F46100F8F6DAF4DE2A000EDD22DE
:10093000000EFF6F010EFE6F6100F4F6D9F4610046
:10094000F8F6DAF4610078F321F5610074F322F52A
:1009500019EC34F021C530F522C531F509D061001C
:10096000F4F6D9F46100F8F6DAF4DE2A000EDD229E
:10097000D00EC16FFF0EC26F6100F4F6D9F46100B2
:10098000F8F6DAF4DEC4F6F4DDC4F7F40800F55046
:10099000C36FC46BC151C327C251C423C45106E104
:1009A0000A0EC35DD8B002D0010E01D0000ECD6F8B
:1009B000CE6BCD51CE11D8A4D2D76100F4F6D9F4C4
:1009C0006100F8F6DAF4DEC4F6F4DDC4F7F40800EA
:1009D000F550206E216A95EC45F02050D36FD3512D
:1009E000D8B43FD06100F4F6D9F46100F8F6DAF437
:1009F000610078F3C1F5610074F3C2F5010EC127FF
:100A0000000EC223610004F7F6F4610008F7F7F462
:100A10000800F550206E216A95EC45F02050D46F07
:100A2000D451D8B41ED06100F4F6D9F46100F8F6C0
:100A3000DAF4610078F3C1F5610074F3C2F5020ED7
:100A4000C127000EC223610004F7F6F4610008F725
:100A5000F7F40800F550206E216A95EC45F020501F
:100A6000D56F6100F4F6D9F46100F8F6DAF4DEC46B
:100A7000F6F4DDC4F7F40800F550630AD8A447D0B3
:100A80006100F4F6D9F46100F8F6DAF4DE2A000E1B
:100A9000DD22FE51FF11D8A427D06100FCF6D9F465
:100AA000610000F7DAF461007CF3C1F5020EDE2686
:100AB00061007CF3C2F5000EDD22610004F7D9F479
:100AC000610008F7DAF4610078F3EAF5610074F385
:100AD000EBF5BBC525F5BCC526F5EAC527F5EBC585
:100AE00028F5DBEC3CF00AD0BBC525F5BCC526F5E6
:100AF000000E276E000E286EDBEC3CF025C5ECF5F1
:100B000026C5EDF5ECC5BBF5EDC5BCF512006100E1
:100B1000F4F6D9F46100F8F6DAF4610078F31AF526
:100B2000610074F31BF5840E1C6EFF0E1D6E000E2B
:100B30001F6E030E1E6E63EC3DF01A501B10D8B4EE
:100B40001AD06100F4F6D9F46100F8F6DAF4610025
:100B500078F31AF5610074F31BF58C0E1C6EFF0E12
:100B60001D6E000E1F6E030E1E6E63EC3DF01A50DC
:100B70001B10D8A457D0030E6100F4F6D9F461001D
:100B8000F8F6DAF4DE26000EDD22BBC5A5F5BCC5FD
:100B9000A6F5DA0E0501A76F050EA86FAEEC36F0CC
:100BA000A5C5ECF5A6C5EDF5FE51FF11D8B4EDBF16
:100BB000A9D7ED5103E1EC05D8A0A4D76100FCF65C
:100BC000D9F4610000F7DAF461007CF3C1F5020E9C
:100BD000DE2661007CF3C2F5000EDD22610004F721
:100BE000D9F4610008F7DAF4610078F3EAF56100FE
:100BF00074F3EBF56100A8F7F6F46100ACF7F7F4D5
:100C0000000EF86E150EF76405D0610068F7F5F474
:100C10000C0007D0F6C4E1F4F7C4E2F4610068F711
:100C2000E7F470D76100F4F6D9F46100F8F6DAF46D
:100C3000610078F31AF5610074F31BF5850E1C6EE4
:100C4000FF0E1D6E000E1F6E020E1E6E63EC3DF059
:100C50001A501B10D8B41AD06100F4F6D9F4610010
:100C6000F8F6DAF4610078F31AF5610074F31BF515
:100C70008D0E1C6EFF0E1D6E000E1F6E020E1E6E80
:100C800063EC3DF01A501B10D8A455D0020E610041
:100C9000F4F6D9F46100F8F6DAF4DE26000EDD226F
:100CA000BBC5A5F5BCC5A6F5DA0E0501A76F050EF7
:100CB000A86FAEEC36F0A5C5ECF5A6C5EDF5FE5176
:100CC000FF11D8B4EDBF1ED7ED5103E1EC05D8A05C
:100CD00019D76100FCF6D9F4610000F7DAF461007D
:100CE0007CF3C1F5020EDE2661007CF3C2F5000E36
:100CF000DD22610004F7D9F4610008F7DAF461003D
:100D000078F3EAF5610074F3EBF56100A8F7F6F407
:100D10006100ACF7F7F4000EF86E150EF76409D019
:100D2000610068F7F5F40D0061006CF7F5F40C0054
:100D300001D08BD3E7D66100F4F6D9F46100F8F660
:100D4000DAF4DEC4F6F4DDC4F7F40800F550640A02
:100D5000D8B40FD06100F4F6D9F46100F8F6DAF4F3
:100D6000DEC4F6F4DDC4F7F40800F550690AD8A42F
:100D700054D06100F4F6D9F46100F8F6DAF4DE2A12
:100D8000000EDD22BBC5A5F5BCC5A6F5DA0E050132
:100D9000A76F050EA86FAEEC36F0A5C5ECF5A6C59D
:100DA000EDF5FE51FF11D8B4EDBFACD6ED5103E126
:100DB000EC05D8A0A7D66100FCF6D9F4610000F7D5
:100DC000DAF461007CF3C1F5020EDE2661007CF3EB
:100DD000C2F5000EDD22610004F7D9F4610008F7C6
:100DE000DAF4610078F3EAF5610074F3EBF5610081
:100DF000A8F7F6F46100ACF7F7F4000EF86E150EE4
:100E0000F76409D0610068F7F5F40D0061006CF734
:100E1000F5F40C0001D019D375D66100F4F6D9F4BD
:100E20006100F8F6DAF4610078F31AF5610074F302
:100E30001BF5890E1C6EFF0E1D6E000E1F6E020E3E
:100E40001E6E63EC3DF01A501B10D8B41AD061002E
:100E5000F4F6D9F46100F8F6DAF4610078F31AF5E3
:100E6000610074F31BF5910E1C6EFF0E1D6E000EDB
:100E70001F6E020E1E6E63EC3DF01A501B10D8A4BC
:100E80005DD0020E6100F4F6D9F46100F8F6DAF4F0
:100E9000DE26000EDD22BBC5A5F5BCC5A6F5DA0E23
:100EA0000501A76F050EA86FAEEC36F0A5C5ECF5F1
:100EB000A6C5EDF5FE51FF11D8B4EDBF23D6ED5117
:100EC00003E1EC05D8A01ED66100FCF6D9F4610060
:100ED00000F7DAF461007CF3C1F5020EDE26610052
:100EE0007CF3C2F5000EDD22610004F7D9F4610045
:100EF00008F7DAF4610078F3EAF5610074F3EBF5D2
:100F00006100A8F7F6F46100ACF7F7F4000EF86E94
:100F1000150EF76411D0610068F7F5F40D0061005B
:100F20006CF7F5F40D00610070F7F5F40D00610049
:100F300074F7F5F40C0001D0EDD1E4D56100F4F6BE
:100F4000D9F46100F8F6DAF4610078F31AF561007B
:100F500074F31BF5880E1C6EFF0E1D6E000E1F6EC7
:100F6000030E1E6E63EC3DF01A501B10D8B41AD05D
:100F70006100F4F6D9F46100F8F6DAF4610078F370
:100F80001AF5610074F31BF5900E1C6EFF0E1D6EBA
:100F9000000E1F6E030E1E6E63EC3DF01A501B1008
:100FA000D8A46DD0030E6100F4F6D9F46100F8F610
:100FB000DAF4DE26000EDD22BBC5A5F5BCC5A6F51C
:100FC000DA0E0501A76F050EA86FAEEC36F0A5C5C9
:100FD000ECF5A6C5EDF5FE51FF11D8B4EDBF92D5E5
:100FE000ED5103E1EC05D8A08DD56100FCF6D9F4F4
:100FF000610000F7DAF461007CF3C1F5020EDE2631
:1010000061007CF3C2F5000EDD22610004F7D9F423
:10101000610008F7DAF4610078F3EAF5610074F32F
:10102000EBF56100A8F7F6F46100ACF7F7F4000EF9
:10103000F86E150EF76421D0610068F7F5F40D0025
:1010400061006CF7F5F40D00610070F7F5F40D0028
:10105000610074F7F5F40D00610078F7F5F40D0008
:1010600061007CF7F5F40D00610080F7F5F40D00E8
:10107000610084F7F5F40C0001D0A0D043D56100E5
:10108000F4F6D9F46100F8F6DAF4610078F31AF5B1
:10109000610074F31BF5C00E1C6EFF0E1D6E000E7A
:1010A0001F6E020E1E6E63EC3DF01A501B10D8B47A
:1010B0001AD06100F4F6D9F46100F8F6DAF46100B0
:1010C00078F31AF5610074F31BF5D20E1C6EFF0E57
:1010D0001D6E000E1F6E020E1E6E63EC3DF01A5068
:1010E0001B10D8A488D0020E6100F4F6D9F4610078
:1010F000F8F6DAF4DE26000EDD22BBC5A5F5BCC588
:10110000A6F5DA0E0501A76F050EA86FAEEC36F056
:10111000A5C5ECF5A6C5EDF5FE51FF11D8B4EDBFA0
:10112000F1D4ED5103E1EC05D8A0ECD46100FCF65C
:10113000D9F4610000F7DAF461007CF3C1F5020E26
:10114000DE2661007CF3C2F5000EDD22610004F7AB
:10115000D9F4610008F7DAF4610078F3EAF5610088
:1011600074F3EBF56100A8F7F6F46100ACF7F7F45F
:10117000000EF86E150EF76421D0610068F7F5F4E3
:101180000D0061006CF7F5F40D00610070F7F5F4E7
:101190000D00610074F7F5F40D00610078F7F5F4C7
:1011A0000D0061007CF7F5F40D00610080F7F5F4A7
:1011B0000D00610084F7F5F40C001CD0F6C4E1F4D6
:1011C000F7C4E2F4610068F7E6F461006CF7E6F456
:1011D000610070F7E6F4610074F7E6F4610078F7F7
:1011E000E6F461007CF7E6F4610080F7E6F4610064
:1011F00084F7E7F487D46100F4F6D9F46100F8F6D7
:10120000DAF4610078F31AF5610074F31BF5C30E8C
:101210001C6EFF0E1D6E000E1F6E020E1E6E63EC26
:101220003DF01A501B10D8B41AD06100F4F6D9F46E
:101230006100F8F6DAF4610078F31AF5610074F3EE
:101240001BF5D50E1C6EFF0E1D6E000E1F6E020EDE
:101250001E6E63EC3DF01A501B10D8A46DD0020E28
:101260006100F4F6D9F46100F8F6DAF4DE26000E37
:10127000DD22BBC5A5F5BCC5A6F5DA0E0501A76F35
:10128000050EA86FAEEC36F0A5C5ECF5A6C5EDF5DC
:10129000FE51FF11D8B4EDBF35D4ED5103E1EC059B
:1012A000D8A030D46100FCF6D9F4610000F7DAF47C
:1012B00061007CF3C1F5020EDE2661007CF3C2F50D
:1012C000000EDD22610004F7D9F4610008F7DAF4BA
:1012D000610078F3EAF5610074F3EBF56100A8F7BB
:1012E000F6F46100ACF7F7F4000EF86E150EF76433
:1012F00011D0610068F7F5F40D0061006CF7F5F4AA
:101300000D00610070F7F5F40D00610074F7F5F45D
:101310000C0010D0F6C4E1F4F7C4E2F4610068F701
:10132000E6F461006CF7E6F4610070F7E6F4610042
:1013300074F7E7F482EF05F06100F4F6D9F4610088
:10134000F8F6DAF4610078F31AF5610074F31BF52E
:10135000C60E1C6EFF0E1D6E000E1F6E020E1E6E60
:1013600063EC3DF01A501B10D8B41AD06100F4F6AB
:10137000D9F46100F8F6DAF4610078F31AF5610047
:1013800074F31BF5D80E1C6EFF0E1D6E000E1F6E43
:10139000020E1E6E63EC3DF01A501B10D8A461D0F3
:1013A000020E6100F4F6D9F46100F8F6DAF4DE26F4
:1013B000000EDD22BBC5A5F5BCC5A6F5DA0E0501FC
:1013C000A76F050EA86FAEEC36F0A5C5ECF5A6C567
:1013D000EDF5FE51FF11D8B4EDBF82EF05F0ED51F0
:1013E00004E1EC05D8A082EF05F06100FCF6D9F429
:1013F000610000F7DAF461007CF3C1F5020EDE262D
:1014000061007CF3C2F5000EDD22610004F7D9F41F
:10141000610008F7DAF4610078F3EAF5610074F32B
:10142000EBF56100A8F7F6F46100ACF7F7F4000EF5
:10143000F86E150EF76409D0610068F7F5F40D0039
:1014400061006CF7F5F40C000AD0F6C4E1F4F7C4BF
:10145000E2F4610068F7E6F461006CF7E7F482EF0C
:1014600005F0610E0501D319D8B40CD0650ED3195F
:10147000D8B408D0660ED319D8B404D0670ED319E7
:10148000D8A46DD06100F4F6D9F46100F8F6DAF46E
:10149000DE2A000EDD22BBC58FF5BCC590F5D60E49
:1014A000916F050E926F25EC33F08FC5ECF590C56A
:1014B000EDF5FE51FF11D8B4EDBF82EF05F0ED510F
:1014C00004E1EC05D8A082EF05F06100FCF6D9F448
:1014D000610000F7DAF461007CF3C1F5020EDE264C
:1014E00061007CF3C2F5000EDD22610004F7D9F43F
:1014F000610008F7DAF4610078F3EAF5610074F34B
:10150000EBF56100A8F7F6F46100ACF7F7F4000E14
:10151000F86E150EF76411D0610058F7F5F40D0060
:1015200061005CF7F5F40D00610060F7F5F40D0063
:10153000610064F7F5F40C0010D0F6C4E1F4F7C4D0
:10154000E2F4610058F7E6F461005CF7E6F461004C
:1015500060F7E6F4610064F7E7F482EF05F0D30E7C
:101560001A6E050E1B6EBD0E1C6EFF0E1D6E000E5C
:101570001F6E020E1E6E63EC3DF01A501B10D8B4A5
:1015800036D0D30E1A6E050E1B6EC90E1C6EFF0EE2
:101590001D6E000E1F6E020E1E6E63EC3DF01A50A3
:1015A0001B10D8B424D0D30E1A6E050E1B6ECC0EB1
:1015B0001C6EFF0E1D6E000E1F6E020E1E6E63EC83
:1015C0003DF01A501B10D8B412D0D30E1A6E050E6F
:1015D0001B6ECF0E1C6EFF0E1D6E000E1F6E020ED8
:1015E0001E6E63EC3DF01A501B10D8A4DBD0BBC5B7
:1015F0008FF5BCC590F5D60E0501916F050E926F63
:1016000025EC33F08FC5ECF590C5EDF5FE51FF11DB
:10161000D8B4EDBFBBD0ED5103E1EC05D8A0B6D0F6
:10162000BF0EC16FFF0EC26F6100F4F6D9F4610006
:10163000F8F6DAF4DEC4F6F4DDC4F7F40800F55089
:10164000C36FC46BC151C327C251C423C45106E147
:101650001A0EC35DD8B002D0010E01D0000ECF6FBC
:10166000D06BCF51D011D8B449D06100FCF6D9F479
:10167000610000F7DAF461007CF3C1F5020EDE26AA
:1016800061007CF3C2F5000EDD22610004F7D9F49D
:10169000610008F7DAF4610078F3EAF5610074F3A9
:1016A000EBF56100A8F7F6F46100ACF7F7F4000E73
:1016B000F86E150EF76411D0610058F7F5F40D00BF
:1016C00061005CF7F5F40D00610060F7F5F40D00C2
:1016D000610064F7F5F40C0010D0F6C4E1F4F7C42F
:1016E000E2F4610058F7E6F461005CF7E6F46100AB
:1016F00060F7E6F4610064F7E7F448D06100FCF6B7
:10170000D9F4610000F7DAF461007CF3C1F5020E50
:10171000DE2661007CF3C2F5000EDD22610004F7D5
:10172000D9F4610008F7DAF4610078F3EAF56100B2
:1017300074F3EBF56100A8F7F6F46100ACF7F7F489
:10174000000EF86E150EF76411D0610058F7F5F42D
:101750000D0061005CF7F5F40D00610060F7F5F431
:101760000D00610064F7F5F40C0010D0F6C4E1F44C
:10177000F7C4E2F4610058F7E6F461005CF7E6F4C0
:10178000610060F7E6F4610064F7E7F4020E6100BF
:10179000F4F6D9F46100F8F6DAF4DE26000EDD2264
:1017A00082EF05F06100F4F6D9F46100F8F6DAF49E
:1017B000610078F31AF5610074F31BF59C0E1C6E42
:1017C000FF0E1D6E000E1F6E030E1E6E63EC3DF0CD
:1017D0001A501B10D8A455D0030E6100F4F6D9F4AA
:1017E0006100F8F6DAF4DE26000EDD22BBC5A5F5B1
:1017F000BCC5A6F5E20E0501A76F050EA86F4BEC60
:1018000038F0A5C5ECF5A6C5EDF5FE51FF11D8B42D
:10181000EDBF82EF05F0ED5104E1EC05D8A082EFB9
:1018200005F06100FCF6D9F4610000F7DAF461001C
:101830007CF3C1F5020EDE2661007CF3C2F5000EDA
:10184000DD22610004F7D9F4610008F7DAF46100E1
:1018500078F3EAF5610074F3EBF56100A8F7F6F4AC
:101860006100ACF7F7F4000EF86E150EF76405D0C2
:10187000610088F7F5F40C0002D0F7EF17F082EF63
:1018800005F06100F4F6D9F46100F8F6DAF46100CD
:1018900078F31AF5610074F31BF59D0E1C6EFF0EB4
:1018A0001D6E000E1F6E020E1E6E63EC3DF01A5090
:1018B0001B10D8A459D0020E6100F4F6D9F46100CF
:1018C000F8F6DAF4DE26000EDD22BBC5A5F5BCC5B0
:1018D000A6F5E20E0501A76F050EA86F4BEC38F0D8
:1018E000A5C5ECF5A6C5EDF5FE51FF11D8B4EDBFC9
:1018F00082EF05F0ED5104E1EC05D8A082EF05F090
:101900006100FCF6D9F4610000F7DAF461007CF3C1
:10191000C1F5020EDE2661007CF3C2F5000EDD2269
:10192000610004F7D9F4610008F7DAF4610078F394
:10193000EAF5610074F3EBF56100A8F7F6F46100D5
:10194000ACF7F7F4000EF86E150EF76409D06100DD
:1019500088F7F5F40D0061008CF7F5F40C0002D067
:1019600024EF1CF082EF05F06100F4F6D9F4610079
:10197000F8F6DAF4DEC4F6F4DDC4F7F40800F55046
:101980006F0AD8A458D06100F4F6D9F46100F8F6D3
:10199000DAF4DE2A000EDD22BBC5A5F5BCC5A6F52E
:1019A000E20E0501A76F050EA86F4BEC38F0A5C538
:1019B000ECF5A6C5EDF5FE51FF11D8B4EDBF82EFF1
:1019C00005F0ED5104E1EC05D8A082EF05F06100CF
:1019D000FCF6D9F4610000F7DAF461007CF3C1F59C
:1019E000020EDE2661007CF3C2F5000EDD226100EE
:1019F00004F7D9F4610008F7DAF4610078F3EAF546
:101A0000610074F3EBF56100A8F7F6F46100ACF740
:101A1000F7F4000EF86E150EF76409D0610088F730
:101A2000F5F40D0061008CF7F5F40C0002D024EF02
:101A30001CF082EF05F06100F4F6D9F46100F8F6CD
:101A4000DAF4610078F31AF5610074F31BF5A10E66
:101A50001C6EFF0E1D6E000E1F6E020E1E6E63ECDE
:101A60003DF01A501B10D8A461D0020E6100F4F6AC
:101A7000D9F46100F8F6DAF4DE26000EDD22BBC5EB
:101A8000A5F5BCC5A6F5E20E0501A76F050EA86F6A
:101A90004BEC38F0A5C5ECF5A6C5EDF5FE51FF11F0
:101AA000D8B4EDBF82EF05F0ED5104E1EC05D8A00C
:101AB00082EF05F06100FCF6D9F4610000F7DAF47A
:101AC00061007CF3C1F5020EDE2661007CF3C2F5F5
:101AD000000EDD22610004F7D9F4610008F7DAF4A2
:101AE000610078F3EAF5610074F3EBF56100A8F7A3
:101AF000F6F46100ACF7F7F4000EF86E150EF7641B
:101B000011D0610088F7F5F40D0061008CF7F5F451
:101B10000D00610090F7F5F40D00610094F7F5F405
:101B20000C0002D089EF1BF082EF05F06100F4F6A3
:101B3000D9F46100F8F6DAF4610078F31AF561007F
:101B400074F31BF5A00E1C6EFF0E1D6E000E1F6EB3
:101B5000030E1E6E63EC3DF01A501B10D8A471D01A
:101B6000030E6100F4F6D9F46100F8F6DAF4DE262B
:101B7000000EDD22BBC5A5F5BCC5A6F5E20E05012C
:101B8000A76F050EA86F4BEC38F0A5C5ECF5A6C500
:101B9000EDF5FE51FF11D8B4EDBF82EF05F0ED5128
:101BA00004E1EC05D8A082EF05F06100FCF6D9F461
:101BB000610000F7DAF461007CF3C1F5020EDE2665
:101BC00061007CF3C2F5000EDD22610004F7D9F458
:101BD000610008F7DAF4610078F3EAF5610074F364
:101BE000EBF56100A8F7F6F46100ACF7F7F4000E2E
:101BF000F86E150EF76421D0610088F7F5F40D003A
:101C000061008CF7F5F40D00610090F7F5F40D001C
:101C1000610094F7F5F40D00610098F7F5F40D00FC
:101C200061009CF7F5F40D006100A0F7F5F40D00DC
:101C30006100A4F7F5F40C0002D0DAEF1AF082EF9D
:101C400005F06100F4F6D9F46100F8F6DAF4610009
:101C500078F31AF5610074F31BF5E40E1C6EFF0EA9
:101C60001D6E000E1F6E020E1E6E63EC3DF01A50CC
:101C70001B10D8A471D0020E6100F4F6D9F46100F3
:101C8000F8F6DAF4DE26000EDD22BBC5A5F5BCC5EC
:101C9000A6F5E20E0501A76F050EA86F4BEC38F014
:101CA000A5C5ECF5A6C5EDF5FE51FF11D8B4EDBF05
:101CB00082EF05F0ED5104E1EC05D8A082EF05F0CC
:101CC0006100FCF6D9F4610000F7DAF461007CF3FE
:101CD000C1F5020EDE2661007CF3C2F5000EDD22A6
:101CE000610004F7D9F4610008F7DAF4610078F3D1
:101CF000EAF5610074F3EBF56100A8F7F6F4610012
:101D0000ACF7F7F4000EF86E150EF76421D0610001
:101D100088F7F5F40D0061008CF7F5F40D00610013
:101D200090F7F5F40D00610094F7F5F40D006100F3
:101D300098F7F5F40D0061009CF7F5F40D006100D3
:101D4000A0F7F5F40D006100A4F7F5F40C0002D043
:101D5000DAEF1AF082EF05F06100F4F6D9F46100D1
:101D6000F8F6DAF4610078F31AF5610074F31BF504
:101D7000E70E1C6EFF0E1D6E000E1F6E020E1E6E15
:101D800063EC3DF01A501B10D8A461D0020E610024
:101D9000F4F6D9F46100F8F6DAF4DE26000EDD225E
:101DA000BBC5A5F5BCC5A6F5E20E0501A76F050EDE
:101DB000A86F4BEC38F0A5C5ECF5A6C5EDF5FE51C6
:101DC000FF11D8B4EDBF82EF05F0ED5104E1EC0551
:101DD000D8A082EF05F06100FCF6D9F4610000F7AD
:101DE000DAF461007CF3C1F5020EDE2661007CF3BB
:101DF000C2F5000EDD22610004F7D9F4610008F796
:101E0000DAF4610078F3EAF5610074F3EBF5610050
:101E1000A8F7F6F46100ACF7F7F4000EF86E150EB3
:101E2000F76411D0610088F7F5F40D0061008CF7BC
:101E3000F5F40D00610090F7F5F40D00610094F7E2
:101E4000F5F40C0002D089EF1BF082EF05F0610081
:101E5000F4F6D9F46100F8F6DAF4610078F31AF5D3
:101E6000610074F31BF5EA0E1C6EFF0E1D6E000E72
:101E70001F6E020E1E6E63EC3DF01A501B10D8A4AC
:101E800059D0020E6100F4F6D9F46100F8F6DAF4E4
:101E9000DE26000EDD22BBC5A5F5BCC5A6F5E20E0B
:101EA0000501A76F050EA86F4BEC38F0A5C5ECF542
:101EB000A6C5EDF5FE51FF11D8B4EDBF82EF05F0D8
:101EC000ED5104E1EC05D8A082EF05F06100FCF6CD
:101ED000D9F4610000F7DAF461007CF3C1F5020E79
:101EE000DE2661007CF3C2F5000EDD22610004F7FE
:101EF000D9F4610008F7DAF4610078F3EAF56100DB
:101F000074F3EBF56100A8F7F6F46100ACF7F7F4B1
:101F1000000EF86E150EF76409D0610088F7F5F42D
:101F20000D0061008CF7F5F40C0002D024EF1CF0DA
:101F300082EF05F06100F4F6D9F46100F8F6DAF406
:101F4000610078F31AF5610074F31BF5940E1C6EB2
:101F5000FF0E1D6E000E1F6E030E1E6E63EC3DF035
:101F60001A501B10D8A443D0030E6100F4F6D9F424
:101F70006100F8F6DAF4DE26000EDD226100FCF6E0
:101F8000D9F4610000F7DAF461007CF3C1F5020EC8
:101F9000DE2661007CF3C2F5000EDD22610004F74D
:101FA000D9F4610008F7DAF4610078F3EAF561002A
:101FB00074F3EBF56100A8F7F6F46100ACF7F7F401
:101FC000000EF86E150EF76405D06100B8F4F5F454
:101FD0000C0007D0F6C4E1F4F7C4E2F46100B8F4F1
:101FE000E7F4000E0501BC6F000EBB6F120061002C
:101FF000F4F6D9F46100F8F6DAF4610078F31AF532
:10200000610074F31BF5950E1C6EFF0E1D6E000E25
:102010001F6E020E1E6E63EC3DF01A501B10D8A40A
:102020003CD0020E6100F4F6D9F46100F8F6DAF45F
:10203000DE26000EDD226100FCF6D9F4610000F717
:10204000DAF461007CF3C1F5020EDE2661007CF358
:10205000C2F5000EDD22610004F7D9F4610008F733
:10206000DAF4610078F3EAF5610074F3EBF56100EE
:10207000A8F7F6F46100ACF7F7F4000EF86E150E51
:10208000F76409D06100B8F4F5F40D006100BCF408
:10209000F5F40C0001D091D2A4D76100F4F6D9F484
:1020A0006100F8F6DAF4DEC4F6F4DDC4F7F40800F3
:1020B000F5506E0AD8A43BD06100F4F6D9F4610063
:1020C000F8F6DAF4DE2A000EDD226100FCF6D9F41F
:1020D000610000F7DAF461007CF3C1F5020EDE2640
:1020E00061007CF3C2F5000EDD22610004F7D9F433
:1020F000610008F7DAF4610078F3EAF5610074F33F
:10210000EBF56100A8F7F6F46100ACF7F7F4000E08
:10211000F86E150EF76409D06100B8F4F5F40D00FF
:102120006100BCF4F5F40C0001D047D25AD761002D
:10213000F4F6D9F46100F8F6DAF4610078F31AF5F0
:10214000610074F31BF5990E1C6EFF0E1D6E000EE0
:102150001F6E020E1E6E63EC3DF01A501B10D8A4C9
:102160004ED0020E6100F4F6D9F46100F8F6DAF40C
:10217000DE26000EDD226100FCF6D9F4610000F7D6
:10218000DAF461007CF3C1F5020EDE2661007CF317
:10219000C2F5000EDD22610004F7D9F4610008F7F2
:1021A000DAF4610078F3EAF5610074F3EBF52EC51B
:1021B000C1F52FC5C2F5000E0501C2BFFF0EC36FEA
:1021C000C46F6100A8F7F6F46100ACF7F7F4000EF5
:1021D000F86E150EF76411D0610004F7F5F40D00E8
:1021E000610008F7F5F40D0061000CF7F5F40D003F
:1021F000610010F7F5F40C0001D07AD1F2D661003D
:10220000F4F6D9F46100F8F6DAF4610078F31AF51F
:10221000610074F31BF5980E1C6EFF0E1D6E000E10
:102220001F6E030E1E6E63EC3DF01A501B10D8A4F7
:1022300062D0030E6100F4F6D9F46100F8F6DAF426
:10224000DE26000EDD226100FCF6D9F4610000F705
:10225000DAF461007CF3C1F5020EDE2661007CF346
:10226000C2F5000EDD22610004F7D9F4610008F721
:10227000DAF4610078F3EAF5610074F3EBF52EC54A
:10228000C1F52FC5C2F5000E0501C2BFFF0EC36F19
:10229000C46FC56FC66FC76FC86F6100A8F7F6F44B
:1022A0006100ACF7F7F4000EF86E150EF76421D05C
:1022B000610004F7F5F40D00610008F7F5F40D0076
:1022C00061000CF7F5F40D00610010F7F5F40D0056
:1022D000610014F7F5F40D00610018F7F5F40D0036
:1022E00061001CF7F5F40D00610020F7F5F40C0017
:1022F00001D07BD076D66100F4F6D9F46100F8F60F
:10230000DAF4610078F31AF5610074F31BF5DB0E63
:102310001C6EFF0E1D6E000E1F6E020E1E6E63EC15
:102320003DF01A501B10D8A47DD0020E6100F4F6C7
:10233000D9F46100F8F6DAF4DE26000EDD22610041
:10234000FCF6D9F4610000F7DAF461007CF3C1F522
:10235000020EDE2661007CF3C2F5000EDD22610074
:1023600004F7D9F4610008F7DAF4610078F3EAF5CC
:10237000610074F3EBF52EC5C1F52FC5C2F5000E53
:102380000501C2BFFF0EC36FC46FC56FC66FC76FB5
:10239000C86F6100A8F7F6F46100ACF7F7F4000E1F
:1023A000F86E150EF76421D0610004F7F5F40D0006
:1023B000610008F7F5F40D0061000CF7F5F40D006D
:1023C000610010F7F5F40D00610014F7F5F40D004D
:1023D000610018F7F5F40D0061001CF7F5F40D002D
:1023E000610020F7F5F40C001CD0F6C4E1F4F7C44A
:1023F000E2F4610004F7E6F4610008F7E6F4610036
:102400000CF7E6F4610010F7E6F4610014F7E6F467
:10241000610018F7E6F461001CF7E6F4610020F7AC
:10242000E7F4DFD56100F4F6D9F46100F8F6DAF4E8
:10243000610078F31AF5610074F31BF5DE0E1C6E73
:10244000FF0E1D6E000E1F6E020E1E6E63EC3DF041
:102450001A501B10D8A45DD0020E6100F4F6D9F416
:102460006100F8F6DAF4DE26000EDD226100FCF6EB
:10247000D9F4610000F7DAF461007CF3C1F5020ED3
:10248000DE2661007CF3C2F5000EDD22610004F758
:10249000D9F4610008F7DAF4610078F3EAF5610035
:1024A00074F3EBF52EC5C1F52FC5C2F5000E05017D
:1024B000C2BFFF0EC36FC46F6100A8F7F6F46100DE
:1024C000ACF7F7F4000EF86E150EF76411D061004A
:1024D00004F7F5F40D00610008F7F5F40D00610054
:1024E0000CF7F5F40D00610010F7F5F40C0010D0B6
:1024F000F6C4E1F4F7C4E2F4610004F7E6F4610025
:1025000008F7E6F461000CF7E6F4610010F7E7F471
:1025100068D56100F4F6D9F46100F8F6DAF46100E8
:1025200078F31AF5610074F31BF5E10E1C6EFF0ED3
:102530001D6E000E1F6E020E1E6E63EC3DF01A50F3
:102540001B10D8A445D0020E6100F4F6D9F4610046
:10255000F8F6DAF4DE26000EDD226100FCF6D9F48E
:10256000610000F7DAF461007CF3C1F5020EDE26AB
:1025700061007CF3C2F5000EDD22610004F7D9F49E
:10258000610008F7DAF4610078F3EAF5610074F3AA
:10259000EBF56100A8F7F6F46100ACF7F7F4000E74
:1025A000F86E150EF76409D06100B8F4F5F40D006B
:1025B0006100BCF4F5F40C000AD0F6C4E1F4F7C4F1
:1025C000E2F46100B8F4E6F46100BCF4E7F409D584
:1025D0006100F4F6D9F46100F8F6DAF4DEC4F6F43A
:1025E000DDC4F7F40800F550700AD8A460D061008B
:1025F000F4F6D9F46100F8F6DAF4DE2A000EDD22F2
:10260000BBC5A5F5BCC5A6F5E20E0501A76F050E75
:10261000A86F01EC39F0A5C5ECF5A6C5EDF5FE51A6
:10262000FF11D8B4EDBF82EF05F0ED5104E1EC05E8
:10263000D8A082EF05F06100FCF6D9F4610000F744
:10264000DAF461007CF3C1F5020EDE2661007CF352
:10265000C2F5000EDD22610004F7D9F4610008F72D
:10266000DAF4610078F3CBF5610074F3CCF5610026
:102670002CF7F6F4610030F7F7F4000EF86E150E43
:10268000F76411D0610088F7F5F40D0061008CF754
:10269000F5F40D00610090F7F5F40D00610094F77A
:1026A000F5F40C0002D089EF1BF082EF05F0610019
:1026B000F4F6D9F46100F8F6DAF4DEC4F6F4DDC419
:1026C000F7F40800F550730AD8A445D06100F4F679
:1026D000D9F46100F8F6DAF4DE2A000EDD220501F5
:1026E000FE51FF11D8A427D06100FCF6D9F4610097
:1026F00000F7DAF461007CF3C1F5020EDE2661001A
:102700007CF3C2F5000EDD22610004F7D9F461000C
:1027100008F7DAF4610078F3C9F5610074F3CAF5DB
:10272000BBC565F5BCC566F5C9C567F5CAC568F51D
:10273000B5EC39F00AD0BBC565F5BCC566F5000E31
:10274000676F000E686FB5EC39F065C5ECF566C5CE
:10275000EDF582EF05F06100F4F6D9F46100F8F6CA
:10276000DAF4610078F31AF5610074F31BF5A40E36
:102770001C6EFF0E1D6E000E1F6E030E1E6E63ECB0
:102780003DF01A501B10D8A454D0030E6100F4F68B
:10279000D9F46100F8F6DAF4DE26000EDD22BBC5BE
:1027A000A5F5BCC5A6F5E20E0501A76F050EA86F3D
:1027B000DAEC35F0A5C5ECF5A6C5EDF5FE51FF1137
:1027C000D8B4EDBF82EF05F0ED5104E1EC05D8A0DF
:1027D00082EF05F06100FCF6D9F4610000F7DAF44D
:1027E00061007CF3C1F5020EDE2661007CF3C2F5C8
:1027F000000EDD22610004F7D9F4610008F7DAF475
:10280000610078F3EAF5610074F3EBF56100A8F775
:10281000F6F46100ACF7F7F4000EF86E150EF764ED
:1028200005D0610088F7F5F40C0001D0E0D382EF09
:1028300005F06100F4F6D9F46100F8F6DAF461000D
:1028400078F31AF5610074F31BF5A50E1C6EFF0EEC
:102850001D6E000E1F6E020E1E6E63EC3DF01A50D0
:102860001B10D8A459D0020E6100F4F6D9F461000F
:10287000F8F6DAF4DE26000EDD22BBC5A5F5BCC5F0
:10288000A6F5E20E0501A76F050EA86FDAEC35F08C
:10289000A5C5ECF5A6C5EDF5FE51FF11D8B4EDBF09
:1028A00082EF05F0ED5104E1EC05D8A082EF05F0D0
:1028B0006100FCF6D9F4610000F7DAF461007CF302
:1028C000C1F5020EDE2661007CF3C2F5000EDD22AA
:1028D000610004F7D9F4610008F7DAF4610078F3D5
:1028E000EAF5610074F3EBF56100A8F7F6F4610016
:1028F000ACF7F7F4000EF86E150EF76409D061001E
:1029000088F7F5F40D0061008CF7F5F40C0002D0A7
:1029100024EF1CF082EF05F06100F4F6D9F46100B9
:10292000F8F6DAF4DEC4F6F4DDC4F7F40800F55086
:10293000750AD8A458D06100F4F6D9F46100F8F60D
:10294000DAF4DE2A000EDD22BBC5A5F5BCC5A6F56E
:10295000E20E0501A76F050EA86FDAEC35F0A5C5EC
:10296000ECF5A6C5EDF5FE51FF11D8B4EDBF82EF31
:1029700005F0ED5104E1EC05D8A082EF05F061000F
:10298000FCF6D9F4610000F7DAF461007CF3C1F5DC
:10299000020EDE2661007CF3C2F5000EDD2261002E
:1029A00004F7D9F4610008F7DAF4610078F3EAF586
:1029B000610074F3EBF56100A8F7F6F46100ACF781
:1029C000F7F4000EF86E150EF76409D0610088F771
:1029D000F5F40D0061008CF7F5F40C0002D024EF43
:1029E0001CF082EF05F06100F4F6D9F46100F8F60E
:1029F000DAF4610078F31AF5610074F31BF5A90E9F
:102A00001C6EFF0E1D6E000E1F6E020E1E6E63EC1E
:102A10003DF01A501B10D8A461D0020E6100F4F6EC
:102A2000D9F46100F8F6DAF4DE26000EDD22BBC52B
:102A3000A5F5BCC5A6F5E20E0501A76F050EA86FAA
:102A4000DAEC35F0A5C5ECF5A6C5EDF5FE51FF11A4
:102A5000D8B4EDBF82EF05F0ED5104E1EC05D8A04C
:102A600082EF05F06100FCF6D9F4610000F7DAF4BA
:102A700061007CF3C1F5020EDE2661007CF3C2F535
:102A8000000EDD22610004F7D9F4610008F7DAF4E2
:102A9000610078F3EAF5610074F3EBF56100A8F7E3
:102AA000F6F46100ACF7F7F4000EF86E150EF7645B
:102AB00011D0610088F7F5F40D0061008CF7F5F492
:102AC0000D00610090F7F5F40D00610094F7F5F446
:102AD0000C0002D089EF1BF082EF05F06100F4F6E4
:102AE000D9F46100F8F6DAF4610078F31AF56100C0
:102AF00074F31BF5A80E1C6EFF0E1D6E000E1F6EEC
:102B0000030E1E6E63EC3DF01A501B10D8A471D05A
:102B1000030E6100F4F6D9F46100F8F6DAF4DE266B
:102B2000000EDD22BBC5A5F5BCC5A6F5E20E05016C
:102B3000A76F050EA86FDAEC35F0A5C5ECF5A6C5B4
:102B4000EDF5FE51FF11D8B4EDBF82EF05F0ED5168
:102B500004E1EC05D8A082EF05F06100FCF6D9F4A1
:102B6000610000F7DAF461007CF3C1F5020EDE26A5
:102B700061007CF3C2F5000EDD22610004F7D9F498
:102B8000610008F7DAF4610078F3EAF5610074F3A4
:102B9000EBF56100A8F7F6F46100ACF7F7F4000E6E
:102BA000F86E150EF76421D0610088F7F5F40D007A
:102BB00061008CF7F5F40D00610090F7F5F40D005D
:102BC000610094F7F5F40D00610098F7F5F40D003D
:102BD00061009CF7F5F40D006100A0F7F5F40D001D
:102BE0006100A4F7F5F40C0002D0DAEF1AF082EFDE
:102BF00005F06100F4F6D9F46100F8F6DAF461004A
:102C000078F31AF5610074F31BF5ED0E1C6EFF0EE0
:102C10001D6E000E1F6E020E1E6E63EC3DF01A500C
:102C20001B10D8A471D0020E6100F4F6D9F4610033
:102C3000F8F6DAF4DE26000EDD22BBC5A5F5BCC52C
:102C4000A6F5E20E0501A76F050EA86FDAEC35F0C8
:102C5000A5C5ECF5A6C5EDF5FE51FF11D8B4EDBF45
:102C600082EF05F0ED5104E1EC05D8A082EF05F00C
:102C70006100FCF6D9F4610000F7DAF461007CF33E
:102C8000C1F5020EDE2661007CF3C2F5000EDD22E6
:102C9000610004F7D9F4610008F7DAF4610078F311
:102CA000EAF5610074F3EBF56100A8F7F6F4610052
:102CB000ACF7F7F4000EF86E150EF76421D0610042
:102CC00088F7F5F40D0061008CF7F5F40D00610054
:102CD00090F7F5F40D00610094F7F5F40D00610034
:102CE00098F7F5F40D0061009CF7F5F40D00610014
:102CF000A0F7F5F40D006100A4F7F5F40C0002D084
:102D0000DAEF1AF082EF05F06100F4F6D9F4610011
:102D1000F8F6DAF4610078F31AF5610074F31BF544
:102D2000F00E1C6EFF0E1D6E000E1F6E020E1E6E4C
:102D300063EC3DF01A501B10D8A461D0020E610064
:102D4000F4F6D9F46100F8F6DAF4DE26000EDD229E
:102D5000BBC5A5F5BCC5A6F5E20E0501A76F050E1E
:102D6000A86FDAEC35F0A5C5ECF5A6C5EDF5FE517A
:102D7000FF11D8B4EDBF82EF05F0ED5104E1EC0591
:102D8000D8A082EF05F06100FCF6D9F4610000F7ED
:102D9000DAF461007CF3C1F5020EDE2661007CF3FB
:102DA000C2F5000EDD22610004F7D9F4610008F7D6
:102DB000DAF4610078F3EAF5610074F3EBF5610091
:102DC000A8F7F6F46100ACF7F7F4000EF86E150EF4
:102DD000F76411D0610088F7F5F40D0061008CF7FD
:102DE000F5F40D00610090F7F5F40D00610094F723
:102DF000F5F40C0002D089EF1BF082EF05F06100C2
:102E0000F4F6D9F46100F8F6DAF4610078F31AF513
:102E1000610074F31BF5F30E1C6EFF0E1D6E000EA9
:102E20001F6E020E1E6E63EC3DF01A501B10D8A4EC
:102E300059D0020E6100F4F6D9F46100F8F6DAF424
:102E4000DE26000EDD22BBC5A5F5BCC5A6F5E20E4B
:102E50000501A76F050EA86FDAEC35F0A5C5ECF5F6
:102E6000A6C5EDF5FE51FF11D8B4EDBF82EF05F018
:102E7000ED5104E1EC05D8A082EF05F06100FCF60D
:102E8000D9F4610000F7DAF461007CF3C1F5020EB9
:102E9000DE2661007CF3C2F5000EDD22610004F73E
:102EA000D9F4610008F7DAF4610078F3EAF561001B
:102EB00074F3EBF56100A8F7F6F46100ACF7F7F4F2
:102EC000000EF86E150EF76409D0610088F7F5F46E
:102ED0000D0061008CF7F5F40C0002D024EF1CF01B
:102EE00082EF05F06100F4F6D9F46100F8F6DAF447
:102EF000610078F31AF5610074F31BF5AC0E1C6EDB
:102F0000FF0E1D6E000E1F6E030E1E6E63EC3DF075
:102F10001A501B10D8B41AD06100F4F6D9F461002D
:102F2000F8F6DAF4610078F31AF5610074F31BF532
:102F30007C0E1C6EFF0E1D6E000E1F6E030E1E6EAD
:102F400063EC3DF01A501B10D8A45AD0030E610058
:102F5000F4F6D9F46100F8F6DAF4DE26000EDD228C
:102F6000BBC5A5F5BCC5A6F5E20E0501A76F050E0C
:102F7000A86F01EC39F0A5C5ECF5A6C5EDF5FE513D
:102F8000FF11D8B4EDBF82EF05F0ED5104E1EC057F
:102F9000D8A082EF05F06100FCF6D9F4610000F7DB
:102FA000DAF461007CF3C1F5020EDE2661007CF3E9
:102FB000C2F5000EDD22610004F7D9F4610008F7C4
:102FC000DAF4610078F3EAF5610074F3EBF561007F
:102FD000A8F7F6F46100ACF7F7F4000EF86E150EE2
:102FE000F76405D0610088F7F5F40C0007D0F6C44B
:102FF000E1F4F7C4E2F4610088F7E7F482EF05F04A
:103000006100F4F6D9F46100F8F6DAF4610078F3BF
:103010001AF5610074F31BF5AD0E1C6EFF0E1D6EEC
:10302000000E1F6E020E1E6E63EC3DF01A501B1058
:10303000D8B41AD06100F4F6D9F46100F8F6DAF4E5
:10304000610078F31AF5610074F31BF57D0E1C6EB8
:10305000FF0E1D6E000E1F6E020E1E6E63EC3DF025
:103060001A501B10D8A458D0020E6100F4F6D9F4FF
:103070006100F8F6DAF4DE26000EDD22BBC5A5F508
:10308000BCC5A6F5E20E0501A76F050EA86F01EC01
:1030900039F0A5C5ECF5A6C5EDF5FE51FF11D8B484
:1030A000EDBF82EF05F0ED5104E1EC05D8A082EF11
:1030B00005F06100FCF6D9F4610000F7DAF4610074
:1030C0007CF3C1F5020EDE2661007CF3C2F5000E32
:1030D000DD22610004F7D9F4610008F7DAF4610039
:1030E00078F3EAF5610074F3EBF56100A8F7F6F404
:1030F0006100ACF7F7F4000EF86E150EF76409D016
:10310000610088F7F5F40D0061008CF7F5F40C0010
:1031100001D09AD382EF05F06100F4F6D9F4610092
:10312000F8F6DAF4DEC4F6F4DDC4F7F40800F5507E
:10313000780AD8B40FD06100F4F6D9F46100F8F63B
:10314000DAF4DEC4F6F4DDC4F7F40800F550580AEA
:10315000D8A457D06100F4F6D9F46100F8F6DAF497
:10316000DE2A000EDD22BBC5A5F5BCC5A6F5E20E24
:103170000501A76F050EA86F01EC39F0A5C5ECF5A8
:10318000A6C5EDF5FE51FF11D8B4EDBF82EF05F0F5
:10319000ED5104E1EC05D8A082EF05F06100FCF6EA
:1031A000D9F4610000F7DAF461007CF3C1F5020E96
:1031B000DE2661007CF3C2F5000EDD22610004F71B
:1031C000D9F4610008F7DAF4610078F3EAF56100F8
:1031D00074F3EBF56100A8F7F6F46100ACF7F7F4CF
:1031E000000EF86E150EF76409D0610088F7F5F44B
:1031F0000D0061008CF7F5F40C0001D025D382EFAF
:1032000005F06100F4F6D9F46100F8F6DAF4610033
:1032100078F31AF5610074F31BF5B10E1C6EFF0E06
:103220001D6E000E1F6E020E1E6E63EC3DF01A50F6
:103230001B10D8B41AD06100F4F6D9F46100F8F686
:10324000DAF4610078F31AF5610074F31BF5810E6E
:103250001C6EFF0E1D6E000E1F6E020E1E6E63ECC6
:103260003DF01A501B10D8A460D0020E6100F4F695
:10327000D9F46100F8F6DAF4DE26000EDD22BBC5D3
:10328000A5F5BCC5A6F5E20E0501A76F050EA86F52
:1032900001EC39F0A5C5ECF5A6C5EDF5FE51FF1121
:1032A000D8B4EDBF82EF05F0ED5104E1EC05D8A0F4
:1032B00082EF05F06100FCF6D9F4610000F7DAF462
:1032C00061007CF3C1F5020EDE2661007CF3C2F5DD
:1032D000000EDD22610004F7D9F4610008F7DAF48A
:1032E000610078F3EAF5610074F3EBF56100A8F78B
:1032F000F6F46100ACF7F7F4000EF86E150EF76403
:1033000011D0610088F7F5F40D0061008CF7F5F439
:103310000D00610090F7F5F40D00610094F7F5F4ED
:103320000C0001D0F6D182EF05F06100F4F6D9F47B
:103330006100F8F6DAF4610078F31AF5610074F3CD
:103340001BF5B00E1C6EFF0E1D6E000E1F6E030EE1
:103350001E6E63EC3DF01A501B10D8B41AD06100F9
:10336000F4F6D9F46100F8F6DAF4610078F31AF5AE
:10337000610074F31BF5800E1C6EFF0E1D6E000EB7
:103380001F6E030E1E6E63EC3DF01A501B10D8A486
:1033900070D0030E6100F4F6D9F46100F8F6DAF4A7
:1033A000DE26000EDD22BBC5A5F5BCC5A6F5E20EE6
:1033B0000501A76F050EA86F01EC39F0A5C5ECF566
:1033C000A6C5EDF5FE51FF11D8B4EDBF82EF05F0B3
:1033D000ED5104E1EC05D8A082EF05F06100FCF6A8
:1033E000D9F4610000F7DAF461007CF3C1F5020E54
:1033F000DE2661007CF3C2F5000EDD22610004F7D9
:10340000D9F4610008F7DAF4610078F3EAF56100B5
:1034100074F3EBF56100A8F7F6F46100ACF7F7F48C
:10342000000EF86E150EF76421D0610088F7F5F4F0
:103430000D0061008CF7F5F40D00610090F7F5F4D4
:103440000D00610094F7F5F40D00610098F7F5F4B4
:103450000D0061009CF7F5F40D006100A0F7F5F494
:103460000D006100A4F7F5F40C0001D0A3D082EFA9
:1034700005F06100F4F6D9F46100F8F6DAF46100C1
:1034800078F31AF5610074F31BF5F60E1C6EFF0E4F
:103490001D6E000E1F6E020E1E6E63EC3DF01A5084
:1034A0001B10D8B41AD06100F4F6D9F46100F8F614
:1034B000DAF4610078F31AF5610074F31BF5B40EC9
:1034C0001C6EFF0E1D6E000E1F6E020E1E6E63EC54
:1034D0003DF01A501B10D8A48BD0020E6100F4F6F8
:1034E000D9F46100F8F6DAF4DE26000EDD22BBC561
:1034F000A5F5BCC5A6F5E20E0501A76F050EA86FE0
:1035000001EC39F0A5C5ECF5A6C5EDF5FE51FF11AE
:10351000D8B4EDBF82EF05F0ED5104E1EC05D8A081
:1035200082EF05F06100FCF6D9F4610000F7DAF4EF
:1035300061007CF3C1F5020EDE2661007CF3C2F56A
:10354000000EDD22610004F7D9F4610008F7DAF417
:10355000610078F3EAF5610074F3EBF56100A8F718
:10356000F6F46100ACF7F7F4000EF86E150EF76490
:1035700021D0610088F7F5F40D0061008CF7F5F4B7
:103580000D00610090F7F5F40D00610094F7F5F47B
:103590000D00610098F7F5F40D0061009CF7F5F45B
:1035A0000D006100A0F7F5F40D006100A4F7F5F43B
:1035B0000C001CD0F6C4E1F4F7C4E2F4610088F713
:1035C000E6F461008CF7E6F4610090F7E6F4610040
:1035D00094F7E6F4610098F7E6F461009CF7E6F4EE
:1035E0006100A0F7E6F46100A4F7E7F482EF05F0CC
:1035F0006100F4F6D9F46100F8F6DAF4610078F3CA
:103600001AF5610074F31BF5F90E1C6EFF0E1D6EAA
:10361000000E1F6E020E1E6E63EC3DF01A501B1062
:10362000D8B41AD06100F4F6D9F46100F8F6DAF4EF
:10363000610078F31AF5610074F31BF5B70E1C6E88
:10364000FF0E1D6E000E1F6E020E1E6E63EC3DF02F
:103650001A501B10D8A46FD0020E6100F4F6D9F4F2
:103660006100F8F6DAF4DE26000EDD22BBC5A5F512
:10367000BCC5A6F5E20E0501A76F050EA86F01EC0B
:1036800039F0A5C5ECF5A6C5EDF5FE51FF11D8B48E
:10369000EDBF82EF05F0ED5104E1EC05D8A082EF1B
:1036A00005F06100FCF6D9F4610000F7DAF461007E
:1036B0007CF3C1F5020EDE2661007CF3C2F5000E3C
:1036C000DD22610004F7D9F4610008F7DAF4610043
:1036D00078F3EAF5610074F3EBF56100A8F7F6F40E
:1036E0006100ACF7F7F4000EF86E150EF76411D018
:1036F000610088F7F5F40D0061008CF7F5F40D001A
:10370000610090F7F5F40D00610094F7F5F40C00FA
:1037100010D0F6C4E1F4F7C4E2F4610088F7E6F4EF
:1037200061008CF7E6F4610090F7E6F4610094F72D
:10373000E7F482EF05F06100F4F6D9F46100F8F6E1
:10374000DAF4610078F31AF5610074F31BF5FC0EEE
:103750001C6EFF0E1D6E000E1F6E020E1E6E63ECC1
:103760003DF01A501B10D8B41AD06100F4F6D9F409
:103770006100F8F6DAF4610078F31AF5610074F389
:103780001BF5BA0E1C6EFF0E1D6E000E1F6E020E94
:103790001E6E63EC3DF01A501B10D8A461D0020ECF
:1037A0006100F4F6D9F46100F8F6DAF4DE26000ED2
:1037B000DD22BBC5A5F5BCC5A6F5E20E0501A76FC8
:1037C000050EA86F01EC39F0A5C5ECF5A6C5EDF521
:1037D000FE51FF11D8B4EDBF82EF05F0ED5104E1C9
:1037E000EC05D8A082EF05F06100FCF6D9F4610089
:1037F00000F7DAF461007CF3C1F5020EDE26610009
:103800007CF3C2F5000EDD22610004F7D9F46100FB
:1038100008F7DAF4610078F3EAF5610074F3EBF588
:103820006100A8F7F6F46100ACF7F7F4000EF86E4B
:10383000150EF76409D0610088F7F5F40D006100FA
:103840008CF7F5F40C000AD0F6C4E1F4F7C4E2F406
:10385000610088F7E6F461008CF7E7F482EF05F089
:103860006100F4F6D9F46100F8F6DAF4DEC4F6F497
:10387000DDC4F7F40800F550250AD8A411D0610082
:10388000F4F6D9F46100F8F6DAF4DE2A000EDD224F
:103890002E4A2F2A000E0501BC6F010EBB6F1200CD
:1038A0006100F4F6D9F46100F8F6DAF4DE2A000ECD
:1038B000DD22F1EF0FF0BBC51CF5BCC51DF508EC12
:1038C00042F01CC5D1F51DC5D2F56100F4F6D9F45E
:1038D0006100F8F6DAF4DEC4F6F4DDC4F7F40800AB
:1038E000F550C16FC26BD151C11911E1D251C2194A
:1038F000D8A40DD06100F4F6D9F46100F8F6DAF43A
:10390000DE2A000EDD222E4A2F2AF1EF0FF0D1C55C
:103910001AF5D2C51BF5BBC51CF5BCC51DF513ECCE
:1039200043F0FF0EBC6FFE0EBB6F12002A502B102F
:10393000D8B40FD06100A8F4D9F46100ACF4DAF483
:103940006100A0F4DEF46100A4F4DDF402D0284AA2
:10395000292A010E836F6100A0F4D9F46100A4F458
:10396000DAF4200EDE18D8A402D0010E01D0000E29
:10397000886F896B88518911D8A41FD0F70E6D6F9D
:10398000FF0E6E6F6100A0F4D9F46100A4F4DAF4C4
:10399000DF506F6F6F51886F896B88C570F589C56F
:1039A00071F56D5170276E517123715104E1050E4F
:1039B000705DD8A002D0000E836F83C573F5746B61
:1039C00073517411D8A4C3D7000E856F2D0E8819BA
:1039D0008911D8A405D0010E856F284A292A05D05F
:1039E0002B0E88198911D8B4F8D7000E8E6F01D02C
:1039F0008E2B8E512824D96E000E2920DA6EDF50CE
:103A0000D8B426D08E512824D96E000E2920DA6E23
:103A1000DF506D6F350E8E25F66EF76AFF0EF722BA
:103A20000800F5506D19D8B4E3D78E512824D96E0B
:103A3000000E2920DA6EDF506D6F2C0E8E25F66E8B
:103A4000F76AFF0EF7220800F5506D19D8B4D0D7E9
:103A5000020E8E6527D0000E8A6F000E8B6F800ECF
:103A60008C6F7F0E8D6F2A502B10D8B446EF23F049
:103A7000080E8E19D8B402D0030E8E6F8E512824F2
:103A80006D6F000E29206E6F6100A8F4D9F46100FB
:103A9000ACF4DAF46100B4F5DEF46100B8F5DDF4FD
:103AA00046EF23F0000E8E6F01D08E2B8E5128240E
:103AB000D96E000E2920DA6EDF50D8B426D08E5190
:103AC0002824D96E000E2920DA6EDF506D6F780E33
:103AD0008E25F66EF76AFF0EF7220800F5506D1975
:103AE000D8B4E3D78E512824D96E000E2920DA6E7F
:103AF000DF506D6F700E8E25F66EF76AFF0EF7229F
:103B00000800F5506D19D8B4D0D7030E8E19D8A47B
:103B10005BD0170E1A6EFF0E1B6E26EC48F01AC50E
:103B20008AF51BC58BF51CC58CF51DC58DF52A5076
:103B30002B10D8B446EF23F08E512826000E2922F0
:103B40006100A0F4D9F46100A4F4DAF4280EDE18C0
:103B5000D8A42CD0000E8E6F01D08E2B8E5128242D
:103B6000D96E000E2920DA6EDF50D8B40AD08E51FB
:103B70002824D96E000E2920DA6E290EDE18D8A46A
:103B8000ECD78E512824D96E000E2920DA6E290E2A
:103B9000DE18D8A40BD08E516D6F6E6B010E6D27A1
:103BA000000E6E236D5128266E5129226100A8F463
:103BB000D9F46100ACF4DAF46100A0F4DEF4610041
:103BC000A4F4DDF446EF23F0000E896F000E886F39
:103BD000000E8A6F000E8B6F000E8C6F000E8D6FC3
:103BE000000E876F000E866F000E8E6F01D08E2B39
:103BF0008E512824D96E000E2920DA6E300EDE1880
:103C0000D8B4F5D78E51D8B4B7D28E512824D96EF6
:103C1000000E2920DA6E780EDE18D8B40AD08E5144
:103C20002824D96E000E2920DA6E580EDE18D8A48A
:103C3000A3D28E516D6F6E6B010E6D27000E6E2339
:103C40006D5128266E512922000E8E6F01D08E2BC9
:103C50008E512824D96E000E2920DA6E300EDE181F
:103C6000D8B4F5D7000E8E6F8E512824D96E000E71
:103C70002920DA6E700EDE18D8B434D18E51282483
:103C8000D96E000E2920DA6E500EDE18D8B42AD173
:103C90008E512824D96E000E2920DA6E2E0EDE18E1
:103CA000D8A402D085891DD18E512824D96E000E4A
:103CB0002920DA6EDF506D6F6D511A6E1B6A9BEC16
:103CC00044F01A501B10D8B467D0000E846FD00E89
:103CD0006D6FFF0E6E6F8E512824D96E000E292055
:103CE000DA6EDF506F6F706B6D516F276E517023FE
:103CF000705106E10A0E6F5DD8B002D0010E01D0FE
:103D0000000E756F766B75517611D8B409D08E514F
:103D10002824D96E000E2920DA6EDF50D00F0FD084
:103D20008E512824D96E000E2920DA6EDF506D6F77
:103D30006D51206E216ABBEC45F02050C90F846F95
:103D400089BF06D0895121E1080E885DD8B01DD009
:103D5000885107086D6FD8906D37D8906D3784C53E
:103D60006EF56F6B706B716B6D2B05D0D8906E37E5
:103D70006F37703771376D2FF9D76E518A136F51C6
:103D80008B1370518C1371518D13884B892B040E3A
:103D90008627000E872309D0000E286E000E296E9C
:103DA000000E2A6E000E2B6E12008E2B5DD78E51E8
:103DB0002824D96E000E2920DA6E700EDE18D8B4D1
:103DC00093D08E512824D96E000E2920DA6E500E21
:103DD000DE18D8B489D08E512824D96E000E29203F
:103DE000DA6E300EDE18D8A409D088518911D8A413
:103DF00005D0FC0E8627FF0E872373D08E51282412
:103E0000D96E000E2920DA6EDF506D6F6D511A6E7B
:103E10001B6A9BEC44F01A501B10D8B462D0000E01
:103E2000846FD00E6D6FFF0E6E6F8E512824D96E89
:103E3000000E2920DA6EDF506F6F706B6D516F27A7
:103E40006E517023705106E10A0E6F5DD8B002D03A
:103E5000010E01D0000E776F786B77517811D8B4CE
:103E600009D08E512824D96E000E2920DA6EDF5039
:103E7000D00F0FD08E512824D96E000E2920DA6E73
:103E8000DF506D6F6D51206E216ABBEC45F0205004
:103E9000C90F846F89BF06D0895121E1080E885D62
:103EA000D8B01DD0885107086D6FD8906D37D89065
:103EB0006D3784C56EF56F6B706B716B6D2B05D0B4
:103EC000D8906E376F37703771376D2FF9D76E51C5
:103ED0008A136F518B1370518C1371518D13884B52
:103EE000892B8E2B85B963D78E512824D96E000E6D
:103EF0002920DA6E700EDE18D8B413D08E51282423
:103F0000D96E000E2920DA6E500EDE18D8B409D012
:103F1000000E286E000E296E000E2A6E000E2B6E0B
:103F200012008E2B8E512824D96E000E2920DA6EB5
:103F30002B0EDE18D8B40BD08E512824D96E000E6B
:103F40002920DA6E2D0EDE18D8A402D085878E2B9C
:103F50008E512826000E2922000E8E6F01D08E2B46
:103F60008E512824D96E000E2920DA6E300EDE180C
:103F7000D8B4F5D7000E896F000E886F28D08E5107
:103F8000D8B40ED088C51AF589C51BF5000E1D6E74
:103F90000A0E1C6E9CEC47F01AC588F51BC589F506
:103FA000D00E05016D6FFF0E6E6F8E512824D96EF5
:103FB000000E2920DA6EDF506F6F706B6D516F2726
:103FC0006E5170236F518827705189238E2BD00E2C
:103FD0006D6FFF0E6E6F8E512824D96E000E292052
:103FE000DA6EDF506F6F706B6D516F276E517023FB
:103FF000705106E10A0E6F5DD8B002D0010E01D0FB
:10400000000E796F7A6B79517A11D8A4B8D78E5196
:10401000D8A409D0000E286E000E296E000E2A6E5C
:10402000000E2B6E120085A704D0886D891FD8B0B2
:10403000892B88518627895187232A502B10D8B481
:1040400012D08E5128246D6F000E29206E6F6100F2
:10405000A8F4D9F46100ACF4DAF46100B4F5DEF44C
:104060006100B8F5DDF48A518B118C118D11D8A443
:1040700009D0000E286E000E296E000E2A6E000E6A
:104080002B6E1200800E8A6511D0000E8A27010E59
:104090008B23000E8C23000E8D2308D0D8908A37F6
:1040A0008B378C378D378607D8A087078DAFF6D72B
:1040B00087AF12D0830E865DFF0E8759D8B00CD023
:1040C000FF0E876F810E866F000E8A6F000E8B6F5A
:1040D000000E8C6F000E8D6F810E861903E187290B
:1040E000D8B408D0D8908A378B378C378D3786076D
:1040F000D8A0870787BF12D0875104E1800E865D64
:10410000D8A00CD0000E8A6F000E8B6F000E8C6F43
:10411000000E8D6F000E876F800E866F090E6D6F1B
:10412000D8908D338C338B338A336D2FF9D7FF0EB4
:104130008A17FF0E8B177F0E8C17000E8D177F0EC0
:1041400086256D6F000E87216E6FFF0E6D156F6FE8
:10415000706B716B726B170ED8906F377037713749
:104160007237E82EF9D76F518A1370518B13715142
:104170008C1372518D138AD285B90CD06100A0F4D2
:10418000D9F46100A4F4DAF42E0EDE18D8A402D01B
:1041900085895DD0D00E6D6FFF0E6E6F6100A0F44B
:1041A000D9F46100A4F4DAF4DF506F6F706B6D51D5
:1041B0006F276E517023705106E10A0E6F5DD8B003
:1041C00002D0010E01D0000E7B6F7C6B7B517C1105
:1041D000D8B440D08583090E88198911D8B433D05A
:1041E00085A903D08607D8A08707884B892B8AC565
:1041F0001AF58BC51BF58CC51CF58DC51DF50A0E72
:104200001E6E000E1F6E000E206E000E216EC9EC99
:1042100044F01AC58AF51BC58BF51CC58CF51DC568
:104220008DF56100A0F4D9F46100A4F4DAF4DF5054
:1042300005016D6FD00E6D276D518A27000E8B23FF
:104240008C238D2304D085B902D0864B872B284A36
:10425000292A92D7000E896F000E886F6100A0F4A2
:10426000D9F46100A4F4DAF4650EDE18D8B40AD0EB
:104270006100A0F4D9F46100A4F4DAF4450EDE186C
:10428000D8A4D1D0284A292A6100A0F4D9F4610029
:10429000A4F4DAF42D0EDE18D8A402D085870AD053
:1042A0006100A0F4D9F46100A4F4DAF42B0EDE1856
:1042B000D8A402D0284A292A6100A0F4D9F46100C8
:1042C000A4F4DAF4300EDE18D8B4F4D7D00E6D6F43
:1042D000FF0E6E6F6100A0F4D9F46100A4F4DAF46B
:1042E000DF506F6F706B6D516F276E51702370517F
:1042F00006E10A0E6F5DD8B002D0010E01D0000EAB
:104300007D6F7E6B7D517E11D8B487D06100A0F4A3
:10431000D9F46100A4F4DAF4DF506D6FD00E6D278C
:104320006D51886F896B284A292AD00E6D6FFF0E58
:104330006E6F6100A0F4D9F46100A4F4DAF4DF50E8
:104340006F6F706B6D516F276E517023705106E166
:104350000A0E6F5DD8B002D0010E01D0000E7F6F43
:10436000806B7F518011D8B458D06100A0F4D9F48B
:104370006100A4F4DAF4DF506D6FD00E6D2788C5AC
:104380001AF589C51BF5000E1D6E0A0E1C6E9CECFD
:1043900047F005016D511A24886F000E1B20896FAC
:1043A000284A292AD00E6D6FFF0E6E6F6100A0F4AF
:1043B000D9F46100A4F4DAF4DF506F6F706B6D51C3
:1043C0006F276E517023705106E10A0E6F5DD8B0F1
:1043D00002D0010E01D0000E816F826B81518211DB
:1043E000D8B41BD06100A0F4D9F46100A4F4DAF4CD
:1043F000DF506D6FD00E6D2788C51AF589C51BF586
:10440000000E1D6E0A0E1C6E9CEC47F005016D51EE
:104410001A24886F000E1B20896F85A704D0886D31
:10442000891FD8B0892B88518627895187232A5024
:104430002B10D8A485A30CD06100A8F4D9F4610096
:10444000ACF4DAF46100A0F4DEF46100A4F4DDF46D
:104450008AC51AF58BC51BF58CC51CF58DC51DF5D8
:10446000000EA9EC3BF01AC58AF51BC58BF51CC5DF
:104470008CF51DC58DF58AC51AF58BC51BF58CC548
:104480001CF58DC51DF5000E1E6E000E1F6E000E74
:10449000206E000E216EC3EC41F0D8A009D0000EB2
:1044A000286E000E296E000E2A6E000E2B6E120072
:1044B000050187AF75D0866D871FD8B0872B1ED0BA
:1044C0008AC51AF58BC51BF58CC51CF58DC51DF568
:1044D000F90E1E6E020E1F6E150E206E500E216E0E
:1044E00091EC2EF01AC58AF51BC58BF51CC58CF511
:1044F0001DC58DF5F60E8627FF0E872387BF24D0B6
:104500008751DEE10A0E865DD8A01ED0D9D78AC5B4
:104510001AF58BC51BF58CC51CF58DC51DF5000E58
:104520001E6E000E1F6E200E206E410E216E91EC4D
:104530002EF01AC58AF51BC58BF51CC58CF51DC55B
:104540008DF58607D8A0870786518711D8A4DFD7B5
:104550008AC51AF58BC51BF58CC51CF58DC51DF5D7
:10456000000E1E6E000E1F6E800E206E000E216E5D
:10457000E6EC3DF0D8B08AD085A109D0000E286EB7
:10458000000E296E800E2A6E800E2B6E1200000E19
:10459000286E000E296E800E2A6E000E2B6E120001
:1045A00087BF74D0875122E18605D8B01FD06ED066
:1045B0008AC51AF58BC51BF58CC51CF58DC51DF577
:1045C000F90E1E6E020E1F6E150E206E500E216E1D
:1045D00095EC2BF01AC58AF51BC58BF51CC58CF51F
:1045E0001DC58DF5F60E8627FF0E87238751E0E166
:1045F0000A0E865DD8A01ED0DBD78AC51AF58BC5FA
:104600001BF58CC51CF58DC51DF5000E1E6E000E2C
:104610001F6E200E206E410E216E95EC2BF01AC5F8
:104620008AF51BC58BF51CC58CF51DC58DF5860758
:10463000D8A0870786518711D8A4DFD7FF0E1A6E3E
:10464000FF0E1B6E7F0E1C6E7F0E1D6E8AC51EF543
:104650008BC51FF58CC520F58DC521F5E6EC3DF029
:10466000D8B014D085A109D0000E286E000E296E96
:10467000800E2A6E800E2B6E1200000E286E000E29
:10468000296E800E2A6E000E2B6E120085A112D0AC
:104690008AC51AF58BC51BF58CC51CF58DC51DF596
:1046A0005AEC47F01AC58AF51BC58BF51CC58CF56D
:1046B0001DC58DF58AC528F58BC529F58CC52AF54C
:1046C0008DC52BF5120061004CF6D9F4610050F64F
:1046D000DAF4DEC4F6F4DEC4F7F4150EF76403D0A2
:1046E0000800F55005D0F6C4E1F4F7C4E2F4E75051
:1046F000250AD8A44BD361004CF6D9F4610050F6DA
:10470000DAF4DE2A000EDD22000E376E000E366E61
:1047100036C53AF537C53BF538683968000E0501EE
:10472000A96F000E16D03A8061004CF6D9F46100F2
:1047300050F6DAF4DE2A000EDD223AD03A82F4D7BF
:104740003A84F2D73A86F0D73A88EED7000EA96FAE
:10475000010EA86F2DD061004CF6D9F4610050F61F
:10476000DAF4DEC4F6F4DEC4F7F4150EF76403D011
:104770000800F55005D0F6C4E1F4F7C4E2F4E750C0
:104780000501976F986B9851000AD8A4DFD797510D
:10479000200AD8B4D7D7030AD8B4D6D7080AD8B4D1
:1047A000CFD7060AD8B4BFD71D0AD8B4C7D7CED73B
:1047B000A851A911D8B4CFD73AB03A9261004CF6BB
:1047C000D9F4610050F6DAF4DEC4F6F4DEC4F7F48E
:1047D000150EF76403D00800F55005D0F6C4E1F4D7
:1047E000F7C4E2F4E7502A0AD8A42DD061004CF6B1
:1047F000D9F4610050F6DAF4DE2A000EDD22610001
:1048000054F6D9F4610058F6DAF461007CF397F5B8
:10481000020EDE2661007CF398F5000EDD226100B9
:104820005CF6D9F4610060F6DAF4610078F336F5ED
:10483000610074F337F537AE51D03A80366C371ECD
:10484000D8B0372A4BD061004CF6D9F4610050F64D
:10485000DAF4610078F321F5610074F322F519ECC4
:1048600034F021C536F522C537F509D061004CF684
:10487000D9F4610050F6DAF4DE2A000EDD22D00E03
:10488000976FFF0E986F61004CF6D9F4610050F6F7
:10489000DAF4DEC4F6F4DEC4F7F4150EF76403D0E0
:1048A0000800F55005D0F6C4E1F4F7C4E2F4E7508F
:1048B0000501996F9A6B9751992798519A239A51AC
:1048C00006E10A0E995DD8B002D0010E01D0000EAB
:1048D000AA6FAB6BAA51AB11D8A4C8D761004CF634
:1048E000D9F4610050F6DAF4DEC4F6F4DEC4F7F46D
:1048F000150EF76403D00800F55005D0F6C4E1F4B6
:10490000F7C4E2F4E750640AD8B418D061004CF65A
:10491000D9F4610050F6DAF4DEC4F6F4DEC4F7F43C
:10492000150EF76403D00800F55005D0F6C4E1F485
:10493000F7C4E2F4E750690AD8A44AD061004CF603
:10494000D9F4610050F6DAF4DE2A000EDD226100AF
:1049500054F6D9F4610058F6DAF461007CF397F567
:10496000020EDE2661007CF398F5000EDD22610068
:104970005CF6D9F4610060F6DAF4610078F39BF537
:10498000610074F39CF50501000E9CBFFF0E9D6F46
:104990009E6F9F6FA06FA16FA26F91C56AF592C5C0
:1049A0006BF59BC56CF59CC56DF59DC56EF59EC5FB
:1049B0006FF59FC570F5A0C571F5A1C572F5A2C5CB
:1049C00073F5D5EC2FF06AC591F56BC592F5120021
:1049D00061004CF6D9F4610050F6DAF4DEC4F6F466
:1049E000DEC4F7F4150EF76403D00800F55005D0C7
:1049F000F6C4E1F4F7C4E2F4E7506E0AD8A449D053
:104A000061004CF6D9F4610050F6DAF4DE2A000EAB
:104A1000DD22610054F6D9F4610058F6DAF4610041
:104A20007CF397F5020EDE2661007CF398F5000E0C
:104A3000DD2261005CF6D9F4610060F6DAF4610011
:104A400078F3A5F5610074F3A6F5610094F6F6F429
:104A5000610098F6F7F4000EF86E150EF76409D0B1
:104A60006100D0F4F5F40D006100D4F4F5F40C000D
:104A70000AD0F6C4E1F4F7C4E2F46100D0F4E6F43D
:104A80006100D4F4E7F4000E0501926F000E916FFF
:104A9000120061004CF6D9F4610050F6DAF4DEC47D
:104AA000F6F4DEC4F7F4150EF76403D00800F550F1
:104AB00005D0F6C4E1F4F7C4E2F4E750730AD8A4D1
:104AC00034D061004CF6D9F4610050F6DAF4DE2AF5
:104AD000000EDD22610054F6D9F4610058F6DAF4D4
:104AE00061007CF397F5020EDE2661007CF398F5F9
:104AF000000EDD2261005CF6D9F4610060F6DAF4A4
:104B0000610078F3A3F5610074F3A4F591C525F570
:104B100092C526F5A3C527F5A4C528F55EEC3AF0A5
:104B200025C591F526C592F5120061004CF6D9F421
:104B3000610050F6DAF4DEC4F6F4DEC4F7F4150EC4
:104B4000F76403D00800F55005D0F6C4E1F4F7C4CB
:104B5000E2F4E750750AD8A44BD061004CF6D9F4C2
:104B6000610050F6DAF4DE2A000EDD22610054F610
:104B7000D9F4610058F6DAF461007CF397F5020E7F
:104B8000DE2661007CF398F5000EDD2261005CF604
:104B9000D9F4610060F6DAF4610078F399F5610008
:104BA00074F39AF599C5ACF59AC5ADF50501AE6BF0
:104BB000AF6BB06BB16BB26BB36B91C56AF592C55D
:104BC0006BF5ACC56CF5ADC56DF5AEC56EF5AFC595
:104BD0006FF5B0C570F5B1C571F5B2C572F5B3C565
:104BE00073F502EC35F06AC591F56BC592F51200CC
:104BF00061004CF6D9F4610050F6DAF4DEC4F6F444
:104C0000DEC4F7F4150EF76403D00800F55005D0A4
:104C1000F6C4E1F4F7C4E2F4E750780AD8B418D047
:104C200061004CF6D9F4610050F6DAF4DEC4F6F413
:104C3000DEC4F7F4150EF76403D00800F55005D074
:104C4000F6C4E1F4F7C4E2F4E750580AD8A463D0FC
:104C500061004CF6D9F4610050F6DAF4DEC4F6F4E3
:104C6000DEC4F7F4150EF76403D00800F55005D044
:104C7000F6C4E1F4F7C4E2F4E7500501A76F610060
:104C80004CF6D9F4610050F6DAF4DE2A000EDD228B
:104C9000610054F6D9F4610058F6DAF461007CF34F
:104CA00097F5020EDE2661007CF398F5000EDD22FA
:104CB00061005CF6D9F4610060F6DAF4610078F323
:104CC00099F5610074F39AF599C5ACF59AC5ADF5FF
:104CD000AE6BAF6BB06BB16BB26BB36B91C56AF57A
:104CE00092C56BF5ACC56CF5ADC56DF5AEC56EF591
:104CF000AFC56FF5B0C570F5B1C571F5B2C572F548
:104D0000B3C573F5A7C574F5F8EC30F06AC591F535
:104D10006BC592F5120061004CF6D9F4610050F6B3
:104D2000DAF4DEC4F6F4DEC4F7F4150EF76403D04B
:104D30000800F55005D0F6C4E1F4F7C4E2F4E750FA
:104D4000250AD8A419D061004CF6D9F4610050F6B8
:104D5000DAF4DE2A000EDD22000E1D6E250E1C6E1A
:104D600091C51EF592C51FF565EC3FF0000E0501DB
:104D7000926F010E916F120061004CF6D9F4610040
:104D800050F6DAF4DE2A000EDD227DD661004CF604
:104D9000D9F4610050F6DAF4DEC4F6F4DEC4F7F4B8
:104DA000150EF76403D00800F55005D0F6C4E1F401
:104DB000F7C4E2F4E7500501976F97511C6E1D6A26
:104DC00091C51EF592C51FF565EC3FF061004CF6EC
:104DD000D9F4610050F6DAF4DE2A000EDD22C6D7DF
:104DE000000EDB6F000EDA6F000ED76F000ED66F6D
:104DF000000ED96F000ED86F000ED36F6D0E256EAA
:104E0000060E266E570E276EFF0E286EBCEC3FF086
:104E100025C5D4F626C5D5F60601D451D511D8B48A
:104E200020D03D0E0501BC6F060EBD6F9F0EBE6FFC
:104E3000FE0EBF6F1AC6C0F5C16B1BC6C2F5C36BB1
:104E40001CC6C4F5C56B1DC6C6F5C76B2BC6C8F519
:104E50002CC6C9F52FC6CAF530C6CBF51EEC45F0F9
:104E60002FD26D0E256E060E266E650E276EFF0E76
:104E7000286EBCEC3FF025C5D4F626C5D5F6060154
:104E8000D451D511D8B4C0D030A302D0FA0E17D265
:104E9000050ED425BD6F000ED521BE6FEA0EBF6F83
:104EA000FE0EC06FDA0EC16F060EC26FD60EC36F54
:104EB000060EC46FD80EC56F060EC66FE0EC45F047
:104EC000030E0601BD19BE11D8A440D0DA51DB1182
:104ED000D8A402D03091F4D1DB5104E1050EDA5DA3
:104EE000D8A002D0D369ECD1DAC63BF6D7510EE197
:104EF000650ED65DD8B00AD01E0EDA25D96E060E24
:104F0000DB21DA6E610058FBDFF402D0FE0ED7D150
:104F1000D9BFFCD7D95103E1D805D8A0F7D7D9BF5D
:104F200006D0D10ED85D070ED959D8B0EFD7D8909A
:104F3000DA35D96EDB35DA6E000ED926060EDA22A6
:104F4000610060FBDEF4610064FBDDF43D0E0501F1
:104F5000BC6F060EBD6FE50EBE6FFE0EBF6FDAC6EC
:104F6000C0F5DBC6C1F51E0E0601DA25D96E060EA8
:104F7000DB21DA6EDF500501F86FF851C26FC36BA9
:104F8000D8900601DA35D96EDB35DA6E000ED926F7
:104F9000060EDA22610078F3C4F5610074F3C5F5FA
:104FA0001EEC45F006012F510F0B0501F86FDAC614
:104FB000F9F5FF0EF927010EFA6FF92B02D0D89000
:104FC000FA37F92FFCD70501FA51F8150009D8B4C2
:104FD00018D0DAC6F8F5FF0EF827010EF96FF82B96
:104FE00002D0D890F937F82FFCD70501F93B06011C
:104FF0002F510501F9190F0BF91906012F6F308197
:105000005FD1FB0E06015BD16D0E256E060E266E7E
:105010005F0E276EFF0E286EBCEC3FF025C5D4F660
:1050200026C5D5F60601D451D511D8B480D0050EC9
:10503000D425BD6F000ED521BE6FDE0EBF6FFE0EF4
:10504000C06FDA0EC16F060EC26FD80EC36F060EA8
:10505000C46FE0EC45F0020E0601BD19BE11D8A4E4
:105060002FD0DA51DB11D8A403D0F00E2F1728D19E
:10507000DB5105E1050EDA5DD8B034D701D032D767
:10508000DAC63BF6D9BF42D7D95103E1D805D8A03B
:105090003DD7D9BF06D0E90ED85D030ED959D8B097
:1050A00035D7D890DA35D96EDB35DA6E000ED926D1
:1050B000060EDA22610060FBDEF4610064FBDDF4C1
:1050C0003D0E0501BC6F060EBD6F010EBE6FFF0EDB
:1050D000BF6FDAC6C0F5DBC6C1F5D8900601DA3578
:1050E000D96EDB35DA6E000ED926060EDA226100A3
:1050F00078F3C2F5610074F3C3F51EEC45F0DAC62F
:10510000F8F5FF0EF827010EF96FF82B02D0D890B2
:10511000F937F82FFCD70501F93B06012F5105019E
:10512000F9190F0BF91906012F6F3083C9D06D0ED5
:10513000256E060E266E3E0E276EFF0E286EBCEC08
:105140003FF025C5D4F626C5D5F60601D451D511B4
:10515000D8B410D03D0E0501BC6F060EBD6FF40E25
:10516000BE6FFE0EBF6F6B0EC06FFF0EC16F1EECE9
:1051700045F0A6D06D0E256E060E266E4F0E276EDC
:10518000FF0E286EBCEC3FF025C5D4F626C5D5F63B
:105190000601D451D511D8B418D03D0E0501BC6F0D
:1051A000060EBD6FD10EBE6FFE0EBF6F1FC6C0F5DF
:1051B000C16B20C6C2F5C36B21C6C4F5C56B22C640
:1051C000C6F5C76B1EEC45F07BD06D0E256E060E46
:1051D000266E470E276EFF0E286EBCEC3FF025C5ED
:1051E000D4F626C5D5F60601D451D511D8B41CD0B5
:1051F0003D0E0501BC6F060EBD6FBD0EBE6FFE0EEF
:10520000BF6F02C6C0F503C6C1F504C6C2F505C628
:10521000C3F506C6C4F507C6C5F508C6C6F509C672
:10522000C7F51EEC45F04CD06D0E256E060E266EB1
:10523000220E276EFF0E286EBCEC3FF025C5D4F67B
:1052400026C5D5F60601D451D511D8B437D0D69E8F
:10525000000E0001436F000E446F380E456F466923
:105260004151F80B0309416F550E426FAA0E426F70
:105270004081000E0601D16F000140A10ED0060E44
:105280000501F86F300EE82EFED7F82FFCD700F09E
:105290000601D12B130ED165EFD7F80E000141178F
:1052A0003D0E0501BC6F060EBD6F0D0EBE6FFF0EED
:1052B000BF6F1EEC45F00601308502D0FC0ED36FA7
:1052C0000601D351D8B412D03D0E0501BC6F060EB5
:1052D000BD6F180EBE6FFF0EBF6F0601D3510501E3
:1052E000C06FC16BC0BFC1071EEC45F03D0E05018C
:1052F000BC6F060EBD6F02EC48F0000E06013C6F5D
:10530000000ED26F6D0ED225D96EDA6A060EDA2241
:10531000000EDF6ED22B2F0ED265F4D7000E466E34
:1053200002D00201A151B7B0FCD7AC80120021EE2F
:1053300092F1070EDE6AE806FDE268C59AF569C5D6
:105340009BF59A519B11D8B4C8D1610068F6D9F485
:1053500061006CF6DAF4DF50D8B4BFD102D09A4BBA
:105360009B2B610068F6D9F461006CF6DAF4DF502B
:105370009C6F010E866F200E9C19D8B413D0F70EC7
:10538000706FFF0E716F9C51726F736B705172274B
:1053900071517323735104E1050E725DD8A002D0E0
:1053A000000E866F86C580F5816B80518111D8A46F
:1053B000D6D7000E906F000E876F000E916F2D0EE6
:1053C0009C19D8A40DD0010E906F9A4B9B2B6100B5
:1053D00068F6D9F461006CF6DAF4DF509C6F04D003
:1053E0002B0E9C19D8B4F1D7300E9C19D8A434D008
:1053F0009A4B9B2B610068F6D9F461006CF6DAF4E5
:10540000DF509C6F6C516D11D8B405D0100E6C1923
:105410006D11D8A417D0780E9C19D8B404D0580EAA
:105420009C19D8A40FD0000E6D6F100E6C6F9A4BA4
:105430009B2B610068F6D9F461006CF6DAF4DF505A
:105440009C6F0AD0010E876F6C516D11D8A404D0E7
:10545000000E6D6F080E6C6F6C516D11D8A404D0E6
:10546000000E6D6F0A0E6C6F6E51D8B424D090513F
:10547000D8A410D0FF0E886FFF0E896FFF0E8A6FC1
:10548000FF0E8B6FFF0E8C6FFF0E8D6FFF0E8E6FFA
:105490007F0E0FD0000E886F000E896F000E8A6F8E
:1054A000000E8B6F000E8C6F000E8D6F000E8E6FD6
:1054B000800E8F6F08D0886989698A698B698C69C9
:1054C0008D698E698F6992C578F593C579F594C514
:1054D0007AF595C57BF596C57CF597C57DF598C59C
:1054E0007EF599C57FF59F0E706FFF0E716F9C5111
:1054F000726F736B200E7213000E7313705172274C
:1055000071517323735106E11A0E725DD8B002D047
:10551000010E01D0000E826F836B82518311D8B4CB
:1055200009D09CC520F5216ABBEC45F02050C90F7D
:105530009C6F1CD0D00E706FFF0E716F9C51726FFC
:10554000736B7051722771517323735106E10A0E08
:10555000725DD8B002D0010E01D0000E846F856B51
:1055600084518511D8B4A3D0300E9C5F9C51706FCC
:10557000716B6C51705D7151800A726F6D51800A50
:105580007259D8B094D09151D8A484D06CC51AF572
:105590006DC51BF5000E1BBEFF0E1C6E1D6E1E6E34
:1055A0001F6E206E216E92C522F593C523F594C51A
:1055B00024F595C525F596C526F597C527F598C513
:1055C00028F599C529F57EEC41F01AC570F51BC583
:1055D00071F51CC572F51DC573F51EC574F51FC5A3
:1055E00075F520C576F521C577F59C517025926F2C
:1055F000000E7121936F000E7221946F000E7321C3
:10560000956F000E7421966F000E7521976F000E36
:105610007621986F000E7721996F7851925D7951BC
:1056200093597A5194597B5195597C5196597D5192
:1056300097597E5198597F519959D8A015D06E51DC
:10564000D8B428D09251885D9351895994518A5980
:1056500095518B5996518C5997518D5998518E5916
:1056600099518F59D8B016D088C592F589C593F550
:105670008AC594F58BC595F58CC596F58DC597F5BE
:105680008EC598F58FC599F5000E336E220E326ED9
:10569000010E916F9A4B9B2B610068F6D9F4610063
:1056A0006CF6DAF4DF509C6F010E876F0CD79151C6
:1056B000D8A413D09051D8B410D0991F981F971F19
:1056C000961F951F941F931F926D000E9323942392
:1056D000952396239723982399236A516B11D8B465
:1056E00013D08751D8A404D068C59AF569C59BF535
:1056F0006100A8F5D9F46100ACF5DAF4610068F650
:10570000DEF461006CF6DDF492C568F593C569F5C9
:1057100094C56AF595C56BF596C56CF597C56DF59D
:1057200098C56EF599C56FF512001D50800B606F1E
:105730001D501D24626F1CBE62816251D8B40DD011
:105740006229D8A408D0000E1A6E000E1B6E000E3F
:105750001C6E000E1D6E1C8E08D0000E1A6E000E00
:105760001B6E000E1C6E000E1D6E2150800B601B08
:1057700021502124616F20BE61816151D8B40DD0C8
:105780006129D8A408D0000E1E6E000E1F6E000EF8
:10579000206E000E216E208E08D0000E1E6E000EB0
:1057A0001F6E000E206E000E216E6151D8B403D022
:1057B0006251D8A409D0000E1A6E000E1B6E000EA6
:1057C0001C6E000E1D6E120020501A026100CCF3F8
:1057D0006BF56100D0F36CF56B51636F646B656BB7
:1057E000666B6C51676F686B696B6A6B1F501B024D
:1057F0006100CCF36BF56100D0F36CF56B5163275E
:10580000000E6423652366236C516727000E68230E
:1058100069236A231E501C026100CCF36BF5610002
:10582000D0F36CF56B516327000E64236523662368
:105830006C516727000E682369236A2365C566F5E6
:1058400064C565F563C564F5636B1E501B0261009A
:10585000CCF36BF56100D0F36CF56B5163276C51A1
:105860006423000E6523000E66231F501A02610098
:10587000CCF36BF56100D0F36CF56B5163276C5181
:105880006423000E6523000E662365C566F564C5B6
:1058900065F563C564F5636B1E501A026100CCF3B5
:1058A0006BF56100D0F36CF56B5163276C51642389
:1058B000000E6523000E662320501B026100CCF30E
:1058C0006BF56100D0F36CF56B5167276C51682361
:1058D000000E6923000E6A231F501C026100CCF3E6
:1058E0006BF56100D0F36CF56B5167276C51682341
:1058F000000E6923000E6A2320501C026100CCF3C5
:105900006BF56100D0F36CF56B51226E6C51236E18
:10591000246A256A24C525F523C524F522C523F567
:10592000226A225067272350682324506923255078
:105930006A2366516727000E682369236A2365C5B9
:1059400066F564C565F563C564F5636B615162C551
:1059500022F5236A2226000E2322820E22246B6F58
:10596000FF0E23206C6F0FD0D890673768376937E8
:105970006A3766BF6781D8906337643765376637A3
:105980006B07D8A06C0769AFEFD7000E616F66AFE9
:1059900017D0FF0E6315226EFF0E6415236EFF0EE7
:1059A0006515246E7F0E6615256E22502310241077
:1059B0002510D8B403D0010E616F02D067B1FBD7B8
:1059C0006151D8B41FD0010E6727000E68236923E8
:1059D0006A236AA117D067C522F568C523F569C592
:1059E00024F56AC525F525342532243223322232A6
:1059F00022C567F523C568F524C569F525C56AF58F
:105A00006B4B6C2B6CBF0DD06C5103E16B29D8A094
:105A100008D0000E676F000E686F800E696F7F0EF2
:105A200020D06CBF05D06C510EE16B05D8B00BD007
:105A3000000E676F000E686F000E696F000E6A6FD0
:105A4000000E606F0FD06BC562F5FF0E6717FF0E7B
:105A500068177F0E6917000E6A1762B1698FD890B8
:105A600062316A6F60516A1367C51AF568C51BF524
:105A700069C51CF56AC51DF51200D69E51EC43F0B0
:105A80000F0E06012F13B5EC3EF065C533F666C563
:105A900034F606013C51D8B433D1F0EC26F030D1C5
:105AA000190E06013B25D96EDA6A060EDA22DF509E
:105AB0000501FB6F1E0E06013B25D96EDA6A060E44
:105AC000DA22DF500501FC6FFB51FC5D0601DC6F43
:105AD000DC51800A7F0FD8A003D0010E3A6F0BD0A3
:105AE000DCAF02D03A6907D0000E3A6F30910F0E4A
:105AF0002F17000E396F3B51F4EC44F00009D8B475
:105B000003D0000E396F30913AC61AF53B5182EC42
:105B100037F0060129512D5D0501FB6F06012A5161
:105B20002E590501FC6FFC5104E1650EFB5DD8A008
:105B3000AAD7190E06013B25D96EDA6A060EDA22BB
:105B40003A51DF262DC629F62EC62AF69CD7BE94DA
:105B5000000E06013A6F3B51D8B403D0040E3B65EA
:105B600006D030930F0E2F17000E396F34D03B51F3
:105B7000F4EC44F00009D8B428D0190E3B25D96EB6
:105B8000DA6A060EDA22000EDF6E000E396F3093ED
:105B90003BC6FBF5FF0E0501FB27010EFC6FFB2B3F
:105BA00002D0D890FC37FB2FFCD706012F510F0BEA
:105BB0000501FD6FFC51FD1306012F510501FD1973
:105BC000F00BFD1906012F6F06D03A693AC61AF597
:105BD0003B5182EC37F0060129512D5D0501FB6F29
:105BE00006012A512E590501FC6FFC5104E1650E96
:105BF000FB5DD8A048D7190E06013B25D96EDA6A9D
:105C0000060EDA22DF50D8B408D0190E3B25D96E23
:105C1000DA6A060EDA22DF0695D7190E3B25D96E11
:105C2000DA6A060EDA22630EDF6E8CD7BE84A89E77
:105C3000000E0201056F05C206F2000E156F15C2B7
:105C400016F2000E176F17C214F2000E106F10C27A
:105C500018F2010E00EC44F058EC40F01AC52BF697
:105C60001BC52CF606012CAF04D0000E2C6F000EC5
:105C70002B6F000E416E3B51D8B43BD0050E3B61FB
:105C800038D0000E0401176F17C40FF40FC407F4C7
:105C9000060130A316D0000E3D6E000E3C6E000EC5
:105CA000426E000EDD6F140EDD25D96EDA6A060E27
:105CB000DA22000EDF6EDD2B030EDD65F4D7010E58
:105CC00017D030A116D0000E3D6E000E3C6E000EB7
:105CD000426E000EDE6F140EDE25D96EDA6A060EF5
:105CE000DA22000EDF6EDE2B030EDE65F4D7020E25
:105CF000396F30A527D70201B2AFFDD7FF0022D7F9
:105D0000060139510501FB6FFC6BFC51000AD8A458
:105D10008DD7FB51010AD8B41AD7030AD8B4C0D61C
:105D200085D71D50800B646F1D501D246B6F1CBEEA
:105D30006B816B51D8B40DD06B29D8A408D0000E5C
:105D40001A6E000E1B6E000E1C6E000E1D6E1C8E59
:105D500006D0000E1A6E000E1B6E000E1C6E000E9A
:105D60001D6E2150800B641B215021246C6F20BEBE
:105D70006C816C51D8B40DD06C29D8A408D0000E19
:105D80001E6E000E1F6E000E206E000E216E208E05
:105D900006D0000E1E6E000E1F6E000E206E000E4E
:105DA000216E1E501F1020102110D8A417D0000EF5
:105DB0001A6E000E1B6E000E1C6E000E1D6E800E05
:105DC0001C127F0E1D1264511D121AC51AF51BC537
:105DD0001BF51CC51CF51DC51DF512006B51D8A483
:105DE00009D0000E1A6E000E1B6E000E1C6E000E07
:105DF0001D6E12006C516BC522F5236A225E000EE7
:105E0000235A7F0E2224656F000E2320666F1AC569
:105E100060F51BC561F51CC562F51DC563F5000E77
:105E20001A6E000E1B6E000E1C6E000E1D6E000E14
:105E3000676F000E686F000E696F000E6A6F000ECC
:105E40006C6F28D06C51D8B411D0D89060376137BE
:105E500062376337D8901A361B361C361D366ABF38
:105E60001A80D8906737683769376A371E50605D87
:105E70001F5061592050625921506359D8A009D050
:105E80006A8D1E50605F1F50615B2050625B215025
:105E9000635B6C2B190E6C65D5D760516111621173
:105EA0006311D8B411D067810FD0D8901A361B3641
:105EB0001C361D366ABF1A80D89067376837693735
:105EC0006A376507D8A066071CAEEFD7000E6C6F67
:105ED0006AAF17D0FF0E6715226EFF0E6815236E8E
:105EE000FF0E6915246E7F0E6A15256E2250231051
:105EF00024102510D8B403D0010E6C6F02D01AB054
:105F0000FBD76C51D8B41FD0010E1A26000E1B22ED
:105F10001C221D221DA017D01AC522F51BC523F572
:105F20001CC524F51DC525F5253425322432233220
:105F3000223222C51AF523C51BF524C51CF525C53B
:105F40001DF5654B662B66BF10D0665103E16529D0
:105F5000D8A00BD0000E666F6569000E1A6E000E99
:105F60001B6E000E1C6E000E1D6E66BF05D06651C6
:105F700011E16505D8B00ED0000E666F000E656F9A
:105F8000000E1A6E000E1B6E000E1C6E000E1D6EB3
:105F9000000E646F65C56BF56BA102D01C8E01D03D
:105FA0001C9ED8906B311D6E0ED76CC584F56DC5E7
:105FB00085F56EC586F56FC587F570C588F571C521
:105FC00089F572C58AF573C58BF58BAF02D0010ECA
:105FD00001D0000E826F836B82518311D8B410D030
:105FE0008B1F8A1F891F881F871F861F851F846D2F
:105FF000000E852386238723882389238A238B23E6
:1060000039AE3A9239BE05D0395008E13804D8B0DB
:1060100005D0000E7F6F010E7E6F04D038C57EF56F
:1060200039C57FF536C580F537C581F582518311B5
:10603000D8A402D03AA403D08007D8A08107000ECC
:106040008D6F1F0E8C6F000E0601BC6F7CD08C070D
:10605000D8A08D079D0E8C25D96E060E8D21DA6E87
:1060600084C51AF585C51BF586C51CF587C51DF5C4
:1060700088C51EF589C51FF58AC520F58BC521F594
:106080000A0E226E000E236E000E246E000E256E88
:10609000000E266E000E276E000E286E000E296E72
:1060A00049EC3CF01AC574F51BC575F51CC576F5B1
:1060B0001DC577F51EC578F51FC579F520C57AF59C
:1060C00021C57BF574C52CF576C52DF5F9EC46F0A8
:1060D0002C50300FDF6E7E07D8A07F078007D8A036
:1060E000810784C51AF585C51BF586C51CF587C5CE
:1060F0001DF588C51EF589C51FF58AC520F58BC518
:1061000021F50A0E226E000E236E000E246E000E84
:10611000256E000E266E000E276E000E286E000EF5
:10612000296E05EC3BF01AC584F51BC585F51CC529
:1061300086F51DC587F51EC588F51FC589F520C5DF
:106140008AF521C58BF505018DBF1FD08D5103E167
:106150008C05D8A01AD08451851186118711881119
:1061600089118A118B11D8A472D77FBF05D07F51B6
:1061700002E17E05D8B06BD781BF07D0815103E122
:106180008005D8A002D03AB262D782518311D8A438
:1061900002D03AA418D08C07D8A08D078251831161
:1061A000D8A404D0000E7D6F2B0E03D0000E7D6F9F
:1061B0002D0E7C6F9D0E8C25D96E060E8D21DA6E0C
:1061C0006100F0F5DFF46AC560F56BC561F59D0E01
:1061D0008C25626F060E8D21636F80C564F581C5C5
:1061E00065F50AEC40F060C56AF561C56BF5120013
:1061F00039AE3A9239BE05D0395008E13804D8B0EA
:1062000005D0000E826F010E816F04D038C581F574
:1062100039C582F536C583F537C584F53AA804D06B
:10622000FE0E8327FF0E84236CC585F56DC586F5AC
:106230006EC587F56FC588F570C589F571C58AF596
:1062400072C58BF573C58CF5000E8E6F1F0E8D6FAA
:10625000000E0601BC6F94D08D07D8A08E070F0EDC
:1062600085158F6F906B90BF08D0905104E10A0E96
:106270008F5DD8A002D0570E01D0300E8F258F6FC2
:10628000000E9021906FBF0E756FFF0E766F7451E8
:10629000776F786B7551772776517823785106E1BF
:1062A0001A0E775DD8B002D0010E01D0000E7D6FBE
:1062B0007E6B7D517E11D8B427D09F0E756FFF0E77
:1062C000766F200E8F11776F000E9011786F7551D9
:1062D000772776517823785106E11A0E775DD8B08A
