:10000000FEEF03F0FF00FF00FF00FF00FF00FF0016
:10001000FF00FF00FF00FF00FF00FF00FF00FF00E8
:10002000FF00FF00FF00FF00FF00FF00FF00FF00D8
:10003000FF00FF00FF00FF00FF00FF00FF00FF00C8
:10004000FF00FF00FF00FF00FF00FF00FF00FF00B8
:1002C000FF00C694BE941200000EF86E000146EFC7
:1002D00002F0326E0A0E326003D03250300F12003C
:1002E0003250370F1200600E0001AD6F000EAF6F7D
:1002F000500EB36F050EB16F000EB06F000EAC6FF5
:100300001200000E0001636F000E646F000E656F37
:10031000000E666F000E676F000E686F1200326E7F
:10032000140E336E05D0420EE82EFED700D03306F1
:10033000B7B203D03350D8A4F6D7B7A212006100E9
:10034000C8F4A3F21200C884040110950201AC9F06
:10035000000EAF6F190EAE6F300EAB6F000EAD6FAB
:10036000AD9DAD95120E726F100E0E6FAC8F120018
:10037000D69E73EC01F081EC01F061EC01F0A3EC8E
:1003800001F0FE0E0001436FFF0E446F3F0E456FFC
:10039000F80E4117408140B1FED7600018F103F517
:1003A00060001CF104F50FD0000E016E090E026E04
:1003B0001200000E016E0D0E026E1200000E016E94
:1003C000150E026E120003C532F504C533F5335025
:1003D000740AD8B404D0010AD8B406D0EFD732508A
:1003E000E00AD8B4E6D7EAD73250200AD8B4DCD72E
:1003F000400AE4D76100C8F4D9F46100CCF4DAF41F
:10040000DF50356E600E356401D0359A2F0E35649D
:1004100009D0470E356006D0390E356405D0410E3F
:10042000356002D0000E1200300E355E090E3564C4
:1004300002D0070E355E35C534F5324A332A6100E5
:10044000C8F4D9F46100CCF4DAF4DF50356E600EF4
:10045000356401D0359A2F0E356409D0470E3560CA
:1004600006D0390E356405D0410E356002D03450C7
:100470001200300E355E090E356402D0070E355E6F
:100480003450100DF3503524346EF1D781EC01F067
:1004900073EC01F0000E466F000E436F000E446FC8
:1004A000380E456FF80E41174081000E446E000172
:1004B00040A10CD0060E366E300EE82EFED7362E3A
:1004C000FCD700D0442A130E4464F1D7000146291A
:1004D000D8B406D0000EFC6E000EE06E00EF04F003
:1004E000B8EC01F0000E3F6E84D1000E476E050E91
:1004F0004724D96EDA6A050EDA22000EDF6E472A2B
:100500002C0E4764F4D7000E436E000E4D6E1DD0C6
:10051000B7A0FED70201B2A302D0A1511CD0600047
:1005200084FA4AF50A0E4A18D8A405D0010E4D6483
:1005300012D0010E436E050E4D24D96EDA6A050EF7
:10054000DA22610028F5DFF44D2A4350D8A403D005
:100550002C0E4D64DDD7050E4D24D96EDA6A050EDA
:10056000DA22000EDF6E0A0E4D6423D14350D8B458
:1005700020D13A0E0518D8A41CD10C0E326E050EEF
:10058000336EFAEC01F0416E060E326E050E336EDC
:10059000FAEC01F0466E080E326E050E336EFAEC80
:1005A00001F0366E36504B6E4C6A4B504C6E4B6AB7
:1005B0000A0E326E050E336EFAEC01F0366E3650CE
:1005C0004B26000E4C224650366E376AD89036368F
:1005D00037360E0E3624326E050E3720336EFAECA7
:1005E00001F0406ED8904B307F0B426E4150D8A442
:1005F000B3D0080E4C5CD8B04BB0AED046C536F583
:10060000D8903632365042C537F5386A3726000E54
:10061000382238BE08D0385005E1810E375CD8B09A
:100620009BD001D099D061002CF543F0610030F5EA
:1006300044F00001456B4151F80B0209416FD69E11
:10064000408140B1FED74250366E376AD890363678
:100650003736365001243B6E375002203C6E000E78
:10066000486E2ED0100E4824326E336A050E3322A7
:10067000FAEC01F0366E36503D6E3E6A3D503E6EED
:100680003D6A0E0E4824326E336A050E3322FAECB0
:1006900001F0366E36503D26000E3E226100ECF42D
:1006A000D9F46100F0F4DAF46100F4F4DEF46100EE
:1006B000F8F4DDF4020E3B26000E3C22040E482620
:1006C0004650366E376AD890363637364850386ED0
:1006D000396A3650385C3950800A3A6E3750800A91
:1006E0003A58D8A0BFD761002CF543F0610030F52F
:1006F00044F00001456B4151F80B0609416F550E5E
:10070000426FAA0E426F408140B1FED741AF01D087
:1007100070D04151F80B0509416F550E426FAA0E7A
:10072000426F408140B1FED741AF01D062D0F80E98
:10073000411740380F0B69EC01F08FEC01F040508D
:100740000F0B69EC01F08FEC01F00D0E8FEC01F056
:100750000A0E8FEC01F04DD04104D8A42AD0010E2E
:100760003F6ED69E000E0001436F000E446F380EA0
:10077000456F000E466F4151F80B0309416F550E4E
:10078000426FAA0E426F4081000E456E0CD00001F0
:1007900040A10CD0060E366E300EE82EFED7362E57
:1007A000FCD700D0452A130E4564F1D7F80E00019E
:1007B0004117000E496E2C0E496401D011D0050E70
:1007C0004924D96EDA6A050EDA22DF504A6E200E0D
:1007D0004A6001D005D04A508FEC01F0492AEBD78E
:1007E0000D0E8FEC01F00A0E8FEC01F00201B2AF9A
:1007F000FDD73F50D8B479D6FF00FFD764EF01F0A2
:100800005DEF04F0FF00FF0062256225622562258E
:1008100062256225622537256225622562256225CB
:10082000622562256225622562252E022E022E0295
:10083000622562256225622562256225622564257E
:100840006325622562252725E72162256225622529
:10085000622562256225331F6225622562252E02EC
:100860006225622562256225622562256225622550
:100870006225622562252E02622562256225622597
:100880002E02622562256225622562256225622587
:100890002E0262252E0262256225622562256225CE
:1008A000622562256225622562252E022E026225BE
:1008B0006225622562256225FF0095EF45F0610003
:1008C000D4F6D9F46100D8F6DAF4DEC4F6F4DDC467
:1008D000F7F40800F550250AD8A45CEF1CF061007D
:1008E000D4F6D9F46100D8F6DAF4DE2A000EDD225F
:1008F000000E366E000E356E35C5FDF536C5FEF5BB
:100900006100D4F6D9F46100D8F6DAF4DEC4F6F466
:10091000DDC4F7F40800F5502A0AD8A40DD0610010
:10092000D4F6D9F46100D8F6DAF4DE2A000EDD221E
:10093000000EFE6F010EFD6F6100D4F6D9F4610068
:10094000D8F6DAF4610078F31EF5610074F31FF550
:10095000A4EC35F01EC535F51FC536F509D061008C
:10096000D4F6D9F46100D8F6DAF4DE2A000EDD22DE
:10097000D00E0501B96FFF0EBA6F6100D4F6D9F43D
:100980006100D8F6DAF4DEC4F6F4DDC4F7F408004A
:10099000F550BB6FBC6BB951BB27BA51BC23BC51DE
:1009A00006E10A0EBB5DD8B002D0010E01D0000EE8
:1009B000C56FC66BC551C611D8A4D1D76100D4F696
:1009C000D9F46100D8F6DAF4DEC4F6F4DDC4F7F445
:1009D0000800F5501D6E1E6AA0EC47F01D50CB6F4D
:1009E000CB51D8B43FD06100D4F6D9F46100D8F629
:1009F000DAF4610078F3B9F5610074F3BAF5010E29
:100A0000B927000EBA236100E4F6F6F46100E8F6B7
:100A1000F7F40800F5501D6E1E6AA0EC47F01D505B
:100A2000CC6FCC51D8B41ED06100D4F6D9F461009B
:100A3000D8F6DAF4610078F3B9F5610074F3BAF529
:100A4000020EB927000EBA236100E4F6F6F4610045
:100A5000E8F6F7F40800F5501D6E1E6AA0EC47F0AA
:100A60001D50CD6F6100D4F6D9F46100D8F6DAF4E8
:100A7000DEC4F6F4DDC4F7F40800F550630AD8A428
:100A800047D06100D4F6D9F46100D8F6DAF4DE2A52
:100A9000000EDD22FD51FE11D8A427D06100DCF646
:100AA000D9F46100E0F6DAF461007CF3B9F5020EE6
:100AB000DE2661007CF3BAF5000EDD226100E4F66B
:100AC000D9F46100E8F6DAF4610078F3E2F5610048
:100AD00074F3E3F5B3C522F5B4C523F5E2C524F5F7
:100AE000E3C525F5F0EC3EF00AD0B3C522F5B4C558
:100AF00023F5000E246E000E256EF0EC3EF022C5AC
:100B0000E4F523C5E5F5E4C5B3F5E5C5B4F5120094
:100B10006100D4F6D9F46100D8F6DAF4610078F314
:100B200017F5610074F318F5830E196EFF0E1A6E37
:100B3000000E1C6E030E1B6E77EC3FF01750181062
:100B4000D8B41AD06100D4F6D9F46100D8F6DAF43A
:100B5000610078F317F5610074F318F58B0E196EC8
:100B6000FF0E1A6E000E1C6E030E1B6E77EC3FF02C
:100B700017501810D8A457D0030E6100D4F6D9F43A
:100B80006100D8F6DAF4DE26000EDD22B3C59DF54D
:100B9000B4C59EF5D20E05019F6F050EA06F5FECE8
:100BA00037F09DC5E4F59EC5E5F5FD51FE11D8B4BD
:100BB000E5BFA9D7E55103E1E405D8A0A4D76100BA
:100BC000DCF6D9F46100E0F6DAF461007CF3B9F503
:100BD000020EDE2661007CF3BAF5000EDD22610014
:100BE000E4F6D9F46100E8F6DAF4610078F3E2F5AE
:100BF000610074F3E3F5610088F7F6F461008CF7A7
:100C0000F7F4000EF86E150EF76405D0610048F792
:100C1000F5F40C0007D0F6C4E1F4F7C4E2F4610087
:100C200048F7E7F470D76100D4F6D9F46100D8F63C
:100C3000DAF4610078F317F5610074F318F5840EA7
:100C4000196EFF0E1A6E000E1C6E020E1B6E77ECF4
:100C50003FF017501810D8B41AD06100D4F6D9F468
:100C60006100D8F6DAF4610078F317F5610074F3E7
:100C700018F58C0E196EFF0E1A6E000E1C6E020E09
:100C80001B6E77EC3FF017501810D8A455D0020E09
:100C90006100D4F6D9F46100D8F6DAF4DE26000E4D
:100CA000DD22B3C59DF5B4C59EF5D20E05019F6F3B
:100CB000050EA06F5FEC37F09DC5E4F59EC5E5F528
:100CC000FD51FE11D8B4E5BF1ED7E55103E1E4059F
:100CD000D8A019D76100DCF6D9F46100E0F6DAF4A7
:100CE00061007CF3B9F5020EDE2661007CF3BAF5F3
:100CF000000EDD226100E4F6D9F46100E8F6DAF4D2
:100D0000610078F3E2F5610074F3E3F5610088F7C0
:100D1000F6F461008CF7F7F4000EF86E150EF76428
:100D200009D0610048F7F5F40D0061004CF7F5F4C7
:100D30000C0001D08BD3E7D66100D4F6D9F4610062
:100D4000D8F6DAF4DEC4F6F4DDC4F7F40800F550A2
:100D5000640AD8B40FD06100D4F6D9F46100D8F693
:100D6000DAF4DEC4F6F4DDC4F7F40800F550690ADD
:100D7000D8A454D06100D4F6D9F46100D8F6DAF4DE
:100D8000DE2A000EDD22B3C59DF5B4C59EF5D20E58
:100D900005019F6F050EA06F5FEC37F09DC5E4F570
:100DA0009EC5E5F5FD51FE11D8B4E5BFACD6E551C1
:100DB00003E1E405D8A0A7D66100DCF6D9F4610010
:100DC000E0F6DAF461007CF3B9F5020EDE2661008C
:100DD0007CF3BAF5000EDD226100E4F6D9F461007F
:100DE000E8F6DAF4610078F3E2F5610074F3E3F514
:100DF000610088F7F6F461008CF7F7F4000EF86EE6
:100E0000150EF76409D0610048F7F5F40D00610094
:100E10004CF7F5F40C0001D019D375D66100D4F667
:100E2000D9F46100D8F6DAF4610078F317F56100BF
:100E300074F318F5880E196EFF0E1A6E000E1C6EF4
:100E4000020E1B6E77EC3FF017501810D8B41AD072
:100E50006100D4F6D9F46100D8F6DAF4610078F3D1
:100E600017F5610074F318F5900E196EFF0E1A6EE7
:100E7000000E1C6E020E1B6E77EC3FF01750181020
:100E8000D8A45DD0020E6100D4F6D9F46100D8F682
:100E9000DAF4DE26000EDD22B3C59DF5B4C59EF55D
:100EA000D20E05019F6F050EA06F5FEC37F09DC558
:100EB000E4F59EC5E5F5FD51FE11D8B4E5BF23D696
:100EC000E55103E1E405D8A01ED66100DCF6D9F4B3
:100ED0006100E0F6DAF461007CF3B9F5020EDE267B
:100EE00061007CF3BAF5000EDD226100E4F6D9F46E
:100EF0006100E8F6DAF4610078F3E2F5610074F37A
:100F0000E3F5610088F7F6F461008CF7F7F4000E62
:100F1000F86E150EF76411D0610048F7F5F40D0076
:100F200061004CF7F5F40D00610050F7F5F40D0089
:100F3000610054F7F5F40C0001D0EDD1E4D5610067
:100F4000D4F6D9F46100D8F6DAF4610078F317F535
:100F5000610074F318F5870E196EFF0E1A6E000EFD
:100F60001C6E030E1B6E77EC3FF017501810D8B4B0
:100F70001AD06100D4F6D9F46100D8F6DAF4610031
:100F800078F317F5610074F318F58F0E196EFF0EE4
:100F90001A6E000E1C6E030E1B6E77EC3FF017509E
:100FA0001810D8A46DD0030E6100D4F6D9F46100F6
:100FB000D8F6DAF4DE26000EDD22B3C59DF5B4C501
:100FC0009EF5D20E05019F6F050EA06F5FEC37F006
:100FD0009DC5E4F59EC5E5F5FD51FE11D8B4E5BF0C
:100FE00092D5E55103E1E405D8A08DD56100DCF68A
:100FF000D9F46100E0F6DAF461007CF3B9F5020E91
:10100000DE2661007CF3BAF5000EDD226100E4F615
:10101000D9F46100E8F6DAF4610078F3E2F56100F2
:1010200074F3E3F5610088F7F6F461008CF7F7F4E8
:10103000000EF86E150EF76421D0610048F7F5F444
:101040000D0061004CF7F5F40D00610050F7F5F468
:101050000D00610054F7F5F40D00610058F7F5F448
:101060000D0061005CF7F5F40D00610060F7F5F428
:101070000D00610064F7F5F40C0001D0A0D043D559
:101080006100D4F6D9F46100D8F6DAF4610078F39F
:1010900017F5610074F318F5BF0E196EFF0E1A6E86
:1010A000000E1C6E020E1B6E77EC3FF017501810EE
:1010B000D8B41AD06100D4F6D9F46100D8F6DAF4C5
:1010C000610078F317F5610074F318F5D10E196E0D
:1010D000FF0E1A6E000E1C6E020E1B6E77EC3FF0B8
:1010E00017501810D8A488D0020E6100D4F6D9F495
:1010F0006100D8F6DAF4DE26000EDD22B3C59DF5D8
:10110000B4C59EF5D20E05019F6F050EA06F5FEC72
:1011100037F09DC5E4F59EC5E5F5FD51FE11D8B447
:10112000E5BFF1D4E55103E1E405D8A0ECD46100BA
:10113000DCF6D9F46100E0F6DAF461007CF3B9F58D
:10114000020EDE2661007CF3BAF5000EDD2261009E
:10115000E4F6D9F46100E8F6DAF4610078F3E2F538
:10116000610074F3E3F5610088F7F6F461008CF731
:10117000F7F4000EF86E150EF76421D0610048F701
:10118000F5F40D0061004CF7F5F40D00610050F727
:10119000F5F40D00610054F7F5F40D00610058F707
:1011A000F5F40D0061005CF7F5F40D00610060F7E7
:1011B000F5F40D00610064F7F5F40C001CD0F6C4E2
:1011C000E1F4F7C4E2F4610048F7E6F461004CF79B
:1011D000E6F4610050F7E6F4610054F7E6F46100CC
:1011E00058F7E6F461005CF7E6F4610060F7E6F4B6
:1011F000610064F7E7F487D46100D4F6D9F46100A4
:10120000D8F6DAF4610078F317F5610074F318F595
:10121000C20E196EFF0E1A6E000E1C6E020E1B6EB1
:1012200077EC3FF017501810D8B41AD06100D4F6FC
:10123000D9F46100D8F6DAF4610078F317F56100AB
:1012400074F318F5D40E196EFF0E1A6E000E1C6E94
:10125000020E1B6E77EC3FF017501810D8A46DD01B
:10126000020E6100D4F6D9F46100D8F6DAF4DE2675
:10127000000EDD22B3C59DF5B4C59EF5D20E050165
:101280009F6F050EA06F5FEC37F09DC5E4F59EC51E
:10129000E5F5FD51FE11D8B4E5BF35D4E55103E1C4
:1012A000E405D8A030D46100DCF6D9F46100E0F6A2
:1012B000DAF461007CF3B9F5020EDE2661007CF3FE
:1012C000BAF5000EDD226100E4F6D9F46100E8F61B
:1012D000DAF4610078F3E2F5610074F3E3F561009C
:1012E00088F7F6F461008CF7F7F4000EF86E150E2F
:1012F000F76411D0610048F7F5F40D0061004CF778
:10130000F5F40D00610050F7F5F40D00610054F79D
:10131000F5F40C0010D0F6C4E1F4F7C4E2F4610077
:1013200048F7E6F461004CF7E6F4610050F7E6F4A4
:10133000610054F7E7F483EF05F06100D4F6D9F4C7
:101340006100D8F6DAF4610078F317F5610074F300
:1013500018F5C50E196EFF0E1A6E000E1C6E020EE9
:101360001B6E77EC3FF017501810D8B41AD06100FC
:10137000D4F6D9F46100D8F6DAF4610078F317F501
:10138000610074F318F5D70E196EFF0E1A6E000E79
:101390001C6E020E1B6E77EC3FF017501810D8A48D
:1013A00061D0020E6100D4F6D9F46100D8F6DAF407
:1013B000DE26000EDD22B3C59DF5B4C59EF5D20E26
:1013C00005019F6F050EA06F5FEC37F09DC5E4F53A
:1013D0009EC5E5F5FD51FE11D8B4E5BF83EF05F0DC
:1013E000E55104E1E405D8A083EF05F06100DCF6E7
:1013F000D9F46100E0F6DAF461007CF3B9F5020E8D
:10140000DE2661007CF3BAF5000EDD226100E4F611
:10141000D9F46100E8F6DAF4610078F3E2F56100EE
:1014200074F3E3F5610088F7F6F461008CF7F7F4E4
:10143000000EF86E150EF76409D0610048F7F5F458
:101440000D0061004CF7F5F40C000AD0F6C4E1F48D
:10145000F7C4E2F4610048F7E6F461004CF7E7F402
:1014600083EF05F0610E0501CB19D8B40CD0650EE1
:10147000CB19D8B408D0660ECB19D8B404D0670EF7
:10148000CB19D8A46DD06100D4F6D9F46100D8F698
:10149000DAF4DE2A000EDD22B3C586F5B4C587F581
:1014A000CE0E886F050E896FAEEC34F086C5E4F57C
:1014B00087C5E5F5FD51FE11D8B4E5BF83EF05F012
:1014C000E55104E1E405D8A083EF05F06100DCF606
:1014D000D9F46100E0F6DAF461007CF3B9F5020EAC
:1014E000DE2661007CF3BAF5000EDD226100E4F631
:1014F000D9F46100E8F6DAF4610078F3E2F561000E
:1015000074F3E3F5610088F7F6F461008CF7F7F403
:10151000000EF86E150EF76411D0610038F7F5F47F
:101520000D0061003CF7F5F40D00610040F7F5F4A3
:101530000D00610044F7F5F40C0010D0F6C4E1F49E
:10154000F7C4E2F4610038F7E6F461003CF7E6F432
:10155000610040F7E6F4610044F7E7F483EF05F03B
:10156000CB0E176E050E186EBC0E196EFF0E1A6E9E
:10157000000E1C6E020E1B6E77EC3FF01750181019
:10158000D8B436D0CB0E176E050E186EC80E196E75
:10159000FF0E1A6E000E1C6E020E1B6E77EC3FF0F3
:1015A00017501810D8B424D0CB0E176E050E186E35
:1015B000CB0E196EFF0E1A6E000E1C6E020E1B6E05
:1015C00077EC3FF017501810D8B412D0CB0E176E2E
:1015D000050E186ECE0E196EFF0E1A6E000E1C6EE2
:1015E000020E1B6E77EC3FF017501810D8A4DBD01A
:1015F000B3C586F5B4C587F5CE0E0501886F050E17
:10160000896FAEEC34F086C5E4F587C5E5F5FD518C
:10161000FE11D8B4E5BFBBD0E55103E1E405D8A085
:10162000B6D0BF0EB96FFF0EBA6F6100D4F6D9F411
:101630006100D8F6DAF4DEC4F6F4DDC4F7F408008D
:10164000F550BB6FBC6BB951BB27BA51BC23BC5121
:1016500006E11A0EBB5DD8B002D0010E01D0000E1B
:10166000C76FC86BC751C811D8B449D06100DCF648
:10167000D9F46100E0F6DAF461007CF3B9F5020E0A
:10168000DE2661007CF3BAF5000EDD226100E4F68F
:10169000D9F46100E8F6DAF4610078F3E2F561006C
:1016A00074F3E3F5610088F7F6F461008CF7F7F462
:1016B000000EF86E150EF76411D0610038F7F5F4DE
:1016C0000D0061003CF7F5F40D00610040F7F5F402
:1016D0000D00610044F7F5F40C0010D0F6C4E1F4FD
:1016E000F7C4E2F4610038F7E6F461003CF7E6F491
:1016F000610040F7E6F4610044F7E7F448D0610088
:10170000DCF6D9F46100E0F6DAF461007CF3B9F5B7
:10171000020EDE2661007CF3BAF5000EDD226100C8
:10172000E4F6D9F46100E8F6DAF4610078F3E2F562
:10173000610074F3E3F5610088F7F6F461008CF75B
:10174000F7F4000EF86E150EF76411D0610038F74B
:10175000F5F40D0061003CF7F5F40D00610040F771
:10176000F5F40D00610044F7F5F40C0010D0F6C458
:10177000E1F4F7C4E2F4610038F7E6F461003CF705
:10178000E6F4610040F7E6F4610044F7E7F4020E86
:101790006100D4F6D9F46100D8F6DAF4DE26000E42
:1017A000DD2283EF05F06100D4F6D9F46100D8F6AC
:1017B000DAF4610078F317F5610074F318F59B0E05
:1017C000196EFF0E1A6E000E1C6E030E1B6E77EC68
:1017D0003FF017501810D8A455D0030E6100D4F66E
:1017E000D9F46100D8F6DAF4DE26000EDD22B3C5A6
:1017F0009DF5B4C59EF5DA0E05019F6F050EA06F2D
:10180000CCEC39F09DC5E4F59EC5E5F5FD51FE1122
:10181000D8B4E5BF83EF05F0E55104E1E405D8A0B5
:1018200083EF05F06100DCF6D9F46100E0F6DAF44C
:1018300061007CF3B9F5020EDE2661007CF3BAF597
:10184000000EDD226100E4F6D9F46100E8F6DAF476
:10185000610078F3E2F5610074F3E3F5610088F765
:10186000F6F461008CF7F7F4000EF86E150EF764CD
:1018700005D0610068F7F5F40C0002D0F8EF17F01E
:1018800083EF05F06100D4F6D9F46100D8F6DAF4FC
:10189000610078F317F5610074F318F59C0E196E6A
:1018A000FF0E1A6E000E1C6E020E1B6E77EC3FF0E0
:1018B00017501810D8A459D0020E6100D4F6D9F4EC
:1018C0006100D8F6DAF4DE26000EDD22B3C59DF500
:1018D000B4C59EF5DA0E05019F6F050EA06FCCEC26
:1018E00039F09DC5E4F59EC5E5F5FD51FE11D8B46E
:1018F000E5BF83EF05F0E55104E1E405D8A083EFEF
:1019000005F06100DCF6D9F46100E0F6DAF461007C
:101910007CF3B9F5020EDE2661007CF3BAF5000E09
:10192000DD226100E4F6D9F46100E8F6DAF4610042
:1019300078F3E2F5610074F3E3F5610088F7F6F4FB
:1019400061008CF7F7F4000EF86E150EF76409D0FD
:10195000610068F7F5F40D0061006CF7F5F40C0018
:1019600002D025EF1CF083EF05F06100D4F6D9F426
:101970006100D8F6DAF4DEC4F6F4DDC4F7F408004A
:10198000F5506F0AD8A458D06100D4F6D9F461009C
:10199000D8F6DAF4DE2A000EDD22B3C59DF5B4C513
:1019A0009EF5DA0E05019F6F050EA06FCCEC39F0A5
:1019B0009DC5E4F59EC5E5F5FD51FE11D8B4E5BF22
:1019C00083EF05F0E55104E1E405D8A083EF05F0CD
:1019D0006100DCF6D9F46100E0F6DAF461007CF332
:1019E000B9F5020EDE2661007CF3BAF5000EDD22A9
:1019F0006100E4F6D9F46100E8F6DAF4610078F306
:101A0000E2F5610074F3E3F5610088F7F6F4610034
:101A10008CF7F7F4000EF86E150EF76409D061002C
:101A200068F7F5F40D0061006CF7F5F40C0002D0D6
:101A300025EF1CF083EF05F06100D4F6D9F46100C6
:101A4000D8F6DAF4610078F317F5610074F318F54D
:101A5000A00E196EFF0E1A6E000E1C6E020E1B6E8B
:101A600077EC3FF017501810D8A461D0020E610037
:101A7000D4F6D9F46100D8F6DAF4DE26000EDD22C1
:101A8000B3C59DF5B4C59EF5DA0E05019F6F050E31
:101A9000A06FCCEC39F09DC5E4F59EC5E5F5FD5190
:101AA000FE11D8B4E5BF83EF05F0E55104E1E4058C
:101AB000D8A083EF05F06100DCF6D9F46100E0F610
:101AC000DAF461007CF3B9F5020EDE2661007CF3E6
:101AD000BAF5000EDD226100E4F6D9F46100E8F603
:101AE000DAF4610078F3E2F5610074F3E3F5610084
:101AF00088F7F6F461008CF7F7F4000EF86E150E17
:101B0000F76411D0610068F7F5F40D0061006CF71F
:101B1000F5F40D00610070F7F5F40D00610074F745
:101B2000F5F40C0002D08AEF1BF083EF05F06100A2
:101B3000D4F6D9F46100D8F6DAF4610078F317F539
:101B4000610074F318F59F0E196EFF0E1A6E000EE9
:101B50001C6E030E1B6E77EC3FF017501810D8A4C4
:101B600071D0030E6100D4F6D9F46100D8F6DAF42E
:101B7000DE26000EDD22B3C59DF5B4C59EF5DA0E56
:101B800005019F6F050EA06FCCEC39F09DC5E4F503
:101B90009EC5E5F5FD51FE11D8B4E5BF83EF05F014
:101BA000E55104E1E405D8A083EF05F06100DCF61F
:101BB000D9F46100E0F6DAF461007CF3B9F5020EC5
:101BC000DE2661007CF3BAF5000EDD226100E4F64A
:101BD000D9F46100E8F6DAF4610078F3E2F5610027
:101BE00074F3E3F5610088F7F6F461008CF7F7F41D
:101BF000000EF86E150EF76421D0610068F7F5F459
:101C00000D0061006CF7F5F40D00610070F7F5F45C
:101C10000D00610074F7F5F40D00610078F7F5F43C
:101C20000D0061007CF7F5F40D00610080F7F5F41C
:101C30000D00610084F7F5F40C0002D0DBEF1AF020
:101C400083EF05F06100D4F6D9F46100D8F6DAF438
:101C5000610078F317F5610074F318F5E30E196E5F
:101C6000FF0E1A6E000E1C6E020E1B6E77EC3FF01C
:101C700017501810D8A471D0020E6100D4F6D9F410
:101C80006100D8F6DAF4DE26000EDD22B3C59DF53C
:101C9000B4C59EF5DA0E05019F6F050EA06FCCEC62
:101CA00039F09DC5E4F59EC5E5F5FD51FE11D8B4AA
:101CB000E5BF83EF05F0E55104E1E405D8A083EF2B
:101CC00005F06100DCF6D9F46100E0F6DAF46100B9
:101CD0007CF3B9F5020EDE2661007CF3BAF5000E46
:101CE000DD226100E4F6D9F46100E8F6DAF461007F
:101CF00078F3E2F5610074F3E3F5610088F7F6F438
:101D000061008CF7F7F4000EF86E150EF76421D021
:101D1000610068F7F5F40D0061006CF7F5F40D0053
:101D2000610070F7F5F40D00610074F7F5F40D0033
:101D3000610078F7F5F40D0061007CF7F5F40D0013
:101D4000610080F7F5F40D00610084F7F5F40C00F4
:101D500002D0DBEF1AF083EF05F06100D4F6D9F47E
:101D60006100D8F6DAF4610078F317F5610074F3D6
:101D700018F5E60E196EFF0E1A6E000E1C6E020E9E
:101D80001B6E77EC3FF017501810D8A461D0020EEC
:101D90006100D4F6D9F46100D8F6DAF4DE26000E3C
:101DA000DD22B3C59DF5B4C59EF5DA0E05019F6F22
:101DB000050EA06FCCEC39F09DC5E4F59EC5E5F5A8
:101DC000FD51FE11D8B4E5BF83EF05F0E55104E104
:101DD000E405D8A083EF05F06100DCF6D9F46100DA
:101DE000E0F6DAF461007CF3B9F5020EDE2661005C
:101DF0007CF3BAF5000EDD226100E4F6D9F461004F
:101E0000E8F6DAF4610078F3E2F5610074F3E3F5E3
:101E1000610088F7F6F461008CF7F7F4000EF86EB5
:101E2000150EF76411D0610068F7F5F40D0061003C
:101E30006CF7F5F40D00610070F7F5F40D0061002A
:101E400074F7F5F40C0002D08AEF1BF083EF05F075
:101E50006100D4F6D9F46100D8F6DAF4610078F3C1
:101E600017F5610074F318F5E90E196EFF0E1A6E7E
:101E7000000E1C6E020E1B6E77EC3FF01750181010
:101E8000D8A459D0020E6100D4F6D9F46100D8F676
:101E9000DAF4DE26000EDD22B3C59DF5B4C59EF54D
:101EA000DA0E05019F6F050EA06FCCEC39F09DC5D1
:101EB000E4F59EC5E5F5FD51FE11D8B4E5BF83EF0D
:101EC00005F0E55104E1E405D8A083EF05F06100D9
:101ED000DCF6D9F46100E0F6DAF461007CF3B9F5E0
:101EE000020EDE2661007CF3BAF5000EDD226100F1
:101EF000E4F6D9F46100E8F6DAF4610078F3E2F58B
:101F0000610074F3E3F5610088F7F6F461008CF783
:101F1000F7F4000EF86E150EF76409D0610068F74B
:101F2000F5F40D0061006CF7F5F40C0002D025EF1C
:101F30001CF083EF05F06100D4F6D9F46100D8F607
:101F4000DAF4610078F317F5610074F318F5930E75
:101F5000196EFF0E1A6E000E1C6E030E1B6E77ECD0
:101F60003FF017501810D8A443D0030E6100D4F6E8
:101F7000D9F46100D8F6DAF4DE26000EDD22610025
:101F8000DCF6D9F46100E0F6DAF461007CF3B9F52F
:101F9000020EDE2661007CF3BAF5000EDD22610040
:101FA000E4F6D9F46100E8F6DAF4610078F3E2F5DA
:101FB000610074F3E3F5610088F7F6F461008CF7D3
:101FC000F7F4000EF86E150EF76405D06100CCF43E
:101FD000F5F40C0007D0F6C4E1F4F7C4E2F46100B4
:101FE000CCF4E7F4000E0501B46F000EB36F1200DD
:101FF0006100D4F6D9F46100D8F6DAF4610078F320
:1020000017F5610074F318F5940E196EFF0E1A6E31
:10201000000E1C6E020E1B6E77EC3FF0175018106E
:10202000D8A43CD0020E6100D4F6D9F46100D8F6F1
:10203000DAF4DE26000EDD226100DCF6D9F4610060
:10204000E0F6DAF461007CF3B9F5020EDE266100F9
:102050007CF3BAF5000EDD226100E4F6D9F46100EC
:10206000E8F6DAF4610078F3E2F5610074F3E3F581
:10207000610088F7F6F461008CF7F7F4000EF86E53
:10208000150EF76409D06100CCF4F5F40D00610081
:10209000D0F4F5F40C0001D091D2A4D76100D4F6AD
:1020A000D9F46100D8F6DAF4DEC4F6F4DDC4F7F44E
:1020B0000800F5506E0AD8A43BD06100D4F6D9F4DC
:1020C0006100D8F6DAF4DE2A000EDD226100DCF6CB
:1020D000D9F46100E0F6DAF461007CF3B9F5020EA0
:1020E000DE2661007CF3BAF5000EDD226100E4F625
:1020F000D9F46100E8F6DAF4610078F3E2F5610002
:1021000074F3E3F5610088F7F6F461008CF7F7F4F7
:10211000000EF86E150EF76409D06100CCF4F5F4EA
:102120000D006100D0F4F5F40C0001D047D25AD76D
:102130006100D4F6D9F46100D8F6DAF4610078F3DE
:1021400017F5610074F318F5980E196EFF0E1A6EEC
:10215000000E1C6E020E1B6E77EC3FF0175018102D
:10216000D8A44ED0020E6100D4F6D9F46100D8F69E
:10217000DAF4DE26000EDD226100DCF6D9F461001F
:10218000E0F6DAF461007CF3B9F5020EDE266100B8
:102190007CF3BAF5000EDD226100E4F6D9F46100AB
:1021A000E8F6DAF4610078F3E2F5610074F3E3F540
:1021B00033C5B9F534C5BAF5000E0501BABFFF0E37
:1021C000BB6FBC6F610088F7F6F461008CF7F7F421
:1021D000000EF86E150EF76411D06100E4F6F5F408
:1021E0000D006100E8F6F5F40D006100ECF6F5F481
:1021F0000D006100F0F6F5F40C0001D07AD1F2D6B2
:102200006100D4F6D9F46100D8F6DAF4610078F30D
:1022100017F5610074F318F5970E196EFF0E1A6E1C
:10222000000E1C6E030E1B6E77EC3FF0175018105B
:10223000D8A462D0030E6100D4F6D9F46100D8F6B8
:10224000DAF4DE26000EDD226100DCF6D9F461004E
:10225000E0F6DAF461007CF3B9F5020EDE266100E7
:102260007CF3BAF5000EDD226100E4F6D9F46100DA
:10227000E8F6DAF4610078F3E2F5610074F3E3F56F
:1022800033C5B9F534C5BAF5000E0501BABFFF0E66
:10229000BB6FBC6FBD6FBE6FBF6FC06F610088F753
:1022A000F6F461008CF7F7F4000EF86E150EF76483
:1022B00021D06100E4F6F5F40D006100E8F6F5F4D4
:1022C0000D006100ECF6F5F40D006100F0F6F5F498
:1022D0000D006100F4F6F5F40D006100F8F6F5F478
:1022E0000D006100FCF6F5F40D00610000F7F5F457
:1022F0000C0001D07BD076D66100D4F6D9F4610011
:10230000D8F6DAF4610078F317F5610074F318F584
:10231000DA0E196EFF0E1A6E000E1C6E020E1B6E88
:1023200077EC3FF017501810D8A47DD0020E610052
:10233000D4F6D9F46100D8F6DAF4DE26000EDD22F8
:102340006100DCF6D9F46100E0F6DAF461007CF3B8
:10235000B9F5020EDE2661007CF3BAF5000EDD222F
:102360006100E4F6D9F46100E8F6DAF4610078F38C
:10237000E2F5610074F3E3F533C5B9F534C5BAF598
:10238000000E0501BABFFF0EBB6FBC6FBD6FBE6F05
:10239000BF6FC06F610088F7F6F461008CF7F7F447
:1023A000000EF86E150EF76421D06100E4F6F5F426
:1023B0000D006100E8F6F5F40D006100ECF6F5F4AF
:1023C0000D006100F0F6F5F40D006100F4F6F5F48F
:1023D0000D006100F8F6F5F40D006100FCF6F5F46F
:1023E0000D00610000F7F5F40C001CD0F6C4E1F418
:1023F000F7C4E2F46100E4F6E6F46100E8F6E6F41E
:102400006100ECF6E6F46100F0F6E6F46100F4F643
:10241000E6F46100F8F6E6F46100FCF6E6F461002B
:1024200000F7E7F4DFD56100D4F6D9F46100D8F6FF
:10243000DAF4610078F317F5610074F318F5DD0E36
:10244000196EFF0E1A6E000E1C6E020E1B6E77ECDC
:102450003FF017501810D8A45DD0020E6100D4F6DA
:10246000D9F46100D8F6DAF4DE26000EDD22610030
:10247000DCF6D9F46100E0F6DAF461007CF3B9F53A
:10248000020EDE2661007CF3BAF5000EDD2261004B
:10249000E4F6D9F46100E8F6DAF4610078F3E2F5E5
:1024A000610074F3E3F533C5B9F534C5BAF5000E30
:1024B0000501BABFFF0EBB6FBC6F610088F7F6F471
:1024C00061008CF7F7F4000EF86E150EF76411D06A
:1024D0006100E4F6F5F40D006100E8F6F5F40D0096
:1024E0006100ECF6F5F40D006100F0F6F5F40C0077
:1024F00010D0F6C4E1F4F7C4E2F46100E4F6E6F4C7
:102500006100E8F6E6F46100ECF6E6F46100F0F64E
:10251000E7F468D56100D4F6D9F46100D8F6DAF4AE
:10252000610078F317F5610074F318F5E00E196E89
:10253000FF0E1A6E000E1C6E020E1B6E77EC3FF043
:1025400017501810D8A445D0020E6100D4F6D9F463
:102550006100D8F6DAF4DE26000EDD226100DCF63A
:10256000D9F46100E0F6DAF461007CF3B9F5020E0B
:10257000DE2661007CF3BAF5000EDD226100E4F690
:10258000D9F46100E8F6DAF4610078F3E2F561006D
:1025900074F3E3F5610088F7F6F461008CF7F7F463
:1025A000000EF86E150EF76409D06100CCF4F5F456
:1025B0000D006100D0F4F5F40C000AD0F6C4E1F48B
:1025C000F7C4E2F46100CCF4E6F46100D0F4E7F47F
:1025D00009D56100D4F6D9F46100D8F6DAF4DEC486
:1025E000F6F4DDC4F7F40800F550700AD8A460D002
:1025F0006100D4F6D9F46100D8F6DAF4DE2A000ED0
:10260000DD22B3C59DF5B4C59EF5DA0E05019F6FB9
:10261000050EA06F86EC3AF09DC5E4F59EC5E5F584
:10262000FD51FE11D8B4E5BF83EF05F0E55104E19B
:10263000E405D8A083EF05F06100DCF6D9F4610071
:10264000E0F6DAF461007CF3B9F5020EDE266100F3
:102650007CF3BAF5000EDD226100E4F6D9F46100E6
:10266000E8F6DAF4610078F3C3F5610074F3C4F5B9
:1026700061000CF7F6F4610010F7F7F4000EF86E45
:10268000150EF76411D0610068F7F5F40D006100D4
:102690006CF7F5F40D00610070F7F5F40D006100C2
:1026A00074F7F5F40C0002D08AEF1BF083EF05F00D
:1026B0006100D4F6D9F46100D8F6DAF4DEC4F6F499
:1026C000DDC4F7F40800F550730AD8A445D06100C2
:1026D000D4F6D9F46100D8F6DAF4DE2A000EDD2251
:1026E0000501FD51FE11D8A427D06100DCF6D9F414
:1026F0006100E0F6DAF461007CF3B9F5020EDE2643
:1027000061007CF3BAF5000EDD226100E4F6D9F435
:102710006100E8F6DAF4610078F3C1F5610074F362
:10272000C2F5B3C52DF5B4C52EF5C1C52FF5C2C58B
:1027300030F53EEC3BF00AD0B3C52DF5B4C52EF50F
:10274000000E2F6E000E306E3EEC3BF02DC5E4F512
:102750002EC5E5F583EF05F06100D4F6D9F46100EC
:10276000D8F6DAF4610078F317F5610074F318F520
:10277000A30E196EFF0E1A6E000E1C6E030E1B6E5A
:1027800077EC3FF017501810D8A454D0030E610016
:10279000D4F6D9F46100D8F6DAF4DE26000EDD2294
:1027A000B3C59DF5B4C59EF5DA0E05019F6F050E04
:1027B000A06F87EC36F09DC5E4F59EC5E5F5FD51AB
:1027C000FE11D8B4E5BF83EF05F0E55104E1E4055F
:1027D000D8A083EF05F06100DCF6D9F46100E0F6E3
:1027E000DAF461007CF3B9F5020EDE2661007CF3B9
:1027F000BAF5000EDD226100E4F6D9F46100E8F6D6
:10280000DAF4610078F3E2F5610074F3E3F5610056
:1028100088F7F6F461008CF7F7F4000EF86E150EE9
:10282000F76405D0610068F7F5F40C0001D0E0D33F
:1028300083EF05F06100D4F6D9F46100D8F6DAF43C
:10284000610078F317F5610074F318F5A40E196EA2
:10285000FF0E1A6E000E1C6E020E1B6E77EC3FF020
:1028600017501810D8A459D0020E6100D4F6D9F42C
:102870006100D8F6DAF4DE26000EDD22B3C59DF540
:10288000B4C59EF5DA0E05019F6F050EA06F87ECAB
:1028900036F09DC5E4F59EC5E5F5FD51FE11D8B4B1
:1028A000E5BF83EF05F0E55104E1E405D8A083EF2F
:1028B00005F06100DCF6D9F46100E0F6DAF46100BD
:1028C0007CF3B9F5020EDE2661007CF3BAF5000E4A
:1028D000DD226100E4F6D9F46100E8F6DAF4610083
:1028E00078F3E2F5610074F3E3F5610088F7F6F43C
:1028F00061008CF7F7F4000EF86E150EF76409D03E
:10290000610068F7F5F40D0061006CF7F5F40C0058
:1029100002D025EF1CF083EF05F06100D4F6D9F466
:102920006100D8F6DAF4DEC4F6F4DDC4F7F408008A
:10293000F550750AD8A458D06100D4F6D9F46100D6
:10294000D8F6DAF4DE2A000EDD22B3C59DF5B4C553
:102950009EF5DA0E05019F6F050EA06F87EC36F02D
:102960009DC5E4F59EC5E5F5FD51FE11D8B4E5BF62
:1029700083EF05F0E55104E1E405D8A083EF05F00D
:102980006100DCF6D9F46100E0F6DAF461007CF372
:10299000B9F5020EDE2661007CF3BAF5000EDD22E9
:1029A0006100E4F6D9F46100E8F6DAF4610078F346
:1029B000E2F5610074F3E3F5610088F7F6F4610075
:1029C0008CF7F7F4000EF86E150EF76409D061006D
:1029D00068F7F5F40D0061006CF7F5F40C0002D017
:1029E00025EF1CF083EF05F06100D4F6D9F4610007
:1029F000D8F6DAF4610078F317F5610074F318F58E
:102A0000A80E196EFF0E1A6E000E1C6E020E1B6EC3
:102A100077EC3FF017501810D8A461D0020E610077
:102A2000D4F6D9F46100D8F6DAF4DE26000EDD2201
:102A3000B3C59DF5B4C59EF5DA0E05019F6F050E71
:102A4000A06F87EC36F09DC5E4F59EC5E5F5FD5118
:102A5000FE11D8B4E5BF83EF05F0E55104E1E405CC
:102A6000D8A083EF05F06100DCF6D9F46100E0F650
:102A7000DAF461007CF3B9F5020EDE2661007CF326
:102A8000BAF5000EDD226100E4F6D9F46100E8F643
:102A9000DAF4610078F3E2F5610074F3E3F56100C4
:102AA00088F7F6F461008CF7F7F4000EF86E150E57
:102AB000F76411D0610068F7F5F40D0061006CF760
:102AC000F5F40D00610070F7F5F40D00610074F786
:102AD000F5F40C0002D08AEF1BF083EF05F06100E3
:102AE000D4F6D9F46100D8F6DAF4610078F317F57A
:102AF000610074F318F5A70E196EFF0E1A6E000E22
:102B00001C6E030E1B6E77EC3FF017501810D8A404
:102B100071D0030E6100D4F6D9F46100D8F6DAF46E
:102B2000DE26000EDD22B3C59DF5B4C59EF5DA0E96
:102B300005019F6F050EA06F87EC36F09DC5E4F58B
:102B40009EC5E5F5FD51FE11D8B4E5BF83EF05F054
:102B5000E55104E1E405D8A083EF05F06100DCF65F
:102B6000D9F46100E0F6DAF461007CF3B9F5020E05
:102B7000DE2661007CF3BAF5000EDD226100E4F68A
:102B8000D9F46100E8F6DAF4610078F3E2F5610067
:102B900074F3E3F5610088F7F6F461008CF7F7F45D
:102BA000000EF86E150EF76421D0610068F7F5F499
:102BB0000D0061006CF7F5F40D00610070F7F5F49D
:102BC0000D00610074F7F5F40D00610078F7F5F47D
:102BD0000D0061007CF7F5F40D00610080F7F5F45D
:102BE0000D00610084F7F5F40C0002D0DBEF1AF061
:102BF00083EF05F06100D4F6D9F46100D8F6DAF479
:102C0000610078F317F5610074F318F5EC0E196E96
:102C1000FF0E1A6E000E1C6E020E1B6E77EC3FF05C
:102C200017501810D8A471D0020E6100D4F6D9F450
:102C30006100D8F6DAF4DE26000EDD22B3C59DF57C
:102C4000B4C59EF5DA0E05019F6F050EA06F87ECE7
:102C500036F09DC5E4F59EC5E5F5FD51FE11D8B4ED
:102C6000E5BF83EF05F0E55104E1E405D8A083EF6B
:102C700005F06100DCF6D9F46100E0F6DAF46100F9
:102C80007CF3B9F5020EDE2661007CF3BAF5000E86
:102C9000DD226100E4F6D9F46100E8F6DAF46100BF
:102CA00078F3E2F5610074F3E3F5610088F7F6F478
:102CB00061008CF7F7F4000EF86E150EF76421D062
:102CC000610068F7F5F40D0061006CF7F5F40D0094
:102CD000610070F7F5F40D00610074F7F5F40D0074
:102CE000610078F7F5F40D0061007CF7F5F40D0054
:102CF000610080F7F5F40D00610084F7F5F40C0035
:102D000002D0DBEF1AF083EF05F06100D4F6D9F4BE
:102D10006100D8F6DAF4610078F317F5610074F316
:102D200018F5EF0E196EFF0E1A6E000E1C6E020ED5
:102D30001B6E77EC3FF017501810D8A461D0020E2C
:102D40006100D4F6D9F46100D8F6DAF4DE26000E7C
:102D5000DD22B3C59DF5B4C59EF5DA0E05019F6F62
:102D6000050EA06F87EC36F09DC5E4F59EC5E5F530
:102D7000FD51FE11D8B4E5BF83EF05F0E55104E144
:102D8000E405D8A083EF05F06100DCF6D9F461001A
:102D9000E0F6DAF461007CF3B9F5020EDE2661009C
:102DA0007CF3BAF5000EDD226100E4F6D9F461008F
:102DB000E8F6DAF4610078F3E2F5610074F3E3F524
:102DC000610088F7F6F461008CF7F7F4000EF86EF6
:102DD000150EF76411D0610068F7F5F40D0061007D
:102DE0006CF7F5F40D00610070F7F5F40D0061006B
:102DF00074F7F5F40C0002D08AEF1BF083EF05F0B6
:102E00006100D4F6D9F46100D8F6DAF4610078F301
:102E100017F5610074F318F5F20E196EFF0E1A6EB5
:102E2000000E1C6E020E1B6E77EC3FF01750181050
:102E3000D8A459D0020E6100D4F6D9F46100D8F6B6
:102E4000DAF4DE26000EDD22B3C59DF5B4C59EF58D
:102E5000DA0E05019F6F050EA06F87EC36F09DC559
:102E6000E4F59EC5E5F5FD51FE11D8B4E5BF83EF4D
:102E700005F0E55104E1E405D8A083EF05F0610019
:102E8000DCF6D9F46100E0F6DAF461007CF3B9F520
:102E9000020EDE2661007CF3BAF5000EDD22610031
:102EA000E4F6D9F46100E8F6DAF4610078F3E2F5CB
:102EB000610074F3E3F5610088F7F6F461008CF7C4
:102EC000F7F4000EF86E150EF76409D0610068F78C
:102ED000F5F40D0061006CF7F5F40C0002D025EF5D
:102EE0001CF083EF05F06100D4F6D9F46100D8F648
:102EF000DAF4610078F317F5610074F318F5AB0E9E
:102F0000196EFF0E1A6E000E1C6E030E1B6E77EC10
:102F10003FF017501810D8B41AD06100D4F6D9F485
:102F20006100D8F6DAF4610078F317F5610074F304
:102F300018F57B0E196EFF0E1A6E000E1C6E030E36
:102F40001B6E77EC3FF017501810D8A45AD0030E20
:102F50006100D4F6D9F46100D8F6DAF4DE26000E6A
:102F6000DD22B3C59DF5B4C59EF5DA0E05019F6F50
:102F7000050EA06F86EC3AF09DC5E4F59EC5E5F51B
:102F8000FD51FE11D8B4E5BF83EF05F0E55104E132
:102F9000E405D8A083EF05F06100DCF6D9F4610008
:102FA000E0F6DAF461007CF3B9F5020EDE2661008A
:102FB0007CF3BAF5000EDD226100E4F6D9F461007D
:102FC000E8F6DAF4610078F3E2F5610074F3E3F512
:102FD000610088F7F6F461008CF7F7F4000EF86EE4
:102FE000150EF76405D0610068F7F5F40C0007D002
:102FF000F6C4E1F4F7C4E2F4610068F7E7F483EFA4
:1030000005F06100D4F6D9F46100D8F6DAF4610075
:1030100078F317F5610074F318F5AC0E196EFF0E16
:103020001A6E000E1C6E020E1B6E77EC3FF01750EE
:103030001810D8B41AD06100D4F6D9F46100D8F6CB
:10304000DAF4610078F317F5610074F318F57C0E7B
:10305000196EFF0E1A6E000E1C6E020E1B6E77ECC0
:103060003FF017501810D8A458D0020E6100D4F6C3
:10307000D9F46100D8F6DAF4DE26000EDD22B3C5FD
:103080009DF5B4C59EF5DA0E05019F6F050EA06F84
:1030900086EC3AF09DC5E4F59EC5E5F5FD51FE11BF
:1030A000D8B4E5BF83EF05F0E55104E1E405D8A00D
:1030B00083EF05F06100DCF6D9F46100E0F6DAF4A4
:1030C00061007CF3B9F5020EDE2661007CF3BAF5EF
:1030D000000EDD226100E4F6D9F46100E8F6DAF4CE
:1030E000610078F3E2F5610074F3E3F5610088F7BD
:1030F000F6F461008CF7F7F4000EF86E150EF76425
:1031000009D0610068F7F5F40D0061006CF7F5F483
:103110000C0001D09AD383EF05F06100D4F6D9F406
:103120006100D8F6DAF4DEC4F6F4DDC4F7F4080082
:10313000F550780AD8B40FD06100D4F6D9F4610004
:10314000D8F6DAF4DEC4F6F4DDC4F7F40800F5507E
:10315000580AD8A457D06100D4F6D9F46100D8F643
:10316000DAF4DE2A000EDD22B3C59DF5B4C59EF566
:10317000DA0E05019F6F050EA06F86EC3AF09DC533
:10318000E4F59EC5E5F5FD51FE11D8B4E5BF83EF2A
:1031900005F0E55104E1E405D8A083EF05F06100F6
:1031A000DCF6D9F46100E0F6DAF461007CF3B9F5FD
:1031B000020EDE2661007CF3BAF5000EDD2261000E
:1031C000E4F6D9F46100E8F6DAF4610078F3E2F5A8
:1031D000610074F3E3F5610088F7F6F461008CF7A1
:1031E000F7F4000EF86E150EF76409D0610068F769
:1031F000F5F40D0061006CF7F5F40C0001D025D357
:1032000083EF05F06100D4F6D9F46100D8F6DAF462
:10321000610078F317F5610074F318F5B00E196EBC
:10322000FF0E1A6E000E1C6E020E1B6E77EC3FF046
:1032300017501810D8B41AD06100D4F6D9F4610030
:10324000D8F6DAF4610078F317F5610074F318F535
:10325000800E196EFF0E1A6E000E1C6E020E1B6E93
:1032600077EC3FF017501810D8A460D0020E610020
:10327000D4F6D9F46100D8F6DAF4DE26000EDD22A9
:10328000B3C59DF5B4C59EF5DA0E05019F6F050E19
:10329000A06F86EC3AF09DC5E4F59EC5E5F5FD51BD
:1032A000FE11D8B4E5BF83EF05F0E55104E1E40574
:1032B000D8A083EF05F06100DCF6D9F46100E0F6F8
:1032C000DAF461007CF3B9F5020EDE2661007CF3CE
:1032D000BAF5000EDD226100E4F6D9F46100E8F6EB
:1032E000DAF4610078F3E2F5610074F3E3F561006C
:1032F00088F7F6F461008CF7F7F4000EF86E150EFF
:10330000F76411D0610068F7F5F40D0061006CF707
:10331000F5F40D00610070F7F5F40D00610074F72D
:10332000F5F40C0001D0F6D183EF05F06100D4F67E
:10333000D9F46100D8F6DAF4610078F317F561008A
:1033400074F318F5AF0E196EFF0E1A6E000E1C6E98
:10335000030E1B6E77EC3FF017501810D8B41AD03C
:103360006100D4F6D9F46100D8F6DAF4610078F39C
:1033700017F5610074F318F57F0E196EFF0E1A6EC3
:10338000000E1C6E030E1B6E77EC3FF017501810EA
:10339000D8A470D0030E6100D4F6D9F46100D8F639
:1033A000DAF4DE26000EDD22B3C59DF5B4C59EF528
:1033B000DA0E05019F6F050EA06F86EC3AF09DC5F1
:1033C000E4F59EC5E5F5FD51FE11D8B4E5BF83EFE8
:1033D00005F0E55104E1E405D8A083EF05F06100B4
:1033E000DCF6D9F46100E0F6DAF461007CF3B9F5BB
:1033F000020EDE2661007CF3BAF5000EDD226100CC
:10340000E4F6D9F46100E8F6DAF4610078F3E2F565
:10341000610074F3E3F5610088F7F6F461008CF75E
:10342000F7F4000EF86E150EF76421D0610068F70E
:10343000F5F40D0061006CF7F5F40D00610070F714
:10344000F5F40D00610074F7F5F40D00610078F7F4
:10345000F5F40D0061007CF7F5F40D00610080F7D4
:10346000F5F40D00610084F7F5F40C0001D0A3D051
:1034700083EF05F06100D4F6D9F46100D8F6DAF4F0
:10348000610078F317F5610074F318F5F50E196E05
:10349000FF0E1A6E000E1C6E020E1B6E77EC3FF0D4
:1034A00017501810D8B41AD06100D4F6D9F46100BE
:1034B000D8F6DAF4610078F317F5610074F318F5C3
:1034C000B30E196EFF0E1A6E000E1C6E020E1B6EEE
:1034D00077EC3FF017501810D8A48BD0020E610083
:1034E000D4F6D9F46100D8F6DAF4DE26000EDD2237
:1034F000B3C59DF5B4C59EF5DA0E05019F6F050EA7
:10350000A06F86EC3AF09DC5E4F59EC5E5F5FD514A
:10351000FE11D8B4E5BF83EF05F0E55104E1E40501
:10352000D8A083EF05F06100DCF6D9F46100E0F685
:10353000DAF461007CF3B9F5020EDE2661007CF35B
:10354000BAF5000EDD226100E4F6D9F46100E8F678
:10355000DAF4610078F3E2F5610074F3E3F56100F9
:1035600088F7F6F461008CF7F7F4000EF86E150E8C
:10357000F76421D0610068F7F5F40D0061006CF785
:10358000F5F40D00610070F7F5F40D00610074F7BB
:10359000F5F40D00610078F7F5F40D0061007CF79B
:1035A000F5F40D00610080F7F5F40D00610084F77B
:1035B000F5F40C001CD0F6C4E1F4F7C4E2F46100A9
:1035C00068F7E6F461006CF7E6F4610070F7E6F482
:1035D000610074F7E6F4610078F7E6F461007CF7C7
:1035E000E6F4610080F7E6F4610084F7E7F483EF26
:1035F00005F06100D4F6D9F46100D8F6DAF4610080
:1036000078F317F5610074F318F5F80E196EFF0ED4
:103610001A6E000E1C6E020E1B6E77EC3FF01750F8
:103620001810D8B41AD06100D4F6D9F46100D8F6D5
:10363000DAF4610078F317F5610074F318F5B60E4B
:10364000196EFF0E1A6E000E1C6E020E1B6E77ECCA
:103650003FF017501810D8A46FD0020E6100D4F6B6
:10366000D9F46100D8F6DAF4DE26000EDD22B3C507
:103670009DF5B4C59EF5DA0E05019F6F050EA06F8E
:1036800086EC3AF09DC5E4F59EC5E5F5FD51FE11C9
:10369000D8B4E5BF83EF05F0E55104E1E405D8A017
:1036A00083EF05F06100DCF6D9F46100E0F6DAF4AE
:1036B00061007CF3B9F5020EDE2661007CF3BAF5F9
:1036C000000EDD226100E4F6D9F46100E8F6DAF4D8
:1036D000610078F3E2F5610074F3E3F5610088F7C7
:1036E000F6F461008CF7F7F4000EF86E150EF7642F
:1036F00011D0610068F7F5F40D0061006CF7F5F486
:103700000D00610070F7F5F40D00610074F7F5F439
:103710000C0010D0F6C4E1F4F7C4E2F4610068F7DD
:10372000E6F461006CF7E6F4610070F7E6F461001E
:1037300074F7E7F483EF05F06100D4F6D9F4610083
:10374000D8F6DAF4610078F317F5610074F318F530
:10375000FB0E196EFF0E1A6E000E1C6E020E1B6E13
:1037600077EC3FF017501810D8B41AD06100D4F697
:10377000D9F46100D8F6DAF4610078F317F5610046
:1037800074F318F5B90E196EFF0E1A6E000E1C6E4A
:10379000020E1B6E77EC3FF017501810D8A461D0C2
:1037A000020E6100D4F6D9F46100D8F6DAF4DE2610
:1037B000000EDD22B3C59DF5B4C59EF5DA0E0501F8
:1037C0009F6F050EA06F86EC3AF09DC5E4F59EC58F
:1037D000E5F5FD51FE11D8B4E5BF83EF05F0E551E5
:1037E00004E1E405D8A083EF05F06100DCF6D9F42C
:1037F0006100E0F6DAF461007CF3B9F5020EDE2632
:1038000061007CF3BAF5000EDD226100E4F6D9F424
:103810006100E8F6DAF4610078F3E2F5610074F330
:10382000E3F5610088F7F6F461008CF7F7F4000E19
:10383000F86E150EF76409D0610068F7F5F40D0015
:1038400061006CF7F5F40C000AD0F6C4E1F4F7C49B
:10385000E2F4610068F7E6F461006CF7E7F483EFE7
:1038600005F06100D4F6D9F46100D8F6DAF4DEC4CC
:10387000F6F4DDC4F7F40800F550250AD8A411D0F9
:103880006100D4F6D9F46100D8F6DAF4DE2A000E2D
:10389000DD22334A342A000E0501B46F010EB36FE6
:1038A00012006100D4F6D9F46100D8F6DAF4DE2A09
:1038B000000EDD22F2EF0FF0B3C519F5B4C51AF50D
:1038C00089EC43F019C5C9F51AC5CAF56100D4F6EB
:1038D000D9F46100D8F6DAF4DEC4F6F4DDC4F7F406
:1038E0000800F5500501B96FBA6BC951B91911E15A
:1038F000CA51BA19D8A40DD06100D4F6D9F4610028
:10390000D8F6DAF4DE2A000EDD22334A342AF2EF4A
:103910000FF0C9C517F5CAC518F5B3C519F5B4C573
:103920001AF51AEC45F0FF0E0501B46FFE0EB36FE9
:10393000120062516311D8B40FD0610088F5D9F438
:1039400061008CF5DAF4610080F5DEF4610084F545
:10395000DDF402D0604B612B010E7A6F610080F5BF
:10396000D9F4610084F5DAF4200EDE18D8A402D070
:10397000010E01D0000E7F6F806B7F518011D8A4A3
:103980001FD0F70E646FFF0E656F610080F5D9F4EC
:10399000610084F5DAF4DF50666F66517F6F806BEB
:1039A0007FC567F580C568F5645167276551682351
:1039B000685104E1050E675DD8A002D0000E7A6F51
:1039C0007AC56AF56B6B6A516B11D8A4C3D7000E28
:1039D0007C6F2D0E7F198011D8A405D0010E7C6F4D
:1039E000604B612B05D02B0E7F198011D8B4F8D70E
:1039F000000E856F01D0852B85516025D96E000E94
:103A00006121DA6EDF50D8B426D085516025D96E99
:103A1000000E6121DA6EDF50646F290E8525F66E87
:103A2000F76AFF0EF7220800F5506419D8B4E3D7FF
:103A300085516025D96E000E6121DA6EDF50646F0A
:103A4000200E8525F66EF76AFF0EF7220800F55066
:103A50006419D8B4D0D7020E856527D0000E816FC7
:103A6000000E826F800E836F7F0E846F6251631130
:103A7000D8B44AEF23F0080E8519D8B402D0030E4B
:103A8000856F85516025646F000E6121656F61004F
:103A900088F5D9F461008CF5DAF4610090F5DEF474
:103AA000610094F5DDF44AEF23F0000E856F01D03C
:103AB000852B85516025D96E000E6121DA6EDF50AD
:103AC000D8B426D085516025D96E000E6121DA6EFA
:103AD000DF50646F770E8525F66EF76AFF0EF722CA
:103AE0000800F5506419D8B4E3D785516025D96E24
:103AF000000E6121DA6EDF50646F6F0E8525F66E61
:103B0000F76AFF0EF7220800F5506419D8B4D0D731
:103B1000030E8519D8A45BD0010E176EFF0E186E28
:103B20003DEC4AF017C581F518C582F519C583F536
:103B30001AC584F562516311D8B44AEF23F0855158
:103B40006027000E6123610080F5D9F4610084F5DF
:103B5000DAF4280EDE18D8A42CD0000E856F01D020
:103B6000852B85516025D96E000E6121DA6EDF50FC
:103B7000D8B40AD085516025D96E000E6121DA6E65
:103B8000290EDE18D8A4ECD785516025D96E000E19
:103B90006121DA6E290EDE18D8A40BD08551646F2E
:103BA000656B010E6427000E652364516027655123
:103BB0006123610088F5D9F461008CF5DAF46100C5
:103BC00080F5DEF4610084F5DDF44AEF23F0000EA9
:103BD000806F000E7F6F000E816F000E826F000EEF
:103BE000836F000E846F000E7E6F000E7D6F000EDF
:103BF000856F01D0852B85516025D96E000E61211E
:103C0000DA6E300EDE18D8B4F5D78551D8B4B7D2F5
:103C100085516025D96E000E6121DA6E780EDE18AE
:103C2000D8B40AD085516025D96E000E6121DA6EB4
:103C3000580EDE18D8A4A3D28551646F656B010EAF
:103C40006427000E65236451602765516123000ECF
:103C5000856F01D0852B85516025D96E000E6121BD
:103C6000DA6E300EDE18D8B4F5D7000E856F8551A8
:103C70006025D96E000E6121DA6E700EDE18D8B4A0
:103C800034D185516025D96E000E6121DA6E500E57
:103C9000DE18D8B42AD185516025D96E000E612175
:103CA000DA6E2E0EDE18D8A402D07C891DD1855183
:103CB0006025D96E000E6121DA6EDF50646F6451A9
:103CC000176E186AA6EC46F017501810D8B467D0D3
:103CD000000E7B6FD00E646FFF0E656F85516025FF
:103CE000D96E000E6121DA6EDF50666F676B64512A
:103CF000662765516723675106E10A0E665DD8B0F5
:103D000002D0010E01D0000E6C6F6D6B6C516D1105
:103D1000D8B409D085516025D96E000E6121DA6EC4
:103D2000DF50D00F0FD085516025D96E000E612174
:103D3000DA6EDF50646F64511D6E1E6A10EC48F03D
:103D40001D50C90F7B6F80BF06D0805121E1080E46
:103D50007F5DD8B01DD07F510708646FD89064375D
:103D6000D89064377BC565F5666B676B686B642BB1
:103D700005D0D8906537663767376837642FF9D72D
:103D800065518113665182136751831368518413FF
:103D90007F4B802B040E7D27000E7E2309D0000E62
:103DA000606F000E616F000E626F000E636F120095
:103DB000852B5DD785516025D96E000E6121DA6EA5
:103DC000700EDE18D8B493D085516025D96E000EE0
:103DD0006121DA6E500EDE18D8B489D08551602585
:103DE000D96E000E6121DA6E300EDE18D8A409D02B
:103DF0007F518011D8A405D0FC0E7D27FF0E7E23B5
:103E000073D085516025D96E000E6121DA6EDF50C6
:103E1000646F6451176E186AA6EC46F017501810BC
:103E2000D8B462D0000E7B6FD00E646FFF0E656F4A
:103E300085516025D96E000E6121DA6EDF50666F04
:103E4000676B6451662765516723675106E10A0E67
:103E5000665DD8B002D0010E01D0000E6E6F6F6BA0
:103E60006E516F11D8B409D085516025D96E000EFE
:103E70006121DA6EDF50D00F0FD085516025D96EE9
:103E8000000E6121DA6EDF50646F64511D6E1E6A90
:103E900010EC48F01D50C90F7B6F80BF06D08051D9
:103EA00021E1080E7F5DD8B01DD07F510708646FF7
:103EB000D8906437D89064377BC565F5666B676BBF
:103EC000686B642B05D0D8906537663767376837DD
:103ED000642FF9D76551811366518213675183139B
:103EE000685184137F4B802B852B7CB963D7855118
:103EF0006025D96E000E6121DA6E700EDE18D8B41E
:103F000013D085516025D96E000E6121DA6E500EF6
:103F1000DE18D8B409D0000E606F000E616F000E7D
:103F2000626F000E636F1200852B85516025D96E7C
:103F3000000E6121DA6E2B0EDE18D8B40BD085513D
:103F40006025D96E000E6121DA6E2D0EDE18D8A420
:103F500002D07C87852B85516027000E6123000EDF
:103F6000856F01D0852B85516025D96E000E6121AA
:103F7000DA6E300EDE18D8B4F5D7000E806F000E62
:103F80007F6F28D08551D8B40ED07FC517F580C576
:103F900018F5000E1A6E0A0E196EB2EC49F017C52C
:103FA0007FF518C580F5D00E0501646FFF0E656FB3
:103FB00085516025D96E000E6121DA6EDF50666F83
:103FC000676B645166276551672366517F27675188
:103FD0008023852BD00E646FFF0E656F85516025A1
:103FE000D96E000E6121DA6EDF50666F676B645127
:103FF000662765516723675106E10A0E665DD8B0F2
:1040000002D0010E01D0000E706F716B70517111F2
:10401000D8A4B8D78551D8A409D0000E606F000E7F
:10402000616F000E626F000E636F12007CA704D0F8
:104030007F6D801FD8B0802B7F517D2780517E23DC
:1040400062516311D8B412D085516025646F000E9F
:104050006121656F610088F5D9F461008CF5DAF4AF
:10406000610090F5DEF4610094F5DDF48151821178
:1040700083118411D8A409D0000E606F000E616F07
:10408000000E626F000E636F1200800E816511D00A
:10409000000E8127010E8223000E8323000E84234D
:1040A00008D0D89081378237833784377D07D8A0EE
:1040B0007E0784AFF6D77EAF12D0830E7D5DFF0EF4
:1040C0007E59D8B00CD0FF0E7E6F810E7D6F000E32
:1040D000816F000E826F000E836F000E846F810E61
:1040E0007D1903E17E29D8B408D0D8908137823772
:1040F000833784377D07D8A07E077EBF12D07E51DC
:1041000004E1800E7D5DD8A00CD0000E816F000E02
:10411000826F000E836F000E846F000E7E6F800E24
:104120007D6F090E646FD89084338333823381337B
:10413000642FF9D7FF0E8117FF0E82177F0E8317AA
:10414000000E84177F0E7D25646F000E7E21656F43
:10415000FF0E6415666F676B686B696B170ED890FE
:104160006637673768376937E82EF9D766518113A4
:104170006751821368518313695184138BD27CB9C0
:104180000CD0610080F5D9F4610084F5DAF42E0ECC
:10419000DE18D8A402D07C895DD0D00E646FFF0EEB
:1041A000656F610080F5D9F4610084F5DAF4DF50C1
:1041B000666F676B6451662765516723675106E137
:1041C0000A0E665DD8B002D0010E01D0000E726FEB
:1041D000736B72517311D8B440D07C83090E7F1970
:1041E0008011D8B433D07CA903D07D07D8A07E0736
:1041F0007F4B802B81C517F582C518F583C519F54E
:1042000084C51AF50A0E1B6E000E1C6E000E1D6E84
:10421000000E1E6ED4EC46F017C581F518C582F568
:1042200019C583F51AC584F5610080F5D9F46100DC
:1042300084F5DAF4DF500501646FD00E6427645111
:104240008127000E82238323842304D07CB902D0EB
:104250007D4B7E2B604B612B92D7000E806F000E42
:104260007F6F610080F5D9F4610084F5DAF4650EA2
:10427000DE18D8B40AD0610080F5D9F4610084F565
:10428000DAF4450EDE18D8A4D1D0604B612B610062
:1042900080F5D9F4610084F5DAF42D0EDE18D8A487
:1042A00002D07C870AD0610080F5D9F4610084F5E2
:1042B000DAF42B0EDE18D8A402D0604B612B61001B
:1042C00080F5D9F4610084F5DAF4300EDE18D8B444
:1042D000F4D7D00E646FFF0E656F610080F5D9F4DE
:1042E000610084F5DAF4DF50666F676B645166270E
:1042F00065516723675106E10A0E665DD8B002D0AA
:10430000010E01D0000E746F756B74517511D8B425
:1043100087D0610080F5D9F4610084F5DAF4DF50CC
:10432000646FD00E642764517F6F806B604B612B8C
:10433000D00E646FFF0E656F610080F5D9F46100E7
:1043400084F5DAF4DF50666F676B64516627655158
:104350006723675106E10A0E665DD8B002D0010EF0
:1043600001D0000E766F776B76517711D8B458D0A4
:10437000610080F5D9F4610084F5DAF4DF50646FF0
:10438000D00E64277FC517F580C518F5000E1A6E8C
:104390000A0E196EB2EC49F00501645117247F6FC3
:1043A000000E1820806F604B612BD00E646FFF0EE3
:1043B000656F610080F5D9F4610084F5DAF4DF50AF
:1043C000666F676B6451662765516723675106E125
:1043D0000A0E665DD8B002D0010E01D0000E786FD3
:1043E000796B78517911D8B41BD0610080F5D9F47C
:1043F000610084F5DAF4DF50646FD00E64277FC566
:1044000017F580C518F5000E1A6E0A0E196EB2EC7B
:1044100049F00501645117247F6F000E1820806F4A
:104420007CA704D07F6D801FD8B0802B7F517D2763
:1044300080517E2362516311D8A47CA30CD061000B
:1044400088F5D9F461008CF5DAF4610080F5DEF4CA
:10445000610084F5DDF481C517F582C518F583C5C3
:1044600019F584C51AF5000E34EC3DF017C581F539
:1044700018C582F519C583F51AC584F581C517F5E8
:1044800082C518F583C519F584C51AF5000E1B6E93
:10449000000E1C6E000E1D6E000E1E6E44EC43F0EE
:1044A000D8A00AD0000E0501606F000E616F000EEB
:1044B000626F000E636F120005017EAF75D07D6DD7
:1044C0007E1FD8B07E2B1ED081C517F582C518F58A
:1044D00083C519F584C51AF5F90E1B6E020E1C6E04
:1044E000150E1D6E500E1E6E2EEC31F017C581F5A7
:1044F00018C582F519C583F51AC584F5F60E7D2712
:10450000FF0E7E237EBF24D07E51DEE10A0E7D5D4C
:10451000D8A01ED0D9D781C517F582C518F583C597
:1045200019F584C51AF5000E1B6E000E1C6E200EC8
:104530001D6E410E1E6E2EEC31F017C581F518C5AB
:1045400082F519C583F51AC584F57D07D8A07E07C5
:104550007D517E11D8A4DFD781C517F582C518F526
:1045600083C519F584C51AF5000E1B6E000E1C6E6E
:10457000800E1D6E000E1E6EFAEC3FF0D8B08AD091
:104580007CA109D0000E606F000E616F800E626F1B
:10459000800E636F1200000E606F000E616F800E60
:1045A000626F000E636F12007EBF74D07E5122E1F5
:1045B0007D05D8B01FD06ED081C517F582C518F51E
:1045C00083C519F584C51AF5F90E1B6E020E1C6E13
:1045D000150E1D6E500E1E6E86EC2FF017C581F560
:1045E00018C582F519C583F51AC584F5F60E7D2721
:1045F000FF0E7E237E51E0E10A0E7D5DD8A01ED025
:10460000DBD781C517F582C518F583C519F584C5B3
:104610001AF5000E1B6E000E1C6E200E1D6E410E54
:104620001E6E86EC2FF017C581F518C582F519C5E9
:1046300083F51AC584F57D07D8A07E077D517E11CC
:10464000D8A4DFD7FF0E176EFF0E186E7F0E196EFF
:104650007F0E1A6E81C51BF582C51CF583C51DF53D
:1046600084C51EF5FAEC3FF0D8B014D07CA109D077
:10467000000E606F000E616F800E626F800E636FC0
:104680001200000E606F000E616F800E626F000EF0
:10469000636F12007CA112D081C517F582C518F591
:1046A00083C519F584C51AF570EC49F017C581F575
:1046B00018C582F519C583F51AC584F581C560F55D
:1046C00082C561F583C562F584C563F5120061009A
:1046D00034F6D9F4610038F6DAF4DEC4F6F4DEC458
:1046E000F7F4150EF76403D00800F55005D0F6C4B2
:1046F000E1F4F7C4E2F4E750250AD8A4A5EF28F0C6
:10470000610034F6D9F4610038F6DAF4DE2A000EDE
:10471000DD22000E3C6E000E3B6E3BC53FF53CC5F6
:1047200040F53D683E68000E0501A26F000E16D0F0
:104730003F80610034F6D9F4610038F6DAF4DE2AFD
:10474000000EDD223AD03F82F4D73F84F2D73F8675
:10475000F0D73F88EED7000EA26F010EA16F2DD0CB
:10476000610034F6D9F4610038F6DAF4DEC4F6F408
:10477000DEC4F7F4150EF76403D00800F55005D039
:10478000F6C4E1F4F7C4E2F4E7500501916F926BCF
:104790009251000AD8A4DFD79151200AD8B4D7D7B4
:1047A000030AD8B4D6D7080AD8B4CFD7060AD8B4E3
:1047B000BFD71D0AD8B4C7D7CED7A151A211D8B43C
:1047C000CFD73FB03F92610034F6D9F4610038F69C
:1047D000DAF4DEC4F6F4DEC4F7F4150EF76403D0A1
:1047E0000800F55005D0F6C4E1F4F7C4E2F4E75050
:1047F0002A0AD8A42DD0610034F6D9F4610038F625
:10480000DAF4DE2A000EDD2261003CF6D9F4610004
:1048100040F6DAF461007CF391F5020EDE266100C9
:104820007CF392F5000EDD22610044F6D9F46100BC
:1048300048F6DAF4610078F33BF5610074F33CF577
:104840003CAE52D03F803B6C3C1ED8B03C2A4CD092
:10485000610034F6D9F4610038F6DAF4610078F3D7
:104860001EF5610074F31FF5A4EC35F01EC53BF591
:104870001FC53CF509D0610034F6D9F4610038F663
:10488000DAF4DE2A000EDD22D00E0501916FFF0E54
:10489000926F610034F6D9F4610038F6DAF4DEC4C0
:1048A000F6F4DEC4F7F4150EF76403D00800F550F3
:1048B00005D0F6C4E1F4F7C4E2F4E7500501936FC4
:1048C000946B9151932792519423945106E10A0ECF
:1048D000935DD8B002D0010E01D0000EA36FA46B7F
:1048E000A351A411D8A4C7D7610034F6D9F461004C
:1048F00038F6DAF4DEC4F6F4DEC4F7F4150EF76425
:1049000003D00800F55005D0F6C4E1F4F7C4E2F492
:10491000E750640AD8B418D0610034F6D9F46100C5
:1049200038F6DAF4DEC4F6F4DEC4F7F4150EF764F4
:1049300003D00800F55005D0F6C4E1F4F7C4E2F462
:10494000E750690AD8A44AD0610034F6D9F461006E
:1049500038F6DAF4DE2A000EDD2261003CF6D9F4E6
:10496000610040F6DAF461007CF391F5020EDE2678
:1049700061007CF392F5000EDD22610044F6D9F46B
:10498000610048F6DAF4610078F3A5F5610074F38C
:10499000A6F50501000EA6BFFF0EA76FA86FA96FB1
:1049A000AA6FAB6FAC6F8BC564F58CC565F5A5C5FB
:1049B00066F5A6C567F5A7C568F5A8C569F5A9C5D3
:1049C0006AF5AAC56BF5ABC56CF5ACC56DF572ECB7
:1049D00032F064C58BF565C58CF51200610034F6C4
:1049E000D9F4610038F6DAF4610078F317F5610064
:1049F00074F318F5880E196EFF0E1A6E000E1C6EF9
:104A0000020E1B6E77EC3FF017501810D8B41AD076
:104A1000610034F6D9F4610038F6DAF4610078F315
:104A200017F5610074F318F5900E196EFF0E1A6EEB
:104A3000000E1C6E020E1B6E77EC3FF01750181024
:104A4000D8A44FD0020E610034F6D9F4610038F6D4
:104A5000DAF4DE26000EDD2261003CF6D9F46100B6
:104A600040F6DAF461007CF391F5040EDE26610075
:104A70007CF392F5000EDD22610044F6D9F461006A
:104A800048F6DAF4610078F393F5610078F394F571
:104A9000610078F395F5610078F396F593C597F585
:104AA00094C598F595C599F596C59AF505019B6B42
:104AB0009ABF9B699BC59CF59BC59DF59BC59EF5C3
:104AC00097C5A5F598C5A6F599C5A7F59AC5A8F502
:104AD0009BC5A9F59CC5AAF59DC5ABF59EC5ACF5D2
:104AE00062D7610034F6D9F4610038F6DAF4DEC436
:104AF000F6F4DEC4F7F4150EF76403D00800F550A1
:104B000005D0F6C4E1F4F7C4E2F4E7506E0AD8A485
:104B100049D0610034F6D9F4610038F6DAF4DE2ABF
:104B2000000EDD2261003CF6D9F4610040F6DAF4B3
:104B300061007CF391F5020EDE2661007CF392F5B4
:104B4000000EDD22610044F6D9F4610048F6DAF483
:104B5000610078F3ADF5610074F3AEF56100B4F671
:104B6000F6F46100B8F6F7F4000EF86E150EF7646F
:104B700009D06100E4F4F5F40D006100E8F4F5F407
:104B80000C000AD0F6C4E1F4F7C4E2F46100E4F4E6
:104B9000E6F46100E8F4E7F4000E05018C6F000E06
:104BA0008B6F1200610034F6D9F4610038F6DAF444
:104BB000610078F317F5610074F318F5980E196E1B
:104BC000FF0E1A6E000E1C6E020E1B6E77EC3FF08D
:104BD00017501810D8A45DD0020E610034F6D9F435
:104BE000610038F6DAF4DE26000EDD2261003CF6C4
:104BF000D9F4610040F6DAF461007CF391F5020E1D
:104C0000DE2661007CF392F5000EDD22610044F6A1
:104C1000D9F4610048F6DAF4610078F3ADF561008B
:104C200074F3AEF539C591F53AC592F5000E05015C
:104C300092BFFF0E936F946F6100B4F6F6F46100BB
:104C4000B8F6F7F4000EF86E150EF76411D0610097
:104C500044F6F5F40D00610048F6F5F40D0061002E
:104C60004CF6F5F40D00610050F6F5F40C0010D090
:104C7000F6C4E1F4F7C4E2F4610044F6E6F461003E
:104C800048F6E6F461004CF6E6F4610050F6E7F40D
:104C900083D7610034F6D9F4610038F6DAF4DEC463
:104CA000F6F4DEC4F7F4150EF76403D00800F550EF
:104CB00005D0F6C4E1F4F7C4E2F4E750730AD8A4CF
:104CC00034D0610034F6D9F4610038F6DAF4DE2A23
:104CD000000EDD2261003CF6D9F4610040F6DAF402
:104CE00061007CF391F5020EDE2661007CF392F503
:104CF000000EDD22610044F6D9F4610048F6DAF4D2
:104D0000610078F39FF5610074F3A0F58BC522F57F
:104D10008CC523F59FC524F5A0C525F5E9EC3BF02E
:104D200022C58BF523C58CF51200610034F6D9F449
:104D3000610038F6DAF4DEC4F6F4DEC4F7F4150EDA
:104D4000F76403D00800F55005D0F6C4E1F4F7C4C9
:104D5000E2F4E750750AD8A44BD0610034F6D9F4D8
:104D6000610038F6DAF4DE2A000EDD2261003CF63E
:104D7000D9F4610040F6DAF461007CF391F5020E9B
:104D8000DE2661007CF392F5000EDD22610044F620
:104D9000D9F4610048F6DAF4610078F393F5610024
:104DA00074F394F593C5B0F594C5B1F50501B26BF4
:104DB000B36BB46BB56BB66BB76B8BC564F58CC559
:104DC00065F5B0C566F5B1C567F5B2C568F5B3C59B
:104DD00069F5B4C56AF5B5C56BF5B6C56CF5B7C56B
:104DE0006DF537EC38F064C58BF565C58CF51200B0
:104DF000610034F6D9F4610038F6DAF4610078F332
:104E000017F5610074F318F5A80E196EFF0E1A6EEF
:104E1000000E1C6E020E1B6E77EC3FF01750181040
:104E2000D8A436D0020E610034F6D9F4610038F609
:104E3000DAF4DE26000EDD2261003CF6D9F46100D2
:104E400040F6DAF461007CF391F5040EDE26610091
:104E50007CF392F5000EDD22610044F6D9F4610086
:104E600048F6DAF4610078F393F5610078F394F58D
:104E7000610078F395F5610078F396F5050193519B
:104E8000B06F9451B16F9551B26F9651B36F91D786
:104E9000610034F6D9F4610038F6DAF4DEC4F6F4D1
:104EA000DEC4F7F4150EF76403D00800F55005D002
:104EB000F6C4E1F4F7C4E2F4E750780AD8B418D0A5
:104EC000610034F6D9F4610038F6DAF4DEC4F6F4A1
:104ED000DEC4F7F4150EF76403D00800F55005D0D2
:104EE000F6C4E1F4F7C4E2F4E750580AD8A463D05A
:104EF000610034F6D9F4610038F6DAF4DEC4F6F471
:104F0000DEC4F7F4150EF76403D00800F55005D0A1
:104F1000F6C4E1F4F7C4E2F4E7500501AF6F6100B5
:104F200034F6D9F4610038F6DAF4DE2A000EDD2218
:104F300061003CF6D9F4610040F6DAF461007CF3DC
:104F400091F5020EDE2661007CF392F5000EDD2263
:104F5000610044F6D9F4610048F6DAF4610078F3B0
:104F600093F5610074F394F593C5B0F594C5B1F56C
:104F7000B26BB36BB46BB56BB66BB76B8BC564F5CB
:104F80008CC565F5B0C566F5B1C567F5B2C568F500
:104F9000B3C569F5B4C56AF5B5C56BF5B6C56CF5AD
:104FA000B7C56DF5AFC56EF595EC33F064C58BF5FF
:104FB00065C58CF51200610034F6D9F4610038F64D
:104FC000DAF4610078F317F5610074F318F5B00EA8
:104FD000196EFF0E1A6E000E1C6E020E1B6E77EC21
:104FE0003FF017501810D8B41AD0610034F6D9F435
:104FF000610038F6DAF4610078F317F5610074F3B4
:1050000018F5800E196EFF0E1A6E000E1C6E020E41
:105010001B6E77EC3FF017501810D8A45BD06100DE
:1050200034F6D9F4610038F6DAF4610078F391F5DA
:10503000610074F392F5010E05019127000E922391
:10504000610044F6F6F4610048F6F7F4000EF86EDD
:10505000150EF76403D00800F55005D0F6C4E1F44E
:10506000F7C4E2F4E7500501AF6F020E610034F6B9
:10507000D9F4610038F6DAF4DE26000EDD22610094
:105080003CF6D9F4610040F6DAF461007CF391F566
:10509000040EDE2661007CF392F5000EDD22610035
:1050A00044F6D9F4610048F6DAF4610078F393F538
:1050B000610078F394F5610078F395F5610078F379
:1050C00096F59351B06F9451B16F9551B26F96515F
:1050D000B36F50D7610034F6D9F4610038F6DAF4D2
:1050E000DEC4F6F4DEC4F7F4150EF76403D008004E
:1050F000F55005D0F6C4E1F4F7C4E2F4E750250A10
:10510000D8A419D0610034F6D9F4610038F6DAF485
:10511000DE2A000EDD22000E1A6E250E196E8BC5DA
:105120001BF58CC51CF579EC41F0000E05018C6F68
:10513000010E8B6F1200610034F6D9F4610038F66D
:10514000DAF4DE2A000EDD2227D5610034F6D9F428
:10515000610038F6DAF4DEC4F6F4DEC4F7F4150EB6
:10516000F76403D00800F55005D0F6C4E1F4F7C4A5
:10517000E2F4E7500501916F9151196E1A6A8BC5DF
:105180001BF58CC51CF579EC41F0610034F6D9F4BF
:10519000610038F6DAF4DE2A000EDD22C6D7000EF2
:1051A000E76F000EE66F000EE36F000EE26F000E79
:1051B000E56F000EE46F000EDF6F830E226E060EA9
:1051C000236E540E246EFF0E256E1FEC42F022C596
:1051D000E0F623C5E1F60601E051E111D8B435D07F
:1051E000530E0501BE6F060EBF6F810EC06FFE0E1F
:1051F000C16F29C6C2F5C36B2AC6C4F5C56B2BC6E1
:10520000C6F5C76B2CC6C8F5C96B40C6CAF541C602
:10521000CBF544C6CCF545C6CDF506015151040D7C
:10522000000EF324D96E060EF420DA6E610078F3D6
:10523000CEF5610078F3CFF5610078F3D0F5610029
:1052400078F3D1F529EC47F05AD2830E226E060E80
:10525000236E690E246EFF0E256E1FEC42F022C5F0
:10526000E0F623C5E1F60601E051E111D8B4C3D060
:1052700045A302D0FA0E42D2050EE0250501F06FDB
:10528000000E0601E1210501F16FD40EF26FFE0E52
:10529000F36FE60EF46F060EF56FE20EF66F060E74
:1052A000F76FE40EF86F060EF96FEBEC47F0030EA4
:1052B000F019F111D8A441D00601E651E711D8A4A4
:1052C00002D045911CD2E75104E1050EE65DD8A05D
:1052D00002D0DF6914D2E6C651F6E3510EE1650E45
:1052E000E25DD8B00AD02D0EE625D96E060EE72174
:1052F000DA6E610088FBDFF402D0FE0EFFD1E5BF5D
:10530000FCD7E55103E1E405D8A0F7D7E5BF06D007
:10531000D10EE45D070EE559D8B0EFD7D890E63549
:10532000D96EE735DA6E140ED926060EDA22610040
:1053300090FBDEF4610094FBDDF4530E0501BE6FBB
:10534000060EBF6FCF0EC06FFE0EC16FE6C6C2F570
:10535000E7C6C3F52D0E0601E625D96E060EE72138
:10536000DA6EDF500501FA6FFA51C46FC56BD89041
:105370000601E635D96EE735DA6E140ED926060E2B
:10538000DA22610078F3C6F5610074F3C7F529EC01
:1053900047F0060144510F0B0501FA6FE6C6FBF515
:1053A000FF0EFB27010EFC6FFB2B02D0D890FC37C1
:1053B000FB2FFCD70501FC51FA150009D8B418D011
:1053C000E6C6FAF5FF0EFA27010EFB6FFA2B02D0A4
:1053D000D890FB37FA2FFCD70501FB3B060144515F
:1053E0000501FB190F0BFB190601446F458187D19D
:1053F000FB0E060183D1830E226E060E236E630E12
:10540000246EFF0E256E1FEC42F022C5E0F623C588
:10541000E1F60601E051E111D8B483D0050EE02594
:105420000501F06F000E0601E1210501F16FC80EC4
:10543000F26FFE0EF36FE60EF46F060EF56FE40EDC
:10544000F66F060EF76FEBEC47F0020EF019F11154
:10545000D8A430D00601E651E711D8A403D0F00E4D
:1054600044174DD1E75105E1050EE65DD8B031D7BF
:1054700001D02FD7E6C651F6E5BF3FD7E55103E18E
:10548000E405D8A03AD7E5BF06D0E90EE45D030EE7
:10549000E559D8B032D7D890E635D96EE735DA6E0F
:1054A000140ED926060EDA22610090FBDEF46100AC
:1054B00094FBDDF4530E0501BE6F060EBF6FEB0EBD
:1054C000C06FFE0EC16FE6C6C2F5E7C6C3F5D89041
:1054D0000601E635D96EE735DA6E140ED926060ECA
:1054E000DA22610078F3C4F5610074F3C5F529ECA4
:1054F00047F0E6C6FAF5FF0EFA27010EFB6FFA2B0E
:1055000002D0D890FB37FA2FFCD70501FB3B0601F0
:1055100044510501FB190F0BFB190601446F45832C
:10552000EED0830E226E060E236E3B0E246EFF0E0F
:10553000256E1FEC42F022C5E0F623C5E1F6060118
:10554000E051E111D8B410D0530E0501BE6F060E24
:10555000BF6FDE0EC06FFE0EC16F5C0EC26FFF0E1E
:10556000C36F29EC47F0CBD0830E226E060E236E5C
:105570004C0E246EFF0E256E1FEC42F022C5E0F6A5
:1055800023C5E1F60601E051E111D8B418D0530E5D
:105590000501BE6F060EBF6FBB0EC06FFE0EC16F62
:1055A0002EC6C2F5C36B2FC6C4F5C56B30C6C6F593
:1055B000C76B31C6C8F5C96B29EC47F0A0D0830E84
:1055C000226E060E236E440E246EFF0E256E1FEC17
:1055D00042F022C5E0F623C5E1F60601E051E111F3
:1055E000D8B41CD0530E0501BE6F060EBF6FA70EB8
:1055F000C06FFE0EC16F16C6C2F517C6C3F518C63A
:10560000C4F519C6C5F51AC6C6F51BC6C7F51CC62E
:10561000C8F51DC6C9F529EC47F071D0830E226E7E
:10562000060E236E320E246EFF0E256E1FEC42F026
:1056300022C5E0F623C5E1F60601E051E111D8B438
:1056400012D0000E396F000E386F530E0501BE6F79
:10565000060EBF6F020EC06FFF0EC16F29EC47F040
:10566000060145874CD0830E226E060E236E160E61
:10567000246EFF0E256E1FEC42F022C5E0F623C516
:10568000E1F60601E051E111D8B437D0D69E000E04
:105690000001436F000E446F380E456F466941515B
:1056A000F80B0309416F550E426FAA0E426F4081FD
:1056B000000E0601DD6F000140A10ED0060E0501AF
:1056C000FA6F300EE82EFED7FA2FFCD700F0060155
:1056D000DD2B130EDD65EFD7F80E00014117530ED9
:1056E0000501BE6F060EBF6FF70EC06FFE0EC16FD5
:1056F00029EC47F00601458502D0FC0EDF6F06015C
:10570000DF51D8B412D0530E0501BE6F060EBF6F25
:105710000C0EC06FFF0EC16F0601DF510501C26F95
:10572000C36BC2BFC30729EC47F0530E0501BE6F20
:10573000060EBF6F18EC4AF0000E0601526F000E05
:10574000DE6F830EDE25D96EDA6A060EDA22000ECF
:10575000DF6EDE2B2F0EDE65F4D7000E496E02D011
:105760000201A151B7B0FCD7AC80120021EE8AF142
:10577000070EDE6AE806FDE260C592F561C593F5A5
:1057800092519311D8B4C8D1610048F6D9F46100A0
:105790004CF6DAF4DF50D8B4BFD102D0924B932B41
:1057A000610048F6D9F461004CF6DAF4DF50946FEA
:1057B000010E7E6F200E9419D8B413D0F70E686FC7
:1057C000FF0E696F94516A6F6B6B68516A2769515C
:1057D0006B236B5104E1050E6A5DD8A002D0000E68
:1057E0007E6F7EC578F5796B78517911D8A4D6D7BC
:1057F000000E886F000E7F6F000E896F2D0E9419BA
:10580000D8A40DD0010E886F924B932B610048F6FF
:10581000D9F461004CF6DAF4DF50946F04D02B0E0B
:105820009419D8B4F1D7300E9419D8A434D0924B2F
:10583000932B610048F6D9F461004CF6DAF4DF509E
:10584000946F64516511D8B405D0100E64196511B8
:10585000D8A417D0780E9419D8B404D0580E94193F
:10586000D8A40FD0000E656F100E646F924B932B6F
:10587000610048F6D9F461004CF6DAF4DF50946F19
:105880000AD0010E7F6F64516511D8A404D0000EB8
:10589000656F080E646F64516511D8A404D0000EC2
:1058A000656F0A0E646F6651D8B424D08851D8A4AD
:1058B00010D0FF0E806FFF0E816FFF0E826FFF0E04
:1058C000836FFF0E846FFF0E856FFF0E866F7F0E56
:1058D0000FD0000E806F000E816F000E826F000EE1
:1058E000836F000E846F000E856F000E866F800E32
:1058F000876F08D080698169826983698469856955
:10590000866987698AC570F58BC571F58CC572F596
:105910008DC573F58EC574F58FC575F590C576F593
:1059200091C577F59F0E686FFF0E696F94516A6F8E
:105930006B6B200E6A13000E6B1368516A27695156
:105940006B236B5106E11A0E6A5DD8B002D0010ECE
:1059500001D0000E7A6F7B6B7A517B11D8B409D0DD
:1059600094C51DF51E6A10EC48F01D50C90F946FC8
:105970001CD0D00E686FFF0E696F94516A6F6B6B0D
:1059800068516A2769516B236B5106E10A0E6A5D03
:10599000D8B002D0010E01D0000E7C6F7D6B7C511F
:1059A0007D11D8B4A3D0300E945F9451686F696BA9
:1059B0006451685D6951800A6A6F6551800A6A594D
:1059C000D8B094D08951D8A484D064C517F565C5E2
:1059D00018F5000E18BEFF0E196E1A6E1B6E1C6EA7
:1059E0001D6E1E6E8AC51FF58BC520F58CC521F571
:1059F0008DC522F58EC523F58FC524F590C525F5F7
:105A000091C526F5FFEC42F017C568F518C569F594
:105A100019C56AF51AC56BF51BC56CF51CC56DF586
:105A20001DC56EF51EC56FF5945168258A6F000E71
:105A300069218B6F000E6A218C6F000E6B218D6FB8
:105A4000000E6C218E6F000E6D218F6F000E6E2187
:105A5000906F000E6F21916F70518A5D71518B595B
:105A600072518C5973518D5974518E5975518F598A
:105A70007651905977519159D8A015D06651D8B424
:105A800028D08A51805D8B5181598C5182598D511A
:105A900083598E5184598F5185599051865991510E
:105AA0008759D8B016D080C58AF581C58BF582C5D7
:105AB0008CF583C58DF584C58EF585C58FF586C5B6
:105AC00090F587C591F5000E386E220E376E010EE7
:105AD000896F924B932B610048F6D9F461004CF624
:105AE000DAF4DF50946F010E7F6F0CD78951D8A480
:105AF00013D08851D8B410D0911F901F8F1F8E1FC4
:105B00008D1F8C1F8B1F8A6D000E8B238C238D2382
:105B10008E238F239023912362516311D8B413D025
:105B20007F51D8A404D060C592F561C593F561009A
:105B300088F5D9F461008CF5DAF4610048F6DEF4FA
:105B400061004CF6DDF48AC560F58BC561F58CC546
:105B500062F58DC563F58EC564F58FC565F590C595
:105B600066F591C567F51200D69E58EC45F00F0E0C
:105B700006014413C9EC40F030C548F631C549F67A
:105B800006015251D8B4B2D1CFEC28F0AFD1280ED3
:105B90005125D96EDA6A060EDA22DF50E86F2D0E33
:105BA0005125D96EDA6A060EDA22DF50E96FE85124
:105BB000E95DF06FF051800A7F0FD8A003D0010E8D
:105BC000506F0BD0F0AF02D0506907D0000E506F6D
:105BD00045910F0E4417000E4E6F5151FFEC46F0E9
:105BE0000009D8B403D0000E4E6F459150C617F58A
:105BF00051510FEC39F006013A51425DE86F3B51CB
:105C00004359E96FE95104E1650EE85DD8A0B2D7C8
:105C1000280E5125D96EDA6A060EDA225051DF2697
:105C200042C63AF643C63BF6A5D7BE94000E506F67
:105C30005151D8B403D0040E516506D045930F0ED0
:105C40004417000E4E6F3BD05151FFEC46F0000957
:105C5000D8B42FD0280E5125D96EDA6A060EDA2272
:105C6000000EDF6E5151040D000EF324D96E060EA6
:105C7000F420DA6EDE6ADE6ADE6ADD6A000E4E6FDE
:105C8000459351C6E8F6FF0EE827010EE96FE82BB1
:105C900002D0D890E937E82FFCD7060144510F0B0A
:105CA000EA6FE951EA134451EA19F00BEA19446F1B
:105CB00006D0506950C617F551510FEC39F0060166
:105CC0003A51425DE86F3B514359E96FE95104E1B4
:105CD000650EE85DD8A01DD0280E5125D96EDA6A70
:105CE000060EDA22DF50D8B408D0280E5125D96E1E
:105CF000DA6A060EDA22DF0608D0280E5125D96EA0
:105D0000DA6A060EDA22630EDF6E42C63AF643C640
:105D10003BF6EE51425DE86FEF514359E96FE90EF2
:105D2000E85D030EE959D8A025D742C6EEF643C672
:105D3000EFF6EC4BED2BED5104E1790EEC5DD8A0C4
:105D400019D7000E4E6F459315D7BE84000E020181
